{
	"data": {
		"bytecode": {
			"linkReferences": {},
			"object": "60806040523480156200001157600080fd5b5060405162005f1638038062005f168339818101604052810190620000379190620002cd565b856200006a7fa49807205ce4d355092ef5a8a18f56e8913cf4a201fbe287825b095693c2177582620000dc60201b60201c565b5084600d60006101000a81548173ffffffffffffffffffffffffffffffffffffffff021916908373ffffffffffffffffffffffffffffffffffffffff160217905550836001600001819055508260018001819055508160016002018190555080600a8190555050505050505062000369565b620000ee8282620000f260201b60201c565b5050565b6200010482826200017960201b60201c565b6200017557600160008084815260200190815260200160002060000160008373ffffffffffffffffffffffffffffffffffffffff1673ffffffffffffffffffffffffffffffffffffffff16815260200190815260200160002060006101000a81548160ff0219169083151502179055505b5050565b600080600084815260200190815260200160002060000160008373ffffffffffffffffffffffffffffffffffffffff1673ffffffffffffffffffffffffffffffffffffffff16815260200190815260200160002060009054906101000a900460ff16905092915050565b600080fd5b600073ffffffffffffffffffffffffffffffffffffffff82169050919050565b60006200021582620001e8565b9050919050565b620002278162000208565b81146200023357600080fd5b50565b60008151905062000247816200021c565b92915050565b60006200025a8262000208565b9050919050565b6200026c816200024d565b81146200027857600080fd5b50565b6000815190506200028c8162000261565b92915050565b6000819050919050565b620002a78162000292565b8114620002b357600080fd5b50565b600081519050620002c7816200029c565b92915050565b60008060008060008060c08789031215620002ed57620002ec620001e3565b5b6000620002fd89828a0162000236565b96505060206200031089828a016200027b565b95505060406200032389828a01620002b6565b94505060606200033689828a01620002b6565b93505060806200034989828a01620002b6565b92505060a06200035c89828a01620002b6565b9150509295509295509295565b615b9d80620003796000396000f3fe6080604052600436106101e35760003560e01c806391d1485411610102578063cef6bcea11610095578063e5fcd6b811610064578063e5fcd6b814610784578063f406517d146107ad578063f4912450146107da578063f82dc0ec14610817576101e3565b8063cef6bcea146106dc578063d02982cf14610705578063d547741f14610730578063da35c66414610759576101e3565b8063b22e8569116100d1578063b22e8569146105f6578063b4e9134c14610639578063bfbd58fc14610676578063c236a6d1146106b3576101e3565b806391d148541461053a57806395f4bae714610577578063a217fddf146105a0578063aff5bfd8146105cb576101e3565b806336568abe1161017a5780637bb58b8c116101495780637bb58b8c146104805780637ff9b596146104a95780638f79d511146104d45780638f8a6d8f146104fd576101e3565b806336568abe146103c65780633d7650b2146103ef5780635dd3983a1461042c5780636763ccbd14610457576101e3565b80631e7f7e09116101b65780631e7f7e09146102e6578063248a9ca3146103235780632f2ff15d1461036057806332e0814214610389576101e3565b8063013cf08b146101e857806301ffc9a71461022f578063166d4c6f1461026c5780631a7fd6c6146102a9575b600080fd5b3480156101f457600080fd5b5061020f600480360381019061020a9190613e5f565b610833565b6040516102269b9a99989796959493929190613fca565b60405180910390f35b34801561023b57600080fd5b50610256600480360381019061025191906140e9565b610acd565b6040516102639190614131565b60405180910390f35b34801561027857600080fd5b50610293600480360381019061028e9190614281565b610b47565b6040516102a091906142ed565b60405180910390f35b3480156102b557600080fd5b506102d060048036038101906102cb9190614334565b610b84565b6040516102dd9190614131565b60405180910390f35b3480156102f257600080fd5b5061030d60048036038101906103089190614281565b610bc9565b60405161031a9190614390565b60405180910390f35b34801561032f57600080fd5b5061034a600480360381019061034591906143e1565b610bf7565b604051610357919061441d565b60405180910390f35b34801561036c57600080fd5b5061038760048036038101906103829190614464565b610c16565b005b34801561039557600080fd5b506103b060048036038101906103ab91906144a4565b610c3f565b6040516103bd9190614131565b60405180910390f35b3480156103d257600080fd5b506103ed60048036038101906103e89190614464565b610c6e565b005b3480156103fb57600080fd5b5061041660048036038101906104119190614281565b610cf1565b6040516104239190614131565b60405180910390f35b34801561043857600080fd5b50610441610d27565b60405161044e9190614535565b60405180910390f35b34801561046357600080fd5b5061047e60048036038101906104799190614281565b610d5f565b005b34801561048c57600080fd5b506104a760048036038101906104a29190613e5f565b610df4565b005b3480156104b557600080fd5b506104be611045565b6040516104cb9190614390565b60405180910390f35b3480156104e057600080fd5b506104fb60048036038101906104f69190613e5f565b61104b565b005b34801561050957600080fd5b50610524600480360381019061051f9190614281565b61129c565b6040516105319190614390565b60405180910390f35b34801561054657600080fd5b50610561600480360381019061055c9190614464565b6112ca565b60405161056e9190614131565b60405180910390f35b34801561058357600080fd5b5061059e60048036038101906105999190614550565b611334565b005b3480156105ac57600080fd5b506105b5611377565b6040516105c2919061441d565b60405180910390f35b3480156105d757600080fd5b506105e061137e565b6040516105ed919061480c565b60405180910390f35b34801561060257600080fd5b5061061d60048036038101906106189190614281565b611719565b60405161063097969594939291906148a5565b60405180910390f35b34801561064557600080fd5b50610660600480360381019061065b9190613e5f565b611826565b60405161066d9190614131565b60405180910390f35b34801561068257600080fd5b5061069d60048036038101906106989190614281565b611894565b6040516106aa919061491b565b60405180910390f35b3480156106bf57600080fd5b506106da60048036038101906106d591906149d7565b6119a6565b005b3480156106e857600080fd5b5061070360048036038101906106fe9190614a46565b611a0e565b005b34801561071157600080fd5b5061071a611a85565b6040516107279190614131565b60405180910390f35b34801561073c57600080fd5b5061075760048036038101906107529190614464565b611b2a565b005b34801561076557600080fd5b5061076e611b53565b60405161077b9190614390565b60405180910390f35b34801561079057600080fd5b506107ab60048036038101906107a69190614aa2565b611b59565b005b3480156107b957600080fd5b506107c2611bd9565b6040516107d193929190614acf565b60405180910390f35b3480156107e657600080fd5b5061080160048036038101906107fc9190614b06565b611bf1565b60405161080e9190614390565b60405180910390f35b610831600480360381019061082c9190614b62565b611c2c565b005b600460205280600052604060002060009150905080600001549080600101805461085c90614c72565b80601f016020809104026020016040519081016040528092919081815260200182805461088890614c72565b80156108d55780601f106108aa576101008083540402835291602001916108d5565b820191906000526020600020905b8154815290600101906020018083116108b857829003601f168201915b5050505050908060020180546108ea90614c72565b80601f016020809104026020016040519081016040528092919081815260200182805461091690614c72565b80156109635780601f1061093857610100808354040283529160200191610963565b820191906000526020600020905b81548152906001019060200180831161094657829003601f168201915b5050505050908060030160009054906101000a900473ffffffffffffffffffffffffffffffffffffffff169080600401805461099e90614c72565b80601f01602080910402602001604051908101604052809291908181526020018280546109ca90614c72565b8015610a175780601f106109ec57610100808354040283529160200191610a17565b820191906000526020600020905b8154815290600101906020018083116109fa57829003601f168201915b50505050509080600501549080600601549080600701549080600801549080600901549080600a018054610a4a90614c72565b80601f0160208091040260200160405190810160405280929190818152602001828054610a7690614c72565b8015610ac35780601f10610a9857610100808354040283529160200191610ac3565b820191906000526020600020905b815481529060010190602001808311610aa657829003601f168201915b505050505090508b565b60007f7965db0b000000000000000000000000000000000000000000000000000000007bffffffffffffffffffffffffffffffffffffffffffffffffffffffff1916827bffffffffffffffffffffffffffffffffffffffffffffffffffffffff19161480610b405750610b3f82611ccd565b5b9050919050565b6010818051602081018201805184825260208301602085012081835280955050505050506000915054906101000a900467ffffffffffffffff1681565b6009828051602081018201805184825260208301602085012081835280955050505050506020528060005260406000206000915091509054906101000a900460ff1681565b600f818051602081018201805184825260208301602085012081835280955050505050506000915090505481565b6000806000838152602001908152602001600020600101549050919050565b610c1f82610bf7565b610c3081610c2b611d37565b611d3f565b610c3a8383611ddc565b505050565b60056020528160005260406000206020528060005260406000206000915091509054906101000a900460ff1681565b610c76611d37565b73ffffffffffffffffffffffffffffffffffffffff168173ffffffffffffffffffffffffffffffffffffffff1614610ce3576040517f08c379a0000000000000000000000000000000000000000000000000000000008152600401610cda90614d15565b60405180910390fd5b610ced8282611e5a565b5050565b6007818051602081018201805184825260208301602085012081835280955050505050506000915054906101000a900460ff1681565b610d2f613bc3565b60016040518060600160405290816000820154815260200160018201548152602001600282015481525050905090565b600480811115610d7257610d7161482e565b5b610d7b82611894565b6004811115610d8d57610d8c61482e565b5b14610d9757600080fd5b610df1601082604051610daa9190614d71565b908152602001604051809103902060009054906101000a900467ffffffffffffffff16600f83604051610ddd9190614d71565b908152602001604051809103902054611f3b565b50565b610e1e7f829b824e2329e205435d941c9f13baf578548505283d29261236d8e6596d4636336112ca565b610e5d576040517f08c379a0000000000000000000000000000000000000000000000000000000008152600401610e5490614dfa565b60405180910390fd5b610e6681611826565b15610ea6576040517f08c379a0000000000000000000000000000000000000000000000000000000008152600401610e9d90614e8c565b60405180910390fd5b600560003373ffffffffffffffffffffffffffffffffffffffff1673ffffffffffffffffffffffffffffffffffffffff168152602001908152602001600020600082815260200190815260200160002060009054906101000a900460ff1615610f44576040517f08c379a0000000000000000000000000000000000000000000000000000000008152600401610f3b90614ef8565b60405180910390fd5b42600460008381526020019081526020016000206009015411610f9c576040517f08c379a0000000000000000000000000000000000000000000000000000000008152600401610f9390614f64565b60405180910390fd5b60016004600083815260200190815260200160002060060154610fbf9190614fb3565b60046000838152602001908152602001600020600601819055506001600560003373ffffffffffffffffffffffffffffffffffffffff1673ffffffffffffffffffffffffffffffffffffffff168152602001908152602001600020600083815260200190815260200160002060006101000a81548160ff02191690831515021790555050565b600a5481565b6110757f829b824e2329e205435d941c9f13baf578548505283d29261236d8e6596d4636336112ca565b6110b4576040517f08c379a00000000000000000000000000000000000000000000000000000000081526004016110ab9061507b565b60405180910390fd5b6110bd81611826565b156110fd576040517f08c379a00000000000000000000000000000000000000000000000000000000081526004016110f490614e8c565b60405180910390fd5b600560003373ffffffffffffffffffffffffffffffffffffffff1673ffffffffffffffffffffffffffffffffffffffff168152602001908152602001600020600082815260200190815260200160002060009054906101000a900460ff161561119b576040517f08c379a000000000000000000000000000000000000000000000000000000000815260040161119290614ef8565b60405180910390fd5b426004600083815260200190815260200160002060090154116111f3576040517f08c379a00000000000000000000000000000000000000000000000000000000081526004016111ea90614f64565b60405180910390fd5b600160046000838152602001908152602001600020600701546112169190614fb3565b60046000838152602001908152602001600020600701819055506001600560003373ffffffffffffffffffffffffffffffffffffffff1673ffffffffffffffffffffffffffffffffffffffff168152602001908152602001600020600083815260200190815260200160002060006101000a81548160ff02191690831515021790555050565b6008818051602081018201805184825260208301602085012081835280955050505050506000915090505481565b600080600084815260200190815260200160002060000160008373ffffffffffffffffffffffffffffffffffffffff1673ffffffffffffffffffffffffffffffffffffffff16815260200190815260200160002060009054906101000a900460ff16905092915050565b6040518060600160405280848152602001838152602001828152506001600082015181600001556020820151816001015560408201518160020155905050505050565b6000801b81565b6060600060065467ffffffffffffffff81111561139e5761139d614156565b5b6040519080825280602002602001820160405280156113d757816020015b6113c4613be4565b8152602001906001900390816113bc5790505b50905060005b6006548110156117115760046000828152602001908152602001600020604051806101600160405290816000820154815260200160018201805461142090614c72565b80601f016020809104026020016040519081016040528092919081815260200182805461144c90614c72565b80156114995780601f1061146e57610100808354040283529160200191611499565b820191906000526020600020905b81548152906001019060200180831161147c57829003601f168201915b505050505081526020016002820180546114b290614c72565b80601f01602080910402602001604051908101604052809291908181526020018280546114de90614c72565b801561152b5780601f106115005761010080835404028352916020019161152b565b820191906000526020600020905b81548152906001019060200180831161150e57829003601f168201915b505050505081526020016003820160009054906101000a900473ffffffffffffffffffffffffffffffffffffffff1673ffffffffffffffffffffffffffffffffffffffff1673ffffffffffffffffffffffffffffffffffffffff16815260200160048201805461159a90614c72565b80601f01602080910402602001604051908101604052809291908181526020018280546115c690614c72565b80156116135780601f106115e857610100808354040283529160200191611613565b820191906000526020600020905b8154815290600101906020018083116115f657829003601f168201915b505050505081526020016005820154815260200160068201548152602001600782015481526020016008820154815260200160098201548152602001600a8201805461165e90614c72565b80601f016020809104026020016040519081016040528092919081815260200182805461168a90614c72565b80156116d75780601f106116ac576101008083540402835291602001916116d7565b820191906000526020600020905b8154815290600101906020018083116116ba57829003601f168201915b5050505050815250508282815181106116f3576116f261509b565b5b60200260200101819052508080611709906150ca565b9150506113dd565b508091505090565b600c818051602081018201805184825260208301602085012081835280955050505050506000915090508060000160009054906101000a900473ffffffffffffffffffffffffffffffffffffffff169080600101805461177890614c72565b80601f01602080910402602001604051908101604052809291908181526020018280546117a490614c72565b80156117f15780601f106117c6576101008083540402835291602001916117f1565b820191906000526020600020905b8154815290600101906020018083116117d457829003601f168201915b5050505050908060020154908060030154908060040154908060050154908060060160009054906101000a900460ff16905087565b60003373ffffffffffffffffffffffffffffffffffffffff166004600084815260200190815260200160002060030160009054906101000a900473ffffffffffffffffffffffffffffffffffffffff1673ffffffffffffffffffffffffffffffffffffffff16149050919050565b6000600360048111156118aa576118a961482e565b5b600c836040516118ba9190614d71565b908152602001604051809103902060060160009054906101000a900460ff1660048111156118eb576118ea61482e565b5b1480156119615750600c826040516119039190614d71565b90815260200160405180910390206005015461195e62015180611950600c8660405161192f9190614d71565b90815260200160405180910390206004015442611f6c90919063ffffffff16565b611f8290919063ffffffff16565b10155b1561196f57600490506119a1565b600c8260405161197f9190614d71565b908152602001604051809103902060060160009054906101000a900460ff1690505b919050565b600b839080600181540180825580915050600190039060005260206000200160009091909190916101000a81548173ffffffffffffffffffffffffffffffffffffffff021916908373ffffffffffffffffffffffffffffffffffffffff160217905550505050565b611a387f829b824e2329e205435d941c9f13baf578548505283d29261236d8e6596d4636336112ca565b611a77576040517f08c379a0000000000000000000000000000000000000000000000000000000008152600401611a6e9061515e565b60405180910390fd5b611a818282611f98565b5050565b600080600d60009054906101000a900473ffffffffffffffffffffffffffffffffffffffff1673ffffffffffffffffffffffffffffffffffffffff166370a08231336040518263ffffffff1660e01b8152600401611ae3919061517e565b602060405180830381865afa158015611b00573d6000803e3d6000fd5b505050506040513d601f19601f82011682018060405250810190611b2491906151ae565b11905090565b611b3382610bf7565b611b4481611b3f611d37565b611d3f565b611b4e8383611e5a565b505050565b60065481565b6000611b6482612142565b90506000611b8960405180602001604052808567ffffffffffffffff1681525061225a565b90508160108260000151604051611ba09190614d71565b908152602001604051809103902060006101000a81548167ffffffffffffffff021916908367ffffffffffffffff160217905550505050565b60018060000154908060010154908060020154905083565b600e82805160208101820180518482526020830160208501208183528095505050505050602052806000526040600020600091509150505481565b611c567f829b824e2329e205435d941c9f13baf578548505283d29261236d8e6596d4636336112ca565b611c95576040517f08c379a0000000000000000000000000000000000000000000000000000000008152600401611c8c90615227565b60405180910390fd5b611ca286868685856122de565b82600f87604051611cb39190614d71565b908152602001604051809103902081905550505050505050565b60007f01ffc9a7000000000000000000000000000000000000000000000000000000007bffffffffffffffffffffffffffffffffffffffffffffffffffffffff1916827bffffffffffffffffffffffffffffffffffffffffffffffffffffffff1916149050919050565b600033905090565b611d4982826112ca565b611dd857611d6e8173ffffffffffffffffffffffffffffffffffffffff1660146125fe565b611d7c8360001c60206125fe565b604051602001611d8d92919061531b565b6040516020818303038152906040526040517f08c379a0000000000000000000000000000000000000000000000000000000008152600401611dcf9190615355565b60405180910390fd5b5050565b611de682826112ca565b611e5657600160008084815260200190815260200160002060000160008373ffffffffffffffffffffffffffffffffffffffff1673ffffffffffffffffffffffffffffffffffffffff16815260200190815260200160002060006101000a81548160ff0219169083151502179055505b5050565b611e6482826112ca565b15611f3757600080600084815260200190815260200160002060000160008373ffffffffffffffffffffffffffffffffffffffff1673ffffffffffffffffffffffffffffffffffffffff16815260200190815260200160002060006101000a81548160ff021916908315150217905550611edc611d37565b73ffffffffffffffffffffffffffffffffffffffff168173ffffffffffffffffffffffffffffffffffffffff16837ff6391f5c32d9c69d2a47ea670b442974b53935d1edc7fd64eb21e047a839171b60405160405180910390a45b5050565b600060405180602001604052806000815250905060609050611f63600083600080858861283a565b50505050505050565b60008183611f7a9190615377565b905092915050565b60008183611f9091906153da565b905092915050565b42600460008381526020019081526020016000206009015410611ff0576040517f08c379a0000000000000000000000000000000000000000000000000000000008152600401611fe790615457565b60405180910390fd5b600060046000838152602001908152602001600020600701546004600084815260200190815260200160002060060154111561208f57600190506040518060400160405280600681526020017f506173736564000000000000000000000000000000000000000000000000000081525060046000848152602001908152602001600020600a019080519060200190612089929190613c54565b506120f4565b600290506040518060400160405280600881526020017f52656a656374656400000000000000000000000000000000000000000000000081525060046000848152602001908152602001600020600a0190805190602001906120f2929190613c54565b505b80600c846040516121059190614d71565b908152602001604051809103902060060160006101000a81548160ff021916908360048111156121385761213761482e565b5b0217905550505050565b60008061216660405180602001604052808567ffffffffffffffff1681525061225a565b9050600061218b60405180602001604052808667ffffffffffffffff16815250612928565b90506121ae82600001518260000151846020015167ffffffffffffffff166129ac565b60006121d160405180602001604052808767ffffffffffffffff16815250612b18565b90506003600c84600001516040516121e99190614d71565b908152602001604051809103902060060160006101000a81548160ff0219169083600481111561221c5761221b61482e565b5b021790555042600c84600001516040516122369190614d71565b90815260200160405180910390206004018190555080600001519350505050919050565b612262613cda565b600061226d83612b9c565b905060006122b6634505760a6040518060400160405280600281526020017e05000000000000000000000000000000000000000000000000000000000000815250846071612bd4565b90506122c0613cda565b6122d38282612bff90919063ffffffff16565b809350505050919050565b60006040518060e001604052803373ffffffffffffffffffffffffffffffffffffffff16815260200187815260200186815260200160008152602001600081526020018581526020016000600481111561233b5761233a61482e565b5b815250905060066000815480929190612353906150ca565b9190505550600060405180610160016040528060065481526020018581526020018481526020013373ffffffffffffffffffffffffffffffffffffffff1681526020018881526020018781526020016000815260200160008152602001428152602001610e10426123c49190614fb3565b81526020016040518060400160405280600781526020017f70656e64696e6700000000000000000000000000000000000000000000000000815250815250905080600460006006548152602001908152602001600020600082015181600001556020820151816001019080519060200190612440929190613c54565b50604082015181600201908051906020019061245d929190613c54565b5060608201518160030160006101000a81548173ffffffffffffffffffffffffffffffffffffffff021916908373ffffffffffffffffffffffffffffffffffffffff16021790555060808201518160040190805190602001906124c1929190613cfe565b5060a0820151816005015560c0820151816006015560e082015181600701556101008201518160080155610120820151816009015561014082015181600a019080519060200190612513929190613c54565b5090505081600c886040516125289190614d71565b908152602001604051809103902060008201518160000160006101000a81548173ffffffffffffffffffffffffffffffffffffffff021916908373ffffffffffffffffffffffffffffffffffffffff1602179055506020820151816001019080519060200190612599929190613cfe565b5060408201518160020155606082015181600301556080820151816004015560a0820151816005015560c08201518160060160006101000a81548160ff021916908360048111156125ed576125ec61482e565b5b021790555090505050505050505050565b6060600060028360026126119190615477565b61261b9190614fb3565b67ffffffffffffffff81111561263457612633614156565b5b6040519080825280601f01601f1916602001820160405280156126665781602001600182028036833780820191505090505b5090507f30000000000000000000000000000000000000000000000000000000000000008160008151811061269e5761269d61509b565b5b60200101907effffffffffffffffffffffffffffffffffffffffffffffffffffffffffffff1916908160001a9053507f7800000000000000000000000000000000000000000000000000000000000000816001815181106127025761270161509b565b5b60200101907effffffffffffffffffffffffffffffffffffffffffffffffffffffffffffff1916908160001a905350600060018460026127429190615477565b61274c9190614fb3565b90505b60018111156127ec577f3031323334353637383961626364656600000000000000000000000000000000600f86166010811061278e5761278d61509b565b5b1a60f81b8282815181106127a5576127a461509b565b5b60200101907effffffffffffffffffffffffffffffffffffffffffffffffffffffffffffff1916908160001a905350600485901c9450806127e5906154d1565b905061274f565b5060008414612830576040517f08c379a000000000000000000000000000000000000000000000000000000000815260040161282790615546565b60405180910390fd5b8091505092915050565b6000806000606060008073fe0000000000000000000000000000000000000573ffffffffffffffffffffffffffffffffffffffff168c8c8c8c8c8c60405160200161288a96959493929190615566565b6040516020818303038152906040526040516128a69190614d71565b600060405180830381855af49150503d80600081146128e1576040519150601f19603f3d011682016040523d82523d6000602084013e6128e6565b606091505b50915091506000806000838060200190518101906129049190615689565b92509250925084838383985098509850985050505050509650965096509692505050565b612930613d84565b600061293b83612c80565b905060006129846337bc36da6040518060400160405280600281526020017e05000000000000000000000000000000000000000000000000000000000000815250846071612bd4565b905061298e613d84565b6129a18282612cb890919063ffffffff16565b809350505050919050565b600160048111156129c0576129bf61482e565b5b600c846040516129d09190614d71565b908152602001604051809103902060060160009054906101000a900460ff166004811115612a0157612a0061482e565b5b14612a0b57600080fd5b80600c84604051612a1c9190614d71565b90815260200160405180910390206002015414612a6e576040517f08c379a0000000000000000000000000000000000000000000000000000000008152600401612a6590615744565b60405180910390fd5b612a788383612cf3565b612ab7576040517f08c379a0000000000000000000000000000000000000000000000000000000008152600401612aae906157d6565b60405180910390fd5b6001600984604051612ac99190614d71565b908152602001604051809103902060008467ffffffffffffffff1667ffffffffffffffff16815260200190815260200160002060006101000a81548160ff021916908315150217905550505050565b612b20613da1565b6000612b2b83612d54565b90506000612b746307a1f0516040518060400160405280600281526020017e05000000000000000000000000000000000000000000000000000000000000815250846071612bd4565b9050612b7e613da1565b612b918282612d8c90919063ffffffff16565b809350505050919050565b60606000612baa6040612dc7565b9050612bc3836000015182612dee90919063ffffffff16565b612bcc81612dfe565b915050919050565b6060612bf5612be286612e57565b67ffffffffffffffff1685858534612e61565b9050949350505050565b600080612c158284612f0690919063ffffffff16565b80935081925050506000811115612c7a57612c398284612f5590919063ffffffff16565b856000018194508290525050612c5882846130ff90919063ffffffff16565b856020018194508267ffffffffffffffff1667ffffffffffffffff1681525050505b50505050565b60606000612c8e6040612dc7565b9050612ca7836000015182612dee90919063ffffffff16565b612cb081612dfe565b915050919050565b6000612ccd81836130ff90919063ffffffff16565b846000018193508267ffffffffffffffff1667ffffffffffffffff168152505050505050565b600080600984604051612d069190614d71565b908152602001604051809103902060008467ffffffffffffffff1667ffffffffffffffff16815260200190815260200160002060009054906101000a900460ff169050801591505092915050565b60606000612d626040612dc7565b9050612d7b836000015182612dee90919063ffffffff16565b612d8481612dfe565b915050919050565b6000612da181836130ff90919063ffffffff16565b846000018193508267ffffffffffffffff1667ffffffffffffffff168152505050505050565b612dcf613dbe565b612ddd81600001518361314e565b506000816020018181525050919050565b612dfa826000836131c7565b5050565b60606000826020015114612e47576040517f08c379a0000000000000000000000000000000000000000000000000000000008152600401612e3e90615842565b60405180910390fd5b8160000151600001519050919050565b6000819050919050565b6060600080600080612e80612e758b612e57565b8760008a8c8e613370565b935093509350935060008314612e958461345e565b604051602001612ea59190615888565b60405160208183030381529060405290612ef5576040517f08c379a0000000000000000000000000000000000000000000000000000000008152600401612eec9190615355565b60405180910390fd5b508094505050505095945050505050565b600080600080612f16868661352c565b8167ffffffffffffffff169150809750819350829450505050600460ff168260ff1614612f4657612f456158ae565b5b80859350935050509250929050565b60606000806000612f66868661352c565b8167ffffffffffffffff169150809750819350829450505050600660ff168260ff161480612f9a5750600260ff168260ff16145b612fa757612fa66158ae565b5b600660ff168260ff1603612ff057612fbf868661352c565b8167ffffffffffffffff169150809750819350829450505050600260ff168260ff1614612fef57612fee6158ae565b5b5b60008186612ffe9190614fb3565b905060008267ffffffffffffffff81111561301c5761301b614156565b5b6040519080825280601f01601f19166020018201604052801561304e5781602001600182028036833780820191505090505b5090506000808890505b838110156130e1578981815181106130735761307261509b565b5b602001015160f81c60f81b8383815181106130915761309061509b565b5b60200101907effffffffffffffffffffffffffffffffffffffffffffffffffffffffffffff1916908160001a90535081806130cb906150ca565b92505080806130d9906150ca565b915050613058565b508184896130ef9190614fb3565b9650965050505050509250929050565b60008060008061310f868661352c565b8167ffffffffffffffff169150809750819350829450505050600060ff168260ff161461313f5761313e6158ae565b5b80859350935050509250929050565b613156613dde565b600060208361316591906158dd565b146131915760208261317791906158dd565b60206131839190615377565b8261318e9190614fb3565b91505b8183602001818152505060405180845260008152828101602001818110156131b857600080fd5b80604052505082905092915050565b60178167ffffffffffffffff1611613202576131fc8160058460ff16901b60ff161784600001516136ba90919063ffffffff16565b5061336b565b60ff8167ffffffffffffffff161161326057613235601860058460ff16901b1784600001516136ba90919063ffffffff16565b5061325a8167ffffffffffffffff16600185600001516137249092919063ffffffff16565b5061336a565b61ffff8167ffffffffffffffff16116132bf57613294601960058460ff16901b1784600001516136ba90919063ffffffff16565b506132b98167ffffffffffffffff16600285600001516137249092919063ffffffff16565b50613369565b63ffffffff8167ffffffffffffffff1611613320576132f5601a60058460ff16901b1784600001516136ba90919063ffffffff16565b5061331a8167ffffffffffffffff16600485600001516137249092919063ffffffff16565b50613368565b613341601b60058460ff16901b1784600001516136ba90919063ffffffff16565b506133668167ffffffffffffffff16600885600001516137249092919063ffffffff16565b505b5b5b5b505050565b6000806000606060008073fe0000000000000000000000000000000000000373ffffffffffffffffffffffffffffffffffffffff168c8c8c8c8c8c6040516020016133c09695949392919061590e565b6040516020818303038152906040526040516133dc9190614d71565b600060405180830381855af49150503d8060008114613417576040519150601f19603f3d011682016040523d82523d6000602084013e61341c565b606091505b509150915060008060008380602001905181019061343a9190615689565b92509250925084838383985098509850985050505050509650965096509692505050565b60606000600161346d846137b1565b01905060008167ffffffffffffffff81111561348c5761348b614156565b5b6040519080825280601f01601f1916602001820160405280156134be5781602001600182028036833780820191505090505b509050600082602001820190505b600115613521578080600190039150507f3031323334353637383961626364656600000000000000000000000000000000600a86061a8153600a8581613515576135146153ab565b5b049450600085036134cc575b819350505050919050565b60008060008061353c8686613904565b905060018561354b9190614fb3565b94506000600560e0831660ff16901c90506000601f83169050601c8160ff1610613578576135776158ae565b5b60188160ff16101561359b578181888160ff1691509550955095505050506136b3565b60188160ff16036135f05760006135b28989613904565b90506001886135c19190614fb3565b975060188160ff1610156135d8576135d76158ae565b5b8281898160ff169150965096509650505050506136b3565b60198160ff1603613631576000613607898961396b565b90506002886136169190614fb3565b97508281898161ffff169150965096509650505050506136b3565b601a8160ff160361367457600061364889896139d2565b90506004886136579190614fb3565b97508281898163ffffffff169150965096509650505050506136b3565b601b8160ff1614613688576136876158ae565b5b60006136948989613a39565b90506008886136a39190614fb3565b9750828189965096509650505050505b9250925092565b6136c2613dde565b6000836000015151905060006001826136db9190614fb3565b9050846020015182106136ff576136fe856002836136f99190615477565b613aa0565b5b84516020838201018581538151831115613717578282525b5050849250505092915050565b61372c613dde565b60008460000151519050600081846137449190614fb3565b9050856020015181111561376957613768866002836137639190615477565b613aa0565b5b600060018561010061377b9190615ab0565b6137859190615377565b9050865182810187831982511617815281518411156137a2578382525b50508693505050509392505050565b600080600090507a184f03e93ff9f4daa797ed6e38ed64bf6a1f010000000000000000831061380f577a184f03e93ff9f4daa797ed6e38ed64bf6a1f0100000000000000008381613805576138046153ab565b5b0492506040810190505b6d04ee2d6d415b85acef8100000000831061384c576d04ee2d6d415b85acef81000000008381613842576138416153ab565b5b0492506020810190505b662386f26fc10000831061387b57662386f26fc100008381613871576138706153ab565b5b0492506010810190505b6305f5e10083106138a4576305f5e100838161389a576138996153ab565b5b0492506008810190505b61271083106138c95761271083816138bf576138be6153ab565b5b0492506004810190505b606483106138ec57606483816138e2576138e16153ab565b5b0492506002810190505b600a83106138fb576001810190505b80915050919050565b60006001826139139190614fb3565b83511015613956576040517f08c379a000000000000000000000000000000000000000000000000000000000815260040161394d90615b47565b60405180910390fd5b60008260010184015190508091505092915050565b600060028261397a9190614fb3565b835110156139bd576040517f08c379a00000000000000000000000000000000000000000000000000000000081526004016139b490615b47565b60405180910390fd5b60008260020184015190508091505092915050565b60006004826139e19190614fb3565b83511015613a24576040517f08c379a0000000000000000000000000000000000000000000000000000000008152600401613a1b90615b47565b60405180910390fd5b60008260040184015190508091505092915050565b6000600882613a489190614fb3565b83511015613a8b576040517f08c379a0000000000000000000000000000000000000000000000000000000008152600401613a8290615b47565b60405180910390fd5b60008260080184015190508091505092915050565b600082600001519050613ab3838361314e565b50613abe8382613ac4565b50505050565b613acc613dde565b613ad883838451613ae0565b905092915050565b613ae8613dde565b8251821115613af657600080fd5b6000846000015151905060008382613b0e9190614fb3565b90508560200151811115613b3357613b3286600283613b2d9190615477565b613aa0565b5b60008087518051856020830101935080851115613b4e578482525b60208901925050505b60208610613b955780518252602082613b709190614fb3565b9150602081613b7f9190614fb3565b9050602086613b8e9190615377565b9550613b57565b60006001876020036101000a0390508019825116818451168181178552505050879450505050509392505050565b60405180606001604052806000815260200160008152602001600081525090565b604051806101600160405280600081526020016060815260200160608152602001600073ffffffffffffffffffffffffffffffffffffffff168152602001606081526020016000815260200160008152602001600081526020016000815260200160008152602001606081525090565b828054613c6090614c72565b90600052602060002090601f016020900481019282613c825760008555613cc9565b82601f10613c9b57805160ff1916838001178555613cc9565b82800160010185558215613cc9579182015b82811115613cc8578251825591602001919060010190613cad565b5b509050613cd69190613df8565b5090565b604051806040016040528060608152602001600067ffffffffffffffff1681525090565b828054613d0a90614c72565b90600052602060002090601f016020900481019282613d2c5760008555613d73565b82601f10613d4557805160ff1916838001178555613d73565b82800160010185558215613d73579182015b82811115613d72578251825591602001919060010190613d57565b5b509050613d809190613df8565b5090565b6040518060200160405280600067ffffffffffffffff1681525090565b6040518060200160405280600067ffffffffffffffff1681525090565b6040518060400160405280613dd1613dde565b8152602001600081525090565b604051806040016040528060608152602001600081525090565b5b80821115613e11576000816000905550600101613df9565b5090565b6000604051905090565b600080fd5b600080fd5b6000819050919050565b613e3c81613e29565b8114613e4757600080fd5b50565b600081359050613e5981613e33565b92915050565b600060208284031215613e7557613e74613e1f565b5b6000613e8384828501613e4a565b91505092915050565b613e9581613e29565b82525050565b600081519050919050565b600082825260208201905092915050565b60005b83811015613ed5578082015181840152602081019050613eba565b83811115613ee4576000848401525b50505050565b6000601f19601f8301169050919050565b6000613f0682613e9b565b613f108185613ea6565b9350613f20818560208601613eb7565b613f2981613eea565b840191505092915050565b600073ffffffffffffffffffffffffffffffffffffffff82169050919050565b6000613f5f82613f34565b9050919050565b613f6f81613f54565b82525050565b600081519050919050565b600082825260208201905092915050565b6000613f9c82613f75565b613fa68185613f80565b9350613fb6818560208601613eb7565b613fbf81613eea565b840191505092915050565b600061016082019050613fe0600083018e613e8c565b8181036020830152613ff2818d613efb565b90508181036040830152614006818c613efb565b9050614015606083018b613f66565b8181036080830152614027818a613f91565b905061403660a0830189613e8c565b61404360c0830188613e8c565b61405060e0830187613e8c565b61405e610100830186613e8c565b61406c610120830185613e8c565b81810361014083015261407f8184613efb565b90509c9b505050505050505050505050565b60007fffffffff0000000000000000000000000000000000000000000000000000000082169050919050565b6140c681614091565b81146140d157600080fd5b50565b6000813590506140e3816140bd565b92915050565b6000602082840312156140ff576140fe613e1f565b5b600061410d848285016140d4565b91505092915050565b60008115159050919050565b61412b81614116565b82525050565b60006020820190506141466000830184614122565b92915050565b600080fd5b600080fd5b7f4e487b7100000000000000000000000000000000000000000000000000000000600052604160045260246000fd5b61418e82613eea565b810181811067ffffffffffffffff821117156141ad576141ac614156565b5b80604052505050565b60006141c0613e15565b90506141cc8282614185565b919050565b600067ffffffffffffffff8211156141ec576141eb614156565b5b6141f582613eea565b9050602081019050919050565b82818337600083830152505050565b600061422461421f846141d1565b6141b6565b9050828152602081018484840111156142405761423f614151565b5b61424b848285614202565b509392505050565b600082601f8301126142685761426761414c565b5b8135614278848260208601614211565b91505092915050565b60006020828403121561429757614296613e1f565b5b600082013567ffffffffffffffff8111156142b5576142b4613e24565b5b6142c184828501614253565b91505092915050565b600067ffffffffffffffff82169050919050565b6142e7816142ca565b82525050565b600060208201905061430260008301846142de565b92915050565b614311816142ca565b811461431c57600080fd5b50565b60008135905061432e81614308565b92915050565b6000806040838503121561434b5761434a613e1f565b5b600083013567ffffffffffffffff81111561436957614368613e24565b5b61437585828601614253565b92505060206143868582860161431f565b9150509250929050565b60006020820190506143a56000830184613e8c565b92915050565b6000819050919050565b6143be816143ab565b81146143c957600080fd5b50565b6000813590506143db816143b5565b92915050565b6000602082840312156143f7576143f6613e1f565b5b6000614405848285016143cc565b91505092915050565b614417816143ab565b82525050565b6000602082019050614432600083018461440e565b92915050565b61444181613f54565b811461444c57600080fd5b50565b60008135905061445e81614438565b92915050565b6000806040838503121561447b5761447a613e1f565b5b6000614489858286016143cc565b925050602061449a8582860161444f565b9150509250929050565b600080604083850312156144bb576144ba613e1f565b5b60006144c98582860161444f565b92505060206144da85828601613e4a565b9150509250929050565b6144ed81613e29565b82525050565b60608201600082015161450960008501826144e4565b50602082015161451c60208501826144e4565b50604082015161452f60408501826144e4565b50505050565b600060608201905061454a60008301846144f3565b92915050565b60008060006060848603121561456957614568613e1f565b5b600061457786828701613e4a565b935050602061458886828701613e4a565b925050604061459986828701613e4a565b9150509250925092565b600081519050919050565b600082825260208201905092915050565b6000819050602082019050919050565b600082825260208201905092915050565b60006145eb82613e9b565b6145f581856145cf565b9350614605818560208601613eb7565b61460e81613eea565b840191505092915050565b61462281613f54565b82525050565b600082825260208201905092915050565b600061464482613f75565b61464e8185614628565b935061465e818560208601613eb7565b61466781613eea565b840191505092915050565b60006101608301600083015161468b60008601826144e4565b50602083015184820360208601526146a382826145e0565b915050604083015184820360408601526146bd82826145e0565b91505060608301516146d26060860182614619565b50608083015184820360808601526146ea8282614639565b91505060a08301516146ff60a08601826144e4565b5060c083015161471260c08601826144e4565b5060e083015161472560e08601826144e4565b5061010083015161473a6101008601826144e4565b5061012083015161474f6101208601826144e4565b5061014083015184820361014086015261476982826145e0565b9150508091505092915050565b60006147828383614672565b905092915050565b6000602082019050919050565b60006147a2826145a3565b6147ac81856145ae565b9350836020820285016147be856145bf565b8060005b858110156147fa57848403895281516147db8582614776565b94506147e68361478a565b925060208a019950506001810190506147c2565b50829750879550505050505092915050565b600060208201905081810360008301526148268184614797565b905092915050565b7f4e487b7100000000000000000000000000000000000000000000000000000000600052602160045260246000fd5b6005811061486e5761486d61482e565b5b50565b600081905061487f8261485d565b919050565b600061488f82614871565b9050919050565b61489f81614884565b82525050565b600060e0820190506148ba600083018a613f66565b81810360208301526148cc8189613f91565b90506148db6040830188613e8c565b6148e86060830187613e8c565b6148f56080830186613e8c565b61490260a0830185613e8c565b61490f60c0830184614896565b98975050505050505050565b60006020820190506149306000830184614896565b92915050565b600067ffffffffffffffff82111561495157614950614156565b5b61495a82613eea565b9050602081019050919050565b600061497a61497584614936565b6141b6565b90508281526020810184848401111561499657614995614151565b5b6149a1848285614202565b509392505050565b600082601f8301126149be576149bd61414c565b5b81356149ce848260208601614967565b91505092915050565b6000806000606084860312156149f0576149ef613e1f565b5b60006149fe8682870161444f565b9350506020614a0f86828701613e4a565b925050604084013567ffffffffffffffff811115614a3057614a2f613e24565b5b614a3c868287016149a9565b9150509250925092565b60008060408385031215614a5d57614a5c613e1f565b5b600083013567ffffffffffffffff811115614a7b57614a7a613e24565b5b614a8785828601614253565b9250506020614a9885828601613e4a565b9150509250929050565b600060208284031215614ab857614ab7613e1f565b5b6000614ac68482850161431f565b91505092915050565b6000606082019050614ae46000830186613e8c565b614af16020830185613e8c565b614afe6040830184613e8c565b949350505050565b60008060408385031215614b1d57614b1c613e1f565b5b600083013567ffffffffffffffff811115614b3b57614b3a613e24565b5b614b4785828601614253565b9250506020614b588582860161444f565b9150509250929050565b60008060008060008060c08789031215614b7f57614b7e613e1f565b5b600087013567ffffffffffffffff811115614b9d57614b9c613e24565b5b614ba989828a01614253565b9650506020614bba89828a01613e4a565b9550506040614bcb89828a01613e4a565b9450506060614bdc89828a01613e4a565b935050608087013567ffffffffffffffff811115614bfd57614bfc613e24565b5b614c0989828a016149a9565b92505060a087013567ffffffffffffffff811115614c2a57614c29613e24565b5b614c3689828a016149a9565b9150509295509295509295565b7f4e487b7100000000000000000000000000000000000000000000000000000000600052602260045260246000fd5b60006002820490506001821680614c8a57607f821691505b602082108103614c9d57614c9c614c43565b5b50919050565b7f416363657373436f6e74726f6c3a2063616e206f6e6c792072656e6f756e636560008201527f20726f6c657320666f722073656c660000000000000000000000000000000000602082015250565b6000614cff602f83613ea6565b9150614d0a82614ca3565b604082019050919050565b60006020820190508181036000830152614d2e81614cf2565b9050919050565b600081905092915050565b6000614d4b82613f75565b614d558185614d35565b9350614d65818560208601613eb7565b80840191505092915050565b6000614d7d8284614d40565b915081905092915050565b7f596f7520617265206e6f742061206d656d656265722c20596f752063616e6e6f60008201527f7420566f74650000000000000000000000000000000000000000000000000000602082015250565b6000614de4602683613ea6565b9150614def82614d88565b604082019050919050565b60006020820190508181036000830152614e1381614dd7565b9050919050565b7f50726f706f73616c2043726561746f722063616e6e6f7420766f74652068697360008201527f206f776e2070726f706f73616c00000000000000000000000000000000000000602082015250565b6000614e76602d83613ea6565b9150614e8182614e1a565b604082019050919050565b60006020820190508181036000830152614ea581614e69565b9050919050565b7f416c726561647920566f74656400000000000000000000000000000000000000600082015250565b6000614ee2600d83613ea6565b9150614eed82614eac565b602082019050919050565b60006020820190508181036000830152614f1181614ed5565b9050919050565b7f566f74696e6720506572696f642046696e697368656400000000000000000000600082015250565b6000614f4e601683613ea6565b9150614f5982614f18565b602082019050919050565b60006020820190508181036000830152614f7d81614f41565b9050919050565b7f4e487b7100000000000000000000000000000000000000000000000000000000600052601160045260246000fd5b6000614fbe82613e29565b9150614fc983613e29565b9250827fffffffffffffffffffffffffffffffffffffffffffffffffffffffffffffffff03821115614ffe57614ffd614f84565b5b828201905092915050565b7f596f7520617265206e6f742061206d656d656265722c596f752063616e6e6f7460008201527f20566f7465000000000000000000000000000000000000000000000000000000602082015250565b6000615065602583613ea6565b915061507082615009565b604082019050919050565b6000602082019050818103600083015261509481615058565b9050919050565b7f4e487b7100000000000000000000000000000000000000000000000000000000600052603260045260246000fd5b60006150d582613e29565b91507fffffffffffffffffffffffffffffffffffffffffffffffffffffffffffffffff820361510757615106614f84565b5b600182019050919050565b7f43616c6c6572206973206e6f742061206d656d62657200000000000000000000600082015250565b6000615148601683613ea6565b915061515382615112565b602082019050919050565b600060208201905081810360008301526151778161513b565b9050919050565b60006020820190506151936000830184613f66565b92915050565b6000815190506151a881613e33565b92915050565b6000602082840312156151c4576151c3613e1f565b5b60006151d284828501615199565b91505092915050565b7f43616c6c6572206973206e6f742061206d696e74657200000000000000000000600082015250565b6000615211601683613ea6565b915061521c826151db565b602082019050919050565b6000602082019050818103600083015261524081615204565b9050919050565b600081905092915050565b7f416363657373436f6e74726f6c3a206163636f756e7420000000000000000000600082015250565b6000615288601783615247565b915061529382615252565b601782019050919050565b60006152a982613e9b565b6152b38185615247565b93506152c3818560208601613eb7565b80840191505092915050565b7f206973206d697373696e6720726f6c6520000000000000000000000000000000600082015250565b6000615305601183615247565b9150615310826152cf565b601182019050919050565b60006153268261527b565b9150615332828561529e565b915061533d826152f8565b9150615349828461529e565b91508190509392505050565b6000602082019050818103600083015261536f8184613efb565b905092915050565b600061538282613e29565b915061538d83613e29565b9250828210156153a05761539f614f84565b5b828203905092915050565b7f4e487b7100000000000000000000000000000000000000000000000000000000600052601260045260246000fd5b60006153e582613e29565b91506153f083613e29565b925082615400576153ff6153ab565b5b828204905092915050565b7f566f74696e6720506572696f64206973204f6e00000000000000000000000000600082015250565b6000615441601383613ea6565b915061544c8261540b565b602082019050919050565b6000602082019050818103600083015261547081615434565b9050919050565b600061548282613e29565b915061548d83613e29565b9250817fffffffffffffffffffffffffffffffffffffffffffffffffffffffffffffffff04831182151516156154c6576154c5614f84565b5b828202905092915050565b60006154dc82613e29565b9150600082036154ef576154ee614f84565b5b600182039050919050565b7f537472696e67733a20686578206c656e67746820696e73756666696369656e74600082015250565b6000615530602083613ea6565b915061553b826154fa565b602082019050919050565b6000602082019050818103600083015261555f81615523565b9050919050565b600060c08201905061557b60008301896142de565b6155886020830188613e8c565b61559560408301876142de565b6155a260608301866142de565b81810360808301526155b48185613f91565b90506155c360a08301846142de565b979650505050505050565b6000819050919050565b6155e1816155ce565b81146155ec57600080fd5b50565b6000815190506155fe816155d8565b92915050565b60008151905061561381614308565b92915050565b600061562c615627846141d1565b6141b6565b90508281526020810184848401111561564857615647614151565b5b615653848285613eb7565b509392505050565b600082601f8301126156705761566f61414c565b5b8151615680848260208601615619565b91505092915050565b6000806000606084860312156156a2576156a1613e1f565b5b60006156b0868287016155ef565b93505060206156c186828701615604565b925050604084015167ffffffffffffffff8111156156e2576156e1613e24565b5b6156ee8682870161565b565b9150509250925092565b7f646174612073697a65206d757374206d61746368206578706563746564000000600082015250565b600061572e601d83613ea6565b9150615739826156f8565b602082019050919050565b6000602082019050818103600083015261575d81615721565b9050919050565b7f6465616c206661696c656420706f6c69637920636865636b3a2068617320707260008201527f6f766964657220616c726561647920636c61696d65642074686973206369643f602082015250565b60006157c0604083613ea6565b91506157cb82615764565b604082019050919050565b600060208201905081810360008301526157ef816157b3565b9050919050565b7f496e76616c69642043424f520000000000000000000000000000000000000000600082015250565b600061582c600c83613ea6565b9150615837826157f6565b602082019050919050565b6000602082019050818103600083015261585b8161581f565b9050919050565b7f6163746f72206572726f7220636f646520000000000000000000000000000000815250565b600061589382615862565b6011820191506158a3828461529e565b915081905092915050565b7f4e487b7100000000000000000000000000000000000000000000000000000000600052600160045260246000fd5b60006158e882613e29565b91506158f383613e29565b925082615903576159026153ab565b5b828206905092915050565b600060c08201905061592360008301896142de565b6159306020830188613e8c565b61593d60408301876142de565b61594a60608301866142de565b818103608083015261595c8185613f91565b905081810360a08301526159708184613f91565b9050979650505050505050565b60008160011c9050919050565b6000808291508390505b60018511156159d4578086048111156159b0576159af614f84565b5b60018516156159bf5780820291505b80810290506159cd8561597d565b9450615994565b94509492505050565b6000826159ed5760019050615aa9565b816159fb5760009050615aa9565b8160018114615a115760028114615a1b57615a4a565b6001915050615aa9565b60ff841115615a2d57615a2c614f84565b5b8360020a915084821115615a4457615a43614f84565b5b50615aa9565b5060208310610133831016604e8410600b8410161715615a7f5782820a905083811115615a7a57615a79614f84565b5b615aa9565b615a8c848484600161598a565b92509050818404811115615aa357615aa2614f84565b5b81810290505b9392505050565b6000615abb82613e29565b9150615ac683613e29565b9250615af37fffffffffffffffffffffffffffffffffffffffffffffffffffffffffffffffff84846159dd565b905092915050565b7f736c6963696e67206f7574206f662072616e6765000000000000000000000000600082015250565b6000615b31601483613ea6565b9150615b3c82615afb565b602082019050919050565b60006020820190508181036000830152615b6081615b24565b905091905056fea26469706673582212207918f08cb5772ffd06abee81ecdf48de66abcc957c1b49a0650118b109f395ef64736f6c634300080d0033",
			"opcodes": "PUSH1 0x80 PUSH1 0x40 MSTORE CALLVALUE DUP1 ISZERO PUSH3 0x11 JUMPI PUSH1 0x0 DUP1 REVERT JUMPDEST POP PUSH1 0x40 MLOAD PUSH3 0x5F16 CODESIZE SUB DUP1 PUSH3 0x5F16 DUP4 CODECOPY DUP2 DUP2 ADD PUSH1 0x40 MSTORE DUP2 ADD SWAP1 PUSH3 0x37 SWAP2 SWAP1 PUSH3 0x2CD JUMP JUMPDEST DUP6 PUSH3 0x6A PUSH32 0xA49807205CE4D355092EF5A8A18F56E8913CF4A201FBE287825B095693C21775 DUP3 PUSH3 0xDC PUSH1 0x20 SHL PUSH1 0x20 SHR JUMP JUMPDEST POP DUP5 PUSH1 0xD PUSH1 0x0 PUSH2 0x100 EXP DUP2 SLOAD DUP2 PUSH20 0xFFFFFFFFFFFFFFFFFFFFFFFFFFFFFFFFFFFFFFFF MUL NOT AND SWAP1 DUP4 PUSH20 0xFFFFFFFFFFFFFFFFFFFFFFFFFFFFFFFFFFFFFFFF AND MUL OR SWAP1 SSTORE POP DUP4 PUSH1 0x1 PUSH1 0x0 ADD DUP2 SWAP1 SSTORE POP DUP3 PUSH1 0x1 DUP1 ADD DUP2 SWAP1 SSTORE POP DUP2 PUSH1 0x1 PUSH1 0x2 ADD DUP2 SWAP1 SSTORE POP DUP1 PUSH1 0xA DUP2 SWAP1 SSTORE POP POP POP POP POP POP POP PUSH3 0x369 JUMP JUMPDEST PUSH3 0xEE DUP3 DUP3 PUSH3 0xF2 PUSH1 0x20 SHL PUSH1 0x20 SHR JUMP JUMPDEST POP POP JUMP JUMPDEST PUSH3 0x104 DUP3 DUP3 PUSH3 0x179 PUSH1 0x20 SHL PUSH1 0x20 SHR JUMP JUMPDEST PUSH3 0x175 JUMPI PUSH1 0x1 PUSH1 0x0 DUP1 DUP5 DUP2 MSTORE PUSH1 0x20 ADD SWAP1 DUP2 MSTORE PUSH1 0x20 ADD PUSH1 0x0 KECCAK256 PUSH1 0x0 ADD PUSH1 0x0 DUP4 PUSH20 0xFFFFFFFFFFFFFFFFFFFFFFFFFFFFFFFFFFFFFFFF AND PUSH20 0xFFFFFFFFFFFFFFFFFFFFFFFFFFFFFFFFFFFFFFFF AND DUP2 MSTORE PUSH1 0x20 ADD SWAP1 DUP2 MSTORE PUSH1 0x20 ADD PUSH1 0x0 KECCAK256 PUSH1 0x0 PUSH2 0x100 EXP DUP2 SLOAD DUP2 PUSH1 0xFF MUL NOT AND SWAP1 DUP4 ISZERO ISZERO MUL OR SWAP1 SSTORE POP JUMPDEST POP POP JUMP JUMPDEST PUSH1 0x0 DUP1 PUSH1 0x0 DUP5 DUP2 MSTORE PUSH1 0x20 ADD SWAP1 DUP2 MSTORE PUSH1 0x20 ADD PUSH1 0x0 KECCAK256 PUSH1 0x0 ADD PUSH1 0x0 DUP4 PUSH20 0xFFFFFFFFFFFFFFFFFFFFFFFFFFFFFFFFFFFFFFFF AND PUSH20 0xFFFFFFFFFFFFFFFFFFFFFFFFFFFFFFFFFFFFFFFF AND DUP2 MSTORE PUSH1 0x20 ADD SWAP1 DUP2 MSTORE PUSH1 0x20 ADD PUSH1 0x0 KECCAK256 PUSH1 0x0 SWAP1 SLOAD SWAP1 PUSH2 0x100 EXP SWAP1 DIV PUSH1 0xFF AND SWAP1 POP SWAP3 SWAP2 POP POP JUMP JUMPDEST PUSH1 0x0 DUP1 REVERT JUMPDEST PUSH1 0x0 PUSH20 0xFFFFFFFFFFFFFFFFFFFFFFFFFFFFFFFFFFFFFFFF DUP3 AND SWAP1 POP SWAP2 SWAP1 POP JUMP JUMPDEST PUSH1 0x0 PUSH3 0x215 DUP3 PUSH3 0x1E8 JUMP JUMPDEST SWAP1 POP SWAP2 SWAP1 POP JUMP JUMPDEST PUSH3 0x227 DUP2 PUSH3 0x208 JUMP JUMPDEST DUP2 EQ PUSH3 0x233 JUMPI PUSH1 0x0 DUP1 REVERT JUMPDEST POP JUMP JUMPDEST PUSH1 0x0 DUP2 MLOAD SWAP1 POP PUSH3 0x247 DUP2 PUSH3 0x21C JUMP JUMPDEST SWAP3 SWAP2 POP POP JUMP JUMPDEST PUSH1 0x0 PUSH3 0x25A DUP3 PUSH3 0x208 JUMP JUMPDEST SWAP1 POP SWAP2 SWAP1 POP JUMP JUMPDEST PUSH3 0x26C DUP2 PUSH3 0x24D JUMP JUMPDEST DUP2 EQ PUSH3 0x278 JUMPI PUSH1 0x0 DUP1 REVERT JUMPDEST POP JUMP JUMPDEST PUSH1 0x0 DUP2 MLOAD SWAP1 POP PUSH3 0x28C DUP2 PUSH3 0x261 JUMP JUMPDEST SWAP3 SWAP2 POP POP JUMP JUMPDEST PUSH1 0x0 DUP2 SWAP1 POP SWAP2 SWAP1 POP JUMP JUMPDEST PUSH3 0x2A7 DUP2 PUSH3 0x292 JUMP JUMPDEST DUP2 EQ PUSH3 0x2B3 JUMPI PUSH1 0x0 DUP1 REVERT JUMPDEST POP JUMP JUMPDEST PUSH1 0x0 DUP2 MLOAD SWAP1 POP PUSH3 0x2C7 DUP2 PUSH3 0x29C JUMP JUMPDEST SWAP3 SWAP2 POP POP JUMP JUMPDEST PUSH1 0x0 DUP1 PUSH1 0x0 DUP1 PUSH1 0x0 DUP1 PUSH1 0xC0 DUP8 DUP10 SUB SLT ISZERO PUSH3 0x2ED JUMPI PUSH3 0x2EC PUSH3 0x1E3 JUMP JUMPDEST JUMPDEST PUSH1 0x0 PUSH3 0x2FD DUP10 DUP3 DUP11 ADD PUSH3 0x236 JUMP JUMPDEST SWAP7 POP POP PUSH1 0x20 PUSH3 0x310 DUP10 DUP3 DUP11 ADD PUSH3 0x27B JUMP JUMPDEST SWAP6 POP POP PUSH1 0x40 PUSH3 0x323 DUP10 DUP3 DUP11 ADD PUSH3 0x2B6 JUMP JUMPDEST SWAP5 POP POP PUSH1 0x60 PUSH3 0x336 DUP10 DUP3 DUP11 ADD PUSH3 0x2B6 JUMP JUMPDEST SWAP4 POP POP PUSH1 0x80 PUSH3 0x349 DUP10 DUP3 DUP11 ADD PUSH3 0x2B6 JUMP JUMPDEST SWAP3 POP POP PUSH1 0xA0 PUSH3 0x35C DUP10 DUP3 DUP11 ADD PUSH3 0x2B6 JUMP JUMPDEST SWAP2 POP POP SWAP3 SWAP6 POP SWAP3 SWAP6 POP SWAP3 SWAP6 JUMP JUMPDEST PUSH2 0x5B9D DUP1 PUSH3 0x379 PUSH1 0x0 CODECOPY PUSH1 0x0 RETURN INVALID PUSH1 0x80 PUSH1 0x40 MSTORE PUSH1 0x4 CALLDATASIZE LT PUSH2 0x1E3 JUMPI PUSH1 0x0 CALLDATALOAD PUSH1 0xE0 SHR DUP1 PUSH4 0x91D14854 GT PUSH2 0x102 JUMPI DUP1 PUSH4 0xCEF6BCEA GT PUSH2 0x95 JUMPI DUP1 PUSH4 0xE5FCD6B8 GT PUSH2 0x64 JUMPI DUP1 PUSH4 0xE5FCD6B8 EQ PUSH2 0x784 JUMPI DUP1 PUSH4 0xF406517D EQ PUSH2 0x7AD JUMPI DUP1 PUSH4 0xF4912450 EQ PUSH2 0x7DA JUMPI DUP1 PUSH4 0xF82DC0EC EQ PUSH2 0x817 JUMPI PUSH2 0x1E3 JUMP JUMPDEST DUP1 PUSH4 0xCEF6BCEA EQ PUSH2 0x6DC JUMPI DUP1 PUSH4 0xD02982CF EQ PUSH2 0x705 JUMPI DUP1 PUSH4 0xD547741F EQ PUSH2 0x730 JUMPI DUP1 PUSH4 0xDA35C664 EQ PUSH2 0x759 JUMPI PUSH2 0x1E3 JUMP JUMPDEST DUP1 PUSH4 0xB22E8569 GT PUSH2 0xD1 JUMPI DUP1 PUSH4 0xB22E8569 EQ PUSH2 0x5F6 JUMPI DUP1 PUSH4 0xB4E9134C EQ PUSH2 0x639 JUMPI DUP1 PUSH4 0xBFBD58FC EQ PUSH2 0x676 JUMPI DUP1 PUSH4 0xC236A6D1 EQ PUSH2 0x6B3 JUMPI PUSH2 0x1E3 JUMP JUMPDEST DUP1 PUSH4 0x91D14854 EQ PUSH2 0x53A JUMPI DUP1 PUSH4 0x95F4BAE7 EQ PUSH2 0x577 JUMPI DUP1 PUSH4 0xA217FDDF EQ PUSH2 0x5A0 JUMPI DUP1 PUSH4 0xAFF5BFD8 EQ PUSH2 0x5CB JUMPI PUSH2 0x1E3 JUMP JUMPDEST DUP1 PUSH4 0x36568ABE GT PUSH2 0x17A JUMPI DUP1 PUSH4 0x7BB58B8C GT PUSH2 0x149 JUMPI DUP1 PUSH4 0x7BB58B8C EQ PUSH2 0x480 JUMPI DUP1 PUSH4 0x7FF9B596 EQ PUSH2 0x4A9 JUMPI DUP1 PUSH4 0x8F79D511 EQ PUSH2 0x4D4 JUMPI DUP1 PUSH4 0x8F8A6D8F EQ PUSH2 0x4FD JUMPI PUSH2 0x1E3 JUMP JUMPDEST DUP1 PUSH4 0x36568ABE EQ PUSH2 0x3C6 JUMPI DUP1 PUSH4 0x3D7650B2 EQ PUSH2 0x3EF JUMPI DUP1 PUSH4 0x5DD3983A EQ PUSH2 0x42C JUMPI DUP1 PUSH4 0x6763CCBD EQ PUSH2 0x457 JUMPI PUSH2 0x1E3 JUMP JUMPDEST DUP1 PUSH4 0x1E7F7E09 GT PUSH2 0x1B6 JUMPI DUP1 PUSH4 0x1E7F7E09 EQ PUSH2 0x2E6 JUMPI DUP1 PUSH4 0x248A9CA3 EQ PUSH2 0x323 JUMPI DUP1 PUSH4 0x2F2FF15D EQ PUSH2 0x360 JUMPI DUP1 PUSH4 0x32E08142 EQ PUSH2 0x389 JUMPI PUSH2 0x1E3 JUMP JUMPDEST DUP1 PUSH4 0x13CF08B EQ PUSH2 0x1E8 JUMPI DUP1 PUSH4 0x1FFC9A7 EQ PUSH2 0x22F JUMPI DUP1 PUSH4 0x166D4C6F EQ PUSH2 0x26C JUMPI DUP1 PUSH4 0x1A7FD6C6 EQ PUSH2 0x2A9 JUMPI JUMPDEST PUSH1 0x0 DUP1 REVERT JUMPDEST CALLVALUE DUP1 ISZERO PUSH2 0x1F4 JUMPI PUSH1 0x0 DUP1 REVERT JUMPDEST POP PUSH2 0x20F PUSH1 0x4 DUP1 CALLDATASIZE SUB DUP2 ADD SWAP1 PUSH2 0x20A SWAP2 SWAP1 PUSH2 0x3E5F JUMP JUMPDEST PUSH2 0x833 JUMP JUMPDEST PUSH1 0x40 MLOAD PUSH2 0x226 SWAP12 SWAP11 SWAP10 SWAP9 SWAP8 SWAP7 SWAP6 SWAP5 SWAP4 SWAP3 SWAP2 SWAP1 PUSH2 0x3FCA JUMP JUMPDEST PUSH1 0x40 MLOAD DUP1 SWAP2 SUB SWAP1 RETURN JUMPDEST CALLVALUE DUP1 ISZERO PUSH2 0x23B JUMPI PUSH1 0x0 DUP1 REVERT JUMPDEST POP PUSH2 0x256 PUSH1 0x4 DUP1 CALLDATASIZE SUB DUP2 ADD SWAP1 PUSH2 0x251 SWAP2 SWAP1 PUSH2 0x40E9 JUMP JUMPDEST PUSH2 0xACD JUMP JUMPDEST PUSH1 0x40 MLOAD PUSH2 0x263 SWAP2 SWAP1 PUSH2 0x4131 JUMP JUMPDEST PUSH1 0x40 MLOAD DUP1 SWAP2 SUB SWAP1 RETURN JUMPDEST CALLVALUE DUP1 ISZERO PUSH2 0x278 JUMPI PUSH1 0x0 DUP1 REVERT JUMPDEST POP PUSH2 0x293 PUSH1 0x4 DUP1 CALLDATASIZE SUB DUP2 ADD SWAP1 PUSH2 0x28E SWAP2 SWAP1 PUSH2 0x4281 JUMP JUMPDEST PUSH2 0xB47 JUMP JUMPDEST PUSH1 0x40 MLOAD PUSH2 0x2A0 SWAP2 SWAP1 PUSH2 0x42ED JUMP JUMPDEST PUSH1 0x40 MLOAD DUP1 SWAP2 SUB SWAP1 RETURN JUMPDEST CALLVALUE DUP1 ISZERO PUSH2 0x2B5 JUMPI PUSH1 0x0 DUP1 REVERT JUMPDEST POP PUSH2 0x2D0 PUSH1 0x4 DUP1 CALLDATASIZE SUB DUP2 ADD SWAP1 PUSH2 0x2CB SWAP2 SWAP1 PUSH2 0x4334 JUMP JUMPDEST PUSH2 0xB84 JUMP JUMPDEST PUSH1 0x40 MLOAD PUSH2 0x2DD SWAP2 SWAP1 PUSH2 0x4131 JUMP JUMPDEST PUSH1 0x40 MLOAD DUP1 SWAP2 SUB SWAP1 RETURN JUMPDEST CALLVALUE DUP1 ISZERO PUSH2 0x2F2 JUMPI PUSH1 0x0 DUP1 REVERT JUMPDEST POP PUSH2 0x30D PUSH1 0x4 DUP1 CALLDATASIZE SUB DUP2 ADD SWAP1 PUSH2 0x308 SWAP2 SWAP1 PUSH2 0x4281 JUMP JUMPDEST PUSH2 0xBC9 JUMP JUMPDEST PUSH1 0x40 MLOAD PUSH2 0x31A SWAP2 SWAP1 PUSH2 0x4390 JUMP JUMPDEST PUSH1 0x40 MLOAD DUP1 SWAP2 SUB SWAP1 RETURN JUMPDEST CALLVALUE DUP1 ISZERO PUSH2 0x32F JUMPI PUSH1 0x0 DUP1 REVERT JUMPDEST POP PUSH2 0x34A PUSH1 0x4 DUP1 CALLDATASIZE SUB DUP2 ADD SWAP1 PUSH2 0x345 SWAP2 SWAP1 PUSH2 0x43E1 JUMP JUMPDEST PUSH2 0xBF7 JUMP JUMPDEST PUSH1 0x40 MLOAD PUSH2 0x357 SWAP2 SWAP1 PUSH2 0x441D JUMP JUMPDEST PUSH1 0x40 MLOAD DUP1 SWAP2 SUB SWAP1 RETURN JUMPDEST CALLVALUE DUP1 ISZERO PUSH2 0x36C JUMPI PUSH1 0x0 DUP1 REVERT JUMPDEST POP PUSH2 0x387 PUSH1 0x4 DUP1 CALLDATASIZE SUB DUP2 ADD SWAP1 PUSH2 0x382 SWAP2 SWAP1 PUSH2 0x4464 JUMP JUMPDEST PUSH2 0xC16 JUMP JUMPDEST STOP JUMPDEST CALLVALUE DUP1 ISZERO PUSH2 0x395 JUMPI PUSH1 0x0 DUP1 REVERT JUMPDEST POP PUSH2 0x3B0 PUSH1 0x4 DUP1 CALLDATASIZE SUB DUP2 ADD SWAP1 PUSH2 0x3AB SWAP2 SWAP1 PUSH2 0x44A4 JUMP JUMPDEST PUSH2 0xC3F JUMP JUMPDEST PUSH1 0x40 MLOAD PUSH2 0x3BD SWAP2 SWAP1 PUSH2 0x4131 JUMP JUMPDEST PUSH1 0x40 MLOAD DUP1 SWAP2 SUB SWAP1 RETURN JUMPDEST CALLVALUE DUP1 ISZERO PUSH2 0x3D2 JUMPI PUSH1 0x0 DUP1 REVERT JUMPDEST POP PUSH2 0x3ED PUSH1 0x4 DUP1 CALLDATASIZE SUB DUP2 ADD SWAP1 PUSH2 0x3E8 SWAP2 SWAP1 PUSH2 0x4464 JUMP JUMPDEST PUSH2 0xC6E JUMP JUMPDEST STOP JUMPDEST CALLVALUE DUP1 ISZERO PUSH2 0x3FB JUMPI PUSH1 0x0 DUP1 REVERT JUMPDEST POP PUSH2 0x416 PUSH1 0x4 DUP1 CALLDATASIZE SUB DUP2 ADD SWAP1 PUSH2 0x411 SWAP2 SWAP1 PUSH2 0x4281 JUMP JUMPDEST PUSH2 0xCF1 JUMP JUMPDEST PUSH1 0x40 MLOAD PUSH2 0x423 SWAP2 SWAP1 PUSH2 0x4131 JUMP JUMPDEST PUSH1 0x40 MLOAD DUP1 SWAP2 SUB SWAP1 RETURN JUMPDEST CALLVALUE DUP1 ISZERO PUSH2 0x438 JUMPI PUSH1 0x0 DUP1 REVERT JUMPDEST POP PUSH2 0x441 PUSH2 0xD27 JUMP JUMPDEST PUSH1 0x40 MLOAD PUSH2 0x44E SWAP2 SWAP1 PUSH2 0x4535 JUMP JUMPDEST PUSH1 0x40 MLOAD DUP1 SWAP2 SUB SWAP1 RETURN JUMPDEST CALLVALUE DUP1 ISZERO PUSH2 0x463 JUMPI PUSH1 0x0 DUP1 REVERT JUMPDEST POP PUSH2 0x47E PUSH1 0x4 DUP1 CALLDATASIZE SUB DUP2 ADD SWAP1 PUSH2 0x479 SWAP2 SWAP1 PUSH2 0x4281 JUMP JUMPDEST PUSH2 0xD5F JUMP JUMPDEST STOP JUMPDEST CALLVALUE DUP1 ISZERO PUSH2 0x48C JUMPI PUSH1 0x0 DUP1 REVERT JUMPDEST POP PUSH2 0x4A7 PUSH1 0x4 DUP1 CALLDATASIZE SUB DUP2 ADD SWAP1 PUSH2 0x4A2 SWAP2 SWAP1 PUSH2 0x3E5F JUMP JUMPDEST PUSH2 0xDF4 JUMP JUMPDEST STOP JUMPDEST CALLVALUE DUP1 ISZERO PUSH2 0x4B5 JUMPI PUSH1 0x0 DUP1 REVERT JUMPDEST POP PUSH2 0x4BE PUSH2 0x1045 JUMP JUMPDEST PUSH1 0x40 MLOAD PUSH2 0x4CB SWAP2 SWAP1 PUSH2 0x4390 JUMP JUMPDEST PUSH1 0x40 MLOAD DUP1 SWAP2 SUB SWAP1 RETURN JUMPDEST CALLVALUE DUP1 ISZERO PUSH2 0x4E0 JUMPI PUSH1 0x0 DUP1 REVERT JUMPDEST POP PUSH2 0x4FB PUSH1 0x4 DUP1 CALLDATASIZE SUB DUP2 ADD SWAP1 PUSH2 0x4F6 SWAP2 SWAP1 PUSH2 0x3E5F JUMP JUMPDEST PUSH2 0x104B JUMP JUMPDEST STOP JUMPDEST CALLVALUE DUP1 ISZERO PUSH2 0x509 JUMPI PUSH1 0x0 DUP1 REVERT JUMPDEST POP PUSH2 0x524 PUSH1 0x4 DUP1 CALLDATASIZE SUB DUP2 ADD SWAP1 PUSH2 0x51F SWAP2 SWAP1 PUSH2 0x4281 JUMP JUMPDEST PUSH2 0x129C JUMP JUMPDEST PUSH1 0x40 MLOAD PUSH2 0x531 SWAP2 SWAP1 PUSH2 0x4390 JUMP JUMPDEST PUSH1 0x40 MLOAD DUP1 SWAP2 SUB SWAP1 RETURN JUMPDEST CALLVALUE DUP1 ISZERO PUSH2 0x546 JUMPI PUSH1 0x0 DUP1 REVERT JUMPDEST POP PUSH2 0x561 PUSH1 0x4 DUP1 CALLDATASIZE SUB DUP2 ADD SWAP1 PUSH2 0x55C SWAP2 SWAP1 PUSH2 0x4464 JUMP JUMPDEST PUSH2 0x12CA JUMP JUMPDEST PUSH1 0x40 MLOAD PUSH2 0x56E SWAP2 SWAP1 PUSH2 0x4131 JUMP JUMPDEST PUSH1 0x40 MLOAD DUP1 SWAP2 SUB SWAP1 RETURN JUMPDEST CALLVALUE DUP1 ISZERO PUSH2 0x583 JUMPI PUSH1 0x0 DUP1 REVERT JUMPDEST POP PUSH2 0x59E PUSH1 0x4 DUP1 CALLDATASIZE SUB DUP2 ADD SWAP1 PUSH2 0x599 SWAP2 SWAP1 PUSH2 0x4550 JUMP JUMPDEST PUSH2 0x1334 JUMP JUMPDEST STOP JUMPDEST CALLVALUE DUP1 ISZERO PUSH2 0x5AC JUMPI PUSH1 0x0 DUP1 REVERT JUMPDEST POP PUSH2 0x5B5 PUSH2 0x1377 JUMP JUMPDEST PUSH1 0x40 MLOAD PUSH2 0x5C2 SWAP2 SWAP1 PUSH2 0x441D JUMP JUMPDEST PUSH1 0x40 MLOAD DUP1 SWAP2 SUB SWAP1 RETURN JUMPDEST CALLVALUE DUP1 ISZERO PUSH2 0x5D7 JUMPI PUSH1 0x0 DUP1 REVERT JUMPDEST POP PUSH2 0x5E0 PUSH2 0x137E JUMP JUMPDEST PUSH1 0x40 MLOAD PUSH2 0x5ED SWAP2 SWAP1 PUSH2 0x480C JUMP JUMPDEST PUSH1 0x40 MLOAD DUP1 SWAP2 SUB SWAP1 RETURN JUMPDEST CALLVALUE DUP1 ISZERO PUSH2 0x602 JUMPI PUSH1 0x0 DUP1 REVERT JUMPDEST POP PUSH2 0x61D PUSH1 0x4 DUP1 CALLDATASIZE SUB DUP2 ADD SWAP1 PUSH2 0x618 SWAP2 SWAP1 PUSH2 0x4281 JUMP JUMPDEST PUSH2 0x1719 JUMP JUMPDEST PUSH1 0x40 MLOAD PUSH2 0x630 SWAP8 SWAP7 SWAP6 SWAP5 SWAP4 SWAP3 SWAP2 SWAP1 PUSH2 0x48A5 JUMP JUMPDEST PUSH1 0x40 MLOAD DUP1 SWAP2 SUB SWAP1 RETURN JUMPDEST CALLVALUE DUP1 ISZERO PUSH2 0x645 JUMPI PUSH1 0x0 DUP1 REVERT JUMPDEST POP PUSH2 0x660 PUSH1 0x4 DUP1 CALLDATASIZE SUB DUP2 ADD SWAP1 PUSH2 0x65B SWAP2 SWAP1 PUSH2 0x3E5F JUMP JUMPDEST PUSH2 0x1826 JUMP JUMPDEST PUSH1 0x40 MLOAD PUSH2 0x66D SWAP2 SWAP1 PUSH2 0x4131 JUMP JUMPDEST PUSH1 0x40 MLOAD DUP1 SWAP2 SUB SWAP1 RETURN JUMPDEST CALLVALUE DUP1 ISZERO PUSH2 0x682 JUMPI PUSH1 0x0 DUP1 REVERT JUMPDEST POP PUSH2 0x69D PUSH1 0x4 DUP1 CALLDATASIZE SUB DUP2 ADD SWAP1 PUSH2 0x698 SWAP2 SWAP1 PUSH2 0x4281 JUMP JUMPDEST PUSH2 0x1894 JUMP JUMPDEST PUSH1 0x40 MLOAD PUSH2 0x6AA SWAP2 SWAP1 PUSH2 0x491B JUMP JUMPDEST PUSH1 0x40 MLOAD DUP1 SWAP2 SUB SWAP1 RETURN JUMPDEST CALLVALUE DUP1 ISZERO PUSH2 0x6BF JUMPI PUSH1 0x0 DUP1 REVERT JUMPDEST POP PUSH2 0x6DA PUSH1 0x4 DUP1 CALLDATASIZE SUB DUP2 ADD SWAP1 PUSH2 0x6D5 SWAP2 SWAP1 PUSH2 0x49D7 JUMP JUMPDEST PUSH2 0x19A6 JUMP JUMPDEST STOP JUMPDEST CALLVALUE DUP1 ISZERO PUSH2 0x6E8 JUMPI PUSH1 0x0 DUP1 REVERT JUMPDEST POP PUSH2 0x703 PUSH1 0x4 DUP1 CALLDATASIZE SUB DUP2 ADD SWAP1 PUSH2 0x6FE SWAP2 SWAP1 PUSH2 0x4A46 JUMP JUMPDEST PUSH2 0x1A0E JUMP JUMPDEST STOP JUMPDEST CALLVALUE DUP1 ISZERO PUSH2 0x711 JUMPI PUSH1 0x0 DUP1 REVERT JUMPDEST POP PUSH2 0x71A PUSH2 0x1A85 JUMP JUMPDEST PUSH1 0x40 MLOAD PUSH2 0x727 SWAP2 SWAP1 PUSH2 0x4131 JUMP JUMPDEST PUSH1 0x40 MLOAD DUP1 SWAP2 SUB SWAP1 RETURN JUMPDEST CALLVALUE DUP1 ISZERO PUSH2 0x73C JUMPI PUSH1 0x0 DUP1 REVERT JUMPDEST POP PUSH2 0x757 PUSH1 0x4 DUP1 CALLDATASIZE SUB DUP2 ADD SWAP1 PUSH2 0x752 SWAP2 SWAP1 PUSH2 0x4464 JUMP JUMPDEST PUSH2 0x1B2A JUMP JUMPDEST STOP JUMPDEST CALLVALUE DUP1 ISZERO PUSH2 0x765 JUMPI PUSH1 0x0 DUP1 REVERT JUMPDEST POP PUSH2 0x76E PUSH2 0x1B53 JUMP JUMPDEST PUSH1 0x40 MLOAD PUSH2 0x77B SWAP2 SWAP1 PUSH2 0x4390 JUMP JUMPDEST PUSH1 0x40 MLOAD DUP1 SWAP2 SUB SWAP1 RETURN JUMPDEST CALLVALUE DUP1 ISZERO PUSH2 0x790 JUMPI PUSH1 0x0 DUP1 REVERT JUMPDEST POP PUSH2 0x7AB PUSH1 0x4 DUP1 CALLDATASIZE SUB DUP2 ADD SWAP1 PUSH2 0x7A6 SWAP2 SWAP1 PUSH2 0x4AA2 JUMP JUMPDEST PUSH2 0x1B59 JUMP JUMPDEST STOP JUMPDEST CALLVALUE DUP1 ISZERO PUSH2 0x7B9 JUMPI PUSH1 0x0 DUP1 REVERT JUMPDEST POP PUSH2 0x7C2 PUSH2 0x1BD9 JUMP JUMPDEST PUSH1 0x40 MLOAD PUSH2 0x7D1 SWAP4 SWAP3 SWAP2 SWAP1 PUSH2 0x4ACF JUMP JUMPDEST PUSH1 0x40 MLOAD DUP1 SWAP2 SUB SWAP1 RETURN JUMPDEST CALLVALUE DUP1 ISZERO PUSH2 0x7E6 JUMPI PUSH1 0x0 DUP1 REVERT JUMPDEST POP PUSH2 0x801 PUSH1 0x4 DUP1 CALLDATASIZE SUB DUP2 ADD SWAP1 PUSH2 0x7FC SWAP2 SWAP1 PUSH2 0x4B06 JUMP JUMPDEST PUSH2 0x1BF1 JUMP JUMPDEST PUSH1 0x40 MLOAD PUSH2 0x80E SWAP2 SWAP1 PUSH2 0x4390 JUMP JUMPDEST PUSH1 0x40 MLOAD DUP1 SWAP2 SUB SWAP1 RETURN JUMPDEST PUSH2 0x831 PUSH1 0x4 DUP1 CALLDATASIZE SUB DUP2 ADD SWAP1 PUSH2 0x82C SWAP2 SWAP1 PUSH2 0x4B62 JUMP JUMPDEST PUSH2 0x1C2C JUMP JUMPDEST STOP JUMPDEST PUSH1 0x4 PUSH1 0x20 MSTORE DUP1 PUSH1 0x0 MSTORE PUSH1 0x40 PUSH1 0x0 KECCAK256 PUSH1 0x0 SWAP2 POP SWAP1 POP DUP1 PUSH1 0x0 ADD SLOAD SWAP1 DUP1 PUSH1 0x1 ADD DUP1 SLOAD PUSH2 0x85C SWAP1 PUSH2 0x4C72 JUMP JUMPDEST DUP1 PUSH1 0x1F ADD PUSH1 0x20 DUP1 SWAP2 DIV MUL PUSH1 0x20 ADD PUSH1 0x40 MLOAD SWAP1 DUP2 ADD PUSH1 0x40 MSTORE DUP1 SWAP3 SWAP2 SWAP1 DUP2 DUP2 MSTORE PUSH1 0x20 ADD DUP3 DUP1 SLOAD PUSH2 0x888 SWAP1 PUSH2 0x4C72 JUMP JUMPDEST DUP1 ISZERO PUSH2 0x8D5 JUMPI DUP1 PUSH1 0x1F LT PUSH2 0x8AA JUMPI PUSH2 0x100 DUP1 DUP4 SLOAD DIV MUL DUP4 MSTORE SWAP2 PUSH1 0x20 ADD SWAP2 PUSH2 0x8D5 JUMP JUMPDEST DUP3 ADD SWAP2 SWAP1 PUSH1 0x0 MSTORE PUSH1 0x20 PUSH1 0x0 KECCAK256 SWAP1 JUMPDEST DUP2 SLOAD DUP2 MSTORE SWAP1 PUSH1 0x1 ADD SWAP1 PUSH1 0x20 ADD DUP1 DUP4 GT PUSH2 0x8B8 JUMPI DUP3 SWAP1 SUB PUSH1 0x1F AND DUP3 ADD SWAP2 JUMPDEST POP POP POP POP POP SWAP1 DUP1 PUSH1 0x2 ADD DUP1 SLOAD PUSH2 0x8EA SWAP1 PUSH2 0x4C72 JUMP JUMPDEST DUP1 PUSH1 0x1F ADD PUSH1 0x20 DUP1 SWAP2 DIV MUL PUSH1 0x20 ADD PUSH1 0x40 MLOAD SWAP1 DUP2 ADD PUSH1 0x40 MSTORE DUP1 SWAP3 SWAP2 SWAP1 DUP2 DUP2 MSTORE PUSH1 0x20 ADD DUP3 DUP1 SLOAD PUSH2 0x916 SWAP1 PUSH2 0x4C72 JUMP JUMPDEST DUP1 ISZERO PUSH2 0x963 JUMPI DUP1 PUSH1 0x1F LT PUSH2 0x938 JUMPI PUSH2 0x100 DUP1 DUP4 SLOAD DIV MUL DUP4 MSTORE SWAP2 PUSH1 0x20 ADD SWAP2 PUSH2 0x963 JUMP JUMPDEST DUP3 ADD SWAP2 SWAP1 PUSH1 0x0 MSTORE PUSH1 0x20 PUSH1 0x0 KECCAK256 SWAP1 JUMPDEST DUP2 SLOAD DUP2 MSTORE SWAP1 PUSH1 0x1 ADD SWAP1 PUSH1 0x20 ADD DUP1 DUP4 GT PUSH2 0x946 JUMPI DUP3 SWAP1 SUB PUSH1 0x1F AND DUP3 ADD SWAP2 JUMPDEST POP POP POP POP POP SWAP1 DUP1 PUSH1 0x3 ADD PUSH1 0x0 SWAP1 SLOAD SWAP1 PUSH2 0x100 EXP SWAP1 DIV PUSH20 0xFFFFFFFFFFFFFFFFFFFFFFFFFFFFFFFFFFFFFFFF AND SWAP1 DUP1 PUSH1 0x4 ADD DUP1 SLOAD PUSH2 0x99E SWAP1 PUSH2 0x4C72 JUMP JUMPDEST DUP1 PUSH1 0x1F ADD PUSH1 0x20 DUP1 SWAP2 DIV MUL PUSH1 0x20 ADD PUSH1 0x40 MLOAD SWAP1 DUP2 ADD PUSH1 0x40 MSTORE DUP1 SWAP3 SWAP2 SWAP1 DUP2 DUP2 MSTORE PUSH1 0x20 ADD DUP3 DUP1 SLOAD PUSH2 0x9CA SWAP1 PUSH2 0x4C72 JUMP JUMPDEST DUP1 ISZERO PUSH2 0xA17 JUMPI DUP1 PUSH1 0x1F LT PUSH2 0x9EC JUMPI PUSH2 0x100 DUP1 DUP4 SLOAD DIV MUL DUP4 MSTORE SWAP2 PUSH1 0x20 ADD SWAP2 PUSH2 0xA17 JUMP JUMPDEST DUP3 ADD SWAP2 SWAP1 PUSH1 0x0 MSTORE PUSH1 0x20 PUSH1 0x0 KECCAK256 SWAP1 JUMPDEST DUP2 SLOAD DUP2 MSTORE SWAP1 PUSH1 0x1 ADD SWAP1 PUSH1 0x20 ADD DUP1 DUP4 GT PUSH2 0x9FA JUMPI DUP3 SWAP1 SUB PUSH1 0x1F AND DUP3 ADD SWAP2 JUMPDEST POP POP POP POP POP SWAP1 DUP1 PUSH1 0x5 ADD SLOAD SWAP1 DUP1 PUSH1 0x6 ADD SLOAD SWAP1 DUP1 PUSH1 0x7 ADD SLOAD SWAP1 DUP1 PUSH1 0x8 ADD SLOAD SWAP1 DUP1 PUSH1 0x9 ADD SLOAD SWAP1 DUP1 PUSH1 0xA ADD DUP1 SLOAD PUSH2 0xA4A SWAP1 PUSH2 0x4C72 JUMP JUMPDEST DUP1 PUSH1 0x1F ADD PUSH1 0x20 DUP1 SWAP2 DIV MUL PUSH1 0x20 ADD PUSH1 0x40 MLOAD SWAP1 DUP2 ADD PUSH1 0x40 MSTORE DUP1 SWAP3 SWAP2 SWAP1 DUP2 DUP2 MSTORE PUSH1 0x20 ADD DUP3 DUP1 SLOAD PUSH2 0xA76 SWAP1 PUSH2 0x4C72 JUMP JUMPDEST DUP1 ISZERO PUSH2 0xAC3 JUMPI DUP1 PUSH1 0x1F LT PUSH2 0xA98 JUMPI PUSH2 0x100 DUP1 DUP4 SLOAD DIV MUL DUP4 MSTORE SWAP2 PUSH1 0x20 ADD SWAP2 PUSH2 0xAC3 JUMP JUMPDEST DUP3 ADD SWAP2 SWAP1 PUSH1 0x0 MSTORE PUSH1 0x20 PUSH1 0x0 KECCAK256 SWAP1 JUMPDEST DUP2 SLOAD DUP2 MSTORE SWAP1 PUSH1 0x1 ADD SWAP1 PUSH1 0x20 ADD DUP1 DUP4 GT PUSH2 0xAA6 JUMPI DUP3 SWAP1 SUB PUSH1 0x1F AND DUP3 ADD SWAP2 JUMPDEST POP POP POP POP POP SWAP1 POP DUP12 JUMP JUMPDEST PUSH1 0x0 PUSH32 0x7965DB0B00000000000000000000000000000000000000000000000000000000 PUSH28 0xFFFFFFFFFFFFFFFFFFFFFFFFFFFFFFFFFFFFFFFFFFFFFFFFFFFFFFFF NOT AND DUP3 PUSH28 0xFFFFFFFFFFFFFFFFFFFFFFFFFFFFFFFFFFFFFFFFFFFFFFFFFFFFFFFF NOT AND EQ DUP1 PUSH2 0xB40 JUMPI POP PUSH2 0xB3F DUP3 PUSH2 0x1CCD JUMP JUMPDEST JUMPDEST SWAP1 POP SWAP2 SWAP1 POP JUMP JUMPDEST PUSH1 0x10 DUP2 DUP1 MLOAD PUSH1 0x20 DUP2 ADD DUP3 ADD DUP1 MLOAD DUP5 DUP3 MSTORE PUSH1 0x20 DUP4 ADD PUSH1 0x20 DUP6 ADD KECCAK256 DUP2 DUP4 MSTORE DUP1 SWAP6 POP POP POP POP POP POP PUSH1 0x0 SWAP2 POP SLOAD SWAP1 PUSH2 0x100 EXP SWAP1 DIV PUSH8 0xFFFFFFFFFFFFFFFF AND DUP2 JUMP JUMPDEST PUSH1 0x9 DUP3 DUP1 MLOAD PUSH1 0x20 DUP2 ADD DUP3 ADD DUP1 MLOAD DUP5 DUP3 MSTORE PUSH1 0x20 DUP4 ADD PUSH1 0x20 DUP6 ADD KECCAK256 DUP2 DUP4 MSTORE DUP1 SWAP6 POP POP POP POP POP POP PUSH1 0x20 MSTORE DUP1 PUSH1 0x0 MSTORE PUSH1 0x40 PUSH1 0x0 KECCAK256 PUSH1 0x0 SWAP2 POP SWAP2 POP SWAP1 SLOAD SWAP1 PUSH2 0x100 EXP SWAP1 DIV PUSH1 0xFF AND DUP2 JUMP JUMPDEST PUSH1 0xF DUP2 DUP1 MLOAD PUSH1 0x20 DUP2 ADD DUP3 ADD DUP1 MLOAD DUP5 DUP3 MSTORE PUSH1 0x20 DUP4 ADD PUSH1 0x20 DUP6 ADD KECCAK256 DUP2 DUP4 MSTORE DUP1 SWAP6 POP POP POP POP POP POP PUSH1 0x0 SWAP2 POP SWAP1 POP SLOAD DUP2 JUMP JUMPDEST PUSH1 0x0 DUP1 PUSH1 0x0 DUP4 DUP2 MSTORE PUSH1 0x20 ADD SWAP1 DUP2 MSTORE PUSH1 0x20 ADD PUSH1 0x0 KECCAK256 PUSH1 0x1 ADD SLOAD SWAP1 POP SWAP2 SWAP1 POP JUMP JUMPDEST PUSH2 0xC1F DUP3 PUSH2 0xBF7 JUMP JUMPDEST PUSH2 0xC30 DUP2 PUSH2 0xC2B PUSH2 0x1D37 JUMP JUMPDEST PUSH2 0x1D3F JUMP JUMPDEST PUSH2 0xC3A DUP4 DUP4 PUSH2 0x1DDC JUMP JUMPDEST POP POP POP JUMP JUMPDEST PUSH1 0x5 PUSH1 0x20 MSTORE DUP2 PUSH1 0x0 MSTORE PUSH1 0x40 PUSH1 0x0 KECCAK256 PUSH1 0x20 MSTORE DUP1 PUSH1 0x0 MSTORE PUSH1 0x40 PUSH1 0x0 KECCAK256 PUSH1 0x0 SWAP2 POP SWAP2 POP SWAP1 SLOAD SWAP1 PUSH2 0x100 EXP SWAP1 DIV PUSH1 0xFF AND DUP2 JUMP JUMPDEST PUSH2 0xC76 PUSH2 0x1D37 JUMP JUMPDEST PUSH20 0xFFFFFFFFFFFFFFFFFFFFFFFFFFFFFFFFFFFFFFFF AND DUP2 PUSH20 0xFFFFFFFFFFFFFFFFFFFFFFFFFFFFFFFFFFFFFFFF AND EQ PUSH2 0xCE3 JUMPI PUSH1 0x40 MLOAD PUSH32 0x8C379A000000000000000000000000000000000000000000000000000000000 DUP2 MSTORE PUSH1 0x4 ADD PUSH2 0xCDA SWAP1 PUSH2 0x4D15 JUMP JUMPDEST PUSH1 0x40 MLOAD DUP1 SWAP2 SUB SWAP1 REVERT JUMPDEST PUSH2 0xCED DUP3 DUP3 PUSH2 0x1E5A JUMP JUMPDEST POP POP JUMP JUMPDEST PUSH1 0x7 DUP2 DUP1 MLOAD PUSH1 0x20 DUP2 ADD DUP3 ADD DUP1 MLOAD DUP5 DUP3 MSTORE PUSH1 0x20 DUP4 ADD PUSH1 0x20 DUP6 ADD KECCAK256 DUP2 DUP4 MSTORE DUP1 SWAP6 POP POP POP POP POP POP PUSH1 0x0 SWAP2 POP SLOAD SWAP1 PUSH2 0x100 EXP SWAP1 DIV PUSH1 0xFF AND DUP2 JUMP JUMPDEST PUSH2 0xD2F PUSH2 0x3BC3 JUMP JUMPDEST PUSH1 0x1 PUSH1 0x40 MLOAD DUP1 PUSH1 0x60 ADD PUSH1 0x40 MSTORE SWAP1 DUP2 PUSH1 0x0 DUP3 ADD SLOAD DUP2 MSTORE PUSH1 0x20 ADD PUSH1 0x1 DUP3 ADD SLOAD DUP2 MSTORE PUSH1 0x20 ADD PUSH1 0x2 DUP3 ADD SLOAD DUP2 MSTORE POP POP SWAP1 POP SWAP1 JUMP JUMPDEST PUSH1 0x4 DUP1 DUP2 GT ISZERO PUSH2 0xD72 JUMPI PUSH2 0xD71 PUSH2 0x482E JUMP JUMPDEST JUMPDEST PUSH2 0xD7B DUP3 PUSH2 0x1894 JUMP JUMPDEST PUSH1 0x4 DUP2 GT ISZERO PUSH2 0xD8D JUMPI PUSH2 0xD8C PUSH2 0x482E JUMP JUMPDEST JUMPDEST EQ PUSH2 0xD97 JUMPI PUSH1 0x0 DUP1 REVERT JUMPDEST PUSH2 0xDF1 PUSH1 0x10 DUP3 PUSH1 0x40 MLOAD PUSH2 0xDAA SWAP2 SWAP1 PUSH2 0x4D71 JUMP JUMPDEST SWAP1 DUP2 MSTORE PUSH1 0x20 ADD PUSH1 0x40 MLOAD DUP1 SWAP2 SUB SWAP1 KECCAK256 PUSH1 0x0 SWAP1 SLOAD SWAP1 PUSH2 0x100 EXP SWAP1 DIV PUSH8 0xFFFFFFFFFFFFFFFF AND PUSH1 0xF DUP4 PUSH1 0x40 MLOAD PUSH2 0xDDD SWAP2 SWAP1 PUSH2 0x4D71 JUMP JUMPDEST SWAP1 DUP2 MSTORE PUSH1 0x20 ADD PUSH1 0x40 MLOAD DUP1 SWAP2 SUB SWAP1 KECCAK256 SLOAD PUSH2 0x1F3B JUMP JUMPDEST POP JUMP JUMPDEST PUSH2 0xE1E PUSH32 0x829B824E2329E205435D941C9F13BAF578548505283D29261236D8E6596D4636 CALLER PUSH2 0x12CA JUMP JUMPDEST PUSH2 0xE5D JUMPI PUSH1 0x40 MLOAD PUSH32 0x8C379A000000000000000000000000000000000000000000000000000000000 DUP2 MSTORE PUSH1 0x4 ADD PUSH2 0xE54 SWAP1 PUSH2 0x4DFA JUMP JUMPDEST PUSH1 0x40 MLOAD DUP1 SWAP2 SUB SWAP1 REVERT JUMPDEST PUSH2 0xE66 DUP2 PUSH2 0x1826 JUMP JUMPDEST ISZERO PUSH2 0xEA6 JUMPI PUSH1 0x40 MLOAD PUSH32 0x8C379A000000000000000000000000000000000000000000000000000000000 DUP2 MSTORE PUSH1 0x4 ADD PUSH2 0xE9D SWAP1 PUSH2 0x4E8C JUMP JUMPDEST PUSH1 0x40 MLOAD DUP1 SWAP2 SUB SWAP1 REVERT JUMPDEST PUSH1 0x5 PUSH1 0x0 CALLER PUSH20 0xFFFFFFFFFFFFFFFFFFFFFFFFFFFFFFFFFFFFFFFF AND PUSH20 0xFFFFFFFFFFFFFFFFFFFFFFFFFFFFFFFFFFFFFFFF AND DUP2 MSTORE PUSH1 0x20 ADD SWAP1 DUP2 MSTORE PUSH1 0x20 ADD PUSH1 0x0 KECCAK256 PUSH1 0x0 DUP3 DUP2 MSTORE PUSH1 0x20 ADD SWAP1 DUP2 MSTORE PUSH1 0x20 ADD PUSH1 0x0 KECCAK256 PUSH1 0x0 SWAP1 SLOAD SWAP1 PUSH2 0x100 EXP SWAP1 DIV PUSH1 0xFF AND ISZERO PUSH2 0xF44 JUMPI PUSH1 0x40 MLOAD PUSH32 0x8C379A000000000000000000000000000000000000000000000000000000000 DUP2 MSTORE PUSH1 0x4 ADD PUSH2 0xF3B SWAP1 PUSH2 0x4EF8 JUMP JUMPDEST PUSH1 0x40 MLOAD DUP1 SWAP2 SUB SWAP1 REVERT JUMPDEST TIMESTAMP PUSH1 0x4 PUSH1 0x0 DUP4 DUP2 MSTORE PUSH1 0x20 ADD SWAP1 DUP2 MSTORE PUSH1 0x20 ADD PUSH1 0x0 KECCAK256 PUSH1 0x9 ADD SLOAD GT PUSH2 0xF9C JUMPI PUSH1 0x40 MLOAD PUSH32 0x8C379A000000000000000000000000000000000000000000000000000000000 DUP2 MSTORE PUSH1 0x4 ADD PUSH2 0xF93 SWAP1 PUSH2 0x4F64 JUMP JUMPDEST PUSH1 0x40 MLOAD DUP1 SWAP2 SUB SWAP1 REVERT JUMPDEST PUSH1 0x1 PUSH1 0x4 PUSH1 0x0 DUP4 DUP2 MSTORE PUSH1 0x20 ADD SWAP1 DUP2 MSTORE PUSH1 0x20 ADD PUSH1 0x0 KECCAK256 PUSH1 0x6 ADD SLOAD PUSH2 0xFBF SWAP2 SWAP1 PUSH2 0x4FB3 JUMP JUMPDEST PUSH1 0x4 PUSH1 0x0 DUP4 DUP2 MSTORE PUSH1 0x20 ADD SWAP1 DUP2 MSTORE PUSH1 0x20 ADD PUSH1 0x0 KECCAK256 PUSH1 0x6 ADD DUP2 SWAP1 SSTORE POP PUSH1 0x1 PUSH1 0x5 PUSH1 0x0 CALLER PUSH20 0xFFFFFFFFFFFFFFFFFFFFFFFFFFFFFFFFFFFFFFFF AND PUSH20 0xFFFFFFFFFFFFFFFFFFFFFFFFFFFFFFFFFFFFFFFF AND DUP2 MSTORE PUSH1 0x20 ADD SWAP1 DUP2 MSTORE PUSH1 0x20 ADD PUSH1 0x0 KECCAK256 PUSH1 0x0 DUP4 DUP2 MSTORE PUSH1 0x20 ADD SWAP1 DUP2 MSTORE PUSH1 0x20 ADD PUSH1 0x0 KECCAK256 PUSH1 0x0 PUSH2 0x100 EXP DUP2 SLOAD DUP2 PUSH1 0xFF MUL NOT AND SWAP1 DUP4 ISZERO ISZERO MUL OR SWAP1 SSTORE POP POP JUMP JUMPDEST PUSH1 0xA SLOAD DUP2 JUMP JUMPDEST PUSH2 0x1075 PUSH32 0x829B824E2329E205435D941C9F13BAF578548505283D29261236D8E6596D4636 CALLER PUSH2 0x12CA JUMP JUMPDEST PUSH2 0x10B4 JUMPI PUSH1 0x40 MLOAD PUSH32 0x8C379A000000000000000000000000000000000000000000000000000000000 DUP2 MSTORE PUSH1 0x4 ADD PUSH2 0x10AB SWAP1 PUSH2 0x507B JUMP JUMPDEST PUSH1 0x40 MLOAD DUP1 SWAP2 SUB SWAP1 REVERT JUMPDEST PUSH2 0x10BD DUP2 PUSH2 0x1826 JUMP JUMPDEST ISZERO PUSH2 0x10FD JUMPI PUSH1 0x40 MLOAD PUSH32 0x8C379A000000000000000000000000000000000000000000000000000000000 DUP2 MSTORE PUSH1 0x4 ADD PUSH2 0x10F4 SWAP1 PUSH2 0x4E8C JUMP JUMPDEST PUSH1 0x40 MLOAD DUP1 SWAP2 SUB SWAP1 REVERT JUMPDEST PUSH1 0x5 PUSH1 0x0 CALLER PUSH20 0xFFFFFFFFFFFFFFFFFFFFFFFFFFFFFFFFFFFFFFFF AND PUSH20 0xFFFFFFFFFFFFFFFFFFFFFFFFFFFFFFFFFFFFFFFF AND DUP2 MSTORE PUSH1 0x20 ADD SWAP1 DUP2 MSTORE PUSH1 0x20 ADD PUSH1 0x0 KECCAK256 PUSH1 0x0 DUP3 DUP2 MSTORE PUSH1 0x20 ADD SWAP1 DUP2 MSTORE PUSH1 0x20 ADD PUSH1 0x0 KECCAK256 PUSH1 0x0 SWAP1 SLOAD SWAP1 PUSH2 0x100 EXP SWAP1 DIV PUSH1 0xFF AND ISZERO PUSH2 0x119B JUMPI PUSH1 0x40 MLOAD PUSH32 0x8C379A000000000000000000000000000000000000000000000000000000000 DUP2 MSTORE PUSH1 0x4 ADD PUSH2 0x1192 SWAP1 PUSH2 0x4EF8 JUMP JUMPDEST PUSH1 0x40 MLOAD DUP1 SWAP2 SUB SWAP1 REVERT JUMPDEST TIMESTAMP PUSH1 0x4 PUSH1 0x0 DUP4 DUP2 MSTORE PUSH1 0x20 ADD SWAP1 DUP2 MSTORE PUSH1 0x20 ADD PUSH1 0x0 KECCAK256 PUSH1 0x9 ADD SLOAD GT PUSH2 0x11F3 JUMPI PUSH1 0x40 MLOAD PUSH32 0x8C379A000000000000000000000000000000000000000000000000000000000 DUP2 MSTORE PUSH1 0x4 ADD PUSH2 0x11EA SWAP1 PUSH2 0x4F64 JUMP JUMPDEST PUSH1 0x40 MLOAD DUP1 SWAP2 SUB SWAP1 REVERT JUMPDEST PUSH1 0x1 PUSH1 0x4 PUSH1 0x0 DUP4 DUP2 MSTORE PUSH1 0x20 ADD SWAP1 DUP2 MSTORE PUSH1 0x20 ADD PUSH1 0x0 KECCAK256 PUSH1 0x7 ADD SLOAD PUSH2 0x1216 SWAP2 SWAP1 PUSH2 0x4FB3 JUMP JUMPDEST PUSH1 0x4 PUSH1 0x0 DUP4 DUP2 MSTORE PUSH1 0x20 ADD SWAP1 DUP2 MSTORE PUSH1 0x20 ADD PUSH1 0x0 KECCAK256 PUSH1 0x7 ADD DUP2 SWAP1 SSTORE POP PUSH1 0x1 PUSH1 0x5 PUSH1 0x0 CALLER PUSH20 0xFFFFFFFFFFFFFFFFFFFFFFFFFFFFFFFFFFFFFFFF AND PUSH20 0xFFFFFFFFFFFFFFFFFFFFFFFFFFFFFFFFFFFFFFFF AND DUP2 MSTORE PUSH1 0x20 ADD SWAP1 DUP2 MSTORE PUSH1 0x20 ADD PUSH1 0x0 KECCAK256 PUSH1 0x0 DUP4 DUP2 MSTORE PUSH1 0x20 ADD SWAP1 DUP2 MSTORE PUSH1 0x20 ADD PUSH1 0x0 KECCAK256 PUSH1 0x0 PUSH2 0x100 EXP DUP2 SLOAD DUP2 PUSH1 0xFF MUL NOT AND SWAP1 DUP4 ISZERO ISZERO MUL OR SWAP1 SSTORE POP POP JUMP JUMPDEST PUSH1 0x8 DUP2 DUP1 MLOAD PUSH1 0x20 DUP2 ADD DUP3 ADD DUP1 MLOAD DUP5 DUP3 MSTORE PUSH1 0x20 DUP4 ADD PUSH1 0x20 DUP6 ADD KECCAK256 DUP2 DUP4 MSTORE DUP1 SWAP6 POP POP POP POP POP POP PUSH1 0x0 SWAP2 POP SWAP1 POP SLOAD DUP2 JUMP JUMPDEST PUSH1 0x0 DUP1 PUSH1 0x0 DUP5 DUP2 MSTORE PUSH1 0x20 ADD SWAP1 DUP2 MSTORE PUSH1 0x20 ADD PUSH1 0x0 KECCAK256 PUSH1 0x0 ADD PUSH1 0x0 DUP4 PUSH20 0xFFFFFFFFFFFFFFFFFFFFFFFFFFFFFFFFFFFFFFFF AND PUSH20 0xFFFFFFFFFFFFFFFFFFFFFFFFFFFFFFFFFFFFFFFF AND DUP2 MSTORE PUSH1 0x20 ADD SWAP1 DUP2 MSTORE PUSH1 0x20 ADD PUSH1 0x0 KECCAK256 PUSH1 0x0 SWAP1 SLOAD SWAP1 PUSH2 0x100 EXP SWAP1 DIV PUSH1 0xFF AND SWAP1 POP SWAP3 SWAP2 POP POP JUMP JUMPDEST PUSH1 0x40 MLOAD DUP1 PUSH1 0x60 ADD PUSH1 0x40 MSTORE DUP1 DUP5 DUP2 MSTORE PUSH1 0x20 ADD DUP4 DUP2 MSTORE PUSH1 0x20 ADD DUP3 DUP2 MSTORE POP PUSH1 0x1 PUSH1 0x0 DUP3 ADD MLOAD DUP2 PUSH1 0x0 ADD SSTORE PUSH1 0x20 DUP3 ADD MLOAD DUP2 PUSH1 0x1 ADD SSTORE PUSH1 0x40 DUP3 ADD MLOAD DUP2 PUSH1 0x2 ADD SSTORE SWAP1 POP POP POP POP POP JUMP JUMPDEST PUSH1 0x0 DUP1 SHL DUP2 JUMP JUMPDEST PUSH1 0x60 PUSH1 0x0 PUSH1 0x6 SLOAD PUSH8 0xFFFFFFFFFFFFFFFF DUP2 GT ISZERO PUSH2 0x139E JUMPI PUSH2 0x139D PUSH2 0x4156 JUMP JUMPDEST JUMPDEST PUSH1 0x40 MLOAD SWAP1 DUP1 DUP3 MSTORE DUP1 PUSH1 0x20 MUL PUSH1 0x20 ADD DUP3 ADD PUSH1 0x40 MSTORE DUP1 ISZERO PUSH2 0x13D7 JUMPI DUP2 PUSH1 0x20 ADD JUMPDEST PUSH2 0x13C4 PUSH2 0x3BE4 JUMP JUMPDEST DUP2 MSTORE PUSH1 0x20 ADD SWAP1 PUSH1 0x1 SWAP1 SUB SWAP1 DUP2 PUSH2 0x13BC JUMPI SWAP1 POP JUMPDEST POP SWAP1 POP PUSH1 0x0 JUMPDEST PUSH1 0x6 SLOAD DUP2 LT ISZERO PUSH2 0x1711 JUMPI PUSH1 0x4 PUSH1 0x0 DUP3 DUP2 MSTORE PUSH1 0x20 ADD SWAP1 DUP2 MSTORE PUSH1 0x20 ADD PUSH1 0x0 KECCAK256 PUSH1 0x40 MLOAD DUP1 PUSH2 0x160 ADD PUSH1 0x40 MSTORE SWAP1 DUP2 PUSH1 0x0 DUP3 ADD SLOAD DUP2 MSTORE PUSH1 0x20 ADD PUSH1 0x1 DUP3 ADD DUP1 SLOAD PUSH2 0x1420 SWAP1 PUSH2 0x4C72 JUMP JUMPDEST DUP1 PUSH1 0x1F ADD PUSH1 0x20 DUP1 SWAP2 DIV MUL PUSH1 0x20 ADD PUSH1 0x40 MLOAD SWAP1 DUP2 ADD PUSH1 0x40 MSTORE DUP1 SWAP3 SWAP2 SWAP1 DUP2 DUP2 MSTORE PUSH1 0x20 ADD DUP3 DUP1 SLOAD PUSH2 0x144C SWAP1 PUSH2 0x4C72 JUMP JUMPDEST DUP1 ISZERO PUSH2 0x1499 JUMPI DUP1 PUSH1 0x1F LT PUSH2 0x146E JUMPI PUSH2 0x100 DUP1 DUP4 SLOAD DIV MUL DUP4 MSTORE SWAP2 PUSH1 0x20 ADD SWAP2 PUSH2 0x1499 JUMP JUMPDEST DUP3 ADD SWAP2 SWAP1 PUSH1 0x0 MSTORE PUSH1 0x20 PUSH1 0x0 KECCAK256 SWAP1 JUMPDEST DUP2 SLOAD DUP2 MSTORE SWAP1 PUSH1 0x1 ADD SWAP1 PUSH1 0x20 ADD DUP1 DUP4 GT PUSH2 0x147C JUMPI DUP3 SWAP1 SUB PUSH1 0x1F AND DUP3 ADD SWAP2 JUMPDEST POP POP POP POP POP DUP2 MSTORE PUSH1 0x20 ADD PUSH1 0x2 DUP3 ADD DUP1 SLOAD PUSH2 0x14B2 SWAP1 PUSH2 0x4C72 JUMP JUMPDEST DUP1 PUSH1 0x1F ADD PUSH1 0x20 DUP1 SWAP2 DIV MUL PUSH1 0x20 ADD PUSH1 0x40 MLOAD SWAP1 DUP2 ADD PUSH1 0x40 MSTORE DUP1 SWAP3 SWAP2 SWAP1 DUP2 DUP2 MSTORE PUSH1 0x20 ADD DUP3 DUP1 SLOAD PUSH2 0x14DE SWAP1 PUSH2 0x4C72 JUMP JUMPDEST DUP1 ISZERO PUSH2 0x152B JUMPI DUP1 PUSH1 0x1F LT PUSH2 0x1500 JUMPI PUSH2 0x100 DUP1 DUP4 SLOAD DIV MUL DUP4 MSTORE SWAP2 PUSH1 0x20 ADD SWAP2 PUSH2 0x152B JUMP JUMPDEST DUP3 ADD SWAP2 SWAP1 PUSH1 0x0 MSTORE PUSH1 0x20 PUSH1 0x0 KECCAK256 SWAP1 JUMPDEST DUP2 SLOAD DUP2 MSTORE SWAP1 PUSH1 0x1 ADD SWAP1 PUSH1 0x20 ADD DUP1 DUP4 GT PUSH2 0x150E JUMPI DUP3 SWAP1 SUB PUSH1 0x1F AND DUP3 ADD SWAP2 JUMPDEST POP POP POP POP POP DUP2 MSTORE PUSH1 0x20 ADD PUSH1 0x3 DUP3 ADD PUSH1 0x0 SWAP1 SLOAD SWAP1 PUSH2 0x100 EXP SWAP1 DIV PUSH20 0xFFFFFFFFFFFFFFFFFFFFFFFFFFFFFFFFFFFFFFFF AND PUSH20 0xFFFFFFFFFFFFFFFFFFFFFFFFFFFFFFFFFFFFFFFF AND PUSH20 0xFFFFFFFFFFFFFFFFFFFFFFFFFFFFFFFFFFFFFFFF AND DUP2 MSTORE PUSH1 0x20 ADD PUSH1 0x4 DUP3 ADD DUP1 SLOAD PUSH2 0x159A SWAP1 PUSH2 0x4C72 JUMP JUMPDEST DUP1 PUSH1 0x1F ADD PUSH1 0x20 DUP1 SWAP2 DIV MUL PUSH1 0x20 ADD PUSH1 0x40 MLOAD SWAP1 DUP2 ADD PUSH1 0x40 MSTORE DUP1 SWAP3 SWAP2 SWAP1 DUP2 DUP2 MSTORE PUSH1 0x20 ADD DUP3 DUP1 SLOAD PUSH2 0x15C6 SWAP1 PUSH2 0x4C72 JUMP JUMPDEST DUP1 ISZERO PUSH2 0x1613 JUMPI DUP1 PUSH1 0x1F LT PUSH2 0x15E8 JUMPI PUSH2 0x100 DUP1 DUP4 SLOAD DIV MUL DUP4 MSTORE SWAP2 PUSH1 0x20 ADD SWAP2 PUSH2 0x1613 JUMP JUMPDEST DUP3 ADD SWAP2 SWAP1 PUSH1 0x0 MSTORE PUSH1 0x20 PUSH1 0x0 KECCAK256 SWAP1 JUMPDEST DUP2 SLOAD DUP2 MSTORE SWAP1 PUSH1 0x1 ADD SWAP1 PUSH1 0x20 ADD DUP1 DUP4 GT PUSH2 0x15F6 JUMPI DUP3 SWAP1 SUB PUSH1 0x1F AND DUP3 ADD SWAP2 JUMPDEST POP POP POP POP POP DUP2 MSTORE PUSH1 0x20 ADD PUSH1 0x5 DUP3 ADD SLOAD DUP2 MSTORE PUSH1 0x20 ADD PUSH1 0x6 DUP3 ADD SLOAD DUP2 MSTORE PUSH1 0x20 ADD PUSH1 0x7 DUP3 ADD SLOAD DUP2 MSTORE PUSH1 0x20 ADD PUSH1 0x8 DUP3 ADD SLOAD DUP2 MSTORE PUSH1 0x20 ADD PUSH1 0x9 DUP3 ADD SLOAD DUP2 MSTORE PUSH1 0x20 ADD PUSH1 0xA DUP3 ADD DUP1 SLOAD PUSH2 0x165E SWAP1 PUSH2 0x4C72 JUMP JUMPDEST DUP1 PUSH1 0x1F ADD PUSH1 0x20 DUP1 SWAP2 DIV MUL PUSH1 0x20 ADD PUSH1 0x40 MLOAD SWAP1 DUP2 ADD PUSH1 0x40 MSTORE DUP1 SWAP3 SWAP2 SWAP1 DUP2 DUP2 MSTORE PUSH1 0x20 ADD DUP3 DUP1 SLOAD PUSH2 0x168A SWAP1 PUSH2 0x4C72 JUMP JUMPDEST DUP1 ISZERO PUSH2 0x16D7 JUMPI DUP1 PUSH1 0x1F LT PUSH2 0x16AC JUMPI PUSH2 0x100 DUP1 DUP4 SLOAD DIV MUL DUP4 MSTORE SWAP2 PUSH1 0x20 ADD SWAP2 PUSH2 0x16D7 JUMP JUMPDEST DUP3 ADD SWAP2 SWAP1 PUSH1 0x0 MSTORE PUSH1 0x20 PUSH1 0x0 KECCAK256 SWAP1 JUMPDEST DUP2 SLOAD DUP2 MSTORE SWAP1 PUSH1 0x1 ADD SWAP1 PUSH1 0x20 ADD DUP1 DUP4 GT PUSH2 0x16BA JUMPI DUP3 SWAP1 SUB PUSH1 0x1F AND DUP3 ADD SWAP2 JUMPDEST POP POP POP POP POP DUP2 MSTORE POP POP DUP3 DUP3 DUP2 MLOAD DUP2 LT PUSH2 0x16F3 JUMPI PUSH2 0x16F2 PUSH2 0x509B JUMP JUMPDEST JUMPDEST PUSH1 0x20 MUL PUSH1 0x20 ADD ADD DUP2 SWAP1 MSTORE POP DUP1 DUP1 PUSH2 0x1709 SWAP1 PUSH2 0x50CA JUMP JUMPDEST SWAP2 POP POP PUSH2 0x13DD JUMP JUMPDEST POP DUP1 SWAP2 POP POP SWAP1 JUMP JUMPDEST PUSH1 0xC DUP2 DUP1 MLOAD PUSH1 0x20 DUP2 ADD DUP3 ADD DUP1 MLOAD DUP5 DUP3 MSTORE PUSH1 0x20 DUP4 ADD PUSH1 0x20 DUP6 ADD KECCAK256 DUP2 DUP4 MSTORE DUP1 SWAP6 POP POP POP POP POP POP PUSH1 0x0 SWAP2 POP SWAP1 POP DUP1 PUSH1 0x0 ADD PUSH1 0x0 SWAP1 SLOAD SWAP1 PUSH2 0x100 EXP SWAP1 DIV PUSH20 0xFFFFFFFFFFFFFFFFFFFFFFFFFFFFFFFFFFFFFFFF AND SWAP1 DUP1 PUSH1 0x1 ADD DUP1 SLOAD PUSH2 0x1778 SWAP1 PUSH2 0x4C72 JUMP JUMPDEST DUP1 PUSH1 0x1F ADD PUSH1 0x20 DUP1 SWAP2 DIV MUL PUSH1 0x20 ADD PUSH1 0x40 MLOAD SWAP1 DUP2 ADD PUSH1 0x40 MSTORE DUP1 SWAP3 SWAP2 SWAP1 DUP2 DUP2 MSTORE PUSH1 0x20 ADD DUP3 DUP1 SLOAD PUSH2 0x17A4 SWAP1 PUSH2 0x4C72 JUMP JUMPDEST DUP1 ISZERO PUSH2 0x17F1 JUMPI DUP1 PUSH1 0x1F LT PUSH2 0x17C6 JUMPI PUSH2 0x100 DUP1 DUP4 SLOAD DIV MUL DUP4 MSTORE SWAP2 PUSH1 0x20 ADD SWAP2 PUSH2 0x17F1 JUMP JUMPDEST DUP3 ADD SWAP2 SWAP1 PUSH1 0x0 MSTORE PUSH1 0x20 PUSH1 0x0 KECCAK256 SWAP1 JUMPDEST DUP2 SLOAD DUP2 MSTORE SWAP1 PUSH1 0x1 ADD SWAP1 PUSH1 0x20 ADD DUP1 DUP4 GT PUSH2 0x17D4 JUMPI DUP3 SWAP1 SUB PUSH1 0x1F AND DUP3 ADD SWAP2 JUMPDEST POP POP POP POP POP SWAP1 DUP1 PUSH1 0x2 ADD SLOAD SWAP1 DUP1 PUSH1 0x3 ADD SLOAD SWAP1 DUP1 PUSH1 0x4 ADD SLOAD SWAP1 DUP1 PUSH1 0x5 ADD SLOAD SWAP1 DUP1 PUSH1 0x6 ADD PUSH1 0x0 SWAP1 SLOAD SWAP1 PUSH2 0x100 EXP SWAP1 DIV PUSH1 0xFF AND SWAP1 POP DUP8 JUMP JUMPDEST PUSH1 0x0 CALLER PUSH20 0xFFFFFFFFFFFFFFFFFFFFFFFFFFFFFFFFFFFFFFFF AND PUSH1 0x4 PUSH1 0x0 DUP5 DUP2 MSTORE PUSH1 0x20 ADD SWAP1 DUP2 MSTORE PUSH1 0x20 ADD PUSH1 0x0 KECCAK256 PUSH1 0x3 ADD PUSH1 0x0 SWAP1 SLOAD SWAP1 PUSH2 0x100 EXP SWAP1 DIV PUSH20 0xFFFFFFFFFFFFFFFFFFFFFFFFFFFFFFFFFFFFFFFF AND PUSH20 0xFFFFFFFFFFFFFFFFFFFFFFFFFFFFFFFFFFFFFFFF AND EQ SWAP1 POP SWAP2 SWAP1 POP JUMP JUMPDEST PUSH1 0x0 PUSH1 0x3 PUSH1 0x4 DUP2 GT ISZERO PUSH2 0x18AA JUMPI PUSH2 0x18A9 PUSH2 0x482E JUMP JUMPDEST JUMPDEST PUSH1 0xC DUP4 PUSH1 0x40 MLOAD PUSH2 0x18BA SWAP2 SWAP1 PUSH2 0x4D71 JUMP JUMPDEST SWAP1 DUP2 MSTORE PUSH1 0x20 ADD PUSH1 0x40 MLOAD DUP1 SWAP2 SUB SWAP1 KECCAK256 PUSH1 0x6 ADD PUSH1 0x0 SWAP1 SLOAD SWAP1 PUSH2 0x100 EXP SWAP1 DIV PUSH1 0xFF AND PUSH1 0x4 DUP2 GT ISZERO PUSH2 0x18EB JUMPI PUSH2 0x18EA PUSH2 0x482E JUMP JUMPDEST JUMPDEST EQ DUP1 ISZERO PUSH2 0x1961 JUMPI POP PUSH1 0xC DUP3 PUSH1 0x40 MLOAD PUSH2 0x1903 SWAP2 SWAP1 PUSH2 0x4D71 JUMP JUMPDEST SWAP1 DUP2 MSTORE PUSH1 0x20 ADD PUSH1 0x40 MLOAD DUP1 SWAP2 SUB SWAP1 KECCAK256 PUSH1 0x5 ADD SLOAD PUSH2 0x195E PUSH3 0x15180 PUSH2 0x1950 PUSH1 0xC DUP7 PUSH1 0x40 MLOAD PUSH2 0x192F SWAP2 SWAP1 PUSH2 0x4D71 JUMP JUMPDEST SWAP1 DUP2 MSTORE PUSH1 0x20 ADD PUSH1 0x40 MLOAD DUP1 SWAP2 SUB SWAP1 KECCAK256 PUSH1 0x4 ADD SLOAD TIMESTAMP PUSH2 0x1F6C SWAP1 SWAP2 SWAP1 PUSH4 0xFFFFFFFF AND JUMP JUMPDEST PUSH2 0x1F82 SWAP1 SWAP2 SWAP1 PUSH4 0xFFFFFFFF AND JUMP JUMPDEST LT ISZERO JUMPDEST ISZERO PUSH2 0x196F JUMPI PUSH1 0x4 SWAP1 POP PUSH2 0x19A1 JUMP JUMPDEST PUSH1 0xC DUP3 PUSH1 0x40 MLOAD PUSH2 0x197F SWAP2 SWAP1 PUSH2 0x4D71 JUMP JUMPDEST SWAP1 DUP2 MSTORE PUSH1 0x20 ADD PUSH1 0x40 MLOAD DUP1 SWAP2 SUB SWAP1 KECCAK256 PUSH1 0x6 ADD PUSH1 0x0 SWAP1 SLOAD SWAP1 PUSH2 0x100 EXP SWAP1 DIV PUSH1 0xFF AND SWAP1 POP JUMPDEST SWAP2 SWAP1 POP JUMP JUMPDEST PUSH1 0xB DUP4 SWAP1 DUP1 PUSH1 0x1 DUP2 SLOAD ADD DUP1 DUP3 SSTORE DUP1 SWAP2 POP POP PUSH1 0x1 SWAP1 SUB SWAP1 PUSH1 0x0 MSTORE PUSH1 0x20 PUSH1 0x0 KECCAK256 ADD PUSH1 0x0 SWAP1 SWAP2 SWAP1 SWAP2 SWAP1 SWAP2 PUSH2 0x100 EXP DUP2 SLOAD DUP2 PUSH20 0xFFFFFFFFFFFFFFFFFFFFFFFFFFFFFFFFFFFFFFFF MUL NOT AND SWAP1 DUP4 PUSH20 0xFFFFFFFFFFFFFFFFFFFFFFFFFFFFFFFFFFFFFFFF AND MUL OR SWAP1 SSTORE POP POP POP POP JUMP JUMPDEST PUSH2 0x1A38 PUSH32 0x829B824E2329E205435D941C9F13BAF578548505283D29261236D8E6596D4636 CALLER PUSH2 0x12CA JUMP JUMPDEST PUSH2 0x1A77 JUMPI PUSH1 0x40 MLOAD PUSH32 0x8C379A000000000000000000000000000000000000000000000000000000000 DUP2 MSTORE PUSH1 0x4 ADD PUSH2 0x1A6E SWAP1 PUSH2 0x515E JUMP JUMPDEST PUSH1 0x40 MLOAD DUP1 SWAP2 SUB SWAP1 REVERT JUMPDEST PUSH2 0x1A81 DUP3 DUP3 PUSH2 0x1F98 JUMP JUMPDEST POP POP JUMP JUMPDEST PUSH1 0x0 DUP1 PUSH1 0xD PUSH1 0x0 SWAP1 SLOAD SWAP1 PUSH2 0x100 EXP SWAP1 DIV PUSH20 0xFFFFFFFFFFFFFFFFFFFFFFFFFFFFFFFFFFFFFFFF AND PUSH20 0xFFFFFFFFFFFFFFFFFFFFFFFFFFFFFFFFFFFFFFFF AND PUSH4 0x70A08231 CALLER PUSH1 0x40 MLOAD DUP3 PUSH4 0xFFFFFFFF AND PUSH1 0xE0 SHL DUP2 MSTORE PUSH1 0x4 ADD PUSH2 0x1AE3 SWAP2 SWAP1 PUSH2 0x517E JUMP JUMPDEST PUSH1 0x20 PUSH1 0x40 MLOAD DUP1 DUP4 SUB DUP2 DUP7 GAS STATICCALL ISZERO DUP1 ISZERO PUSH2 0x1B00 JUMPI RETURNDATASIZE PUSH1 0x0 DUP1 RETURNDATACOPY RETURNDATASIZE PUSH1 0x0 REVERT JUMPDEST POP POP POP POP PUSH1 0x40 MLOAD RETURNDATASIZE PUSH1 0x1F NOT PUSH1 0x1F DUP3 ADD AND DUP3 ADD DUP1 PUSH1 0x40 MSTORE POP DUP2 ADD SWAP1 PUSH2 0x1B24 SWAP2 SWAP1 PUSH2 0x51AE JUMP JUMPDEST GT SWAP1 POP SWAP1 JUMP JUMPDEST PUSH2 0x1B33 DUP3 PUSH2 0xBF7 JUMP JUMPDEST PUSH2 0x1B44 DUP2 PUSH2 0x1B3F PUSH2 0x1D37 JUMP JUMPDEST PUSH2 0x1D3F JUMP JUMPDEST PUSH2 0x1B4E DUP4 DUP4 PUSH2 0x1E5A JUMP JUMPDEST POP POP POP JUMP JUMPDEST PUSH1 0x6 SLOAD DUP2 JUMP JUMPDEST PUSH1 0x0 PUSH2 0x1B64 DUP3 PUSH2 0x2142 JUMP JUMPDEST SWAP1 POP PUSH1 0x0 PUSH2 0x1B89 PUSH1 0x40 MLOAD DUP1 PUSH1 0x20 ADD PUSH1 0x40 MSTORE DUP1 DUP6 PUSH8 0xFFFFFFFFFFFFFFFF AND DUP2 MSTORE POP PUSH2 0x225A JUMP JUMPDEST SWAP1 POP DUP2 PUSH1 0x10 DUP3 PUSH1 0x0 ADD MLOAD PUSH1 0x40 MLOAD PUSH2 0x1BA0 SWAP2 SWAP1 PUSH2 0x4D71 JUMP JUMPDEST SWAP1 DUP2 MSTORE PUSH1 0x20 ADD PUSH1 0x40 MLOAD DUP1 SWAP2 SUB SWAP1 KECCAK256 PUSH1 0x0 PUSH2 0x100 EXP DUP2 SLOAD DUP2 PUSH8 0xFFFFFFFFFFFFFFFF MUL NOT AND SWAP1 DUP4 PUSH8 0xFFFFFFFFFFFFFFFF AND MUL OR SWAP1 SSTORE POP POP POP POP JUMP JUMPDEST PUSH1 0x1 DUP1 PUSH1 0x0 ADD SLOAD SWAP1 DUP1 PUSH1 0x1 ADD SLOAD SWAP1 DUP1 PUSH1 0x2 ADD SLOAD SWAP1 POP DUP4 JUMP JUMPDEST PUSH1 0xE DUP3 DUP1 MLOAD PUSH1 0x20 DUP2 ADD DUP3 ADD DUP1 MLOAD DUP5 DUP3 MSTORE PUSH1 0x20 DUP4 ADD PUSH1 0x20 DUP6 ADD KECCAK256 DUP2 DUP4 MSTORE DUP1 SWAP6 POP POP POP POP POP POP PUSH1 0x20 MSTORE DUP1 PUSH1 0x0 MSTORE PUSH1 0x40 PUSH1 0x0 KECCAK256 PUSH1 0x0 SWAP2 POP SWAP2 POP POP SLOAD DUP2 JUMP JUMPDEST PUSH2 0x1C56 PUSH32 0x829B824E2329E205435D941C9F13BAF578548505283D29261236D8E6596D4636 CALLER PUSH2 0x12CA JUMP JUMPDEST PUSH2 0x1C95 JUMPI PUSH1 0x40 MLOAD PUSH32 0x8C379A000000000000000000000000000000000000000000000000000000000 DUP2 MSTORE PUSH1 0x4 ADD PUSH2 0x1C8C SWAP1 PUSH2 0x5227 JUMP JUMPDEST PUSH1 0x40 MLOAD DUP1 SWAP2 SUB SWAP1 REVERT JUMPDEST PUSH2 0x1CA2 DUP7 DUP7 DUP7 DUP6 DUP6 PUSH2 0x22DE JUMP JUMPDEST DUP3 PUSH1 0xF DUP8 PUSH1 0x40 MLOAD PUSH2 0x1CB3 SWAP2 SWAP1 PUSH2 0x4D71 JUMP JUMPDEST SWAP1 DUP2 MSTORE PUSH1 0x20 ADD PUSH1 0x40 MLOAD DUP1 SWAP2 SUB SWAP1 KECCAK256 DUP2 SWAP1 SSTORE POP POP POP POP POP POP POP JUMP JUMPDEST PUSH1 0x0 PUSH32 0x1FFC9A700000000000000000000000000000000000000000000000000000000 PUSH28 0xFFFFFFFFFFFFFFFFFFFFFFFFFFFFFFFFFFFFFFFFFFFFFFFFFFFFFFFF NOT AND DUP3 PUSH28 0xFFFFFFFFFFFFFFFFFFFFFFFFFFFFFFFFFFFFFFFFFFFFFFFFFFFFFFFF NOT AND EQ SWAP1 POP SWAP2 SWAP1 POP JUMP JUMPDEST PUSH1 0x0 CALLER SWAP1 POP SWAP1 JUMP JUMPDEST PUSH2 0x1D49 DUP3 DUP3 PUSH2 0x12CA JUMP JUMPDEST PUSH2 0x1DD8 JUMPI PUSH2 0x1D6E DUP2 PUSH20 0xFFFFFFFFFFFFFFFFFFFFFFFFFFFFFFFFFFFFFFFF AND PUSH1 0x14 PUSH2 0x25FE JUMP JUMPDEST PUSH2 0x1D7C DUP4 PUSH1 0x0 SHR PUSH1 0x20 PUSH2 0x25FE JUMP JUMPDEST PUSH1 0x40 MLOAD PUSH1 0x20 ADD PUSH2 0x1D8D SWAP3 SWAP2 SWAP1 PUSH2 0x531B JUMP JUMPDEST PUSH1 0x40 MLOAD PUSH1 0x20 DUP2 DUP4 SUB SUB DUP2 MSTORE SWAP1 PUSH1 0x40 MSTORE PUSH1 0x40 MLOAD PUSH32 0x8C379A000000000000000000000000000000000000000000000000000000000 DUP2 MSTORE PUSH1 0x4 ADD PUSH2 0x1DCF SWAP2 SWAP1 PUSH2 0x5355 JUMP JUMPDEST PUSH1 0x40 MLOAD DUP1 SWAP2 SUB SWAP1 REVERT JUMPDEST POP POP JUMP JUMPDEST PUSH2 0x1DE6 DUP3 DUP3 PUSH2 0x12CA JUMP JUMPDEST PUSH2 0x1E56 JUMPI PUSH1 0x1 PUSH1 0x0 DUP1 DUP5 DUP2 MSTORE PUSH1 0x20 ADD SWAP1 DUP2 MSTORE PUSH1 0x20 ADD PUSH1 0x0 KECCAK256 PUSH1 0x0 ADD PUSH1 0x0 DUP4 PUSH20 0xFFFFFFFFFFFFFFFFFFFFFFFFFFFFFFFFFFFFFFFF AND PUSH20 0xFFFFFFFFFFFFFFFFFFFFFFFFFFFFFFFFFFFFFFFF AND DUP2 MSTORE PUSH1 0x20 ADD SWAP1 DUP2 MSTORE PUSH1 0x20 ADD PUSH1 0x0 KECCAK256 PUSH1 0x0 PUSH2 0x100 EXP DUP2 SLOAD DUP2 PUSH1 0xFF MUL NOT AND SWAP1 DUP4 ISZERO ISZERO MUL OR SWAP1 SSTORE POP JUMPDEST POP POP JUMP JUMPDEST PUSH2 0x1E64 DUP3 DUP3 PUSH2 0x12CA JUMP JUMPDEST ISZERO PUSH2 0x1F37 JUMPI PUSH1 0x0 DUP1 PUSH1 0x0 DUP5 DUP2 MSTORE PUSH1 0x20 ADD SWAP1 DUP2 MSTORE PUSH1 0x20 ADD PUSH1 0x0 KECCAK256 PUSH1 0x0 ADD PUSH1 0x0 DUP4 PUSH20 0xFFFFFFFFFFFFFFFFFFFFFFFFFFFFFFFFFFFFFFFF AND PUSH20 0xFFFFFFFFFFFFFFFFFFFFFFFFFFFFFFFFFFFFFFFF AND DUP2 MSTORE PUSH1 0x20 ADD SWAP1 DUP2 MSTORE PUSH1 0x20 ADD PUSH1 0x0 KECCAK256 PUSH1 0x0 PUSH2 0x100 EXP DUP2 SLOAD DUP2 PUSH1 0xFF MUL NOT AND SWAP1 DUP4 ISZERO ISZERO MUL OR SWAP1 SSTORE POP PUSH2 0x1EDC PUSH2 0x1D37 JUMP JUMPDEST PUSH20 0xFFFFFFFFFFFFFFFFFFFFFFFFFFFFFFFFFFFFFFFF AND DUP2 PUSH20 0xFFFFFFFFFFFFFFFFFFFFFFFFFFFFFFFFFFFFFFFF AND DUP4 PUSH32 0xF6391F5C32D9C69D2A47EA670B442974B53935D1EDC7FD64EB21E047A839171B PUSH1 0x40 MLOAD PUSH1 0x40 MLOAD DUP1 SWAP2 SUB SWAP1 LOG4 JUMPDEST POP POP JUMP JUMPDEST PUSH1 0x0 PUSH1 0x40 MLOAD DUP1 PUSH1 0x20 ADD PUSH1 0x40 MSTORE DUP1 PUSH1 0x0 DUP2 MSTORE POP SWAP1 POP PUSH1 0x60 SWAP1 POP PUSH2 0x1F63 PUSH1 0x0 DUP4 PUSH1 0x0 DUP1 DUP6 DUP9 PUSH2 0x283A JUMP JUMPDEST POP POP POP POP POP POP POP JUMP JUMPDEST PUSH1 0x0 DUP2 DUP4 PUSH2 0x1F7A SWAP2 SWAP1 PUSH2 0x5377 JUMP JUMPDEST SWAP1 POP SWAP3 SWAP2 POP POP JUMP JUMPDEST PUSH1 0x0 DUP2 DUP4 PUSH2 0x1F90 SWAP2 SWAP1 PUSH2 0x53DA JUMP JUMPDEST SWAP1 POP SWAP3 SWAP2 POP POP JUMP JUMPDEST TIMESTAMP PUSH1 0x4 PUSH1 0x0 DUP4 DUP2 MSTORE PUSH1 0x20 ADD SWAP1 DUP2 MSTORE PUSH1 0x20 ADD PUSH1 0x0 KECCAK256 PUSH1 0x9 ADD SLOAD LT PUSH2 0x1FF0 JUMPI PUSH1 0x40 MLOAD PUSH32 0x8C379A000000000000000000000000000000000000000000000000000000000 DUP2 MSTORE PUSH1 0x4 ADD PUSH2 0x1FE7 SWAP1 PUSH2 0x5457 JUMP JUMPDEST PUSH1 0x40 MLOAD DUP1 SWAP2 SUB SWAP1 REVERT JUMPDEST PUSH1 0x0 PUSH1 0x4 PUSH1 0x0 DUP4 DUP2 MSTORE PUSH1 0x20 ADD SWAP1 DUP2 MSTORE PUSH1 0x20 ADD PUSH1 0x0 KECCAK256 PUSH1 0x7 ADD SLOAD PUSH1 0x4 PUSH1 0x0 DUP5 DUP2 MSTORE PUSH1 0x20 ADD SWAP1 DUP2 MSTORE PUSH1 0x20 ADD PUSH1 0x0 KECCAK256 PUSH1 0x6 ADD SLOAD GT ISZERO PUSH2 0x208F JUMPI PUSH1 0x1 SWAP1 POP PUSH1 0x40 MLOAD DUP1 PUSH1 0x40 ADD PUSH1 0x40 MSTORE DUP1 PUSH1 0x6 DUP2 MSTORE PUSH1 0x20 ADD PUSH32 0x5061737365640000000000000000000000000000000000000000000000000000 DUP2 MSTORE POP PUSH1 0x4 PUSH1 0x0 DUP5 DUP2 MSTORE PUSH1 0x20 ADD SWAP1 DUP2 MSTORE PUSH1 0x20 ADD PUSH1 0x0 KECCAK256 PUSH1 0xA ADD SWAP1 DUP1 MLOAD SWAP1 PUSH1 0x20 ADD SWAP1 PUSH2 0x2089 SWAP3 SWAP2 SWAP1 PUSH2 0x3C54 JUMP JUMPDEST POP PUSH2 0x20F4 JUMP JUMPDEST PUSH1 0x2 SWAP1 POP PUSH1 0x40 MLOAD DUP1 PUSH1 0x40 ADD PUSH1 0x40 MSTORE DUP1 PUSH1 0x8 DUP2 MSTORE PUSH1 0x20 ADD PUSH32 0x52656A6563746564000000000000000000000000000000000000000000000000 DUP2 MSTORE POP PUSH1 0x4 PUSH1 0x0 DUP5 DUP2 MSTORE PUSH1 0x20 ADD SWAP1 DUP2 MSTORE PUSH1 0x20 ADD PUSH1 0x0 KECCAK256 PUSH1 0xA ADD SWAP1 DUP1 MLOAD SWAP1 PUSH1 0x20 ADD SWAP1 PUSH2 0x20F2 SWAP3 SWAP2 SWAP1 PUSH2 0x3C54 JUMP JUMPDEST POP JUMPDEST DUP1 PUSH1 0xC DUP5 PUSH1 0x40 MLOAD PUSH2 0x2105 SWAP2 SWAP1 PUSH2 0x4D71 JUMP JUMPDEST SWAP1 DUP2 MSTORE PUSH1 0x20 ADD PUSH1 0x40 MLOAD DUP1 SWAP2 SUB SWAP1 KECCAK256 PUSH1 0x6 ADD PUSH1 0x0 PUSH2 0x100 EXP DUP2 SLOAD DUP2 PUSH1 0xFF MUL NOT AND SWAP1 DUP4 PUSH1 0x4 DUP2 GT ISZERO PUSH2 0x2138 JUMPI PUSH2 0x2137 PUSH2 0x482E JUMP JUMPDEST JUMPDEST MUL OR SWAP1 SSTORE POP POP POP POP JUMP JUMPDEST PUSH1 0x0 DUP1 PUSH2 0x2166 PUSH1 0x40 MLOAD DUP1 PUSH1 0x20 ADD PUSH1 0x40 MSTORE DUP1 DUP6 PUSH8 0xFFFFFFFFFFFFFFFF AND DUP2 MSTORE POP PUSH2 0x225A JUMP JUMPDEST SWAP1 POP PUSH1 0x0 PUSH2 0x218B PUSH1 0x40 MLOAD DUP1 PUSH1 0x20 ADD PUSH1 0x40 MSTORE DUP1 DUP7 PUSH8 0xFFFFFFFFFFFFFFFF AND DUP2 MSTORE POP PUSH2 0x2928 JUMP JUMPDEST SWAP1 POP PUSH2 0x21AE DUP3 PUSH1 0x0 ADD MLOAD DUP3 PUSH1 0x0 ADD MLOAD DUP5 PUSH1 0x20 ADD MLOAD PUSH8 0xFFFFFFFFFFFFFFFF AND PUSH2 0x29AC JUMP JUMPDEST PUSH1 0x0 PUSH2 0x21D1 PUSH1 0x40 MLOAD DUP1 PUSH1 0x20 ADD PUSH1 0x40 MSTORE DUP1 DUP8 PUSH8 0xFFFFFFFFFFFFFFFF AND DUP2 MSTORE POP PUSH2 0x2B18 JUMP JUMPDEST SWAP1 POP PUSH1 0x3 PUSH1 0xC DUP5 PUSH1 0x0 ADD MLOAD PUSH1 0x40 MLOAD PUSH2 0x21E9 SWAP2 SWAP1 PUSH2 0x4D71 JUMP JUMPDEST SWAP1 DUP2 MSTORE PUSH1 0x20 ADD PUSH1 0x40 MLOAD DUP1 SWAP2 SUB SWAP1 KECCAK256 PUSH1 0x6 ADD PUSH1 0x0 PUSH2 0x100 EXP DUP2 SLOAD DUP2 PUSH1 0xFF MUL NOT AND SWAP1 DUP4 PUSH1 0x4 DUP2 GT ISZERO PUSH2 0x221C JUMPI PUSH2 0x221B PUSH2 0x482E JUMP JUMPDEST JUMPDEST MUL OR SWAP1 SSTORE POP TIMESTAMP PUSH1 0xC DUP5 PUSH1 0x0 ADD MLOAD PUSH1 0x40 MLOAD PUSH2 0x2236 SWAP2 SWAP1 PUSH2 0x4D71 JUMP JUMPDEST SWAP1 DUP2 MSTORE PUSH1 0x20 ADD PUSH1 0x40 MLOAD DUP1 SWAP2 SUB SWAP1 KECCAK256 PUSH1 0x4 ADD DUP2 SWAP1 SSTORE POP DUP1 PUSH1 0x0 ADD MLOAD SWAP4 POP POP POP POP SWAP2 SWAP1 POP JUMP JUMPDEST PUSH2 0x2262 PUSH2 0x3CDA JUMP JUMPDEST PUSH1 0x0 PUSH2 0x226D DUP4 PUSH2 0x2B9C JUMP JUMPDEST SWAP1 POP PUSH1 0x0 PUSH2 0x22B6 PUSH4 0x4505760A PUSH1 0x40 MLOAD DUP1 PUSH1 0x40 ADD PUSH1 0x40 MSTORE DUP1 PUSH1 0x2 DUP2 MSTORE PUSH1 0x20 ADD PUSH31 0x5000000000000000000000000000000000000000000000000000000000000 DUP2 MSTORE POP DUP5 PUSH1 0x71 PUSH2 0x2BD4 JUMP JUMPDEST SWAP1 POP PUSH2 0x22C0 PUSH2 0x3CDA JUMP JUMPDEST PUSH2 0x22D3 DUP3 DUP3 PUSH2 0x2BFF SWAP1 SWAP2 SWAP1 PUSH4 0xFFFFFFFF AND JUMP JUMPDEST DUP1 SWAP4 POP POP POP POP SWAP2 SWAP1 POP JUMP JUMPDEST PUSH1 0x0 PUSH1 0x40 MLOAD DUP1 PUSH1 0xE0 ADD PUSH1 0x40 MSTORE DUP1 CALLER PUSH20 0xFFFFFFFFFFFFFFFFFFFFFFFFFFFFFFFFFFFFFFFF AND DUP2 MSTORE PUSH1 0x20 ADD DUP8 DUP2 MSTORE PUSH1 0x20 ADD DUP7 DUP2 MSTORE PUSH1 0x20 ADD PUSH1 0x0 DUP2 MSTORE PUSH1 0x20 ADD PUSH1 0x0 DUP2 MSTORE PUSH1 0x20 ADD DUP6 DUP2 MSTORE PUSH1 0x20 ADD PUSH1 0x0 PUSH1 0x4 DUP2 GT ISZERO PUSH2 0x233B JUMPI PUSH2 0x233A PUSH2 0x482E JUMP JUMPDEST JUMPDEST DUP2 MSTORE POP SWAP1 POP PUSH1 0x6 PUSH1 0x0 DUP2 SLOAD DUP1 SWAP3 SWAP2 SWAP1 PUSH2 0x2353 SWAP1 PUSH2 0x50CA JUMP JUMPDEST SWAP2 SWAP1 POP SSTORE POP PUSH1 0x0 PUSH1 0x40 MLOAD DUP1 PUSH2 0x160 ADD PUSH1 0x40 MSTORE DUP1 PUSH1 0x6 SLOAD DUP2 MSTORE PUSH1 0x20 ADD DUP6 DUP2 MSTORE PUSH1 0x20 ADD DUP5 DUP2 MSTORE PUSH1 0x20 ADD CALLER PUSH20 0xFFFFFFFFFFFFFFFFFFFFFFFFFFFFFFFFFFFFFFFF AND DUP2 MSTORE PUSH1 0x20 ADD DUP9 DUP2 MSTORE PUSH1 0x20 ADD DUP8 DUP2 MSTORE PUSH1 0x20 ADD PUSH1 0x0 DUP2 MSTORE PUSH1 0x20 ADD PUSH1 0x0 DUP2 MSTORE PUSH1 0x20 ADD TIMESTAMP DUP2 MSTORE PUSH1 0x20 ADD PUSH2 0xE10 TIMESTAMP PUSH2 0x23C4 SWAP2 SWAP1 PUSH2 0x4FB3 JUMP JUMPDEST DUP2 MSTORE PUSH1 0x20 ADD PUSH1 0x40 MLOAD DUP1 PUSH1 0x40 ADD PUSH1 0x40 MSTORE DUP1 PUSH1 0x7 DUP2 MSTORE PUSH1 0x20 ADD PUSH32 0x70656E64696E6700000000000000000000000000000000000000000000000000 DUP2 MSTORE POP DUP2 MSTORE POP SWAP1 POP DUP1 PUSH1 0x4 PUSH1 0x0 PUSH1 0x6 SLOAD DUP2 MSTORE PUSH1 0x20 ADD SWAP1 DUP2 MSTORE PUSH1 0x20 ADD PUSH1 0x0 KECCAK256 PUSH1 0x0 DUP3 ADD MLOAD DUP2 PUSH1 0x0 ADD SSTORE PUSH1 0x20 DUP3 ADD MLOAD DUP2 PUSH1 0x1 ADD SWAP1 DUP1 MLOAD SWAP1 PUSH1 0x20 ADD SWAP1 PUSH2 0x2440 SWAP3 SWAP2 SWAP1 PUSH2 0x3C54 JUMP JUMPDEST POP PUSH1 0x40 DUP3 ADD MLOAD DUP2 PUSH1 0x2 ADD SWAP1 DUP1 MLOAD SWAP1 PUSH1 0x20 ADD SWAP1 PUSH2 0x245D SWAP3 SWAP2 SWAP1 PUSH2 0x3C54 JUMP JUMPDEST POP PUSH1 0x60 DUP3 ADD MLOAD DUP2 PUSH1 0x3 ADD PUSH1 0x0 PUSH2 0x100 EXP DUP2 SLOAD DUP2 PUSH20 0xFFFFFFFFFFFFFFFFFFFFFFFFFFFFFFFFFFFFFFFF MUL NOT AND SWAP1 DUP4 PUSH20 0xFFFFFFFFFFFFFFFFFFFFFFFFFFFFFFFFFFFFFFFF AND MUL OR SWAP1 SSTORE POP PUSH1 0x80 DUP3 ADD MLOAD DUP2 PUSH1 0x4 ADD SWAP1 DUP1 MLOAD SWAP1 PUSH1 0x20 ADD SWAP1 PUSH2 0x24C1 SWAP3 SWAP2 SWAP1 PUSH2 0x3CFE JUMP JUMPDEST POP PUSH1 0xA0 DUP3 ADD MLOAD DUP2 PUSH1 0x5 ADD SSTORE PUSH1 0xC0 DUP3 ADD MLOAD DUP2 PUSH1 0x6 ADD SSTORE PUSH1 0xE0 DUP3 ADD MLOAD DUP2 PUSH1 0x7 ADD SSTORE PUSH2 0x100 DUP3 ADD MLOAD DUP2 PUSH1 0x8 ADD SSTORE PUSH2 0x120 DUP3 ADD MLOAD DUP2 PUSH1 0x9 ADD SSTORE PUSH2 0x140 DUP3 ADD MLOAD DUP2 PUSH1 0xA ADD SWAP1 DUP1 MLOAD SWAP1 PUSH1 0x20 ADD SWAP1 PUSH2 0x2513 SWAP3 SWAP2 SWAP1 PUSH2 0x3C54 JUMP JUMPDEST POP SWAP1 POP POP DUP2 PUSH1 0xC DUP9 PUSH1 0x40 MLOAD PUSH2 0x2528 SWAP2 SWAP1 PUSH2 0x4D71 JUMP JUMPDEST SWAP1 DUP2 MSTORE PUSH1 0x20 ADD PUSH1 0x40 MLOAD DUP1 SWAP2 SUB SWAP1 KECCAK256 PUSH1 0x0 DUP3 ADD MLOAD DUP2 PUSH1 0x0 ADD PUSH1 0x0 PUSH2 0x100 EXP DUP2 SLOAD DUP2 PUSH20 0xFFFFFFFFFFFFFFFFFFFFFFFFFFFFFFFFFFFFFFFF MUL NOT AND SWAP1 DUP4 PUSH20 0xFFFFFFFFFFFFFFFFFFFFFFFFFFFFFFFFFFFFFFFF AND MUL OR SWAP1 SSTORE POP PUSH1 0x20 DUP3 ADD MLOAD DUP2 PUSH1 0x1 ADD SWAP1 DUP1 MLOAD SWAP1 PUSH1 0x20 ADD SWAP1 PUSH2 0x2599 SWAP3 SWAP2 SWAP1 PUSH2 0x3CFE JUMP JUMPDEST POP PUSH1 0x40 DUP3 ADD MLOAD DUP2 PUSH1 0x2 ADD SSTORE PUSH1 0x60 DUP3 ADD MLOAD DUP2 PUSH1 0x3 ADD SSTORE PUSH1 0x80 DUP3 ADD MLOAD DUP2 PUSH1 0x4 ADD SSTORE PUSH1 0xA0 DUP3 ADD MLOAD DUP2 PUSH1 0x5 ADD SSTORE PUSH1 0xC0 DUP3 ADD MLOAD DUP2 PUSH1 0x6 ADD PUSH1 0x0 PUSH2 0x100 EXP DUP2 SLOAD DUP2 PUSH1 0xFF MUL NOT AND SWAP1 DUP4 PUSH1 0x4 DUP2 GT ISZERO PUSH2 0x25ED JUMPI PUSH2 0x25EC PUSH2 0x482E JUMP JUMPDEST JUMPDEST MUL OR SWAP1 SSTORE POP SWAP1 POP POP POP POP POP POP POP POP POP JUMP JUMPDEST PUSH1 0x60 PUSH1 0x0 PUSH1 0x2 DUP4 PUSH1 0x2 PUSH2 0x2611 SWAP2 SWAP1 PUSH2 0x5477 JUMP JUMPDEST PUSH2 0x261B SWAP2 SWAP1 PUSH2 0x4FB3 JUMP JUMPDEST PUSH8 0xFFFFFFFFFFFFFFFF DUP2 GT ISZERO PUSH2 0x2634 JUMPI PUSH2 0x2633 PUSH2 0x4156 JUMP JUMPDEST JUMPDEST PUSH1 0x40 MLOAD SWAP1 DUP1 DUP3 MSTORE DUP1 PUSH1 0x1F ADD PUSH1 0x1F NOT AND PUSH1 0x20 ADD DUP3 ADD PUSH1 0x40 MSTORE DUP1 ISZERO PUSH2 0x2666 JUMPI DUP2 PUSH1 0x20 ADD PUSH1 0x1 DUP3 MUL DUP1 CALLDATASIZE DUP4 CALLDATACOPY DUP1 DUP3 ADD SWAP2 POP POP SWAP1 POP JUMPDEST POP SWAP1 POP PUSH32 0x3000000000000000000000000000000000000000000000000000000000000000 DUP2 PUSH1 0x0 DUP2 MLOAD DUP2 LT PUSH2 0x269E JUMPI PUSH2 0x269D PUSH2 0x509B JUMP JUMPDEST JUMPDEST PUSH1 0x20 ADD ADD SWAP1 PUSH31 0xFFFFFFFFFFFFFFFFFFFFFFFFFFFFFFFFFFFFFFFFFFFFFFFFFFFFFFFFFFFFFF NOT AND SWAP1 DUP2 PUSH1 0x0 BYTE SWAP1 MSTORE8 POP PUSH32 0x7800000000000000000000000000000000000000000000000000000000000000 DUP2 PUSH1 0x1 DUP2 MLOAD DUP2 LT PUSH2 0x2702 JUMPI PUSH2 0x2701 PUSH2 0x509B JUMP JUMPDEST JUMPDEST PUSH1 0x20 ADD ADD SWAP1 PUSH31 0xFFFFFFFFFFFFFFFFFFFFFFFFFFFFFFFFFFFFFFFFFFFFFFFFFFFFFFFFFFFFFF NOT AND SWAP1 DUP2 PUSH1 0x0 BYTE SWAP1 MSTORE8 POP PUSH1 0x0 PUSH1 0x1 DUP5 PUSH1 0x2 PUSH2 0x2742 SWAP2 SWAP1 PUSH2 0x5477 JUMP JUMPDEST PUSH2 0x274C SWAP2 SWAP1 PUSH2 0x4FB3 JUMP JUMPDEST SWAP1 POP JUMPDEST PUSH1 0x1 DUP2 GT ISZERO PUSH2 0x27EC JUMPI PUSH32 0x3031323334353637383961626364656600000000000000000000000000000000 PUSH1 0xF DUP7 AND PUSH1 0x10 DUP2 LT PUSH2 0x278E JUMPI PUSH2 0x278D PUSH2 0x509B JUMP JUMPDEST JUMPDEST BYTE PUSH1 0xF8 SHL DUP3 DUP3 DUP2 MLOAD DUP2 LT PUSH2 0x27A5 JUMPI PUSH2 0x27A4 PUSH2 0x509B JUMP JUMPDEST JUMPDEST PUSH1 0x20 ADD ADD SWAP1 PUSH31 0xFFFFFFFFFFFFFFFFFFFFFFFFFFFFFFFFFFFFFFFFFFFFFFFFFFFFFFFFFFFFFF NOT AND SWAP1 DUP2 PUSH1 0x0 BYTE SWAP1 MSTORE8 POP PUSH1 0x4 DUP6 SWAP1 SHR SWAP5 POP DUP1 PUSH2 0x27E5 SWAP1 PUSH2 0x54D1 JUMP JUMPDEST SWAP1 POP PUSH2 0x274F JUMP JUMPDEST POP PUSH1 0x0 DUP5 EQ PUSH2 0x2830 JUMPI PUSH1 0x40 MLOAD PUSH32 0x8C379A000000000000000000000000000000000000000000000000000000000 DUP2 MSTORE PUSH1 0x4 ADD PUSH2 0x2827 SWAP1 PUSH2 0x5546 JUMP JUMPDEST PUSH1 0x40 MLOAD DUP1 SWAP2 SUB SWAP1 REVERT JUMPDEST DUP1 SWAP2 POP POP SWAP3 SWAP2 POP POP JUMP JUMPDEST PUSH1 0x0 DUP1 PUSH1 0x0 PUSH1 0x60 PUSH1 0x0 DUP1 PUSH20 0xFE00000000000000000000000000000000000005 PUSH20 0xFFFFFFFFFFFFFFFFFFFFFFFFFFFFFFFFFFFFFFFF AND DUP13 DUP13 DUP13 DUP13 DUP13 DUP13 PUSH1 0x40 MLOAD PUSH1 0x20 ADD PUSH2 0x288A SWAP7 SWAP6 SWAP5 SWAP4 SWAP3 SWAP2 SWAP1 PUSH2 0x5566 JUMP JUMPDEST PUSH1 0x40 MLOAD PUSH1 0x20 DUP2 DUP4 SUB SUB DUP2 MSTORE SWAP1 PUSH1 0x40 MSTORE PUSH1 0x40 MLOAD PUSH2 0x28A6 SWAP2 SWAP1 PUSH2 0x4D71 JUMP JUMPDEST PUSH1 0x0 PUSH1 0x40 MLOAD DUP1 DUP4 SUB DUP2 DUP6 GAS DELEGATECALL SWAP2 POP POP RETURNDATASIZE DUP1 PUSH1 0x0 DUP2 EQ PUSH2 0x28E1 JUMPI PUSH1 0x40 MLOAD SWAP2 POP PUSH1 0x1F NOT PUSH1 0x3F RETURNDATASIZE ADD AND DUP3 ADD PUSH1 0x40 MSTORE RETURNDATASIZE DUP3 MSTORE RETURNDATASIZE PUSH1 0x0 PUSH1 0x20 DUP5 ADD RETURNDATACOPY PUSH2 0x28E6 JUMP JUMPDEST PUSH1 0x60 SWAP2 POP JUMPDEST POP SWAP2 POP SWAP2 POP PUSH1 0x0 DUP1 PUSH1 0x0 DUP4 DUP1 PUSH1 0x20 ADD SWAP1 MLOAD DUP2 ADD SWAP1 PUSH2 0x2904 SWAP2 SWAP1 PUSH2 0x5689 JUMP JUMPDEST SWAP3 POP SWAP3 POP SWAP3 POP DUP5 DUP4 DUP4 DUP4 SWAP9 POP SWAP9 POP SWAP9 POP SWAP9 POP POP POP POP POP POP SWAP7 POP SWAP7 POP SWAP7 POP SWAP7 SWAP3 POP POP POP JUMP JUMPDEST PUSH2 0x2930 PUSH2 0x3D84 JUMP JUMPDEST PUSH1 0x0 PUSH2 0x293B DUP4 PUSH2 0x2C80 JUMP JUMPDEST SWAP1 POP PUSH1 0x0 PUSH2 0x2984 PUSH4 0x37BC36DA PUSH1 0x40 MLOAD DUP1 PUSH1 0x40 ADD PUSH1 0x40 MSTORE DUP1 PUSH1 0x2 DUP2 MSTORE PUSH1 0x20 ADD PUSH31 0x5000000000000000000000000000000000000000000000000000000000000 DUP2 MSTORE POP DUP5 PUSH1 0x71 PUSH2 0x2BD4 JUMP JUMPDEST SWAP1 POP PUSH2 0x298E PUSH2 0x3D84 JUMP JUMPDEST PUSH2 0x29A1 DUP3 DUP3 PUSH2 0x2CB8 SWAP1 SWAP2 SWAP1 PUSH4 0xFFFFFFFF AND JUMP JUMPDEST DUP1 SWAP4 POP POP POP POP SWAP2 SWAP1 POP JUMP JUMPDEST PUSH1 0x1 PUSH1 0x4 DUP2 GT ISZERO PUSH2 0x29C0 JUMPI PUSH2 0x29BF PUSH2 0x482E JUMP JUMPDEST JUMPDEST PUSH1 0xC DUP5 PUSH1 0x40 MLOAD PUSH2 0x29D0 SWAP2 SWAP1 PUSH2 0x4D71 JUMP JUMPDEST SWAP1 DUP2 MSTORE PUSH1 0x20 ADD PUSH1 0x40 MLOAD DUP1 SWAP2 SUB SWAP1 KECCAK256 PUSH1 0x6 ADD PUSH1 0x0 SWAP1 SLOAD SWAP1 PUSH2 0x100 EXP SWAP1 DIV PUSH1 0xFF AND PUSH1 0x4 DUP2 GT ISZERO PUSH2 0x2A01 JUMPI PUSH2 0x2A00 PUSH2 0x482E JUMP JUMPDEST JUMPDEST EQ PUSH2 0x2A0B JUMPI PUSH1 0x0 DUP1 REVERT JUMPDEST DUP1 PUSH1 0xC DUP5 PUSH1 0x40 MLOAD PUSH2 0x2A1C SWAP2 SWAP1 PUSH2 0x4D71 JUMP JUMPDEST SWAP1 DUP2 MSTORE PUSH1 0x20 ADD PUSH1 0x40 MLOAD DUP1 SWAP2 SUB SWAP1 KECCAK256 PUSH1 0x2 ADD SLOAD EQ PUSH2 0x2A6E JUMPI PUSH1 0x40 MLOAD PUSH32 0x8C379A000000000000000000000000000000000000000000000000000000000 DUP2 MSTORE PUSH1 0x4 ADD PUSH2 0x2A65 SWAP1 PUSH2 0x5744 JUMP JUMPDEST PUSH1 0x40 MLOAD DUP1 SWAP2 SUB SWAP1 REVERT JUMPDEST PUSH2 0x2A78 DUP4 DUP4 PUSH2 0x2CF3 JUMP JUMPDEST PUSH2 0x2AB7 JUMPI PUSH1 0x40 MLOAD PUSH32 0x8C379A000000000000000000000000000000000000000000000000000000000 DUP2 MSTORE PUSH1 0x4 ADD PUSH2 0x2AAE SWAP1 PUSH2 0x57D6 JUMP JUMPDEST PUSH1 0x40 MLOAD DUP1 SWAP2 SUB SWAP1 REVERT JUMPDEST PUSH1 0x1 PUSH1 0x9 DUP5 PUSH1 0x40 MLOAD PUSH2 0x2AC9 SWAP2 SWAP1 PUSH2 0x4D71 JUMP JUMPDEST SWAP1 DUP2 MSTORE PUSH1 0x20 ADD PUSH1 0x40 MLOAD DUP1 SWAP2 SUB SWAP1 KECCAK256 PUSH1 0x0 DUP5 PUSH8 0xFFFFFFFFFFFFFFFF AND PUSH8 0xFFFFFFFFFFFFFFFF AND DUP2 MSTORE PUSH1 0x20 ADD SWAP1 DUP2 MSTORE PUSH1 0x20 ADD PUSH1 0x0 KECCAK256 PUSH1 0x0 PUSH2 0x100 EXP DUP2 SLOAD DUP2 PUSH1 0xFF MUL NOT AND SWAP1 DUP4 ISZERO ISZERO MUL OR SWAP1 SSTORE POP POP POP POP JUMP JUMPDEST PUSH2 0x2B20 PUSH2 0x3DA1 JUMP JUMPDEST PUSH1 0x0 PUSH2 0x2B2B DUP4 PUSH2 0x2D54 JUMP JUMPDEST SWAP1 POP PUSH1 0x0 PUSH2 0x2B74 PUSH4 0x7A1F051 PUSH1 0x40 MLOAD DUP1 PUSH1 0x40 ADD PUSH1 0x40 MSTORE DUP1 PUSH1 0x2 DUP2 MSTORE PUSH1 0x20 ADD PUSH31 0x5000000000000000000000000000000000000000000000000000000000000 DUP2 MSTORE POP DUP5 PUSH1 0x71 PUSH2 0x2BD4 JUMP JUMPDEST SWAP1 POP PUSH2 0x2B7E PUSH2 0x3DA1 JUMP JUMPDEST PUSH2 0x2B91 DUP3 DUP3 PUSH2 0x2D8C SWAP1 SWAP2 SWAP1 PUSH4 0xFFFFFFFF AND JUMP JUMPDEST DUP1 SWAP4 POP POP POP POP SWAP2 SWAP1 POP JUMP JUMPDEST PUSH1 0x60 PUSH1 0x0 PUSH2 0x2BAA PUSH1 0x40 PUSH2 0x2DC7 JUMP JUMPDEST SWAP1 POP PUSH2 0x2BC3 DUP4 PUSH1 0x0 ADD MLOAD DUP3 PUSH2 0x2DEE SWAP1 SWAP2 SWAP1 PUSH4 0xFFFFFFFF AND JUMP JUMPDEST PUSH2 0x2BCC DUP2 PUSH2 0x2DFE JUMP JUMPDEST SWAP2 POP POP SWAP2 SWAP1 POP JUMP JUMPDEST PUSH1 0x60 PUSH2 0x2BF5 PUSH2 0x2BE2 DUP7 PUSH2 0x2E57 JUMP JUMPDEST PUSH8 0xFFFFFFFFFFFFFFFF AND DUP6 DUP6 DUP6 CALLVALUE PUSH2 0x2E61 JUMP JUMPDEST SWAP1 POP SWAP5 SWAP4 POP POP POP POP JUMP JUMPDEST PUSH1 0x0 DUP1 PUSH2 0x2C15 DUP3 DUP5 PUSH2 0x2F06 SWAP1 SWAP2 SWAP1 PUSH4 0xFFFFFFFF AND JUMP JUMPDEST DUP1 SWAP4 POP DUP2 SWAP3 POP POP POP PUSH1 0x0 DUP2 GT ISZERO PUSH2 0x2C7A JUMPI PUSH2 0x2C39 DUP3 DUP5 PUSH2 0x2F55 SWAP1 SWAP2 SWAP1 PUSH4 0xFFFFFFFF AND JUMP JUMPDEST DUP6 PUSH1 0x0 ADD DUP2 SWAP5 POP DUP3 SWAP1 MSTORE POP POP PUSH2 0x2C58 DUP3 DUP5 PUSH2 0x30FF SWAP1 SWAP2 SWAP1 PUSH4 0xFFFFFFFF AND JUMP JUMPDEST DUP6 PUSH1 0x20 ADD DUP2 SWAP5 POP DUP3 PUSH8 0xFFFFFFFFFFFFFFFF AND PUSH8 0xFFFFFFFFFFFFFFFF AND DUP2 MSTORE POP POP POP JUMPDEST POP POP POP POP JUMP JUMPDEST PUSH1 0x60 PUSH1 0x0 PUSH2 0x2C8E PUSH1 0x40 PUSH2 0x2DC7 JUMP JUMPDEST SWAP1 POP PUSH2 0x2CA7 DUP4 PUSH1 0x0 ADD MLOAD DUP3 PUSH2 0x2DEE SWAP1 SWAP2 SWAP1 PUSH4 0xFFFFFFFF AND JUMP JUMPDEST PUSH2 0x2CB0 DUP2 PUSH2 0x2DFE JUMP JUMPDEST SWAP2 POP POP SWAP2 SWAP1 POP JUMP JUMPDEST PUSH1 0x0 PUSH2 0x2CCD DUP2 DUP4 PUSH2 0x30FF SWAP1 SWAP2 SWAP1 PUSH4 0xFFFFFFFF AND JUMP JUMPDEST DUP5 PUSH1 0x0 ADD DUP2 SWAP4 POP DUP3 PUSH8 0xFFFFFFFFFFFFFFFF AND PUSH8 0xFFFFFFFFFFFFFFFF AND DUP2 MSTORE POP POP POP POP POP POP JUMP JUMPDEST PUSH1 0x0 DUP1 PUSH1 0x9 DUP5 PUSH1 0x40 MLOAD PUSH2 0x2D06 SWAP2 SWAP1 PUSH2 0x4D71 JUMP JUMPDEST SWAP1 DUP2 MSTORE PUSH1 0x20 ADD PUSH1 0x40 MLOAD DUP1 SWAP2 SUB SWAP1 KECCAK256 PUSH1 0x0 DUP5 PUSH8 0xFFFFFFFFFFFFFFFF AND PUSH8 0xFFFFFFFFFFFFFFFF AND DUP2 MSTORE PUSH1 0x20 ADD SWAP1 DUP2 MSTORE PUSH1 0x20 ADD PUSH1 0x0 KECCAK256 PUSH1 0x0 SWAP1 SLOAD SWAP1 PUSH2 0x100 EXP SWAP1 DIV PUSH1 0xFF AND SWAP1 POP DUP1 ISZERO SWAP2 POP POP SWAP3 SWAP2 POP POP JUMP JUMPDEST PUSH1 0x60 PUSH1 0x0 PUSH2 0x2D62 PUSH1 0x40 PUSH2 0x2DC7 JUMP JUMPDEST SWAP1 POP PUSH2 0x2D7B DUP4 PUSH1 0x0 ADD MLOAD DUP3 PUSH2 0x2DEE SWAP1 SWAP2 SWAP1 PUSH4 0xFFFFFFFF AND JUMP JUMPDEST PUSH2 0x2D84 DUP2 PUSH2 0x2DFE JUMP JUMPDEST SWAP2 POP POP SWAP2 SWAP1 POP JUMP JUMPDEST PUSH1 0x0 PUSH2 0x2DA1 DUP2 DUP4 PUSH2 0x30FF SWAP1 SWAP2 SWAP1 PUSH4 0xFFFFFFFF AND JUMP JUMPDEST DUP5 PUSH1 0x0 ADD DUP2 SWAP4 POP DUP3 PUSH8 0xFFFFFFFFFFFFFFFF AND PUSH8 0xFFFFFFFFFFFFFFFF AND DUP2 MSTORE POP POP POP POP POP POP JUMP JUMPDEST PUSH2 0x2DCF PUSH2 0x3DBE JUMP JUMPDEST PUSH2 0x2DDD DUP2 PUSH1 0x0 ADD MLOAD DUP4 PUSH2 0x314E JUMP JUMPDEST POP PUSH1 0x0 DUP2 PUSH1 0x20 ADD DUP2 DUP2 MSTORE POP POP SWAP2 SWAP1 POP JUMP JUMPDEST PUSH2 0x2DFA DUP3 PUSH1 0x0 DUP4 PUSH2 0x31C7 JUMP JUMPDEST POP POP JUMP JUMPDEST PUSH1 0x60 PUSH1 0x0 DUP3 PUSH1 0x20 ADD MLOAD EQ PUSH2 0x2E47 JUMPI PUSH1 0x40 MLOAD PUSH32 0x8C379A000000000000000000000000000000000000000000000000000000000 DUP2 MSTORE PUSH1 0x4 ADD PUSH2 0x2E3E SWAP1 PUSH2 0x5842 JUMP JUMPDEST PUSH1 0x40 MLOAD DUP1 SWAP2 SUB SWAP1 REVERT JUMPDEST DUP2 PUSH1 0x0 ADD MLOAD PUSH1 0x0 ADD MLOAD SWAP1 POP SWAP2 SWAP1 POP JUMP JUMPDEST PUSH1 0x0 DUP2 SWAP1 POP SWAP2 SWAP1 POP JUMP JUMPDEST PUSH1 0x60 PUSH1 0x0 DUP1 PUSH1 0x0 DUP1 PUSH2 0x2E80 PUSH2 0x2E75 DUP12 PUSH2 0x2E57 JUMP JUMPDEST DUP8 PUSH1 0x0 DUP11 DUP13 DUP15 PUSH2 0x3370 JUMP JUMPDEST SWAP4 POP SWAP4 POP SWAP4 POP SWAP4 POP PUSH1 0x0 DUP4 EQ PUSH2 0x2E95 DUP5 PUSH2 0x345E JUMP JUMPDEST PUSH1 0x40 MLOAD PUSH1 0x20 ADD PUSH2 0x2EA5 SWAP2 SWAP1 PUSH2 0x5888 JUMP JUMPDEST PUSH1 0x40 MLOAD PUSH1 0x20 DUP2 DUP4 SUB SUB DUP2 MSTORE SWAP1 PUSH1 0x40 MSTORE SWAP1 PUSH2 0x2EF5 JUMPI PUSH1 0x40 MLOAD PUSH32 0x8C379A000000000000000000000000000000000000000000000000000000000 DUP2 MSTORE PUSH1 0x4 ADD PUSH2 0x2EEC SWAP2 SWAP1 PUSH2 0x5355 JUMP JUMPDEST PUSH1 0x40 MLOAD DUP1 SWAP2 SUB SWAP1 REVERT JUMPDEST POP DUP1 SWAP5 POP POP POP POP POP SWAP6 SWAP5 POP POP POP POP POP JUMP JUMPDEST PUSH1 0x0 DUP1 PUSH1 0x0 DUP1 PUSH2 0x2F16 DUP7 DUP7 PUSH2 0x352C JUMP JUMPDEST DUP2 PUSH8 0xFFFFFFFFFFFFFFFF AND SWAP2 POP DUP1 SWAP8 POP DUP2 SWAP4 POP DUP3 SWAP5 POP POP POP POP PUSH1 0x4 PUSH1 0xFF AND DUP3 PUSH1 0xFF AND EQ PUSH2 0x2F46 JUMPI PUSH2 0x2F45 PUSH2 0x58AE JUMP JUMPDEST JUMPDEST DUP1 DUP6 SWAP4 POP SWAP4 POP POP POP SWAP3 POP SWAP3 SWAP1 POP JUMP JUMPDEST PUSH1 0x60 PUSH1 0x0 DUP1 PUSH1 0x0 PUSH2 0x2F66 DUP7 DUP7 PUSH2 0x352C JUMP JUMPDEST DUP2 PUSH8 0xFFFFFFFFFFFFFFFF AND SWAP2 POP DUP1 SWAP8 POP DUP2 SWAP4 POP DUP3 SWAP5 POP POP POP POP PUSH1 0x6 PUSH1 0xFF AND DUP3 PUSH1 0xFF AND EQ DUP1 PUSH2 0x2F9A JUMPI POP PUSH1 0x2 PUSH1 0xFF AND DUP3 PUSH1 0xFF AND EQ JUMPDEST PUSH2 0x2FA7 JUMPI PUSH2 0x2FA6 PUSH2 0x58AE JUMP JUMPDEST JUMPDEST PUSH1 0x6 PUSH1 0xFF AND DUP3 PUSH1 0xFF AND SUB PUSH2 0x2FF0 JUMPI PUSH2 0x2FBF DUP7 DUP7 PUSH2 0x352C JUMP JUMPDEST DUP2 PUSH8 0xFFFFFFFFFFFFFFFF AND SWAP2 POP DUP1 SWAP8 POP DUP2 SWAP4 POP DUP3 SWAP5 POP POP POP POP PUSH1 0x2 PUSH1 0xFF AND DUP3 PUSH1 0xFF AND EQ PUSH2 0x2FEF JUMPI PUSH2 0x2FEE PUSH2 0x58AE JUMP JUMPDEST JUMPDEST JUMPDEST PUSH1 0x0 DUP2 DUP7 PUSH2 0x2FFE SWAP2 SWAP1 PUSH2 0x4FB3 JUMP JUMPDEST SWAP1 POP PUSH1 0x0 DUP3 PUSH8 0xFFFFFFFFFFFFFFFF DUP2 GT ISZERO PUSH2 0x301C JUMPI PUSH2 0x301B PUSH2 0x4156 JUMP JUMPDEST JUMPDEST PUSH1 0x40 MLOAD SWAP1 DUP1 DUP3 MSTORE DUP1 PUSH1 0x1F ADD PUSH1 0x1F NOT AND PUSH1 0x20 ADD DUP3 ADD PUSH1 0x40 MSTORE DUP1 ISZERO PUSH2 0x304E JUMPI DUP2 PUSH1 0x20 ADD PUSH1 0x1 DUP3 MUL DUP1 CALLDATASIZE DUP4 CALLDATACOPY DUP1 DUP3 ADD SWAP2 POP POP SWAP1 POP JUMPDEST POP SWAP1 POP PUSH1 0x0 DUP1 DUP9 SWAP1 POP JUMPDEST DUP4 DUP2 LT ISZERO PUSH2 0x30E1 JUMPI DUP10 DUP2 DUP2 MLOAD DUP2 LT PUSH2 0x3073 JUMPI PUSH2 0x3072 PUSH2 0x509B JUMP JUMPDEST JUMPDEST PUSH1 0x20 ADD ADD MLOAD PUSH1 0xF8 SHR PUSH1 0xF8 SHL DUP4 DUP4 DUP2 MLOAD DUP2 LT PUSH2 0x3091 JUMPI PUSH2 0x3090 PUSH2 0x509B JUMP JUMPDEST JUMPDEST PUSH1 0x20 ADD ADD SWAP1 PUSH31 0xFFFFFFFFFFFFFFFFFFFFFFFFFFFFFFFFFFFFFFFFFFFFFFFFFFFFFFFFFFFFFF NOT AND SWAP1 DUP2 PUSH1 0x0 BYTE SWAP1 MSTORE8 POP DUP2 DUP1 PUSH2 0x30CB SWAP1 PUSH2 0x50CA JUMP JUMPDEST SWAP3 POP POP DUP1 DUP1 PUSH2 0x30D9 SWAP1 PUSH2 0x50CA JUMP JUMPDEST SWAP2 POP POP PUSH2 0x3058 JUMP JUMPDEST POP DUP2 DUP5 DUP10 PUSH2 0x30EF SWAP2 SWAP1 PUSH2 0x4FB3 JUMP JUMPDEST SWAP7 POP SWAP7 POP POP POP POP POP POP SWAP3 POP SWAP3 SWAP1 POP JUMP JUMPDEST PUSH1 0x0 DUP1 PUSH1 0x0 DUP1 PUSH2 0x310F DUP7 DUP7 PUSH2 0x352C JUMP JUMPDEST DUP2 PUSH8 0xFFFFFFFFFFFFFFFF AND SWAP2 POP DUP1 SWAP8 POP DUP2 SWAP4 POP DUP3 SWAP5 POP POP POP POP PUSH1 0x0 PUSH1 0xFF AND DUP3 PUSH1 0xFF AND EQ PUSH2 0x313F JUMPI PUSH2 0x313E PUSH2 0x58AE JUMP JUMPDEST JUMPDEST DUP1 DUP6 SWAP4 POP SWAP4 POP POP POP SWAP3 POP SWAP3 SWAP1 POP JUMP JUMPDEST PUSH2 0x3156 PUSH2 0x3DDE JUMP JUMPDEST PUSH1 0x0 PUSH1 0x20 DUP4 PUSH2 0x3165 SWAP2 SWAP1 PUSH2 0x58DD JUMP JUMPDEST EQ PUSH2 0x3191 JUMPI PUSH1 0x20 DUP3 PUSH2 0x3177 SWAP2 SWAP1 PUSH2 0x58DD JUMP JUMPDEST PUSH1 0x20 PUSH2 0x3183 SWAP2 SWAP1 PUSH2 0x5377 JUMP JUMPDEST DUP3 PUSH2 0x318E SWAP2 SWAP1 PUSH2 0x4FB3 JUMP JUMPDEST SWAP2 POP JUMPDEST DUP2 DUP4 PUSH1 0x20 ADD DUP2 DUP2 MSTORE POP POP PUSH1 0x40 MLOAD DUP1 DUP5 MSTORE PUSH1 0x0 DUP2 MSTORE DUP3 DUP2 ADD PUSH1 0x20 ADD DUP2 DUP2 LT ISZERO PUSH2 0x31B8 JUMPI PUSH1 0x0 DUP1 REVERT JUMPDEST DUP1 PUSH1 0x40 MSTORE POP POP DUP3 SWAP1 POP SWAP3 SWAP2 POP POP JUMP JUMPDEST PUSH1 0x17 DUP2 PUSH8 0xFFFFFFFFFFFFFFFF AND GT PUSH2 0x3202 JUMPI PUSH2 0x31FC DUP2 PUSH1 0x5 DUP5 PUSH1 0xFF AND SWAP1 SHL PUSH1 0xFF AND OR DUP5 PUSH1 0x0 ADD MLOAD PUSH2 0x36BA SWAP1 SWAP2 SWAP1 PUSH4 0xFFFFFFFF AND JUMP JUMPDEST POP PUSH2 0x336B JUMP JUMPDEST PUSH1 0xFF DUP2 PUSH8 0xFFFFFFFFFFFFFFFF AND GT PUSH2 0x3260 JUMPI PUSH2 0x3235 PUSH1 0x18 PUSH1 0x5 DUP5 PUSH1 0xFF AND SWAP1 SHL OR DUP5 PUSH1 0x0 ADD MLOAD PUSH2 0x36BA SWAP1 SWAP2 SWAP1 PUSH4 0xFFFFFFFF AND JUMP JUMPDEST POP PUSH2 0x325A DUP2 PUSH8 0xFFFFFFFFFFFFFFFF AND PUSH1 0x1 DUP6 PUSH1 0x0 ADD MLOAD PUSH2 0x3724 SWAP1 SWAP3 SWAP2 SWAP1 PUSH4 0xFFFFFFFF AND JUMP JUMPDEST POP PUSH2 0x336A JUMP JUMPDEST PUSH2 0xFFFF DUP2 PUSH8 0xFFFFFFFFFFFFFFFF AND GT PUSH2 0x32BF JUMPI PUSH2 0x3294 PUSH1 0x19 PUSH1 0x5 DUP5 PUSH1 0xFF AND SWAP1 SHL OR DUP5 PUSH1 0x0 ADD MLOAD PUSH2 0x36BA SWAP1 SWAP2 SWAP1 PUSH4 0xFFFFFFFF AND JUMP JUMPDEST POP PUSH2 0x32B9 DUP2 PUSH8 0xFFFFFFFFFFFFFFFF AND PUSH1 0x2 DUP6 PUSH1 0x0 ADD MLOAD PUSH2 0x3724 SWAP1 SWAP3 SWAP2 SWAP1 PUSH4 0xFFFFFFFF AND JUMP JUMPDEST POP PUSH2 0x3369 JUMP JUMPDEST PUSH4 0xFFFFFFFF DUP2 PUSH8 0xFFFFFFFFFFFFFFFF AND GT PUSH2 0x3320 JUMPI PUSH2 0x32F5 PUSH1 0x1A PUSH1 0x5 DUP5 PUSH1 0xFF AND SWAP1 SHL OR DUP5 PUSH1 0x0 ADD MLOAD PUSH2 0x36BA SWAP1 SWAP2 SWAP1 PUSH4 0xFFFFFFFF AND JUMP JUMPDEST POP PUSH2 0x331A DUP2 PUSH8 0xFFFFFFFFFFFFFFFF AND PUSH1 0x4 DUP6 PUSH1 0x0 ADD MLOAD PUSH2 0x3724 SWAP1 SWAP3 SWAP2 SWAP1 PUSH4 0xFFFFFFFF AND JUMP JUMPDEST POP PUSH2 0x3368 JUMP JUMPDEST PUSH2 0x3341 PUSH1 0x1B PUSH1 0x5 DUP5 PUSH1 0xFF AND SWAP1 SHL OR DUP5 PUSH1 0x0 ADD MLOAD PUSH2 0x36BA SWAP1 SWAP2 SWAP1 PUSH4 0xFFFFFFFF AND JUMP JUMPDEST POP PUSH2 0x3366 DUP2 PUSH8 0xFFFFFFFFFFFFFFFF AND PUSH1 0x8 DUP6 PUSH1 0x0 ADD MLOAD PUSH2 0x3724 SWAP1 SWAP3 SWAP2 SWAP1 PUSH4 0xFFFFFFFF AND JUMP JUMPDEST POP JUMPDEST JUMPDEST JUMPDEST JUMPDEST POP POP POP JUMP JUMPDEST PUSH1 0x0 DUP1 PUSH1 0x0 PUSH1 0x60 PUSH1 0x0 DUP1 PUSH20 0xFE00000000000000000000000000000000000003 PUSH20 0xFFFFFFFFFFFFFFFFFFFFFFFFFFFFFFFFFFFFFFFF AND DUP13 DUP13 DUP13 DUP13 DUP13 DUP13 PUSH1 0x40 MLOAD PUSH1 0x20 ADD PUSH2 0x33C0 SWAP7 SWAP6 SWAP5 SWAP4 SWAP3 SWAP2 SWAP1 PUSH2 0x590E JUMP JUMPDEST PUSH1 0x40 MLOAD PUSH1 0x20 DUP2 DUP4 SUB SUB DUP2 MSTORE SWAP1 PUSH1 0x40 MSTORE PUSH1 0x40 MLOAD PUSH2 0x33DC SWAP2 SWAP1 PUSH2 0x4D71 JUMP JUMPDEST PUSH1 0x0 PUSH1 0x40 MLOAD DUP1 DUP4 SUB DUP2 DUP6 GAS DELEGATECALL SWAP2 POP POP RETURNDATASIZE DUP1 PUSH1 0x0 DUP2 EQ PUSH2 0x3417 JUMPI PUSH1 0x40 MLOAD SWAP2 POP PUSH1 0x1F NOT PUSH1 0x3F RETURNDATASIZE ADD AND DUP3 ADD PUSH1 0x40 MSTORE RETURNDATASIZE DUP3 MSTORE RETURNDATASIZE PUSH1 0x0 PUSH1 0x20 DUP5 ADD RETURNDATACOPY PUSH2 0x341C JUMP JUMPDEST PUSH1 0x60 SWAP2 POP JUMPDEST POP SWAP2 POP SWAP2 POP PUSH1 0x0 DUP1 PUSH1 0x0 DUP4 DUP1 PUSH1 0x20 ADD SWAP1 MLOAD DUP2 ADD SWAP1 PUSH2 0x343A SWAP2 SWAP1 PUSH2 0x5689 JUMP JUMPDEST SWAP3 POP SWAP3 POP SWAP3 POP DUP5 DUP4 DUP4 DUP4 SWAP9 POP SWAP9 POP SWAP9 POP SWAP9 POP POP POP POP POP POP SWAP7 POP SWAP7 POP SWAP7 POP SWAP7 SWAP3 POP POP POP JUMP JUMPDEST PUSH1 0x60 PUSH1 0x0 PUSH1 0x1 PUSH2 0x346D DUP5 PUSH2 0x37B1 JUMP JUMPDEST ADD SWAP1 POP PUSH1 0x0 DUP2 PUSH8 0xFFFFFFFFFFFFFFFF DUP2 GT ISZERO PUSH2 0x348C JUMPI PUSH2 0x348B PUSH2 0x4156 JUMP JUMPDEST JUMPDEST PUSH1 0x40 MLOAD SWAP1 DUP1 DUP3 MSTORE DUP1 PUSH1 0x1F ADD PUSH1 0x1F NOT AND PUSH1 0x20 ADD DUP3 ADD PUSH1 0x40 MSTORE DUP1 ISZERO PUSH2 0x34BE JUMPI DUP2 PUSH1 0x20 ADD PUSH1 0x1 DUP3 MUL DUP1 CALLDATASIZE DUP4 CALLDATACOPY DUP1 DUP3 ADD SWAP2 POP POP SWAP1 POP JUMPDEST POP SWAP1 POP PUSH1 0x0 DUP3 PUSH1 0x20 ADD DUP3 ADD SWAP1 POP JUMPDEST PUSH1 0x1 ISZERO PUSH2 0x3521 JUMPI DUP1 DUP1 PUSH1 0x1 SWAP1 SUB SWAP2 POP POP PUSH32 0x3031323334353637383961626364656600000000000000000000000000000000 PUSH1 0xA DUP7 MOD BYTE DUP2 MSTORE8 PUSH1 0xA DUP6 DUP2 PUSH2 0x3515 JUMPI PUSH2 0x3514 PUSH2 0x53AB JUMP JUMPDEST JUMPDEST DIV SWAP5 POP PUSH1 0x0 DUP6 SUB PUSH2 0x34CC JUMPI JUMPDEST DUP2 SWAP4 POP POP POP POP SWAP2 SWAP1 POP JUMP JUMPDEST PUSH1 0x0 DUP1 PUSH1 0x0 DUP1 PUSH2 0x353C DUP7 DUP7 PUSH2 0x3904 JUMP JUMPDEST SWAP1 POP PUSH1 0x1 DUP6 PUSH2 0x354B SWAP2 SWAP1 PUSH2 0x4FB3 JUMP JUMPDEST SWAP5 POP PUSH1 0x0 PUSH1 0x5 PUSH1 0xE0 DUP4 AND PUSH1 0xFF AND SWAP1 SHR SWAP1 POP PUSH1 0x0 PUSH1 0x1F DUP4 AND SWAP1 POP PUSH1 0x1C DUP2 PUSH1 0xFF AND LT PUSH2 0x3578 JUMPI PUSH2 0x3577 PUSH2 0x58AE JUMP JUMPDEST JUMPDEST PUSH1 0x18 DUP2 PUSH1 0xFF AND LT ISZERO PUSH2 0x359B JUMPI DUP2 DUP2 DUP9 DUP2 PUSH1 0xFF AND SWAP2 POP SWAP6 POP SWAP6 POP SWAP6 POP POP POP POP PUSH2 0x36B3 JUMP JUMPDEST PUSH1 0x18 DUP2 PUSH1 0xFF AND SUB PUSH2 0x35F0 JUMPI PUSH1 0x0 PUSH2 0x35B2 DUP10 DUP10 PUSH2 0x3904 JUMP JUMPDEST SWAP1 POP PUSH1 0x1 DUP9 PUSH2 0x35C1 SWAP2 SWAP1 PUSH2 0x4FB3 JUMP JUMPDEST SWAP8 POP PUSH1 0x18 DUP2 PUSH1 0xFF AND LT ISZERO PUSH2 0x35D8 JUMPI PUSH2 0x35D7 PUSH2 0x58AE JUMP JUMPDEST JUMPDEST DUP3 DUP2 DUP10 DUP2 PUSH1 0xFF AND SWAP2 POP SWAP7 POP SWAP7 POP SWAP7 POP POP POP POP POP PUSH2 0x36B3 JUMP JUMPDEST PUSH1 0x19 DUP2 PUSH1 0xFF AND SUB PUSH2 0x3631 JUMPI PUSH1 0x0 PUSH2 0x3607 DUP10 DUP10 PUSH2 0x396B JUMP JUMPDEST SWAP1 POP PUSH1 0x2 DUP9 PUSH2 0x3616 SWAP2 SWAP1 PUSH2 0x4FB3 JUMP JUMPDEST SWAP8 POP DUP3 DUP2 DUP10 DUP2 PUSH2 0xFFFF AND SWAP2 POP SWAP7 POP SWAP7 POP SWAP7 POP POP POP POP POP PUSH2 0x36B3 JUMP JUMPDEST PUSH1 0x1A DUP2 PUSH1 0xFF AND SUB PUSH2 0x3674 JUMPI PUSH1 0x0 PUSH2 0x3648 DUP10 DUP10 PUSH2 0x39D2 JUMP JUMPDEST SWAP1 POP PUSH1 0x4 DUP9 PUSH2 0x3657 SWAP2 SWAP1 PUSH2 0x4FB3 JUMP JUMPDEST SWAP8 POP DUP3 DUP2 DUP10 DUP2 PUSH4 0xFFFFFFFF AND SWAP2 POP SWAP7 POP SWAP7 POP SWAP7 POP POP POP POP POP PUSH2 0x36B3 JUMP JUMPDEST PUSH1 0x1B DUP2 PUSH1 0xFF AND EQ PUSH2 0x3688 JUMPI PUSH2 0x3687 PUSH2 0x58AE JUMP JUMPDEST JUMPDEST PUSH1 0x0 PUSH2 0x3694 DUP10 DUP10 PUSH2 0x3A39 JUMP JUMPDEST SWAP1 POP PUSH1 0x8 DUP9 PUSH2 0x36A3 SWAP2 SWAP1 PUSH2 0x4FB3 JUMP JUMPDEST SWAP8 POP DUP3 DUP2 DUP10 SWAP7 POP SWAP7 POP SWAP7 POP POP POP POP POP JUMPDEST SWAP3 POP SWAP3 POP SWAP3 JUMP JUMPDEST PUSH2 0x36C2 PUSH2 0x3DDE JUMP JUMPDEST PUSH1 0x0 DUP4 PUSH1 0x0 ADD MLOAD MLOAD SWAP1 POP PUSH1 0x0 PUSH1 0x1 DUP3 PUSH2 0x36DB SWAP2 SWAP1 PUSH2 0x4FB3 JUMP JUMPDEST SWAP1 POP DUP5 PUSH1 0x20 ADD MLOAD DUP3 LT PUSH2 0x36FF JUMPI PUSH2 0x36FE DUP6 PUSH1 0x2 DUP4 PUSH2 0x36F9 SWAP2 SWAP1 PUSH2 0x5477 JUMP JUMPDEST PUSH2 0x3AA0 JUMP JUMPDEST JUMPDEST DUP5 MLOAD PUSH1 0x20 DUP4 DUP3 ADD ADD DUP6 DUP2 MSTORE8 DUP2 MLOAD DUP4 GT ISZERO PUSH2 0x3717 JUMPI DUP3 DUP3 MSTORE JUMPDEST POP POP DUP5 SWAP3 POP POP POP SWAP3 SWAP2 POP POP JUMP JUMPDEST PUSH2 0x372C PUSH2 0x3DDE JUMP JUMPDEST PUSH1 0x0 DUP5 PUSH1 0x0 ADD MLOAD MLOAD SWAP1 POP PUSH1 0x0 DUP2 DUP5 PUSH2 0x3744 SWAP2 SWAP1 PUSH2 0x4FB3 JUMP JUMPDEST SWAP1 POP DUP6 PUSH1 0x20 ADD MLOAD DUP2 GT ISZERO PUSH2 0x3769 JUMPI PUSH2 0x3768 DUP7 PUSH1 0x2 DUP4 PUSH2 0x3763 SWAP2 SWAP1 PUSH2 0x5477 JUMP JUMPDEST PUSH2 0x3AA0 JUMP JUMPDEST JUMPDEST PUSH1 0x0 PUSH1 0x1 DUP6 PUSH2 0x100 PUSH2 0x377B SWAP2 SWAP1 PUSH2 0x5AB0 JUMP JUMPDEST PUSH2 0x3785 SWAP2 SWAP1 PUSH2 0x5377 JUMP JUMPDEST SWAP1 POP DUP7 MLOAD DUP3 DUP2 ADD DUP8 DUP4 NOT DUP3 MLOAD AND OR DUP2 MSTORE DUP2 MLOAD DUP5 GT ISZERO PUSH2 0x37A2 JUMPI DUP4 DUP3 MSTORE JUMPDEST POP POP DUP7 SWAP4 POP POP POP POP SWAP4 SWAP3 POP POP POP JUMP JUMPDEST PUSH1 0x0 DUP1 PUSH1 0x0 SWAP1 POP PUSH27 0x184F03E93FF9F4DAA797ED6E38ED64BF6A1F010000000000000000 DUP4 LT PUSH2 0x380F JUMPI PUSH27 0x184F03E93FF9F4DAA797ED6E38ED64BF6A1F010000000000000000 DUP4 DUP2 PUSH2 0x3805 JUMPI PUSH2 0x3804 PUSH2 0x53AB JUMP JUMPDEST JUMPDEST DIV SWAP3 POP PUSH1 0x40 DUP2 ADD SWAP1 POP JUMPDEST PUSH14 0x4EE2D6D415B85ACEF8100000000 DUP4 LT PUSH2 0x384C JUMPI PUSH14 0x4EE2D6D415B85ACEF8100000000 DUP4 DUP2 PUSH2 0x3842 JUMPI PUSH2 0x3841 PUSH2 0x53AB JUMP JUMPDEST JUMPDEST DIV SWAP3 POP PUSH1 0x20 DUP2 ADD SWAP1 POP JUMPDEST PUSH7 0x2386F26FC10000 DUP4 LT PUSH2 0x387B JUMPI PUSH7 0x2386F26FC10000 DUP4 DUP2 PUSH2 0x3871 JUMPI PUSH2 0x3870 PUSH2 0x53AB JUMP JUMPDEST JUMPDEST DIV SWAP3 POP PUSH1 0x10 DUP2 ADD SWAP1 POP JUMPDEST PUSH4 0x5F5E100 DUP4 LT PUSH2 0x38A4 JUMPI PUSH4 0x5F5E100 DUP4 DUP2 PUSH2 0x389A JUMPI PUSH2 0x3899 PUSH2 0x53AB JUMP JUMPDEST JUMPDEST DIV SWAP3 POP PUSH1 0x8 DUP2 ADD SWAP1 POP JUMPDEST PUSH2 0x2710 DUP4 LT PUSH2 0x38C9 JUMPI PUSH2 0x2710 DUP4 DUP2 PUSH2 0x38BF JUMPI PUSH2 0x38BE PUSH2 0x53AB JUMP JUMPDEST JUMPDEST DIV SWAP3 POP PUSH1 0x4 DUP2 ADD SWAP1 POP JUMPDEST PUSH1 0x64 DUP4 LT PUSH2 0x38EC JUMPI PUSH1 0x64 DUP4 DUP2 PUSH2 0x38E2 JUMPI PUSH2 0x38E1 PUSH2 0x53AB JUMP JUMPDEST JUMPDEST DIV SWAP3 POP PUSH1 0x2 DUP2 ADD SWAP1 POP JUMPDEST PUSH1 0xA DUP4 LT PUSH2 0x38FB JUMPI PUSH1 0x1 DUP2 ADD SWAP1 POP JUMPDEST DUP1 SWAP2 POP POP SWAP2 SWAP1 POP JUMP JUMPDEST PUSH1 0x0 PUSH1 0x1 DUP3 PUSH2 0x3913 SWAP2 SWAP1 PUSH2 0x4FB3 JUMP JUMPDEST DUP4 MLOAD LT ISZERO PUSH2 0x3956 JUMPI PUSH1 0x40 MLOAD PUSH32 0x8C379A000000000000000000000000000000000000000000000000000000000 DUP2 MSTORE PUSH1 0x4 ADD PUSH2 0x394D SWAP1 PUSH2 0x5B47 JUMP JUMPDEST PUSH1 0x40 MLOAD DUP1 SWAP2 SUB SWAP1 REVERT JUMPDEST PUSH1 0x0 DUP3 PUSH1 0x1 ADD DUP5 ADD MLOAD SWAP1 POP DUP1 SWAP2 POP POP SWAP3 SWAP2 POP POP JUMP JUMPDEST PUSH1 0x0 PUSH1 0x2 DUP3 PUSH2 0x397A SWAP2 SWAP1 PUSH2 0x4FB3 JUMP JUMPDEST DUP4 MLOAD LT ISZERO PUSH2 0x39BD JUMPI PUSH1 0x40 MLOAD PUSH32 0x8C379A000000000000000000000000000000000000000000000000000000000 DUP2 MSTORE PUSH1 0x4 ADD PUSH2 0x39B4 SWAP1 PUSH2 0x5B47 JUMP JUMPDEST PUSH1 0x40 MLOAD DUP1 SWAP2 SUB SWAP1 REVERT JUMPDEST PUSH1 0x0 DUP3 PUSH1 0x2 ADD DUP5 ADD MLOAD SWAP1 POP DUP1 SWAP2 POP POP SWAP3 SWAP2 POP POP JUMP JUMPDEST PUSH1 0x0 PUSH1 0x4 DUP3 PUSH2 0x39E1 SWAP2 SWAP1 PUSH2 0x4FB3 JUMP JUMPDEST DUP4 MLOAD LT ISZERO PUSH2 0x3A24 JUMPI PUSH1 0x40 MLOAD PUSH32 0x8C379A000000000000000000000000000000000000000000000000000000000 DUP2 MSTORE PUSH1 0x4 ADD PUSH2 0x3A1B SWAP1 PUSH2 0x5B47 JUMP JUMPDEST PUSH1 0x40 MLOAD DUP1 SWAP2 SUB SWAP1 REVERT JUMPDEST PUSH1 0x0 DUP3 PUSH1 0x4 ADD DUP5 ADD MLOAD SWAP1 POP DUP1 SWAP2 POP POP SWAP3 SWAP2 POP POP JUMP JUMPDEST PUSH1 0x0 PUSH1 0x8 DUP3 PUSH2 0x3A48 SWAP2 SWAP1 PUSH2 0x4FB3 JUMP JUMPDEST DUP4 MLOAD LT ISZERO PUSH2 0x3A8B JUMPI PUSH1 0x40 MLOAD PUSH32 0x8C379A000000000000000000000000000000000000000000000000000000000 DUP2 MSTORE PUSH1 0x4 ADD PUSH2 0x3A82 SWAP1 PUSH2 0x5B47 JUMP JUMPDEST PUSH1 0x40 MLOAD DUP1 SWAP2 SUB SWAP1 REVERT JUMPDEST PUSH1 0x0 DUP3 PUSH1 0x8 ADD DUP5 ADD MLOAD SWAP1 POP DUP1 SWAP2 POP POP SWAP3 SWAP2 POP POP JUMP JUMPDEST PUSH1 0x0 DUP3 PUSH1 0x0 ADD MLOAD SWAP1 POP PUSH2 0x3AB3 DUP4 DUP4 PUSH2 0x314E JUMP JUMPDEST POP PUSH2 0x3ABE DUP4 DUP3 PUSH2 0x3AC4 JUMP JUMPDEST POP POP POP POP JUMP JUMPDEST PUSH2 0x3ACC PUSH2 0x3DDE JUMP JUMPDEST PUSH2 0x3AD8 DUP4 DUP4 DUP5 MLOAD PUSH2 0x3AE0 JUMP JUMPDEST SWAP1 POP SWAP3 SWAP2 POP POP JUMP JUMPDEST PUSH2 0x3AE8 PUSH2 0x3DDE JUMP JUMPDEST DUP3 MLOAD DUP3 GT ISZERO PUSH2 0x3AF6 JUMPI PUSH1 0x0 DUP1 REVERT JUMPDEST PUSH1 0x0 DUP5 PUSH1 0x0 ADD MLOAD MLOAD SWAP1 POP PUSH1 0x0 DUP4 DUP3 PUSH2 0x3B0E SWAP2 SWAP1 PUSH2 0x4FB3 JUMP JUMPDEST SWAP1 POP DUP6 PUSH1 0x20 ADD MLOAD DUP2 GT ISZERO PUSH2 0x3B33 JUMPI PUSH2 0x3B32 DUP7 PUSH1 0x2 DUP4 PUSH2 0x3B2D SWAP2 SWAP1 PUSH2 0x5477 JUMP JUMPDEST PUSH2 0x3AA0 JUMP JUMPDEST JUMPDEST PUSH1 0x0 DUP1 DUP8 MLOAD DUP1 MLOAD DUP6 PUSH1 0x20 DUP4 ADD ADD SWAP4 POP DUP1 DUP6 GT ISZERO PUSH2 0x3B4E JUMPI DUP5 DUP3 MSTORE JUMPDEST PUSH1 0x20 DUP10 ADD SWAP3 POP POP POP JUMPDEST PUSH1 0x20 DUP7 LT PUSH2 0x3B95 JUMPI DUP1 MLOAD DUP3 MSTORE PUSH1 0x20 DUP3 PUSH2 0x3B70 SWAP2 SWAP1 PUSH2 0x4FB3 JUMP JUMPDEST SWAP2 POP PUSH1 0x20 DUP2 PUSH2 0x3B7F SWAP2 SWAP1 PUSH2 0x4FB3 JUMP JUMPDEST SWAP1 POP PUSH1 0x20 DUP7 PUSH2 0x3B8E SWAP2 SWAP1 PUSH2 0x5377 JUMP JUMPDEST SWAP6 POP PUSH2 0x3B57 JUMP JUMPDEST PUSH1 0x0 PUSH1 0x1 DUP8 PUSH1 0x20 SUB PUSH2 0x100 EXP SUB SWAP1 POP DUP1 NOT DUP3 MLOAD AND DUP2 DUP5 MLOAD AND DUP2 DUP2 OR DUP6 MSTORE POP POP POP DUP8 SWAP5 POP POP POP POP POP SWAP4 SWAP3 POP POP POP JUMP JUMPDEST PUSH1 0x40 MLOAD DUP1 PUSH1 0x60 ADD PUSH1 0x40 MSTORE DUP1 PUSH1 0x0 DUP2 MSTORE PUSH1 0x20 ADD PUSH1 0x0 DUP2 MSTORE PUSH1 0x20 ADD PUSH1 0x0 DUP2 MSTORE POP SWAP1 JUMP JUMPDEST PUSH1 0x40 MLOAD DUP1 PUSH2 0x160 ADD PUSH1 0x40 MSTORE DUP1 PUSH1 0x0 DUP2 MSTORE PUSH1 0x20 ADD PUSH1 0x60 DUP2 MSTORE PUSH1 0x20 ADD PUSH1 0x60 DUP2 MSTORE PUSH1 0x20 ADD PUSH1 0x0 PUSH20 0xFFFFFFFFFFFFFFFFFFFFFFFFFFFFFFFFFFFFFFFF AND DUP2 MSTORE PUSH1 0x20 ADD PUSH1 0x60 DUP2 MSTORE PUSH1 0x20 ADD PUSH1 0x0 DUP2 MSTORE PUSH1 0x20 ADD PUSH1 0x0 DUP2 MSTORE PUSH1 0x20 ADD PUSH1 0x0 DUP2 MSTORE PUSH1 0x20 ADD PUSH1 0x0 DUP2 MSTORE PUSH1 0x20 ADD PUSH1 0x0 DUP2 MSTORE PUSH1 0x20 ADD PUSH1 0x60 DUP2 MSTORE POP SWAP1 JUMP JUMPDEST DUP3 DUP1 SLOAD PUSH2 0x3C60 SWAP1 PUSH2 0x4C72 JUMP JUMPDEST SWAP1 PUSH1 0x0 MSTORE PUSH1 0x20 PUSH1 0x0 KECCAK256 SWAP1 PUSH1 0x1F ADD PUSH1 0x20 SWAP1 DIV DUP2 ADD SWAP3 DUP3 PUSH2 0x3C82 JUMPI PUSH1 0x0 DUP6 SSTORE PUSH2 0x3CC9 JUMP JUMPDEST DUP3 PUSH1 0x1F LT PUSH2 0x3C9B JUMPI DUP1 MLOAD PUSH1 0xFF NOT AND DUP4 DUP1 ADD OR DUP6 SSTORE PUSH2 0x3CC9 JUMP JUMPDEST DUP3 DUP1 ADD PUSH1 0x1 ADD DUP6 SSTORE DUP3 ISZERO PUSH2 0x3CC9 JUMPI SWAP2 DUP3 ADD JUMPDEST DUP3 DUP2 GT ISZERO PUSH2 0x3CC8 JUMPI DUP3 MLOAD DUP3 SSTORE SWAP2 PUSH1 0x20 ADD SWAP2 SWAP1 PUSH1 0x1 ADD SWAP1 PUSH2 0x3CAD JUMP JUMPDEST JUMPDEST POP SWAP1 POP PUSH2 0x3CD6 SWAP2 SWAP1 PUSH2 0x3DF8 JUMP JUMPDEST POP SWAP1 JUMP JUMPDEST PUSH1 0x40 MLOAD DUP1 PUSH1 0x40 ADD PUSH1 0x40 MSTORE DUP1 PUSH1 0x60 DUP2 MSTORE PUSH1 0x20 ADD PUSH1 0x0 PUSH8 0xFFFFFFFFFFFFFFFF AND DUP2 MSTORE POP SWAP1 JUMP JUMPDEST DUP3 DUP1 SLOAD PUSH2 0x3D0A SWAP1 PUSH2 0x4C72 JUMP JUMPDEST SWAP1 PUSH1 0x0 MSTORE PUSH1 0x20 PUSH1 0x0 KECCAK256 SWAP1 PUSH1 0x1F ADD PUSH1 0x20 SWAP1 DIV DUP2 ADD SWAP3 DUP3 PUSH2 0x3D2C JUMPI PUSH1 0x0 DUP6 SSTORE PUSH2 0x3D73 JUMP JUMPDEST DUP3 PUSH1 0x1F LT PUSH2 0x3D45 JUMPI DUP1 MLOAD PUSH1 0xFF NOT AND DUP4 DUP1 ADD OR DUP6 SSTORE PUSH2 0x3D73 JUMP JUMPDEST DUP3 DUP1 ADD PUSH1 0x1 ADD DUP6 SSTORE DUP3 ISZERO PUSH2 0x3D73 JUMPI SWAP2 DUP3 ADD JUMPDEST DUP3 DUP2 GT ISZERO PUSH2 0x3D72 JUMPI DUP3 MLOAD DUP3 SSTORE SWAP2 PUSH1 0x20 ADD SWAP2 SWAP1 PUSH1 0x1 ADD SWAP1 PUSH2 0x3D57 JUMP JUMPDEST JUMPDEST POP SWAP1 POP PUSH2 0x3D80 SWAP2 SWAP1 PUSH2 0x3DF8 JUMP JUMPDEST POP SWAP1 JUMP JUMPDEST PUSH1 0x40 MLOAD DUP1 PUSH1 0x20 ADD PUSH1 0x40 MSTORE DUP1 PUSH1 0x0 PUSH8 0xFFFFFFFFFFFFFFFF AND DUP2 MSTORE POP SWAP1 JUMP JUMPDEST PUSH1 0x40 MLOAD DUP1 PUSH1 0x20 ADD PUSH1 0x40 MSTORE DUP1 PUSH1 0x0 PUSH8 0xFFFFFFFFFFFFFFFF AND DUP2 MSTORE POP SWAP1 JUMP JUMPDEST PUSH1 0x40 MLOAD DUP1 PUSH1 0x40 ADD PUSH1 0x40 MSTORE DUP1 PUSH2 0x3DD1 PUSH2 0x3DDE JUMP JUMPDEST DUP2 MSTORE PUSH1 0x20 ADD PUSH1 0x0 DUP2 MSTORE POP SWAP1 JUMP JUMPDEST PUSH1 0x40 MLOAD DUP1 PUSH1 0x40 ADD PUSH1 0x40 MSTORE DUP1 PUSH1 0x60 DUP2 MSTORE PUSH1 0x20 ADD PUSH1 0x0 DUP2 MSTORE POP SWAP1 JUMP JUMPDEST JUMPDEST DUP1 DUP3 GT ISZERO PUSH2 0x3E11 JUMPI PUSH1 0x0 DUP2 PUSH1 0x0 SWAP1 SSTORE POP PUSH1 0x1 ADD PUSH2 0x3DF9 JUMP JUMPDEST POP SWAP1 JUMP JUMPDEST PUSH1 0x0 PUSH1 0x40 MLOAD SWAP1 POP SWAP1 JUMP JUMPDEST PUSH1 0x0 DUP1 REVERT JUMPDEST PUSH1 0x0 DUP1 REVERT JUMPDEST PUSH1 0x0 DUP2 SWAP1 POP SWAP2 SWAP1 POP JUMP JUMPDEST PUSH2 0x3E3C DUP2 PUSH2 0x3E29 JUMP JUMPDEST DUP2 EQ PUSH2 0x3E47 JUMPI PUSH1 0x0 DUP1 REVERT JUMPDEST POP JUMP JUMPDEST PUSH1 0x0 DUP2 CALLDATALOAD SWAP1 POP PUSH2 0x3E59 DUP2 PUSH2 0x3E33 JUMP JUMPDEST SWAP3 SWAP2 POP POP JUMP JUMPDEST PUSH1 0x0 PUSH1 0x20 DUP3 DUP5 SUB SLT ISZERO PUSH2 0x3E75 JUMPI PUSH2 0x3E74 PUSH2 0x3E1F JUMP JUMPDEST JUMPDEST PUSH1 0x0 PUSH2 0x3E83 DUP5 DUP3 DUP6 ADD PUSH2 0x3E4A JUMP JUMPDEST SWAP2 POP POP SWAP3 SWAP2 POP POP JUMP JUMPDEST PUSH2 0x3E95 DUP2 PUSH2 0x3E29 JUMP JUMPDEST DUP3 MSTORE POP POP JUMP JUMPDEST PUSH1 0x0 DUP2 MLOAD SWAP1 POP SWAP2 SWAP1 POP JUMP JUMPDEST PUSH1 0x0 DUP3 DUP3 MSTORE PUSH1 0x20 DUP3 ADD SWAP1 POP SWAP3 SWAP2 POP POP JUMP JUMPDEST PUSH1 0x0 JUMPDEST DUP4 DUP2 LT ISZERO PUSH2 0x3ED5 JUMPI DUP1 DUP3 ADD MLOAD DUP2 DUP5 ADD MSTORE PUSH1 0x20 DUP2 ADD SWAP1 POP PUSH2 0x3EBA JUMP JUMPDEST DUP4 DUP2 GT ISZERO PUSH2 0x3EE4 JUMPI PUSH1 0x0 DUP5 DUP5 ADD MSTORE JUMPDEST POP POP POP POP JUMP JUMPDEST PUSH1 0x0 PUSH1 0x1F NOT PUSH1 0x1F DUP4 ADD AND SWAP1 POP SWAP2 SWAP1 POP JUMP JUMPDEST PUSH1 0x0 PUSH2 0x3F06 DUP3 PUSH2 0x3E9B JUMP JUMPDEST PUSH2 0x3F10 DUP2 DUP6 PUSH2 0x3EA6 JUMP JUMPDEST SWAP4 POP PUSH2 0x3F20 DUP2 DUP6 PUSH1 0x20 DUP7 ADD PUSH2 0x3EB7 JUMP JUMPDEST PUSH2 0x3F29 DUP2 PUSH2 0x3EEA JUMP JUMPDEST DUP5 ADD SWAP2 POP POP SWAP3 SWAP2 POP POP JUMP JUMPDEST PUSH1 0x0 PUSH20 0xFFFFFFFFFFFFFFFFFFFFFFFFFFFFFFFFFFFFFFFF DUP3 AND SWAP1 POP SWAP2 SWAP1 POP JUMP JUMPDEST PUSH1 0x0 PUSH2 0x3F5F DUP3 PUSH2 0x3F34 JUMP JUMPDEST SWAP1 POP SWAP2 SWAP1 POP JUMP JUMPDEST PUSH2 0x3F6F DUP2 PUSH2 0x3F54 JUMP JUMPDEST DUP3 MSTORE POP POP JUMP JUMPDEST PUSH1 0x0 DUP2 MLOAD SWAP1 POP SWAP2 SWAP1 POP JUMP JUMPDEST PUSH1 0x0 DUP3 DUP3 MSTORE PUSH1 0x20 DUP3 ADD SWAP1 POP SWAP3 SWAP2 POP POP JUMP JUMPDEST PUSH1 0x0 PUSH2 0x3F9C DUP3 PUSH2 0x3F75 JUMP JUMPDEST PUSH2 0x3FA6 DUP2 DUP6 PUSH2 0x3F80 JUMP JUMPDEST SWAP4 POP PUSH2 0x3FB6 DUP2 DUP6 PUSH1 0x20 DUP7 ADD PUSH2 0x3EB7 JUMP JUMPDEST PUSH2 0x3FBF DUP2 PUSH2 0x3EEA JUMP JUMPDEST DUP5 ADD SWAP2 POP POP SWAP3 SWAP2 POP POP JUMP JUMPDEST PUSH1 0x0 PUSH2 0x160 DUP3 ADD SWAP1 POP PUSH2 0x3FE0 PUSH1 0x0 DUP4 ADD DUP15 PUSH2 0x3E8C JUMP JUMPDEST DUP2 DUP2 SUB PUSH1 0x20 DUP4 ADD MSTORE PUSH2 0x3FF2 DUP2 DUP14 PUSH2 0x3EFB JUMP JUMPDEST SWAP1 POP DUP2 DUP2 SUB PUSH1 0x40 DUP4 ADD MSTORE PUSH2 0x4006 DUP2 DUP13 PUSH2 0x3EFB JUMP JUMPDEST SWAP1 POP PUSH2 0x4015 PUSH1 0x60 DUP4 ADD DUP12 PUSH2 0x3F66 JUMP JUMPDEST DUP2 DUP2 SUB PUSH1 0x80 DUP4 ADD MSTORE PUSH2 0x4027 DUP2 DUP11 PUSH2 0x3F91 JUMP JUMPDEST SWAP1 POP PUSH2 0x4036 PUSH1 0xA0 DUP4 ADD DUP10 PUSH2 0x3E8C JUMP JUMPDEST PUSH2 0x4043 PUSH1 0xC0 DUP4 ADD DUP9 PUSH2 0x3E8C JUMP JUMPDEST PUSH2 0x4050 PUSH1 0xE0 DUP4 ADD DUP8 PUSH2 0x3E8C JUMP JUMPDEST PUSH2 0x405E PUSH2 0x100 DUP4 ADD DUP7 PUSH2 0x3E8C JUMP JUMPDEST PUSH2 0x406C PUSH2 0x120 DUP4 ADD DUP6 PUSH2 0x3E8C JUMP JUMPDEST DUP2 DUP2 SUB PUSH2 0x140 DUP4 ADD MSTORE PUSH2 0x407F DUP2 DUP5 PUSH2 0x3EFB JUMP JUMPDEST SWAP1 POP SWAP13 SWAP12 POP POP POP POP POP POP POP POP POP POP POP POP JUMP JUMPDEST PUSH1 0x0 PUSH32 0xFFFFFFFF00000000000000000000000000000000000000000000000000000000 DUP3 AND SWAP1 POP SWAP2 SWAP1 POP JUMP JUMPDEST PUSH2 0x40C6 DUP2 PUSH2 0x4091 JUMP JUMPDEST DUP2 EQ PUSH2 0x40D1 JUMPI PUSH1 0x0 DUP1 REVERT JUMPDEST POP JUMP JUMPDEST PUSH1 0x0 DUP2 CALLDATALOAD SWAP1 POP PUSH2 0x40E3 DUP2 PUSH2 0x40BD JUMP JUMPDEST SWAP3 SWAP2 POP POP JUMP JUMPDEST PUSH1 0x0 PUSH1 0x20 DUP3 DUP5 SUB SLT ISZERO PUSH2 0x40FF JUMPI PUSH2 0x40FE PUSH2 0x3E1F JUMP JUMPDEST JUMPDEST PUSH1 0x0 PUSH2 0x410D DUP5 DUP3 DUP6 ADD PUSH2 0x40D4 JUMP JUMPDEST SWAP2 POP POP SWAP3 SWAP2 POP POP JUMP JUMPDEST PUSH1 0x0 DUP2 ISZERO ISZERO SWAP1 POP SWAP2 SWAP1 POP JUMP JUMPDEST PUSH2 0x412B DUP2 PUSH2 0x4116 JUMP JUMPDEST DUP3 MSTORE POP POP JUMP JUMPDEST PUSH1 0x0 PUSH1 0x20 DUP3 ADD SWAP1 POP PUSH2 0x4146 PUSH1 0x0 DUP4 ADD DUP5 PUSH2 0x4122 JUMP JUMPDEST SWAP3 SWAP2 POP POP JUMP JUMPDEST PUSH1 0x0 DUP1 REVERT JUMPDEST PUSH1 0x0 DUP1 REVERT JUMPDEST PUSH32 0x4E487B7100000000000000000000000000000000000000000000000000000000 PUSH1 0x0 MSTORE PUSH1 0x41 PUSH1 0x4 MSTORE PUSH1 0x24 PUSH1 0x0 REVERT JUMPDEST PUSH2 0x418E DUP3 PUSH2 0x3EEA JUMP JUMPDEST DUP2 ADD DUP2 DUP2 LT PUSH8 0xFFFFFFFFFFFFFFFF DUP3 GT OR ISZERO PUSH2 0x41AD JUMPI PUSH2 0x41AC PUSH2 0x4156 JUMP JUMPDEST JUMPDEST DUP1 PUSH1 0x40 MSTORE POP POP POP JUMP JUMPDEST PUSH1 0x0 PUSH2 0x41C0 PUSH2 0x3E15 JUMP JUMPDEST SWAP1 POP PUSH2 0x41CC DUP3 DUP3 PUSH2 0x4185 JUMP JUMPDEST SWAP2 SWAP1 POP JUMP JUMPDEST PUSH1 0x0 PUSH8 0xFFFFFFFFFFFFFFFF DUP3 GT ISZERO PUSH2 0x41EC JUMPI PUSH2 0x41EB PUSH2 0x4156 JUMP JUMPDEST JUMPDEST PUSH2 0x41F5 DUP3 PUSH2 0x3EEA JUMP JUMPDEST SWAP1 POP PUSH1 0x20 DUP2 ADD SWAP1 POP SWAP2 SWAP1 POP JUMP JUMPDEST DUP3 DUP2 DUP4 CALLDATACOPY PUSH1 0x0 DUP4 DUP4 ADD MSTORE POP POP POP JUMP JUMPDEST PUSH1 0x0 PUSH2 0x4224 PUSH2 0x421F DUP5 PUSH2 0x41D1 JUMP JUMPDEST PUSH2 0x41B6 JUMP JUMPDEST SWAP1 POP DUP3 DUP2 MSTORE PUSH1 0x20 DUP2 ADD DUP5 DUP5 DUP5 ADD GT ISZERO PUSH2 0x4240 JUMPI PUSH2 0x423F PUSH2 0x4151 JUMP JUMPDEST JUMPDEST PUSH2 0x424B DUP5 DUP3 DUP6 PUSH2 0x4202 JUMP JUMPDEST POP SWAP4 SWAP3 POP POP POP JUMP JUMPDEST PUSH1 0x0 DUP3 PUSH1 0x1F DUP4 ADD SLT PUSH2 0x4268 JUMPI PUSH2 0x4267 PUSH2 0x414C JUMP JUMPDEST JUMPDEST DUP2 CALLDATALOAD PUSH2 0x4278 DUP5 DUP3 PUSH1 0x20 DUP7 ADD PUSH2 0x4211 JUMP JUMPDEST SWAP2 POP POP SWAP3 SWAP2 POP POP JUMP JUMPDEST PUSH1 0x0 PUSH1 0x20 DUP3 DUP5 SUB SLT ISZERO PUSH2 0x4297 JUMPI PUSH2 0x4296 PUSH2 0x3E1F JUMP JUMPDEST JUMPDEST PUSH1 0x0 DUP3 ADD CALLDATALOAD PUSH8 0xFFFFFFFFFFFFFFFF DUP2 GT ISZERO PUSH2 0x42B5 JUMPI PUSH2 0x42B4 PUSH2 0x3E24 JUMP JUMPDEST JUMPDEST PUSH2 0x42C1 DUP5 DUP3 DUP6 ADD PUSH2 0x4253 JUMP JUMPDEST SWAP2 POP POP SWAP3 SWAP2 POP POP JUMP JUMPDEST PUSH1 0x0 PUSH8 0xFFFFFFFFFFFFFFFF DUP3 AND SWAP1 POP SWAP2 SWAP1 POP JUMP JUMPDEST PUSH2 0x42E7 DUP2 PUSH2 0x42CA JUMP JUMPDEST DUP3 MSTORE POP POP JUMP JUMPDEST PUSH1 0x0 PUSH1 0x20 DUP3 ADD SWAP1 POP PUSH2 0x4302 PUSH1 0x0 DUP4 ADD DUP5 PUSH2 0x42DE JUMP JUMPDEST SWAP3 SWAP2 POP POP JUMP JUMPDEST PUSH2 0x4311 DUP2 PUSH2 0x42CA JUMP JUMPDEST DUP2 EQ PUSH2 0x431C JUMPI PUSH1 0x0 DUP1 REVERT JUMPDEST POP JUMP JUMPDEST PUSH1 0x0 DUP2 CALLDATALOAD SWAP1 POP PUSH2 0x432E DUP2 PUSH2 0x4308 JUMP JUMPDEST SWAP3 SWAP2 POP POP JUMP JUMPDEST PUSH1 0x0 DUP1 PUSH1 0x40 DUP4 DUP6 SUB SLT ISZERO PUSH2 0x434B JUMPI PUSH2 0x434A PUSH2 0x3E1F JUMP JUMPDEST JUMPDEST PUSH1 0x0 DUP4 ADD CALLDATALOAD PUSH8 0xFFFFFFFFFFFFFFFF DUP2 GT ISZERO PUSH2 0x4369 JUMPI PUSH2 0x4368 PUSH2 0x3E24 JUMP JUMPDEST JUMPDEST PUSH2 0x4375 DUP6 DUP3 DUP7 ADD PUSH2 0x4253 JUMP JUMPDEST SWAP3 POP POP PUSH1 0x20 PUSH2 0x4386 DUP6 DUP3 DUP7 ADD PUSH2 0x431F JUMP JUMPDEST SWAP2 POP POP SWAP3 POP SWAP3 SWAP1 POP JUMP JUMPDEST PUSH1 0x0 PUSH1 0x20 DUP3 ADD SWAP1 POP PUSH2 0x43A5 PUSH1 0x0 DUP4 ADD DUP5 PUSH2 0x3E8C JUMP JUMPDEST SWAP3 SWAP2 POP POP JUMP JUMPDEST PUSH1 0x0 DUP2 SWAP1 POP SWAP2 SWAP1 POP JUMP JUMPDEST PUSH2 0x43BE DUP2 PUSH2 0x43AB JUMP JUMPDEST DUP2 EQ PUSH2 0x43C9 JUMPI PUSH1 0x0 DUP1 REVERT JUMPDEST POP JUMP JUMPDEST PUSH1 0x0 DUP2 CALLDATALOAD SWAP1 POP PUSH2 0x43DB DUP2 PUSH2 0x43B5 JUMP JUMPDEST SWAP3 SWAP2 POP POP JUMP JUMPDEST PUSH1 0x0 PUSH1 0x20 DUP3 DUP5 SUB SLT ISZERO PUSH2 0x43F7 JUMPI PUSH2 0x43F6 PUSH2 0x3E1F JUMP JUMPDEST JUMPDEST PUSH1 0x0 PUSH2 0x4405 DUP5 DUP3 DUP6 ADD PUSH2 0x43CC JUMP JUMPDEST SWAP2 POP POP SWAP3 SWAP2 POP POP JUMP JUMPDEST PUSH2 0x4417 DUP2 PUSH2 0x43AB JUMP JUMPDEST DUP3 MSTORE POP POP JUMP JUMPDEST PUSH1 0x0 PUSH1 0x20 DUP3 ADD SWAP1 POP PUSH2 0x4432 PUSH1 0x0 DUP4 ADD DUP5 PUSH2 0x440E JUMP JUMPDEST SWAP3 SWAP2 POP POP JUMP JUMPDEST PUSH2 0x4441 DUP2 PUSH2 0x3F54 JUMP JUMPDEST DUP2 EQ PUSH2 0x444C JUMPI PUSH1 0x0 DUP1 REVERT JUMPDEST POP JUMP JUMPDEST PUSH1 0x0 DUP2 CALLDATALOAD SWAP1 POP PUSH2 0x445E DUP2 PUSH2 0x4438 JUMP JUMPDEST SWAP3 SWAP2 POP POP JUMP JUMPDEST PUSH1 0x0 DUP1 PUSH1 0x40 DUP4 DUP6 SUB SLT ISZERO PUSH2 0x447B JUMPI PUSH2 0x447A PUSH2 0x3E1F JUMP JUMPDEST JUMPDEST PUSH1 0x0 PUSH2 0x4489 DUP6 DUP3 DUP7 ADD PUSH2 0x43CC JUMP JUMPDEST SWAP3 POP POP PUSH1 0x20 PUSH2 0x449A DUP6 DUP3 DUP7 ADD PUSH2 0x444F JUMP JUMPDEST SWAP2 POP POP SWAP3 POP SWAP3 SWAP1 POP JUMP JUMPDEST PUSH1 0x0 DUP1 PUSH1 0x40 DUP4 DUP6 SUB SLT ISZERO PUSH2 0x44BB JUMPI PUSH2 0x44BA PUSH2 0x3E1F JUMP JUMPDEST JUMPDEST PUSH1 0x0 PUSH2 0x44C9 DUP6 DUP3 DUP7 ADD PUSH2 0x444F JUMP JUMPDEST SWAP3 POP POP PUSH1 0x20 PUSH2 0x44DA DUP6 DUP3 DUP7 ADD PUSH2 0x3E4A JUMP JUMPDEST SWAP2 POP POP SWAP3 POP SWAP3 SWAP1 POP JUMP JUMPDEST PUSH2 0x44ED DUP2 PUSH2 0x3E29 JUMP JUMPDEST DUP3 MSTORE POP POP JUMP JUMPDEST PUSH1 0x60 DUP3 ADD PUSH1 0x0 DUP3 ADD MLOAD PUSH2 0x4509 PUSH1 0x0 DUP6 ADD DUP3 PUSH2 0x44E4 JUMP JUMPDEST POP PUSH1 0x20 DUP3 ADD MLOAD PUSH2 0x451C PUSH1 0x20 DUP6 ADD DUP3 PUSH2 0x44E4 JUMP JUMPDEST POP PUSH1 0x40 DUP3 ADD MLOAD PUSH2 0x452F PUSH1 0x40 DUP6 ADD DUP3 PUSH2 0x44E4 JUMP JUMPDEST POP POP POP POP JUMP JUMPDEST PUSH1 0x0 PUSH1 0x60 DUP3 ADD SWAP1 POP PUSH2 0x454A PUSH1 0x0 DUP4 ADD DUP5 PUSH2 0x44F3 JUMP JUMPDEST SWAP3 SWAP2 POP POP JUMP JUMPDEST PUSH1 0x0 DUP1 PUSH1 0x0 PUSH1 0x60 DUP5 DUP7 SUB SLT ISZERO PUSH2 0x4569 JUMPI PUSH2 0x4568 PUSH2 0x3E1F JUMP JUMPDEST JUMPDEST PUSH1 0x0 PUSH2 0x4577 DUP7 DUP3 DUP8 ADD PUSH2 0x3E4A JUMP JUMPDEST SWAP4 POP POP PUSH1 0x20 PUSH2 0x4588 DUP7 DUP3 DUP8 ADD PUSH2 0x3E4A JUMP JUMPDEST SWAP3 POP POP PUSH1 0x40 PUSH2 0x4599 DUP7 DUP3 DUP8 ADD PUSH2 0x3E4A JUMP JUMPDEST SWAP2 POP POP SWAP3 POP SWAP3 POP SWAP3 JUMP JUMPDEST PUSH1 0x0 DUP2 MLOAD SWAP1 POP SWAP2 SWAP1 POP JUMP JUMPDEST PUSH1 0x0 DUP3 DUP3 MSTORE PUSH1 0x20 DUP3 ADD SWAP1 POP SWAP3 SWAP2 POP POP JUMP JUMPDEST PUSH1 0x0 DUP2 SWAP1 POP PUSH1 0x20 DUP3 ADD SWAP1 POP SWAP2 SWAP1 POP JUMP JUMPDEST PUSH1 0x0 DUP3 DUP3 MSTORE PUSH1 0x20 DUP3 ADD SWAP1 POP SWAP3 SWAP2 POP POP JUMP JUMPDEST PUSH1 0x0 PUSH2 0x45EB DUP3 PUSH2 0x3E9B JUMP JUMPDEST PUSH2 0x45F5 DUP2 DUP6 PUSH2 0x45CF JUMP JUMPDEST SWAP4 POP PUSH2 0x4605 DUP2 DUP6 PUSH1 0x20 DUP7 ADD PUSH2 0x3EB7 JUMP JUMPDEST PUSH2 0x460E DUP2 PUSH2 0x3EEA JUMP JUMPDEST DUP5 ADD SWAP2 POP POP SWAP3 SWAP2 POP POP JUMP JUMPDEST PUSH2 0x4622 DUP2 PUSH2 0x3F54 JUMP JUMPDEST DUP3 MSTORE POP POP JUMP JUMPDEST PUSH1 0x0 DUP3 DUP3 MSTORE PUSH1 0x20 DUP3 ADD SWAP1 POP SWAP3 SWAP2 POP POP JUMP JUMPDEST PUSH1 0x0 PUSH2 0x4644 DUP3 PUSH2 0x3F75 JUMP JUMPDEST PUSH2 0x464E DUP2 DUP6 PUSH2 0x4628 JUMP JUMPDEST SWAP4 POP PUSH2 0x465E DUP2 DUP6 PUSH1 0x20 DUP7 ADD PUSH2 0x3EB7 JUMP JUMPDEST PUSH2 0x4667 DUP2 PUSH2 0x3EEA JUMP JUMPDEST DUP5 ADD SWAP2 POP POP SWAP3 SWAP2 POP POP JUMP JUMPDEST PUSH1 0x0 PUSH2 0x160 DUP4 ADD PUSH1 0x0 DUP4 ADD MLOAD PUSH2 0x468B PUSH1 0x0 DUP7 ADD DUP3 PUSH2 0x44E4 JUMP JUMPDEST POP PUSH1 0x20 DUP4 ADD MLOAD DUP5 DUP3 SUB PUSH1 0x20 DUP7 ADD MSTORE PUSH2 0x46A3 DUP3 DUP3 PUSH2 0x45E0 JUMP JUMPDEST SWAP2 POP POP PUSH1 0x40 DUP4 ADD MLOAD DUP5 DUP3 SUB PUSH1 0x40 DUP7 ADD MSTORE PUSH2 0x46BD DUP3 DUP3 PUSH2 0x45E0 JUMP JUMPDEST SWAP2 POP POP PUSH1 0x60 DUP4 ADD MLOAD PUSH2 0x46D2 PUSH1 0x60 DUP7 ADD DUP3 PUSH2 0x4619 JUMP JUMPDEST POP PUSH1 0x80 DUP4 ADD MLOAD DUP5 DUP3 SUB PUSH1 0x80 DUP7 ADD MSTORE PUSH2 0x46EA DUP3 DUP3 PUSH2 0x4639 JUMP JUMPDEST SWAP2 POP POP PUSH1 0xA0 DUP4 ADD MLOAD PUSH2 0x46FF PUSH1 0xA0 DUP7 ADD DUP3 PUSH2 0x44E4 JUMP JUMPDEST POP PUSH1 0xC0 DUP4 ADD MLOAD PUSH2 0x4712 PUSH1 0xC0 DUP7 ADD DUP3 PUSH2 0x44E4 JUMP JUMPDEST POP PUSH1 0xE0 DUP4 ADD MLOAD PUSH2 0x4725 PUSH1 0xE0 DUP7 ADD DUP3 PUSH2 0x44E4 JUMP JUMPDEST POP PUSH2 0x100 DUP4 ADD MLOAD PUSH2 0x473A PUSH2 0x100 DUP7 ADD DUP3 PUSH2 0x44E4 JUMP JUMPDEST POP PUSH2 0x120 DUP4 ADD MLOAD PUSH2 0x474F PUSH2 0x120 DUP7 ADD DUP3 PUSH2 0x44E4 JUMP JUMPDEST POP PUSH2 0x140 DUP4 ADD MLOAD DUP5 DUP3 SUB PUSH2 0x140 DUP7 ADD MSTORE PUSH2 0x4769 DUP3 DUP3 PUSH2 0x45E0 JUMP JUMPDEST SWAP2 POP POP DUP1 SWAP2 POP POP SWAP3 SWAP2 POP POP JUMP JUMPDEST PUSH1 0x0 PUSH2 0x4782 DUP4 DUP4 PUSH2 0x4672 JUMP JUMPDEST SWAP1 POP SWAP3 SWAP2 POP POP JUMP JUMPDEST PUSH1 0x0 PUSH1 0x20 DUP3 ADD SWAP1 POP SWAP2 SWAP1 POP JUMP JUMPDEST PUSH1 0x0 PUSH2 0x47A2 DUP3 PUSH2 0x45A3 JUMP JUMPDEST PUSH2 0x47AC DUP2 DUP6 PUSH2 0x45AE JUMP JUMPDEST SWAP4 POP DUP4 PUSH1 0x20 DUP3 MUL DUP6 ADD PUSH2 0x47BE DUP6 PUSH2 0x45BF JUMP JUMPDEST DUP1 PUSH1 0x0 JUMPDEST DUP6 DUP2 LT ISZERO PUSH2 0x47FA JUMPI DUP5 DUP5 SUB DUP10 MSTORE DUP2 MLOAD PUSH2 0x47DB DUP6 DUP3 PUSH2 0x4776 JUMP JUMPDEST SWAP5 POP PUSH2 0x47E6 DUP4 PUSH2 0x478A JUMP JUMPDEST SWAP3 POP PUSH1 0x20 DUP11 ADD SWAP10 POP POP PUSH1 0x1 DUP2 ADD SWAP1 POP PUSH2 0x47C2 JUMP JUMPDEST POP DUP3 SWAP8 POP DUP8 SWAP6 POP POP POP POP POP POP SWAP3 SWAP2 POP POP JUMP JUMPDEST PUSH1 0x0 PUSH1 0x20 DUP3 ADD SWAP1 POP DUP2 DUP2 SUB PUSH1 0x0 DUP4 ADD MSTORE PUSH2 0x4826 DUP2 DUP5 PUSH2 0x4797 JUMP JUMPDEST SWAP1 POP SWAP3 SWAP2 POP POP JUMP JUMPDEST PUSH32 0x4E487B7100000000000000000000000000000000000000000000000000000000 PUSH1 0x0 MSTORE PUSH1 0x21 PUSH1 0x4 MSTORE PUSH1 0x24 PUSH1 0x0 REVERT JUMPDEST PUSH1 0x5 DUP2 LT PUSH2 0x486E JUMPI PUSH2 0x486D PUSH2 0x482E JUMP JUMPDEST JUMPDEST POP JUMP JUMPDEST PUSH1 0x0 DUP2 SWAP1 POP PUSH2 0x487F DUP3 PUSH2 0x485D JUMP JUMPDEST SWAP2 SWAP1 POP JUMP JUMPDEST PUSH1 0x0 PUSH2 0x488F DUP3 PUSH2 0x4871 JUMP JUMPDEST SWAP1 POP SWAP2 SWAP1 POP JUMP JUMPDEST PUSH2 0x489F DUP2 PUSH2 0x4884 JUMP JUMPDEST DUP3 MSTORE POP POP JUMP JUMPDEST PUSH1 0x0 PUSH1 0xE0 DUP3 ADD SWAP1 POP PUSH2 0x48BA PUSH1 0x0 DUP4 ADD DUP11 PUSH2 0x3F66 JUMP JUMPDEST DUP2 DUP2 SUB PUSH1 0x20 DUP4 ADD MSTORE PUSH2 0x48CC DUP2 DUP10 PUSH2 0x3F91 JUMP JUMPDEST SWAP1 POP PUSH2 0x48DB PUSH1 0x40 DUP4 ADD DUP9 PUSH2 0x3E8C JUMP JUMPDEST PUSH2 0x48E8 PUSH1 0x60 DUP4 ADD DUP8 PUSH2 0x3E8C JUMP JUMPDEST PUSH2 0x48F5 PUSH1 0x80 DUP4 ADD DUP7 PUSH2 0x3E8C JUMP JUMPDEST PUSH2 0x4902 PUSH1 0xA0 DUP4 ADD DUP6 PUSH2 0x3E8C JUMP JUMPDEST PUSH2 0x490F PUSH1 0xC0 DUP4 ADD DUP5 PUSH2 0x4896 JUMP JUMPDEST SWAP9 SWAP8 POP POP POP POP POP POP POP POP JUMP JUMPDEST PUSH1 0x0 PUSH1 0x20 DUP3 ADD SWAP1 POP PUSH2 0x4930 PUSH1 0x0 DUP4 ADD DUP5 PUSH2 0x4896 JUMP JUMPDEST SWAP3 SWAP2 POP POP JUMP JUMPDEST PUSH1 0x0 PUSH8 0xFFFFFFFFFFFFFFFF DUP3 GT ISZERO PUSH2 0x4951 JUMPI PUSH2 0x4950 PUSH2 0x4156 JUMP JUMPDEST JUMPDEST PUSH2 0x495A DUP3 PUSH2 0x3EEA JUMP JUMPDEST SWAP1 POP PUSH1 0x20 DUP2 ADD SWAP1 POP SWAP2 SWAP1 POP JUMP JUMPDEST PUSH1 0x0 PUSH2 0x497A PUSH2 0x4975 DUP5 PUSH2 0x4936 JUMP JUMPDEST PUSH2 0x41B6 JUMP JUMPDEST SWAP1 POP DUP3 DUP2 MSTORE PUSH1 0x20 DUP2 ADD DUP5 DUP5 DUP5 ADD GT ISZERO PUSH2 0x4996 JUMPI PUSH2 0x4995 PUSH2 0x4151 JUMP JUMPDEST JUMPDEST PUSH2 0x49A1 DUP5 DUP3 DUP6 PUSH2 0x4202 JUMP JUMPDEST POP SWAP4 SWAP3 POP POP POP JUMP JUMPDEST PUSH1 0x0 DUP3 PUSH1 0x1F DUP4 ADD SLT PUSH2 0x49BE JUMPI PUSH2 0x49BD PUSH2 0x414C JUMP JUMPDEST JUMPDEST DUP2 CALLDATALOAD PUSH2 0x49CE DUP5 DUP3 PUSH1 0x20 DUP7 ADD PUSH2 0x4967 JUMP JUMPDEST SWAP2 POP POP SWAP3 SWAP2 POP POP JUMP JUMPDEST PUSH1 0x0 DUP1 PUSH1 0x0 PUSH1 0x60 DUP5 DUP7 SUB SLT ISZERO PUSH2 0x49F0 JUMPI PUSH2 0x49EF PUSH2 0x3E1F JUMP JUMPDEST JUMPDEST PUSH1 0x0 PUSH2 0x49FE DUP7 DUP3 DUP8 ADD PUSH2 0x444F JUMP JUMPDEST SWAP4 POP POP PUSH1 0x20 PUSH2 0x4A0F DUP7 DUP3 DUP8 ADD PUSH2 0x3E4A JUMP JUMPDEST SWAP3 POP POP PUSH1 0x40 DUP5 ADD CALLDATALOAD PUSH8 0xFFFFFFFFFFFFFFFF DUP2 GT ISZERO PUSH2 0x4A30 JUMPI PUSH2 0x4A2F PUSH2 0x3E24 JUMP JUMPDEST JUMPDEST PUSH2 0x4A3C DUP7 DUP3 DUP8 ADD PUSH2 0x49A9 JUMP JUMPDEST SWAP2 POP POP SWAP3 POP SWAP3 POP SWAP3 JUMP JUMPDEST PUSH1 0x0 DUP1 PUSH1 0x40 DUP4 DUP6 SUB SLT ISZERO PUSH2 0x4A5D JUMPI PUSH2 0x4A5C PUSH2 0x3E1F JUMP JUMPDEST JUMPDEST PUSH1 0x0 DUP4 ADD CALLDATALOAD PUSH8 0xFFFFFFFFFFFFFFFF DUP2 GT ISZERO PUSH2 0x4A7B JUMPI PUSH2 0x4A7A PUSH2 0x3E24 JUMP JUMPDEST JUMPDEST PUSH2 0x4A87 DUP6 DUP3 DUP7 ADD PUSH2 0x4253 JUMP JUMPDEST SWAP3 POP POP PUSH1 0x20 PUSH2 0x4A98 DUP6 DUP3 DUP7 ADD PUSH2 0x3E4A JUMP JUMPDEST SWAP2 POP POP SWAP3 POP SWAP3 SWAP1 POP JUMP JUMPDEST PUSH1 0x0 PUSH1 0x20 DUP3 DUP5 SUB SLT ISZERO PUSH2 0x4AB8 JUMPI PUSH2 0x4AB7 PUSH2 0x3E1F JUMP JUMPDEST JUMPDEST PUSH1 0x0 PUSH2 0x4AC6 DUP5 DUP3 DUP6 ADD PUSH2 0x431F JUMP JUMPDEST SWAP2 POP POP SWAP3 SWAP2 POP POP JUMP JUMPDEST PUSH1 0x0 PUSH1 0x60 DUP3 ADD SWAP1 POP PUSH2 0x4AE4 PUSH1 0x0 DUP4 ADD DUP7 PUSH2 0x3E8C JUMP JUMPDEST PUSH2 0x4AF1 PUSH1 0x20 DUP4 ADD DUP6 PUSH2 0x3E8C JUMP JUMPDEST PUSH2 0x4AFE PUSH1 0x40 DUP4 ADD DUP5 PUSH2 0x3E8C JUMP JUMPDEST SWAP5 SWAP4 POP POP POP POP JUMP JUMPDEST PUSH1 0x0 DUP1 PUSH1 0x40 DUP4 DUP6 SUB SLT ISZERO PUSH2 0x4B1D JUMPI PUSH2 0x4B1C PUSH2 0x3E1F JUMP JUMPDEST JUMPDEST PUSH1 0x0 DUP4 ADD CALLDATALOAD PUSH8 0xFFFFFFFFFFFFFFFF DUP2 GT ISZERO PUSH2 0x4B3B JUMPI PUSH2 0x4B3A PUSH2 0x3E24 JUMP JUMPDEST JUMPDEST PUSH2 0x4B47 DUP6 DUP3 DUP7 ADD PUSH2 0x4253 JUMP JUMPDEST SWAP3 POP POP PUSH1 0x20 PUSH2 0x4B58 DUP6 DUP3 DUP7 ADD PUSH2 0x444F JUMP JUMPDEST SWAP2 POP POP SWAP3 POP SWAP3 SWAP1 POP JUMP JUMPDEST PUSH1 0x0 DUP1 PUSH1 0x0 DUP1 PUSH1 0x0 DUP1 PUSH1 0xC0 DUP8 DUP10 SUB SLT ISZERO PUSH2 0x4B7F JUMPI PUSH2 0x4B7E PUSH2 0x3E1F JUMP JUMPDEST JUMPDEST PUSH1 0x0 DUP8 ADD CALLDATALOAD PUSH8 0xFFFFFFFFFFFFFFFF DUP2 GT ISZERO PUSH2 0x4B9D JUMPI PUSH2 0x4B9C PUSH2 0x3E24 JUMP JUMPDEST JUMPDEST PUSH2 0x4BA9 DUP10 DUP3 DUP11 ADD PUSH2 0x4253 JUMP JUMPDEST SWAP7 POP POP PUSH1 0x20 PUSH2 0x4BBA DUP10 DUP3 DUP11 ADD PUSH2 0x3E4A JUMP JUMPDEST SWAP6 POP POP PUSH1 0x40 PUSH2 0x4BCB DUP10 DUP3 DUP11 ADD PUSH2 0x3E4A JUMP JUMPDEST SWAP5 POP POP PUSH1 0x60 PUSH2 0x4BDC DUP10 DUP3 DUP11 ADD PUSH2 0x3E4A JUMP JUMPDEST SWAP4 POP POP PUSH1 0x80 DUP8 ADD CALLDATALOAD PUSH8 0xFFFFFFFFFFFFFFFF DUP2 GT ISZERO PUSH2 0x4BFD JUMPI PUSH2 0x4BFC PUSH2 0x3E24 JUMP JUMPDEST JUMPDEST PUSH2 0x4C09 DUP10 DUP3 DUP11 ADD PUSH2 0x49A9 JUMP JUMPDEST SWAP3 POP POP PUSH1 0xA0 DUP8 ADD CALLDATALOAD PUSH8 0xFFFFFFFFFFFFFFFF DUP2 GT ISZERO PUSH2 0x4C2A JUMPI PUSH2 0x4C29 PUSH2 0x3E24 JUMP JUMPDEST JUMPDEST PUSH2 0x4C36 DUP10 DUP3 DUP11 ADD PUSH2 0x49A9 JUMP JUMPDEST SWAP2 POP POP SWAP3 SWAP6 POP SWAP3 SWAP6 POP SWAP3 SWAP6 JUMP JUMPDEST PUSH32 0x4E487B7100000000000000000000000000000000000000000000000000000000 PUSH1 0x0 MSTORE PUSH1 0x22 PUSH1 0x4 MSTORE PUSH1 0x24 PUSH1 0x0 REVERT JUMPDEST PUSH1 0x0 PUSH1 0x2 DUP3 DIV SWAP1 POP PUSH1 0x1 DUP3 AND DUP1 PUSH2 0x4C8A JUMPI PUSH1 0x7F DUP3 AND SWAP2 POP JUMPDEST PUSH1 0x20 DUP3 LT DUP2 SUB PUSH2 0x4C9D JUMPI PUSH2 0x4C9C PUSH2 0x4C43 JUMP JUMPDEST JUMPDEST POP SWAP2 SWAP1 POP JUMP JUMPDEST PUSH32 0x416363657373436F6E74726F6C3A2063616E206F6E6C792072656E6F756E6365 PUSH1 0x0 DUP3 ADD MSTORE PUSH32 0x20726F6C657320666F722073656C660000000000000000000000000000000000 PUSH1 0x20 DUP3 ADD MSTORE POP JUMP JUMPDEST PUSH1 0x0 PUSH2 0x4CFF PUSH1 0x2F DUP4 PUSH2 0x3EA6 JUMP JUMPDEST SWAP2 POP PUSH2 0x4D0A DUP3 PUSH2 0x4CA3 JUMP JUMPDEST PUSH1 0x40 DUP3 ADD SWAP1 POP SWAP2 SWAP1 POP JUMP JUMPDEST PUSH1 0x0 PUSH1 0x20 DUP3 ADD SWAP1 POP DUP2 DUP2 SUB PUSH1 0x0 DUP4 ADD MSTORE PUSH2 0x4D2E DUP2 PUSH2 0x4CF2 JUMP JUMPDEST SWAP1 POP SWAP2 SWAP1 POP JUMP JUMPDEST PUSH1 0x0 DUP2 SWAP1 POP SWAP3 SWAP2 POP POP JUMP JUMPDEST PUSH1 0x0 PUSH2 0x4D4B DUP3 PUSH2 0x3F75 JUMP JUMPDEST PUSH2 0x4D55 DUP2 DUP6 PUSH2 0x4D35 JUMP JUMPDEST SWAP4 POP PUSH2 0x4D65 DUP2 DUP6 PUSH1 0x20 DUP7 ADD PUSH2 0x3EB7 JUMP JUMPDEST DUP1 DUP5 ADD SWAP2 POP POP SWAP3 SWAP2 POP POP JUMP JUMPDEST PUSH1 0x0 PUSH2 0x4D7D DUP3 DUP5 PUSH2 0x4D40 JUMP JUMPDEST SWAP2 POP DUP2 SWAP1 POP SWAP3 SWAP2 POP POP JUMP JUMPDEST PUSH32 0x596F7520617265206E6F742061206D656D656265722C20596F752063616E6E6F PUSH1 0x0 DUP3 ADD MSTORE PUSH32 0x7420566F74650000000000000000000000000000000000000000000000000000 PUSH1 0x20 DUP3 ADD MSTORE POP JUMP JUMPDEST PUSH1 0x0 PUSH2 0x4DE4 PUSH1 0x26 DUP4 PUSH2 0x3EA6 JUMP JUMPDEST SWAP2 POP PUSH2 0x4DEF DUP3 PUSH2 0x4D88 JUMP JUMPDEST PUSH1 0x40 DUP3 ADD SWAP1 POP SWAP2 SWAP1 POP JUMP JUMPDEST PUSH1 0x0 PUSH1 0x20 DUP3 ADD SWAP1 POP DUP2 DUP2 SUB PUSH1 0x0 DUP4 ADD MSTORE PUSH2 0x4E13 DUP2 PUSH2 0x4DD7 JUMP JUMPDEST SWAP1 POP SWAP2 SWAP1 POP JUMP JUMPDEST PUSH32 0x50726F706F73616C2043726561746F722063616E6E6F7420766F746520686973 PUSH1 0x0 DUP3 ADD MSTORE PUSH32 0x206F776E2070726F706F73616C00000000000000000000000000000000000000 PUSH1 0x20 DUP3 ADD MSTORE POP JUMP JUMPDEST PUSH1 0x0 PUSH2 0x4E76 PUSH1 0x2D DUP4 PUSH2 0x3EA6 JUMP JUMPDEST SWAP2 POP PUSH2 0x4E81 DUP3 PUSH2 0x4E1A JUMP JUMPDEST PUSH1 0x40 DUP3 ADD SWAP1 POP SWAP2 SWAP1 POP JUMP JUMPDEST PUSH1 0x0 PUSH1 0x20 DUP3 ADD SWAP1 POP DUP2 DUP2 SUB PUSH1 0x0 DUP4 ADD MSTORE PUSH2 0x4EA5 DUP2 PUSH2 0x4E69 JUMP JUMPDEST SWAP1 POP SWAP2 SWAP1 POP JUMP JUMPDEST PUSH32 0x416C726561647920566F74656400000000000000000000000000000000000000 PUSH1 0x0 DUP3 ADD MSTORE POP JUMP JUMPDEST PUSH1 0x0 PUSH2 0x4EE2 PUSH1 0xD DUP4 PUSH2 0x3EA6 JUMP JUMPDEST SWAP2 POP PUSH2 0x4EED DUP3 PUSH2 0x4EAC JUMP JUMPDEST PUSH1 0x20 DUP3 ADD SWAP1 POP SWAP2 SWAP1 POP JUMP JUMPDEST PUSH1 0x0 PUSH1 0x20 DUP3 ADD SWAP1 POP DUP2 DUP2 SUB PUSH1 0x0 DUP4 ADD MSTORE PUSH2 0x4F11 DUP2 PUSH2 0x4ED5 JUMP JUMPDEST SWAP1 POP SWAP2 SWAP1 POP JUMP JUMPDEST PUSH32 0x566F74696E6720506572696F642046696E697368656400000000000000000000 PUSH1 0x0 DUP3 ADD MSTORE POP JUMP JUMPDEST PUSH1 0x0 PUSH2 0x4F4E PUSH1 0x16 DUP4 PUSH2 0x3EA6 JUMP JUMPDEST SWAP2 POP PUSH2 0x4F59 DUP3 PUSH2 0x4F18 JUMP JUMPDEST PUSH1 0x20 DUP3 ADD SWAP1 POP SWAP2 SWAP1 POP JUMP JUMPDEST PUSH1 0x0 PUSH1 0x20 DUP3 ADD SWAP1 POP DUP2 DUP2 SUB PUSH1 0x0 DUP4 ADD MSTORE PUSH2 0x4F7D DUP2 PUSH2 0x4F41 JUMP JUMPDEST SWAP1 POP SWAP2 SWAP1 POP JUMP JUMPDEST PUSH32 0x4E487B7100000000000000000000000000000000000000000000000000000000 PUSH1 0x0 MSTORE PUSH1 0x11 PUSH1 0x4 MSTORE PUSH1 0x24 PUSH1 0x0 REVERT JUMPDEST PUSH1 0x0 PUSH2 0x4FBE DUP3 PUSH2 0x3E29 JUMP JUMPDEST SWAP2 POP PUSH2 0x4FC9 DUP4 PUSH2 0x3E29 JUMP JUMPDEST SWAP3 POP DUP3 PUSH32 0xFFFFFFFFFFFFFFFFFFFFFFFFFFFFFFFFFFFFFFFFFFFFFFFFFFFFFFFFFFFFFFFF SUB DUP3 GT ISZERO PUSH2 0x4FFE JUMPI PUSH2 0x4FFD PUSH2 0x4F84 JUMP JUMPDEST JUMPDEST DUP3 DUP3 ADD SWAP1 POP SWAP3 SWAP2 POP POP JUMP JUMPDEST PUSH32 0x596F7520617265206E6F742061206D656D656265722C596F752063616E6E6F74 PUSH1 0x0 DUP3 ADD MSTORE PUSH32 0x20566F7465000000000000000000000000000000000000000000000000000000 PUSH1 0x20 DUP3 ADD MSTORE POP JUMP JUMPDEST PUSH1 0x0 PUSH2 0x5065 PUSH1 0x25 DUP4 PUSH2 0x3EA6 JUMP JUMPDEST SWAP2 POP PUSH2 0x5070 DUP3 PUSH2 0x5009 JUMP JUMPDEST PUSH1 0x40 DUP3 ADD SWAP1 POP SWAP2 SWAP1 POP JUMP JUMPDEST PUSH1 0x0 PUSH1 0x20 DUP3 ADD SWAP1 POP DUP2 DUP2 SUB PUSH1 0x0 DUP4 ADD MSTORE PUSH2 0x5094 DUP2 PUSH2 0x5058 JUMP JUMPDEST SWAP1 POP SWAP2 SWAP1 POP JUMP JUMPDEST PUSH32 0x4E487B7100000000000000000000000000000000000000000000000000000000 PUSH1 0x0 MSTORE PUSH1 0x32 PUSH1 0x4 MSTORE PUSH1 0x24 PUSH1 0x0 REVERT JUMPDEST PUSH1 0x0 PUSH2 0x50D5 DUP3 PUSH2 0x3E29 JUMP JUMPDEST SWAP2 POP PUSH32 0xFFFFFFFFFFFFFFFFFFFFFFFFFFFFFFFFFFFFFFFFFFFFFFFFFFFFFFFFFFFFFFFF DUP3 SUB PUSH2 0x5107 JUMPI PUSH2 0x5106 PUSH2 0x4F84 JUMP JUMPDEST JUMPDEST PUSH1 0x1 DUP3 ADD SWAP1 POP SWAP2 SWAP1 POP JUMP JUMPDEST PUSH32 0x43616C6C6572206973206E6F742061206D656D62657200000000000000000000 PUSH1 0x0 DUP3 ADD MSTORE POP JUMP JUMPDEST PUSH1 0x0 PUSH2 0x5148 PUSH1 0x16 DUP4 PUSH2 0x3EA6 JUMP JUMPDEST SWAP2 POP PUSH2 0x5153 DUP3 PUSH2 0x5112 JUMP JUMPDEST PUSH1 0x20 DUP3 ADD SWAP1 POP SWAP2 SWAP1 POP JUMP JUMPDEST PUSH1 0x0 PUSH1 0x20 DUP3 ADD SWAP1 POP DUP2 DUP2 SUB PUSH1 0x0 DUP4 ADD MSTORE PUSH2 0x5177 DUP2 PUSH2 0x513B JUMP JUMPDEST SWAP1 POP SWAP2 SWAP1 POP JUMP JUMPDEST PUSH1 0x0 PUSH1 0x20 DUP3 ADD SWAP1 POP PUSH2 0x5193 PUSH1 0x0 DUP4 ADD DUP5 PUSH2 0x3F66 JUMP JUMPDEST SWAP3 SWAP2 POP POP JUMP JUMPDEST PUSH1 0x0 DUP2 MLOAD SWAP1 POP PUSH2 0x51A8 DUP2 PUSH2 0x3E33 JUMP JUMPDEST SWAP3 SWAP2 POP POP JUMP JUMPDEST PUSH1 0x0 PUSH1 0x20 DUP3 DUP5 SUB SLT ISZERO PUSH2 0x51C4 JUMPI PUSH2 0x51C3 PUSH2 0x3E1F JUMP JUMPDEST JUMPDEST PUSH1 0x0 PUSH2 0x51D2 DUP5 DUP3 DUP6 ADD PUSH2 0x5199 JUMP JUMPDEST SWAP2 POP POP SWAP3 SWAP2 POP POP JUMP JUMPDEST PUSH32 0x43616C6C6572206973206E6F742061206D696E74657200000000000000000000 PUSH1 0x0 DUP3 ADD MSTORE POP JUMP JUMPDEST PUSH1 0x0 PUSH2 0x5211 PUSH1 0x16 DUP4 PUSH2 0x3EA6 JUMP JUMPDEST SWAP2 POP PUSH2 0x521C DUP3 PUSH2 0x51DB JUMP JUMPDEST PUSH1 0x20 DUP3 ADD SWAP1 POP SWAP2 SWAP1 POP JUMP JUMPDEST PUSH1 0x0 PUSH1 0x20 DUP3 ADD SWAP1 POP DUP2 DUP2 SUB PUSH1 0x0 DUP4 ADD MSTORE PUSH2 0x5240 DUP2 PUSH2 0x5204 JUMP JUMPDEST SWAP1 POP SWAP2 SWAP1 POP JUMP JUMPDEST PUSH1 0x0 DUP2 SWAP1 POP SWAP3 SWAP2 POP POP JUMP JUMPDEST PUSH32 0x416363657373436F6E74726F6C3A206163636F756E7420000000000000000000 PUSH1 0x0 DUP3 ADD MSTORE POP JUMP JUMPDEST PUSH1 0x0 PUSH2 0x5288 PUSH1 0x17 DUP4 PUSH2 0x5247 JUMP JUMPDEST SWAP2 POP PUSH2 0x5293 DUP3 PUSH2 0x5252 JUMP JUMPDEST PUSH1 0x17 DUP3 ADD SWAP1 POP SWAP2 SWAP1 POP JUMP JUMPDEST PUSH1 0x0 PUSH2 0x52A9 DUP3 PUSH2 0x3E9B JUMP JUMPDEST PUSH2 0x52B3 DUP2 DUP6 PUSH2 0x5247 JUMP JUMPDEST SWAP4 POP PUSH2 0x52C3 DUP2 DUP6 PUSH1 0x20 DUP7 ADD PUSH2 0x3EB7 JUMP JUMPDEST DUP1 DUP5 ADD SWAP2 POP POP SWAP3 SWAP2 POP POP JUMP JUMPDEST PUSH32 0x206973206D697373696E6720726F6C6520000000000000000000000000000000 PUSH1 0x0 DUP3 ADD MSTORE POP JUMP JUMPDEST PUSH1 0x0 PUSH2 0x5305 PUSH1 0x11 DUP4 PUSH2 0x5247 JUMP JUMPDEST SWAP2 POP PUSH2 0x5310 DUP3 PUSH2 0x52CF JUMP JUMPDEST PUSH1 0x11 DUP3 ADD SWAP1 POP SWAP2 SWAP1 POP JUMP JUMPDEST PUSH1 0x0 PUSH2 0x5326 DUP3 PUSH2 0x527B JUMP JUMPDEST SWAP2 POP PUSH2 0x5332 DUP3 DUP6 PUSH2 0x529E JUMP JUMPDEST SWAP2 POP PUSH2 0x533D DUP3 PUSH2 0x52F8 JUMP JUMPDEST SWAP2 POP PUSH2 0x5349 DUP3 DUP5 PUSH2 0x529E JUMP JUMPDEST SWAP2 POP DUP2 SWAP1 POP SWAP4 SWAP3 POP POP POP JUMP JUMPDEST PUSH1 0x0 PUSH1 0x20 DUP3 ADD SWAP1 POP DUP2 DUP2 SUB PUSH1 0x0 DUP4 ADD MSTORE PUSH2 0x536F DUP2 DUP5 PUSH2 0x3EFB JUMP JUMPDEST SWAP1 POP SWAP3 SWAP2 POP POP JUMP JUMPDEST PUSH1 0x0 PUSH2 0x5382 DUP3 PUSH2 0x3E29 JUMP JUMPDEST SWAP2 POP PUSH2 0x538D DUP4 PUSH2 0x3E29 JUMP JUMPDEST SWAP3 POP DUP3 DUP3 LT ISZERO PUSH2 0x53A0 JUMPI PUSH2 0x539F PUSH2 0x4F84 JUMP JUMPDEST JUMPDEST DUP3 DUP3 SUB SWAP1 POP SWAP3 SWAP2 POP POP JUMP JUMPDEST PUSH32 0x4E487B7100000000000000000000000000000000000000000000000000000000 PUSH1 0x0 MSTORE PUSH1 0x12 PUSH1 0x4 MSTORE PUSH1 0x24 PUSH1 0x0 REVERT JUMPDEST PUSH1 0x0 PUSH2 0x53E5 DUP3 PUSH2 0x3E29 JUMP JUMPDEST SWAP2 POP PUSH2 0x53F0 DUP4 PUSH2 0x3E29 JUMP JUMPDEST SWAP3 POP DUP3 PUSH2 0x5400 JUMPI PUSH2 0x53FF PUSH2 0x53AB JUMP JUMPDEST JUMPDEST DUP3 DUP3 DIV SWAP1 POP SWAP3 SWAP2 POP POP JUMP JUMPDEST PUSH32 0x566F74696E6720506572696F64206973204F6E00000000000000000000000000 PUSH1 0x0 DUP3 ADD MSTORE POP JUMP JUMPDEST PUSH1 0x0 PUSH2 0x5441 PUSH1 0x13 DUP4 PUSH2 0x3EA6 JUMP JUMPDEST SWAP2 POP PUSH2 0x544C DUP3 PUSH2 0x540B JUMP JUMPDEST PUSH1 0x20 DUP3 ADD SWAP1 POP SWAP2 SWAP1 POP JUMP JUMPDEST PUSH1 0x0 PUSH1 0x20 DUP3 ADD SWAP1 POP DUP2 DUP2 SUB PUSH1 0x0 DUP4 ADD MSTORE PUSH2 0x5470 DUP2 PUSH2 0x5434 JUMP JUMPDEST SWAP1 POP SWAP2 SWAP1 POP JUMP JUMPDEST PUSH1 0x0 PUSH2 0x5482 DUP3 PUSH2 0x3E29 JUMP JUMPDEST SWAP2 POP PUSH2 0x548D DUP4 PUSH2 0x3E29 JUMP JUMPDEST SWAP3 POP DUP2 PUSH32 0xFFFFFFFFFFFFFFFFFFFFFFFFFFFFFFFFFFFFFFFFFFFFFFFFFFFFFFFFFFFFFFFF DIV DUP4 GT DUP3 ISZERO ISZERO AND ISZERO PUSH2 0x54C6 JUMPI PUSH2 0x54C5 PUSH2 0x4F84 JUMP JUMPDEST JUMPDEST DUP3 DUP3 MUL SWAP1 POP SWAP3 SWAP2 POP POP JUMP JUMPDEST PUSH1 0x0 PUSH2 0x54DC DUP3 PUSH2 0x3E29 JUMP JUMPDEST SWAP2 POP PUSH1 0x0 DUP3 SUB PUSH2 0x54EF JUMPI PUSH2 0x54EE PUSH2 0x4F84 JUMP JUMPDEST JUMPDEST PUSH1 0x1 DUP3 SUB SWAP1 POP SWAP2 SWAP1 POP JUMP JUMPDEST PUSH32 0x537472696E67733A20686578206C656E67746820696E73756666696369656E74 PUSH1 0x0 DUP3 ADD MSTORE POP JUMP JUMPDEST PUSH1 0x0 PUSH2 0x5530 PUSH1 0x20 DUP4 PUSH2 0x3EA6 JUMP JUMPDEST SWAP2 POP PUSH2 0x553B DUP3 PUSH2 0x54FA JUMP JUMPDEST PUSH1 0x20 DUP3 ADD SWAP1 POP SWAP2 SWAP1 POP JUMP JUMPDEST PUSH1 0x0 PUSH1 0x20 DUP3 ADD SWAP1 POP DUP2 DUP2 SUB PUSH1 0x0 DUP4 ADD MSTORE PUSH2 0x555F DUP2 PUSH2 0x5523 JUMP JUMPDEST SWAP1 POP SWAP2 SWAP1 POP JUMP JUMPDEST PUSH1 0x0 PUSH1 0xC0 DUP3 ADD SWAP1 POP PUSH2 0x557B PUSH1 0x0 DUP4 ADD DUP10 PUSH2 0x42DE JUMP JUMPDEST PUSH2 0x5588 PUSH1 0x20 DUP4 ADD DUP9 PUSH2 0x3E8C JUMP JUMPDEST PUSH2 0x5595 PUSH1 0x40 DUP4 ADD DUP8 PUSH2 0x42DE JUMP JUMPDEST PUSH2 0x55A2 PUSH1 0x60 DUP4 ADD DUP7 PUSH2 0x42DE JUMP JUMPDEST DUP2 DUP2 SUB PUSH1 0x80 DUP4 ADD MSTORE PUSH2 0x55B4 DUP2 DUP6 PUSH2 0x3F91 JUMP JUMPDEST SWAP1 POP PUSH2 0x55C3 PUSH1 0xA0 DUP4 ADD DUP5 PUSH2 0x42DE JUMP JUMPDEST SWAP8 SWAP7 POP POP POP POP POP POP POP JUMP JUMPDEST PUSH1 0x0 DUP2 SWAP1 POP SWAP2 SWAP1 POP JUMP JUMPDEST PUSH2 0x55E1 DUP2 PUSH2 0x55CE JUMP JUMPDEST DUP2 EQ PUSH2 0x55EC JUMPI PUSH1 0x0 DUP1 REVERT JUMPDEST POP JUMP JUMPDEST PUSH1 0x0 DUP2 MLOAD SWAP1 POP PUSH2 0x55FE DUP2 PUSH2 0x55D8 JUMP JUMPDEST SWAP3 SWAP2 POP POP JUMP JUMPDEST PUSH1 0x0 DUP2 MLOAD SWAP1 POP PUSH2 0x5613 DUP2 PUSH2 0x4308 JUMP JUMPDEST SWAP3 SWAP2 POP POP JUMP JUMPDEST PUSH1 0x0 PUSH2 0x562C PUSH2 0x5627 DUP5 PUSH2 0x41D1 JUMP JUMPDEST PUSH2 0x41B6 JUMP JUMPDEST SWAP1 POP DUP3 DUP2 MSTORE PUSH1 0x20 DUP2 ADD DUP5 DUP5 DUP5 ADD GT ISZERO PUSH2 0x5648 JUMPI PUSH2 0x5647 PUSH2 0x4151 JUMP JUMPDEST JUMPDEST PUSH2 0x5653 DUP5 DUP3 DUP6 PUSH2 0x3EB7 JUMP JUMPDEST POP SWAP4 SWAP3 POP POP POP JUMP JUMPDEST PUSH1 0x0 DUP3 PUSH1 0x1F DUP4 ADD SLT PUSH2 0x5670 JUMPI PUSH2 0x566F PUSH2 0x414C JUMP JUMPDEST JUMPDEST DUP2 MLOAD PUSH2 0x5680 DUP5 DUP3 PUSH1 0x20 DUP7 ADD PUSH2 0x5619 JUMP JUMPDEST SWAP2 POP POP SWAP3 SWAP2 POP POP JUMP JUMPDEST PUSH1 0x0 DUP1 PUSH1 0x0 PUSH1 0x60 DUP5 DUP7 SUB SLT ISZERO PUSH2 0x56A2 JUMPI PUSH2 0x56A1 PUSH2 0x3E1F JUMP JUMPDEST JUMPDEST PUSH1 0x0 PUSH2 0x56B0 DUP7 DUP3 DUP8 ADD PUSH2 0x55EF JUMP JUMPDEST SWAP4 POP POP PUSH1 0x20 PUSH2 0x56C1 DUP7 DUP3 DUP8 ADD PUSH2 0x5604 JUMP JUMPDEST SWAP3 POP POP PUSH1 0x40 DUP5 ADD MLOAD PUSH8 0xFFFFFFFFFFFFFFFF DUP2 GT ISZERO PUSH2 0x56E2 JUMPI PUSH2 0x56E1 PUSH2 0x3E24 JUMP JUMPDEST JUMPDEST PUSH2 0x56EE DUP7 DUP3 DUP8 ADD PUSH2 0x565B JUMP JUMPDEST SWAP2 POP POP SWAP3 POP SWAP3 POP SWAP3 JUMP JUMPDEST PUSH32 0x646174612073697A65206D757374206D61746368206578706563746564000000 PUSH1 0x0 DUP3 ADD MSTORE POP JUMP JUMPDEST PUSH1 0x0 PUSH2 0x572E PUSH1 0x1D DUP4 PUSH2 0x3EA6 JUMP JUMPDEST SWAP2 POP PUSH2 0x5739 DUP3 PUSH2 0x56F8 JUMP JUMPDEST PUSH1 0x20 DUP3 ADD SWAP1 POP SWAP2 SWAP1 POP JUMP JUMPDEST PUSH1 0x0 PUSH1 0x20 DUP3 ADD SWAP1 POP DUP2 DUP2 SUB PUSH1 0x0 DUP4 ADD MSTORE PUSH2 0x575D DUP2 PUSH2 0x5721 JUMP JUMPDEST SWAP1 POP SWAP2 SWAP1 POP JUMP JUMPDEST PUSH32 0x6465616C206661696C656420706F6C69637920636865636B3A20686173207072 PUSH1 0x0 DUP3 ADD MSTORE PUSH32 0x6F766964657220616C726561647920636C61696D65642074686973206369643F PUSH1 0x20 DUP3 ADD MSTORE POP JUMP JUMPDEST PUSH1 0x0 PUSH2 0x57C0 PUSH1 0x40 DUP4 PUSH2 0x3EA6 JUMP JUMPDEST SWAP2 POP PUSH2 0x57CB DUP3 PUSH2 0x5764 JUMP JUMPDEST PUSH1 0x40 DUP3 ADD SWAP1 POP SWAP2 SWAP1 POP JUMP JUMPDEST PUSH1 0x0 PUSH1 0x20 DUP3 ADD SWAP1 POP DUP2 DUP2 SUB PUSH1 0x0 DUP4 ADD MSTORE PUSH2 0x57EF DUP2 PUSH2 0x57B3 JUMP JUMPDEST SWAP1 POP SWAP2 SWAP1 POP JUMP JUMPDEST PUSH32 0x496E76616C69642043424F520000000000000000000000000000000000000000 PUSH1 0x0 DUP3 ADD MSTORE POP JUMP JUMPDEST PUSH1 0x0 PUSH2 0x582C PUSH1 0xC DUP4 PUSH2 0x3EA6 JUMP JUMPDEST SWAP2 POP PUSH2 0x5837 DUP3 PUSH2 0x57F6 JUMP JUMPDEST PUSH1 0x20 DUP3 ADD SWAP1 POP SWAP2 SWAP1 POP JUMP JUMPDEST PUSH1 0x0 PUSH1 0x20 DUP3 ADD SWAP1 POP DUP2 DUP2 SUB PUSH1 0x0 DUP4 ADD MSTORE PUSH2 0x585B DUP2 PUSH2 0x581F JUMP JUMPDEST SWAP1 POP SWAP2 SWAP1 POP JUMP JUMPDEST PUSH32 0x6163746F72206572726F7220636F646520000000000000000000000000000000 DUP2 MSTORE POP JUMP JUMPDEST PUSH1 0x0 PUSH2 0x5893 DUP3 PUSH2 0x5862 JUMP JUMPDEST PUSH1 0x11 DUP3 ADD SWAP2 POP PUSH2 0x58A3 DUP3 DUP5 PUSH2 0x529E JUMP JUMPDEST SWAP2 POP DUP2 SWAP1 POP SWAP3 SWAP2 POP POP JUMP JUMPDEST PUSH32 0x4E487B7100000000000000000000000000000000000000000000000000000000 PUSH1 0x0 MSTORE PUSH1 0x1 PUSH1 0x4 MSTORE PUSH1 0x24 PUSH1 0x0 REVERT JUMPDEST PUSH1 0x0 PUSH2 0x58E8 DUP3 PUSH2 0x3E29 JUMP JUMPDEST SWAP2 POP PUSH2 0x58F3 DUP4 PUSH2 0x3E29 JUMP JUMPDEST SWAP3 POP DUP3 PUSH2 0x5903 JUMPI PUSH2 0x5902 PUSH2 0x53AB JUMP JUMPDEST JUMPDEST DUP3 DUP3 MOD SWAP1 POP SWAP3 SWAP2 POP POP JUMP JUMPDEST PUSH1 0x0 PUSH1 0xC0 DUP3 ADD SWAP1 POP PUSH2 0x5923 PUSH1 0x0 DUP4 ADD DUP10 PUSH2 0x42DE JUMP JUMPDEST PUSH2 0x5930 PUSH1 0x20 DUP4 ADD DUP9 PUSH2 0x3E8C JUMP JUMPDEST PUSH2 0x593D PUSH1 0x40 DUP4 ADD DUP8 PUSH2 0x42DE JUMP JUMPDEST PUSH2 0x594A PUSH1 0x60 DUP4 ADD DUP7 PUSH2 0x42DE JUMP JUMPDEST DUP2 DUP2 SUB PUSH1 0x80 DUP4 ADD MSTORE PUSH2 0x595C DUP2 DUP6 PUSH2 0x3F91 JUMP JUMPDEST SWAP1 POP DUP2 DUP2 SUB PUSH1 0xA0 DUP4 ADD MSTORE PUSH2 0x5970 DUP2 DUP5 PUSH2 0x3F91 JUMP JUMPDEST SWAP1 POP SWAP8 SWAP7 POP POP POP POP POP POP POP JUMP JUMPDEST PUSH1 0x0 DUP2 PUSH1 0x1 SHR SWAP1 POP SWAP2 SWAP1 POP JUMP JUMPDEST PUSH1 0x0 DUP1 DUP3 SWAP2 POP DUP4 SWAP1 POP JUMPDEST PUSH1 0x1 DUP6 GT ISZERO PUSH2 0x59D4 JUMPI DUP1 DUP7 DIV DUP2 GT ISZERO PUSH2 0x59B0 JUMPI PUSH2 0x59AF PUSH2 0x4F84 JUMP JUMPDEST JUMPDEST PUSH1 0x1 DUP6 AND ISZERO PUSH2 0x59BF JUMPI DUP1 DUP3 MUL SWAP2 POP JUMPDEST DUP1 DUP2 MUL SWAP1 POP PUSH2 0x59CD DUP6 PUSH2 0x597D JUMP JUMPDEST SWAP5 POP PUSH2 0x5994 JUMP JUMPDEST SWAP5 POP SWAP5 SWAP3 POP POP POP JUMP JUMPDEST PUSH1 0x0 DUP3 PUSH2 0x59ED JUMPI PUSH1 0x1 SWAP1 POP PUSH2 0x5AA9 JUMP JUMPDEST DUP2 PUSH2 0x59FB JUMPI PUSH1 0x0 SWAP1 POP PUSH2 0x5AA9 JUMP JUMPDEST DUP2 PUSH1 0x1 DUP2 EQ PUSH2 0x5A11 JUMPI PUSH1 0x2 DUP2 EQ PUSH2 0x5A1B JUMPI PUSH2 0x5A4A JUMP JUMPDEST PUSH1 0x1 SWAP2 POP POP PUSH2 0x5AA9 JUMP JUMPDEST PUSH1 0xFF DUP5 GT ISZERO PUSH2 0x5A2D JUMPI PUSH2 0x5A2C PUSH2 0x4F84 JUMP JUMPDEST JUMPDEST DUP4 PUSH1 0x2 EXP SWAP2 POP DUP5 DUP3 GT ISZERO PUSH2 0x5A44 JUMPI PUSH2 0x5A43 PUSH2 0x4F84 JUMP JUMPDEST JUMPDEST POP PUSH2 0x5AA9 JUMP JUMPDEST POP PUSH1 0x20 DUP4 LT PUSH2 0x133 DUP4 LT AND PUSH1 0x4E DUP5 LT PUSH1 0xB DUP5 LT AND OR ISZERO PUSH2 0x5A7F JUMPI DUP3 DUP3 EXP SWAP1 POP DUP4 DUP2 GT ISZERO PUSH2 0x5A7A JUMPI PUSH2 0x5A79 PUSH2 0x4F84 JUMP JUMPDEST JUMPDEST PUSH2 0x5AA9 JUMP JUMPDEST PUSH2 0x5A8C DUP5 DUP5 DUP5 PUSH1 0x1 PUSH2 0x598A JUMP JUMPDEST SWAP3 POP SWAP1 POP DUP2 DUP5 DIV DUP2 GT ISZERO PUSH2 0x5AA3 JUMPI PUSH2 0x5AA2 PUSH2 0x4F84 JUMP JUMPDEST JUMPDEST DUP2 DUP2 MUL SWAP1 POP JUMPDEST SWAP4 SWAP3 POP POP POP JUMP JUMPDEST PUSH1 0x0 PUSH2 0x5ABB DUP3 PUSH2 0x3E29 JUMP JUMPDEST SWAP2 POP PUSH2 0x5AC6 DUP4 PUSH2 0x3E29 JUMP JUMPDEST SWAP3 POP PUSH2 0x5AF3 PUSH32 0xFFFFFFFFFFFFFFFFFFFFFFFFFFFFFFFFFFFFFFFFFFFFFFFFFFFFFFFFFFFFFFFF DUP5 DUP5 PUSH2 0x59DD JUMP JUMPDEST SWAP1 POP SWAP3 SWAP2 POP POP JUMP JUMPDEST PUSH32 0x736C6963696E67206F7574206F662072616E6765000000000000000000000000 PUSH1 0x0 DUP3 ADD MSTORE POP JUMP JUMPDEST PUSH1 0x0 PUSH2 0x5B31 PUSH1 0x14 DUP4 PUSH2 0x3EA6 JUMP JUMPDEST SWAP2 POP PUSH2 0x5B3C DUP3 PUSH2 0x5AFB JUMP JUMPDEST PUSH1 0x20 DUP3 ADD SWAP1 POP SWAP2 SWAP1 POP JUMP JUMPDEST PUSH1 0x0 PUSH1 0x20 DUP3 ADD SWAP1 POP DUP2 DUP2 SUB PUSH1 0x0 DUP4 ADD MSTORE PUSH2 0x5B60 DUP2 PUSH2 0x5B24 JUMP JUMPDEST SWAP1 POP SWAP2 SWAP1 POP JUMP INVALID LOG2 PUSH5 0x6970667358 0x22 SLT KECCAK256 PUSH26 0x18F08CB5772FFD06ABEE81ECDF48DE66ABCC957C1B49A0650118 0xB1 MULMOD RETURN SWAP6 0xEF PUSH5 0x736F6C6343 STOP ADDMOD 0xD STOP CALLER "
		},
		"gasEstimates": {
			"creation": {
				"codeDepositCost": "4690600",
				"executionCost": "infinite",
				"totalCost": "infinite"
			},
			"external": {
				"DEFAULT_ADMIN_ROLE()": "425",
				"activateDataSetDealBySP(uint64)": "infinite",
				"addDaoMember(address,uint256,string)": "infinite",
				"approveOrRejectDataSet(bytes,uint256)": "infinite",
				"cidProviders(bytes,uint64)": "infinite",
				"cidSet(bytes)": "infinite",
				"cidSizes(bytes)": "infinite",
				"createDataSetDealProposal(bytes,uint256,uint256,uint256,string,string)": "infinite",
				"dealClient(bytes)": "infinite",
				"dealStorageFees(bytes)": "infinite",
				"deals(bytes)": "infinite",
				"downvoteCIDProposal(uint256)": "infinite",
				"fundings(bytes,address)": "infinite",
				"getDataDaoVotingConfig()": "infinite",
				"getDealState(bytes)": "infinite",
				"getRoleAdmin(bytes32)": "infinite",
				"getaAllProposals()": "infinite",
				"grantRole(bytes32,address)": "infinite",
				"hasRole(bytes32,address)": "3186",
				"hasVotedForProposal(address,uint256)": "3199",
				"isCallerPC(uint256)": "2912",
				"isMember()": "infinite",
				"proposalCount()": "2540",
				"proposals(uint256)": "infinite",
				"renounceRole(bytes32,address)": "infinite",
				"revokeRole(bytes32,address)": "infinite",
				"setDataDaoVotingConfig(uint256,uint256,uint256)": "infinite",
				"supportsInterface(bytes4)": "796",
				"tokenPrice()": "2496",
				"upvoteCIDProposal(uint256)": "infinite",
				"votingconfigs()": "infinite",
				"withdrawReward(bytes)": "infinite"
			}
		},
		"methodIdentifiers": {
			"DEFAULT_ADMIN_ROLE()": "a217fddf",
			"activateDataSetDealBySP(uint64)": "e5fcd6b8",
			"addDaoMember(address,uint256,string)": "c236a6d1",
			"approveOrRejectDataSet(bytes,uint256)": "cef6bcea",
			"cidProviders(bytes,uint64)": "1a7fd6c6",
			"cidSet(bytes)": "3d7650b2",
			"cidSizes(bytes)": "8f8a6d8f",
			"createDataSetDealProposal(bytes,uint256,uint256,uint256,string,string)": "f82dc0ec",
			"dealClient(bytes)": "166d4c6f",
			"dealStorageFees(bytes)": "1e7f7e09",
			"deals(bytes)": "b22e8569",
			"downvoteCIDProposal(uint256)": "8f79d511",
			"fundings(bytes,address)": "f4912450",
			"getDataDaoVotingConfig()": "5dd3983a",
			"getDealState(bytes)": "bfbd58fc",
			"getRoleAdmin(bytes32)": "248a9ca3",
			"getaAllProposals()": "aff5bfd8",
			"grantRole(bytes32,address)": "2f2ff15d",
			"hasRole(bytes32,address)": "91d14854",
			"hasVotedForProposal(address,uint256)": "32e08142",
			"isCallerPC(uint256)": "b4e9134c",
			"isMember()": "d02982cf",
			"proposalCount()": "da35c664",
			"proposals(uint256)": "013cf08b",
			"renounceRole(bytes32,address)": "36568abe",
			"revokeRole(bytes32,address)": "d547741f",
			"setDataDaoVotingConfig(uint256,uint256,uint256)": "95f4bae7",
			"supportsInterface(bytes4)": "01ffc9a7",
			"tokenPrice()": "7ff9b596",
			"upvoteCIDProposal(uint256)": "7bb58b8c",
			"votingconfigs()": "f406517d",
			"withdrawReward(bytes)": "6763ccbd"
		}
	},
	"abi": [
		{
			"inputs": [
				{
					"internalType": "address",
					"name": "admin",
					"type": "address"
				},
				{
					"internalType": "contract IERC20",
					"name": "_token",
					"type": "address"
				},
				{
					"internalType": "uint256",
					"name": "_condition",
					"type": "uint256"
				},
				{
					"internalType": "uint256",
					"name": "_minimunApproval",
					"type": "uint256"
				},
				{
					"internalType": "uint256",
					"name": "_votingPeriod",
					"type": "uint256"
				},
				{
					"internalType": "uint256",
					"name": "_tokenPrice",
					"type": "uint256"
				}
			],
			"stateMutability": "nonpayable",
			"type": "constructor"
		},
		{
			"inputs": [],
			"name": "DataDAO_CallerIsNotMember",
			"type": "error"
		},
		{
			"inputs": [],
			"name": "DataDAO__CallerIsNotAdmin",
			"type": "error"
		},
		{
			"inputs": [],
			"name": "DataDAO__DataSizeNotMatched",
			"type": "error"
		},
		{
			"inputs": [],
			"name": "DataDAO__DealProposalPolicyCheckFailed",
			"type": "error"
		},
		{
			"inputs": [],
			"name": "DataDAO__DealProposalWasNotApproved",
			"type": "error"
		},
		{
			"anonymous": false,
			"inputs": [
				{
					"indexed": false,
					"internalType": "address",
					"name": "adminAddress",
					"type": "address"
				}
			],
			"name": "AdminAdded",
			"type": "event"
		},
		{
			"anonymous": false,
			"inputs": [
				{
					"indexed": false,
					"internalType": "bytes",
					"name": "cidraw",
					"type": "bytes"
				},
				{
					"indexed": false,
					"internalType": "uint256",
					"name": "dealStartBlockStamp",
					"type": "uint256"
				},
				{
					"indexed": false,
					"internalType": "uint256",
					"name": "dealDurationInDays",
					"type": "uint256"
				}
			],
			"name": "DealAcivated",
			"type": "event"
		},
		{
			"anonymous": false,
			"inputs": [
				{
					"indexed": false,
					"internalType": "bytes",
					"name": "cidraw",
					"type": "bytes"
				},
				{
					"indexed": false,
					"internalType": "bytes32",
					"name": "decision",
					"type": "bytes32"
				}
			],
			"name": "DealApproval",
			"type": "event"
		},
		{
			"anonymous": false,
			"inputs": [
				{
					"indexed": false,
					"internalType": "bytes",
					"name": "cidraw",
					"type": "bytes"
				},
				{
					"indexed": false,
					"internalType": "uint256",
					"name": "size",
					"type": "uint256"
				}
			],
			"name": "DealProposed",
			"type": "event"
		},
		{
			"anonymous": false,
			"inputs": [
				{
					"indexed": false,
					"internalType": "address",
					"name": "memberAddress",
					"type": "address"
				}
			],
			"name": "MemberAdded",
			"type": "event"
		},
		{
			"anonymous": false,
			"inputs": [
				{
					"indexed": true,
					"internalType": "bytes32",
					"name": "role",
					"type": "bytes32"
				},
				{
					"indexed": true,
					"internalType": "bytes32",
					"name": "previousAdminRole",
					"type": "bytes32"
				},
				{
					"indexed": true,
					"internalType": "bytes32",
					"name": "newAdminRole",
					"type": "bytes32"
				}
			],
			"name": "RoleAdminChanged",
			"type": "event"
		},
		{
			"anonymous": false,
			"inputs": [
				{
					"indexed": true,
					"internalType": "bytes32",
					"name": "role",
					"type": "bytes32"
				},
				{
					"indexed": true,
					"internalType": "address",
					"name": "account",
					"type": "address"
				},
				{
					"indexed": true,
					"internalType": "address",
					"name": "sender",
					"type": "address"
				}
			],
			"name": "RoleGranted",
			"type": "event"
		},
		{
			"anonymous": false,
			"inputs": [
				{
					"indexed": true,
					"internalType": "bytes32",
					"name": "role",
					"type": "bytes32"
				},
				{
					"indexed": true,
					"internalType": "address",
					"name": "account",
					"type": "address"
				},
				{
					"indexed": true,
					"internalType": "address",
					"name": "sender",
					"type": "address"
				}
			],
			"name": "RoleRevoked",
			"type": "event"
		},
		{
			"inputs": [],
			"name": "DEFAULT_ADMIN_ROLE",
			"outputs": [
				{
					"internalType": "bytes32",
					"name": "",
					"type": "bytes32"
				}
			],
			"stateMutability": "view",
			"type": "function"
		},
		{
			"inputs": [
				{
					"internalType": "uint64",
					"name": "_networkDealID",
					"type": "uint64"
				}
			],
			"name": "activateDataSetDealBySP",
			"outputs": [],
			"stateMutability": "nonpayable",
			"type": "function"
		},
		{
			"inputs": [
				{
					"internalType": "address",
					"name": "_memberAddress",
					"type": "address"
				},
				{
					"internalType": "uint256",
					"name": "_tokenbalance",
					"type": "uint256"
				},
				{
					"internalType": "string",
					"name": "_customName",
					"type": "string"
				}
			],
			"name": "addDaoMember",
			"outputs": [],
			"stateMutability": "nonpayable",
			"type": "function"
		},
		{
			"inputs": [
				{
					"internalType": "bytes",
					"name": "_cidraw",
					"type": "bytes"
				},
				{
					"internalType": "uint256",
					"name": "_proposalId",
					"type": "uint256"
				}
			],
			"name": "approveOrRejectDataSet",
			"outputs": [],
			"stateMutability": "nonpayable",
			"type": "function"
		},
		{
			"inputs": [
				{
					"internalType": "bytes",
					"name": "",
					"type": "bytes"
				},
				{
					"internalType": "uint64",
					"name": "",
					"type": "uint64"
				}
			],
			"name": "cidProviders",
			"outputs": [
				{
					"internalType": "bool",
					"name": "",
					"type": "bool"
				}
			],
			"stateMutability": "view",
			"type": "function"
		},
		{
			"inputs": [
				{
					"internalType": "bytes",
					"name": "",
					"type": "bytes"
				}
			],
			"name": "cidSet",
			"outputs": [
				{
					"internalType": "bool",
					"name": "",
					"type": "bool"
				}
			],
			"stateMutability": "view",
			"type": "function"
		},
		{
			"inputs": [
				{
					"internalType": "bytes",
					"name": "",
					"type": "bytes"
				}
			],
			"name": "cidSizes",
			"outputs": [
				{
					"internalType": "uint256",
					"name": "",
					"type": "uint256"
				}
			],
			"stateMutability": "view",
			"type": "function"
		},
		{
			"inputs": [
				{
					"internalType": "bytes",
					"name": "_cidraw",
					"type": "bytes"
				},
				{
					"internalType": "uint256",
					"name": "_size",
					"type": "uint256"
				},
				{
					"internalType": "uint256",
					"name": "_dealDurationInDays",
					"type": "uint256"
				},
				{
					"internalType": "uint256",
					"name": "_dealStorageFees",
					"type": "uint256"
				},
				{
					"internalType": "string",
					"name": "_proposalName",
					"type": "string"
				},
				{
					"internalType": "string",
					"name": "_proposalaDescription",
					"type": "string"
				}
			],
			"name": "createDataSetDealProposal",
			"outputs": [],
			"stateMutability": "payable",
			"type": "function"
		},
		{
			"inputs": [
				{
					"internalType": "bytes",
					"name": "",
					"type": "bytes"
				}
			],
			"name": "dealClient",
			"outputs": [
				{
					"internalType": "uint64",
					"name": "",
					"type": "uint64"
				}
			],
			"stateMutability": "view",
			"type": "function"
		},
		{
			"inputs": [
				{
					"internalType": "bytes",
					"name": "",
					"type": "bytes"
				}
			],
			"name": "dealStorageFees",
			"outputs": [
				{
					"internalType": "uint256",
					"name": "",
					"type": "uint256"
				}
			],
			"stateMutability": "view",
			"type": "function"
		},
		{
			"inputs": [
				{
					"internalType": "bytes",
					"name": "",
					"type": "bytes"
				}
			],
			"name": "deals",
			"outputs": [
				{
					"internalType": "address",
					"name": "proposedBy",
					"type": "address"
				},
				{
					"internalType": "bytes",
					"name": "cidraw",
					"type": "bytes"
				},
				{
					"internalType": "uint256",
					"name": "size",
					"type": "uint256"
				},
				{
					"internalType": "uint256",
					"name": "storageFees",
					"type": "uint256"
				},
				{
					"internalType": "uint256",
					"name": "dealStartBlockStamp",
					"type": "uint256"
				},
				{
					"internalType": "uint256",
					"name": "dealDurationInDays",
					"type": "uint256"
				},
				{
					"internalType": "enum IDataDAO.DealState",
					"name": "dealState",
					"type": "uint8"
				}
			],
			"stateMutability": "view",
			"type": "function"
		},
		{
			"inputs": [
				{
					"internalType": "uint256",
					"name": "proposalID",
					"type": "uint256"
				}
			],
			"name": "downvoteCIDProposal",
			"outputs": [],
			"stateMutability": "nonpayable",
			"type": "function"
		},
		{
			"inputs": [
				{
					"internalType": "bytes",
					"name": "",
					"type": "bytes"
				},
				{
					"internalType": "address",
					"name": "",
					"type": "address"
				}
			],
			"name": "fundings",
			"outputs": [
				{
					"internalType": "uint256",
					"name": "",
					"type": "uint256"
				}
			],
			"stateMutability": "view",
			"type": "function"
		},
		{
			"inputs": [],
			"name": "getDataDaoVotingConfig",
			"outputs": [
				{
					"components": [
						{
							"internalType": "uint256",
							"name": "condition",
							"type": "uint256"
						},
						{
							"internalType": "uint256",
							"name": "minimunApproval",
							"type": "uint256"
						},
						{
							"internalType": "uint256",
							"name": "votingPeriod",
							"type": "uint256"
						}
					],
					"internalType": "struct DataDAO.VotingConfig",
					"name": "",
					"type": "tuple"
				}
			],
			"stateMutability": "view",
			"type": "function"
		},
		{
			"inputs": [
				{
					"internalType": "bytes",
					"name": "_cidraw",
					"type": "bytes"
				}
			],
			"name": "getDealState",
			"outputs": [
				{
					"internalType": "enum IDataDAO.DealState",
					"name": "",
					"type": "uint8"
				}
			],
			"stateMutability": "view",
			"type": "function"
		},
		{
			"inputs": [
				{
					"internalType": "bytes32",
					"name": "role",
					"type": "bytes32"
				}
			],
			"name": "getRoleAdmin",
			"outputs": [
				{
					"internalType": "bytes32",
					"name": "",
					"type": "bytes32"
				}
			],
			"stateMutability": "view",
			"type": "function"
		},
		{
			"inputs": [],
			"name": "getaAllProposals",
			"outputs": [
				{
					"components": [
						{
							"internalType": "uint256",
							"name": "proposalID",
							"type": "uint256"
						},
						{
							"internalType": "string",
							"name": "proposalName",
							"type": "string"
						},
						{
							"internalType": "string",
							"name": "proposalDescription",
							"type": "string"
						},
						{
							"internalType": "address",
							"name": "proposalCreator",
							"type": "address"
						},
						{
							"internalType": "bytes",
							"name": "cidraw",
							"type": "bytes"
						},
						{
							"internalType": "uint256",
							"name": "size",
							"type": "uint256"
						},
						{
							"internalType": "uint256",
							"name": "upVoteCount",
							"type": "uint256"
						},
						{
							"internalType": "uint256",
							"name": "downVoteCount",
							"type": "uint256"
						},
						{
							"internalType": "uint256",
							"name": "proposedAt",
							"type": "uint256"
						},
						{
							"internalType": "uint256",
							"name": "proposalExpireAt",
							"type": "uint256"
						},
						{
							"internalType": "string",
							"name": "status",
							"type": "string"
						}
					],
					"internalType": "struct DataDAO.Proposal[]",
					"name": "",
					"type": "tuple[]"
				}
			],
			"stateMutability": "view",
			"type": "function"
		},
		{
			"inputs": [
				{
					"internalType": "bytes32",
					"name": "role",
					"type": "bytes32"
				},
				{
					"internalType": "address",
					"name": "account",
					"type": "address"
				}
			],
			"name": "grantRole",
			"outputs": [],
			"stateMutability": "nonpayable",
			"type": "function"
		},
		{
			"inputs": [
				{
					"internalType": "bytes32",
					"name": "role",
					"type": "bytes32"
				},
				{
					"internalType": "address",
					"name": "account",
					"type": "address"
				}
			],
			"name": "hasRole",
			"outputs": [
				{
					"internalType": "bool",
					"name": "",
					"type": "bool"
				}
			],
			"stateMutability": "view",
			"type": "function"
		},
		{
			"inputs": [
				{
					"internalType": "address",
					"name": "",
					"type": "address"
				},
				{
					"internalType": "uint256",
					"name": "",
					"type": "uint256"
				}
			],
			"name": "hasVotedForProposal",
			"outputs": [
				{
					"internalType": "bool",
					"name": "",
					"type": "bool"
				}
			],
			"stateMutability": "view",
			"type": "function"
		},
		{
			"inputs": [
				{
					"internalType": "uint256",
					"name": "proposalID",
					"type": "uint256"
				}
			],
			"name": "isCallerPC",
			"outputs": [
				{
					"internalType": "bool",
					"name": "",
					"type": "bool"
				}
			],
			"stateMutability": "view",
			"type": "function"
		},
		{
			"inputs": [],
			"name": "isMember",
			"outputs": [
				{
					"internalType": "bool",
					"name": "",
					"type": "bool"
				}
			],
			"stateMutability": "view",
			"type": "function"
		},
		{
			"inputs": [],
			"name": "proposalCount",
			"outputs": [
				{
					"internalType": "uint256",
					"name": "",
					"type": "uint256"
				}
			],
			"stateMutability": "view",
			"type": "function"
		},
		{
			"inputs": [
				{
					"internalType": "uint256",
					"name": "",
					"type": "uint256"
				}
			],
			"name": "proposals",
			"outputs": [
				{
					"internalType": "uint256",
					"name": "proposalID",
					"type": "uint256"
				},
				{
					"internalType": "string",
					"name": "proposalName",
					"type": "string"
				},
				{
					"internalType": "string",
					"name": "proposalDescription",
					"type": "string"
				},
				{
					"internalType": "address",
					"name": "proposalCreator",
					"type": "address"
				},
				{
					"internalType": "bytes",
					"name": "cidraw",
					"type": "bytes"
				},
				{
					"internalType": "uint256",
					"name": "size",
					"type": "uint256"
				},
				{
					"internalType": "uint256",
					"name": "upVoteCount",
					"type": "uint256"
				},
				{
					"internalType": "uint256",
					"name": "downVoteCount",
					"type": "uint256"
				},
				{
					"internalType": "uint256",
					"name": "proposedAt",
					"type": "uint256"
				},
				{
					"internalType": "uint256",
					"name": "proposalExpireAt",
					"type": "uint256"
				},
				{
					"internalType": "string",
					"name": "status",
					"type": "string"
				}
			],
			"stateMutability": "view",
			"type": "function"
		},
		{
			"inputs": [
				{
					"internalType": "bytes32",
					"name": "role",
					"type": "bytes32"
				},
				{
					"internalType": "address",
					"name": "account",
					"type": "address"
				}
			],
			"name": "renounceRole",
			"outputs": [],
			"stateMutability": "nonpayable",
			"type": "function"
		},
		{
			"inputs": [
				{
					"internalType": "bytes32",
					"name": "role",
					"type": "bytes32"
				},
				{
					"internalType": "address",
					"name": "account",
					"type": "address"
				}
			],
			"name": "revokeRole",
			"outputs": [],
			"stateMutability": "nonpayable",
			"type": "function"
		},
		{
			"inputs": [
				{
					"internalType": "uint256",
					"name": "_condition",
					"type": "uint256"
				},
				{
					"internalType": "uint256",
					"name": "_minimunApproval",
					"type": "uint256"
				},
				{
					"internalType": "uint256",
					"name": "_votingPeriod",
					"type": "uint256"
				}
			],
			"name": "setDataDaoVotingConfig",
			"outputs": [],
			"stateMutability": "nonpayable",
			"type": "function"
		},
		{
			"inputs": [
				{
					"internalType": "bytes4",
					"name": "interfaceId",
					"type": "bytes4"
				}
			],
			"name": "supportsInterface",
			"outputs": [
				{
					"internalType": "bool",
					"name": "",
					"type": "bool"
				}
			],
			"stateMutability": "view",
			"type": "function"
		},
		{
			"inputs": [],
			"name": "tokenPrice",
			"outputs": [
				{
					"internalType": "uint256",
					"name": "",
					"type": "uint256"
				}
			],
			"stateMutability": "view",
			"type": "function"
		},
		{
			"inputs": [
				{
					"internalType": "uint256",
					"name": "proposalID",
					"type": "uint256"
				}
			],
			"name": "upvoteCIDProposal",
			"outputs": [],
			"stateMutability": "nonpayable",
			"type": "function"
		},
		{
			"inputs": [],
			"name": "votingconfigs",
			"outputs": [
				{
					"internalType": "uint256",
					"name": "condition",
					"type": "uint256"
				},
				{
					"internalType": "uint256",
					"name": "minimunApproval",
					"type": "uint256"
				},
				{
					"internalType": "uint256",
					"name": "votingPeriod",
					"type": "uint256"
				}
			],
			"stateMutability": "view",
			"type": "function"
		},
		{
			"inputs": [
				{
					"internalType": "bytes",
					"name": "_cidraw",
					"type": "bytes"
				}
			],
			"name": "withdrawReward",
			"outputs": [],
			"stateMutability": "nonpayable",
			"type": "function"
		}
	]
}