{
	"data": {
		"bytecode": {
			"linkReferences": {},
			"object": "60806040523480156200001157600080fd5b5060405162005f1638038062005f168339818101604052810190620000379190620002cd565b856200006a7fa49807205ce4d355092ef5a8a18f56e8913cf4a201fbe287825b095693c2177582620000dc60201b60201c565b5084600d60006101000a81548173ffffffffffffffffffffffffffffffffffffffff021916908373ffffffffffffffffffffffffffffffffffffffff160217905550836001600001819055508260018001819055508160016002018190555080600a8190555050505050505062000369565b620000ee8282620000f260201b60201c565b5050565b6200010482826200017960201b60201c565b6200017557600160008084815260200190815260200160002060000160008373ffffffffffffffffffffffffffffffffffffffff1673ffffffffffffffffffffffffffffffffffffffff16815260200190815260200160002060006101000a81548160ff0219169083151502179055505b5050565b600080600084815260200190815260200160002060000160008373ffffffffffffffffffffffffffffffffffffffff1673ffffffffffffffffffffffffffffffffffffffff16815260200190815260200160002060009054906101000a900460ff16905092915050565b600080fd5b600073ffffffffffffffffffffffffffffffffffffffff82169050919050565b60006200021582620001e8565b9050919050565b620002278162000208565b81146200023357600080fd5b50565b60008151905062000247816200021c565b92915050565b60006200025a8262000208565b9050919050565b6200026c816200024d565b81146200027857600080fd5b50565b6000815190506200028c8162000261565b92915050565b6000819050919050565b620002a78162000292565b8114620002b357600080fd5b50565b600081519050620002c7816200029c565b92915050565b60008060008060008060c08789031215620002ed57620002ec620001e3565b5b6000620002fd89828a0162000236565b96505060206200031089828a016200027b565b95505060406200032389828a01620002b6565b94505060606200033689828a01620002b6565b93505060806200034989828a01620002b6565b92505060a06200035c89828a01620002b6565b9150509295509295509295565b615b9d80620003796000396000f3fe6080604052600436106101e35760003560e01c80638f8a6d8f11610102578063c236a6d111610095578063da35c66411610064578063da35c66414610775578063e5fcd6b8146107a0578063f406517d146107c9578063f4912450146107f6576101e3565b8063c236a6d1146106cf578063cef6bcea146106f8578063d02982cf14610721578063d547741f1461074c576101e3565b8063aff5bfd8116100d1578063aff5bfd8146105e7578063b22e856914610612578063b4e9134c14610655578063bfbd58fc14610692576101e3565b80638f8a6d8f1461051957806391d148541461055657806395f4bae714610593578063a217fddf146105bc576101e3565b806336568abe1161017a5780636763ccbd116101495780636763ccbd146104735780637bb58b8c1461049c5780637ff9b596146104c55780638f79d511146104f0576101e3565b806336568abe146103c65780633d7650b2146103ef5780634675c93a1461042c5780635dd3983a14610448576101e3565b80631e7f7e09116101b65780631e7f7e09146102e6578063248a9ca3146103235780632f2ff15d1461036057806332e0814214610389576101e3565b8063013cf08b146101e857806301ffc9a71461022f578063166d4c6f1461026c5780631a7fd6c6146102a9575b600080fd5b3480156101f457600080fd5b5061020f600480360381019061020a9190613e5f565b610833565b6040516102269b9a99989796959493929190613fca565b60405180910390f35b34801561023b57600080fd5b50610256600480360381019061025191906140e9565b610acd565b6040516102639190614131565b60405180910390f35b34801561027857600080fd5b50610293600480360381019061028e9190614281565b610b47565b6040516102a091906142ed565b60405180910390f35b3480156102b557600080fd5b506102d060048036038101906102cb9190614334565b610b84565b6040516102dd9190614131565b60405180910390f35b3480156102f257600080fd5b5061030d60048036038101906103089190614281565b610bc9565b60405161031a9190614390565b60405180910390f35b34801561032f57600080fd5b5061034a600480360381019061034591906143e1565b610bf7565b604051610357919061441d565b60405180910390f35b34801561036c57600080fd5b5061038760048036038101906103829190614464565b610c16565b005b34801561039557600080fd5b506103b060048036038101906103ab91906144a4565b610c3f565b6040516103bd9190614131565b60405180910390f35b3480156103d257600080fd5b506103ed60048036038101906103e89190614464565b610c6e565b005b3480156103fb57600080fd5b5061041660048036038101906104119190614281565b610cf1565b6040516104239190614131565b60405180910390f35b61044660048036038101906104419190614585565b610d27565b005b34801561045457600080fd5b5061045d610dc8565b60405161046a91906146b7565b60405180910390f35b34801561047f57600080fd5b5061049a60048036038101906104959190614281565b610e00565b005b3480156104a857600080fd5b506104c360048036038101906104be9190613e5f565b610e95565b005b3480156104d157600080fd5b506104da6110e6565b6040516104e79190614390565b60405180910390f35b3480156104fc57600080fd5b5061051760048036038101906105129190613e5f565b6110ec565b005b34801561052557600080fd5b50610540600480360381019061053b9190614281565b61133d565b60405161054d9190614390565b60405180910390f35b34801561056257600080fd5b5061057d60048036038101906105789190614464565b61136b565b60405161058a9190614131565b60405180910390f35b34801561059f57600080fd5b506105ba60048036038101906105b591906146d2565b6113d5565b005b3480156105c857600080fd5b506105d1611418565b6040516105de919061441d565b60405180910390f35b3480156105f357600080fd5b506105fc61141f565b604051610609919061498e565b60405180910390f35b34801561061e57600080fd5b5061063960048036038101906106349190614281565b6117ba565b60405161064c9796959493929190614a27565b60405180910390f35b34801561066157600080fd5b5061067c60048036038101906106779190613e5f565b6118c7565b6040516106899190614131565b60405180910390f35b34801561069e57600080fd5b506106b960048036038101906106b49190614281565b611935565b6040516106c69190614a9d565b60405180910390f35b3480156106db57600080fd5b506106f660048036038101906106f19190614ab8565b611a47565b005b34801561070457600080fd5b5061071f600480360381019061071a9190614b27565b611aaf565b005b34801561072d57600080fd5b50610736611b26565b6040516107439190614131565b60405180910390f35b34801561075857600080fd5b50610773600480360381019061076e9190614464565b611bcb565b005b34801561078157600080fd5b5061078a611bf4565b6040516107979190614390565b60405180910390f35b3480156107ac57600080fd5b506107c760048036038101906107c29190614b83565b611bfa565b005b3480156107d557600080fd5b506107de611c7a565b6040516107ed93929190614bb0565b60405180910390f35b34801561080257600080fd5b5061081d60048036038101906108189190614be7565b611c92565b60405161082a9190614390565b60405180910390f35b600460205280600052604060002060009150905080600001549080600101805461085c90614c72565b80601f016020809104026020016040519081016040528092919081815260200182805461088890614c72565b80156108d55780601f106108aa576101008083540402835291602001916108d5565b820191906000526020600020905b8154815290600101906020018083116108b857829003601f168201915b5050505050908060020180546108ea90614c72565b80601f016020809104026020016040519081016040528092919081815260200182805461091690614c72565b80156109635780601f1061093857610100808354040283529160200191610963565b820191906000526020600020905b81548152906001019060200180831161094657829003601f168201915b5050505050908060030160009054906101000a900473ffffffffffffffffffffffffffffffffffffffff169080600401805461099e90614c72565b80601f01602080910402602001604051908101604052809291908181526020018280546109ca90614c72565b8015610a175780601f106109ec57610100808354040283529160200191610a17565b820191906000526020600020905b8154815290600101906020018083116109fa57829003601f168201915b50505050509080600501549080600601549080600701549080600801549080600901549080600a018054610a4a90614c72565b80601f0160208091040260200160405190810160405280929190818152602001828054610a7690614c72565b8015610ac35780601f10610a9857610100808354040283529160200191610ac3565b820191906000526020600020905b815481529060010190602001808311610aa657829003601f168201915b505050505090508b565b60007f7965db0b000000000000000000000000000000000000000000000000000000007bffffffffffffffffffffffffffffffffffffffffffffffffffffffff1916827bffffffffffffffffffffffffffffffffffffffffffffffffffffffff19161480610b405750610b3f82611ccd565b5b9050919050565b6010818051602081018201805184825260208301602085012081835280955050505050506000915054906101000a900467ffffffffffffffff1681565b6009828051602081018201805184825260208301602085012081835280955050505050506020528060005260406000206000915091509054906101000a900460ff1681565b600f818051602081018201805184825260208301602085012081835280955050505050506000915090505481565b6000806000838152602001908152602001600020600101549050919050565b610c1f82610bf7565b610c3081610c2b611d37565b611d3f565b610c3a8383611ddc565b505050565b60056020528160005260406000206020528060005260406000206000915091509054906101000a900460ff1681565b610c76611d37565b73ffffffffffffffffffffffffffffffffffffffff168173ffffffffffffffffffffffffffffffffffffffff1614610ce3576040517f08c379a0000000000000000000000000000000000000000000000000000000008152600401610cda90614d15565b60405180910390fd5b610ced8282611e5a565b5050565b6007818051602081018201805184825260208301602085012081835280955050505050506000915054906101000a900460ff1681565b610d517f829b824e2329e205435d941c9f13baf578548505283d29261236d8e6596d46363361136b565b610d90576040517f08c379a0000000000000000000000000000000000000000000000000000000008152600401610d8790614d81565b60405180910390fd5b610d9d8686868585611f3b565b82600f87604051610dae9190614ddd565b908152602001604051809103902081905550505050505050565b610dd0613bc3565b60016040518060600160405290816000820154815260200160018201548152602001600282015481525050905090565b600480811115610e1357610e126149b0565b5b610e1c82611935565b6004811115610e2e57610e2d6149b0565b5b14610e3857600080fd5b610e92601082604051610e4b9190614ddd565b908152602001604051809103902060009054906101000a900467ffffffffffffffff16600f83604051610e7e9190614ddd565b90815260200160405180910390205461225b565b50565b610ebf7f829b824e2329e205435d941c9f13baf578548505283d29261236d8e6596d46363361136b565b610efe576040517f08c379a0000000000000000000000000000000000000000000000000000000008152600401610ef590614e66565b60405180910390fd5b610f07816118c7565b15610f47576040517f08c379a0000000000000000000000000000000000000000000000000000000008152600401610f3e90614ef8565b60405180910390fd5b600560003373ffffffffffffffffffffffffffffffffffffffff1673ffffffffffffffffffffffffffffffffffffffff168152602001908152602001600020600082815260200190815260200160002060009054906101000a900460ff1615610fe5576040517f08c379a0000000000000000000000000000000000000000000000000000000008152600401610fdc90614f64565b60405180910390fd5b4260046000838152602001908152602001600020600901541161103d576040517f08c379a000000000000000000000000000000000000000000000000000000000815260040161103490614fd0565b60405180910390fd5b60016004600083815260200190815260200160002060060154611060919061501f565b60046000838152602001908152602001600020600601819055506001600560003373ffffffffffffffffffffffffffffffffffffffff1673ffffffffffffffffffffffffffffffffffffffff168152602001908152602001600020600083815260200190815260200160002060006101000a81548160ff02191690831515021790555050565b600a5481565b6111167f829b824e2329e205435d941c9f13baf578548505283d29261236d8e6596d46363361136b565b611155576040517f08c379a000000000000000000000000000000000000000000000000000000000815260040161114c906150e7565b60405180910390fd5b61115e816118c7565b1561119e576040517f08c379a000000000000000000000000000000000000000000000000000000000815260040161119590614ef8565b60405180910390fd5b600560003373ffffffffffffffffffffffffffffffffffffffff1673ffffffffffffffffffffffffffffffffffffffff168152602001908152602001600020600082815260200190815260200160002060009054906101000a900460ff161561123c576040517f08c379a000000000000000000000000000000000000000000000000000000000815260040161123390614f64565b60405180910390fd5b42600460008381526020019081526020016000206009015411611294576040517f08c379a000000000000000000000000000000000000000000000000000000000815260040161128b90614fd0565b60405180910390fd5b600160046000838152602001908152602001600020600701546112b7919061501f565b60046000838152602001908152602001600020600701819055506001600560003373ffffffffffffffffffffffffffffffffffffffff1673ffffffffffffffffffffffffffffffffffffffff168152602001908152602001600020600083815260200190815260200160002060006101000a81548160ff02191690831515021790555050565b6008818051602081018201805184825260208301602085012081835280955050505050506000915090505481565b600080600084815260200190815260200160002060000160008373ffffffffffffffffffffffffffffffffffffffff1673ffffffffffffffffffffffffffffffffffffffff16815260200190815260200160002060009054906101000a900460ff16905092915050565b6040518060600160405280848152602001838152602001828152506001600082015181600001556020820151816001015560408201518160020155905050505050565b6000801b81565b6060600060065467ffffffffffffffff81111561143f5761143e614156565b5b60405190808252806020026020018201604052801561147857816020015b611465613be4565b81526020019060019003908161145d5790505b50905060005b6006548110156117b2576004600082815260200190815260200160002060405180610160016040529081600082015481526020016001820180546114c190614c72565b80601f01602080910402602001604051908101604052809291908181526020018280546114ed90614c72565b801561153a5780601f1061150f5761010080835404028352916020019161153a565b820191906000526020600020905b81548152906001019060200180831161151d57829003601f168201915b5050505050815260200160028201805461155390614c72565b80601f016020809104026020016040519081016040528092919081815260200182805461157f90614c72565b80156115cc5780601f106115a1576101008083540402835291602001916115cc565b820191906000526020600020905b8154815290600101906020018083116115af57829003601f168201915b505050505081526020016003820160009054906101000a900473ffffffffffffffffffffffffffffffffffffffff1673ffffffffffffffffffffffffffffffffffffffff1673ffffffffffffffffffffffffffffffffffffffff16815260200160048201805461163b90614c72565b80601f016020809104026020016040519081016040528092919081815260200182805461166790614c72565b80156116b45780601f10611689576101008083540402835291602001916116b4565b820191906000526020600020905b81548152906001019060200180831161169757829003601f168201915b505050505081526020016005820154815260200160068201548152602001600782015481526020016008820154815260200160098201548152602001600a820180546116ff90614c72565b80601f016020809104026020016040519081016040528092919081815260200182805461172b90614c72565b80156117785780601f1061174d57610100808354040283529160200191611778565b820191906000526020600020905b81548152906001019060200180831161175b57829003601f168201915b50505050508152505082828151811061179457611793615107565b5b602002602001018190525080806117aa90615136565b91505061147e565b508091505090565b600c818051602081018201805184825260208301602085012081835280955050505050506000915090508060000160009054906101000a900473ffffffffffffffffffffffffffffffffffffffff169080600101805461181990614c72565b80601f016020809104026020016040519081016040528092919081815260200182805461184590614c72565b80156118925780601f1061186757610100808354040283529160200191611892565b820191906000526020600020905b81548152906001019060200180831161187557829003601f168201915b5050505050908060020154908060030154908060040154908060050154908060060160009054906101000a900460ff16905087565b60003373ffffffffffffffffffffffffffffffffffffffff166004600084815260200190815260200160002060030160009054906101000a900473ffffffffffffffffffffffffffffffffffffffff1673ffffffffffffffffffffffffffffffffffffffff16149050919050565b60006003600481111561194b5761194a6149b0565b5b600c8360405161195b9190614ddd565b908152602001604051809103902060060160009054906101000a900460ff16600481111561198c5761198b6149b0565b5b148015611a025750600c826040516119a49190614ddd565b9081526020016040518091039020600501546119ff620151806119f1600c866040516119d09190614ddd565b9081526020016040518091039020600401544261228c90919063ffffffff16565b6122a290919063ffffffff16565b10155b15611a105760049050611a42565b600c82604051611a209190614ddd565b908152602001604051809103902060060160009054906101000a900460ff1690505b919050565b600b839080600181540180825580915050600190039060005260206000200160009091909190916101000a81548173ffffffffffffffffffffffffffffffffffffffff021916908373ffffffffffffffffffffffffffffffffffffffff160217905550505050565b611ad97f829b824e2329e205435d941c9f13baf578548505283d29261236d8e6596d46363361136b565b611b18576040517f08c379a0000000000000000000000000000000000000000000000000000000008152600401611b0f906151ca565b60405180910390fd5b611b2282826122b8565b5050565b600080600d60009054906101000a900473ffffffffffffffffffffffffffffffffffffffff1673ffffffffffffffffffffffffffffffffffffffff166370a08231336040518263ffffffff1660e01b8152600401611b8491906151ea565b602060405180830381865afa158015611ba1573d6000803e3d6000fd5b505050506040513d601f19601f82011682018060405250810190611bc5919061521a565b11905090565b611bd482610bf7565b611be581611be0611d37565b611d3f565b611bef8383611e5a565b505050565b60065481565b6000611c0582612462565b90506000611c2a60405180602001604052808567ffffffffffffffff1681525061257a565b90508160108260000151604051611c419190614ddd565b908152602001604051809103902060006101000a81548167ffffffffffffffff021916908367ffffffffffffffff160217905550505050565b60018060000154908060010154908060020154905083565b600e82805160208101820180518482526020830160208501208183528095505050505050602052806000526040600020600091509150505481565b60007f01ffc9a7000000000000000000000000000000000000000000000000000000007bffffffffffffffffffffffffffffffffffffffffffffffffffffffff1916827bffffffffffffffffffffffffffffffffffffffffffffffffffffffff1916149050919050565b600033905090565b611d49828261136b565b611dd857611d6e8173ffffffffffffffffffffffffffffffffffffffff1660146125fe565b611d7c8360001c60206125fe565b604051602001611d8d92919061531b565b6040516020818303038152906040526040517f08c379a0000000000000000000000000000000000000000000000000000000008152600401611dcf9190615355565b60405180910390fd5b5050565b611de6828261136b565b611e5657600160008084815260200190815260200160002060000160008373ffffffffffffffffffffffffffffffffffffffff1673ffffffffffffffffffffffffffffffffffffffff16815260200190815260200160002060006101000a81548160ff0219169083151502179055505b5050565b611e64828261136b565b15611f3757600080600084815260200190815260200160002060000160008373ffffffffffffffffffffffffffffffffffffffff1673ffffffffffffffffffffffffffffffffffffffff16815260200190815260200160002060006101000a81548160ff021916908315150217905550611edc611d37565b73ffffffffffffffffffffffffffffffffffffffff168173ffffffffffffffffffffffffffffffffffffffff16837ff6391f5c32d9c69d2a47ea670b442974b53935d1edc7fd64eb21e047a839171b60405160405180910390a45b5050565b60006040518060e001604052803373ffffffffffffffffffffffffffffffffffffffff168152602001878152602001868152602001600081526020016000815260200185815260200160006004811115611f9857611f976149b0565b5b815250905060066000815480929190611fb090615136565b9190505550600060405180610160016040528060065481526020018581526020018481526020013373ffffffffffffffffffffffffffffffffffffffff1681526020018881526020018781526020016000815260200160008152602001428152602001610e1042612021919061501f565b81526020016040518060400160405280600681526020017f616374697665000000000000000000000000000000000000000000000000000081525081525090508060046000600654815260200190815260200160002060008201518160000155602082015181600101908051906020019061209d929190613c54565b5060408201518160020190805190602001906120ba929190613c54565b5060608201518160030160006101000a81548173ffffffffffffffffffffffffffffffffffffffff021916908373ffffffffffffffffffffffffffffffffffffffff160217905550608082015181600401908051906020019061211e929190613cda565b5060a0820151816005015560c0820151816006015560e082015181600701556101008201518160080155610120820151816009015561014082015181600a019080519060200190612170929190613c54565b5090505081600c886040516121859190614ddd565b908152602001604051809103902060008201518160000160006101000a81548173ffffffffffffffffffffffffffffffffffffffff021916908373ffffffffffffffffffffffffffffffffffffffff16021790555060208201518160010190805190602001906121f6929190613cda565b5060408201518160020155606082015181600301556080820151816004015560a0820151816005015560c08201518160060160006101000a81548160ff0219169083600481111561224a576122496149b0565b5b021790555090505050505050505050565b600060405180602001604052806000815250905060609050612283600083600080858861283a565b50505050505050565b6000818361229a9190615377565b905092915050565b600081836122b091906153da565b905092915050565b42600460008381526020019081526020016000206009015410612310576040517f08c379a000000000000000000000000000000000000000000000000000000000815260040161230790615457565b60405180910390fd5b60006004600083815260200190815260200160002060070154600460008481526020019081526020016000206006015411156123af57600190506040518060400160405280600681526020017f506173736564000000000000000000000000000000000000000000000000000081525060046000848152602001908152602001600020600a0190805190602001906123a9929190613c54565b50612414565b600290506040518060400160405280600881526020017f52656a656374656400000000000000000000000000000000000000000000000081525060046000848152602001908152602001600020600a019080519060200190612412929190613c54565b505b80600c846040516124259190614ddd565b908152602001604051809103902060060160006101000a81548160ff02191690836004811115612458576124576149b0565b5b0217905550505050565b60008061248660405180602001604052808567ffffffffffffffff1681525061257a565b905060006124ab60405180602001604052808667ffffffffffffffff16815250612928565b90506124ce82600001518260000151846020015167ffffffffffffffff166129ac565b60006124f160405180602001604052808767ffffffffffffffff16815250612b18565b90506003600c84600001516040516125099190614ddd565b908152602001604051809103902060060160006101000a81548160ff0219169083600481111561253c5761253b6149b0565b5b021790555042600c84600001516040516125569190614ddd565b90815260200160405180910390206004018190555080600001519350505050919050565b612582613d60565b600061258d83612b9c565b905060006125d6634505760a6040518060400160405280600281526020017e05000000000000000000000000000000000000000000000000000000000000815250846071612bd4565b90506125e0613d60565b6125f38282612bff90919063ffffffff16565b809350505050919050565b6060600060028360026126119190615477565b61261b919061501f565b67ffffffffffffffff81111561263457612633614156565b5b6040519080825280601f01601f1916602001820160405280156126665781602001600182028036833780820191505090505b5090507f30000000000000000000000000000000000000000000000000000000000000008160008151811061269e5761269d615107565b5b60200101907effffffffffffffffffffffffffffffffffffffffffffffffffffffffffffff1916908160001a9053507f78000000000000000000000000000000000000000000000000000000000000008160018151811061270257612701615107565b5b60200101907effffffffffffffffffffffffffffffffffffffffffffffffffffffffffffff1916908160001a905350600060018460026127429190615477565b61274c919061501f565b90505b60018111156127ec577f3031323334353637383961626364656600000000000000000000000000000000600f86166010811061278e5761278d615107565b5b1a60f81b8282815181106127a5576127a4615107565b5b60200101907effffffffffffffffffffffffffffffffffffffffffffffffffffffffffffff1916908160001a905350600485901c9450806127e5906154d1565b905061274f565b5060008414612830576040517f08c379a000000000000000000000000000000000000000000000000000000000815260040161282790615546565b60405180910390fd5b8091505092915050565b6000806000606060008073fe0000000000000000000000000000000000000573ffffffffffffffffffffffffffffffffffffffff168c8c8c8c8c8c60405160200161288a96959493929190615566565b6040516020818303038152906040526040516128a69190614ddd565b600060405180830381855af49150503d80600081146128e1576040519150601f19603f3d011682016040523d82523d6000602084013e6128e6565b606091505b50915091506000806000838060200190518101906129049190615689565b92509250925084838383985098509850985050505050509650965096509692505050565b612930613d84565b600061293b83612c80565b905060006129846337bc36da6040518060400160405280600281526020017e05000000000000000000000000000000000000000000000000000000000000815250846071612bd4565b905061298e613d84565b6129a18282612cb890919063ffffffff16565b809350505050919050565b600160048111156129c0576129bf6149b0565b5b600c846040516129d09190614ddd565b908152602001604051809103902060060160009054906101000a900460ff166004811115612a0157612a006149b0565b5b14612a0b57600080fd5b80600c84604051612a1c9190614ddd565b90815260200160405180910390206002015414612a6e576040517f08c379a0000000000000000000000000000000000000000000000000000000008152600401612a6590615744565b60405180910390fd5b612a788383612cf3565b612ab7576040517f08c379a0000000000000000000000000000000000000000000000000000000008152600401612aae906157d6565b60405180910390fd5b6001600984604051612ac99190614ddd565b908152602001604051809103902060008467ffffffffffffffff1667ffffffffffffffff16815260200190815260200160002060006101000a81548160ff021916908315150217905550505050565b612b20613da1565b6000612b2b83612d54565b90506000612b746307a1f0516040518060400160405280600281526020017e05000000000000000000000000000000000000000000000000000000000000815250846071612bd4565b9050612b7e613da1565b612b918282612d8c90919063ffffffff16565b809350505050919050565b60606000612baa6040612dc7565b9050612bc3836000015182612dee90919063ffffffff16565b612bcc81612dfe565b915050919050565b6060612bf5612be286612e57565b67ffffffffffffffff1685858534612e61565b9050949350505050565b600080612c158284612f0690919063ffffffff16565b80935081925050506000811115612c7a57612c398284612f5590919063ffffffff16565b856000018194508290525050612c5882846130ff90919063ffffffff16565b856020018194508267ffffffffffffffff1667ffffffffffffffff1681525050505b50505050565b60606000612c8e6040612dc7565b9050612ca7836000015182612dee90919063ffffffff16565b612cb081612dfe565b915050919050565b6000612ccd81836130ff90919063ffffffff16565b846000018193508267ffffffffffffffff1667ffffffffffffffff168152505050505050565b600080600984604051612d069190614ddd565b908152602001604051809103902060008467ffffffffffffffff1667ffffffffffffffff16815260200190815260200160002060009054906101000a900460ff169050801591505092915050565b60606000612d626040612dc7565b9050612d7b836000015182612dee90919063ffffffff16565b612d8481612dfe565b915050919050565b6000612da181836130ff90919063ffffffff16565b846000018193508267ffffffffffffffff1667ffffffffffffffff168152505050505050565b612dcf613dbe565b612ddd81600001518361314e565b506000816020018181525050919050565b612dfa826000836131c7565b5050565b60606000826020015114612e47576040517f08c379a0000000000000000000000000000000000000000000000000000000008152600401612e3e90615842565b60405180910390fd5b8160000151600001519050919050565b6000819050919050565b6060600080600080612e80612e758b612e57565b8760008a8c8e613370565b935093509350935060008314612e958461345e565b604051602001612ea59190615888565b60405160208183030381529060405290612ef5576040517f08c379a0000000000000000000000000000000000000000000000000000000008152600401612eec9190615355565b60405180910390fd5b508094505050505095945050505050565b600080600080612f16868661352c565b8167ffffffffffffffff169150809750819350829450505050600460ff168260ff1614612f4657612f456158ae565b5b80859350935050509250929050565b60606000806000612f66868661352c565b8167ffffffffffffffff169150809750819350829450505050600660ff168260ff161480612f9a5750600260ff168260ff16145b612fa757612fa66158ae565b5b600660ff168260ff1603612ff057612fbf868661352c565b8167ffffffffffffffff169150809750819350829450505050600260ff168260ff1614612fef57612fee6158ae565b5b5b60008186612ffe919061501f565b905060008267ffffffffffffffff81111561301c5761301b614156565b5b6040519080825280601f01601f19166020018201604052801561304e5781602001600182028036833780820191505090505b5090506000808890505b838110156130e15789818151811061307357613072615107565b5b602001015160f81c60f81b83838151811061309157613090615107565b5b60200101907effffffffffffffffffffffffffffffffffffffffffffffffffffffffffffff1916908160001a90535081806130cb90615136565b92505080806130d990615136565b915050613058565b508184896130ef919061501f565b9650965050505050509250929050565b60008060008061310f868661352c565b8167ffffffffffffffff169150809750819350829450505050600060ff168260ff161461313f5761313e6158ae565b5b80859350935050509250929050565b613156613dde565b600060208361316591906158dd565b146131915760208261317791906158dd565b60206131839190615377565b8261318e919061501f565b91505b8183602001818152505060405180845260008152828101602001818110156131b857600080fd5b80604052505082905092915050565b60178167ffffffffffffffff1611613202576131fc8160058460ff16901b60ff161784600001516136ba90919063ffffffff16565b5061336b565b60ff8167ffffffffffffffff161161326057613235601860058460ff16901b1784600001516136ba90919063ffffffff16565b5061325a8167ffffffffffffffff16600185600001516137249092919063ffffffff16565b5061336a565b61ffff8167ffffffffffffffff16116132bf57613294601960058460ff16901b1784600001516136ba90919063ffffffff16565b506132b98167ffffffffffffffff16600285600001516137249092919063ffffffff16565b50613369565b63ffffffff8167ffffffffffffffff1611613320576132f5601a60058460ff16901b1784600001516136ba90919063ffffffff16565b5061331a8167ffffffffffffffff16600485600001516137249092919063ffffffff16565b50613368565b613341601b60058460ff16901b1784600001516136ba90919063ffffffff16565b506133668167ffffffffffffffff16600885600001516137249092919063ffffffff16565b505b5b5b5b505050565b6000806000606060008073fe0000000000000000000000000000000000000373ffffffffffffffffffffffffffffffffffffffff168c8c8c8c8c8c6040516020016133c09695949392919061590e565b6040516020818303038152906040526040516133dc9190614ddd565b600060405180830381855af49150503d8060008114613417576040519150601f19603f3d011682016040523d82523d6000602084013e61341c565b606091505b509150915060008060008380602001905181019061343a9190615689565b92509250925084838383985098509850985050505050509650965096509692505050565b60606000600161346d846137b1565b01905060008167ffffffffffffffff81111561348c5761348b614156565b5b6040519080825280601f01601f1916602001820160405280156134be5781602001600182028036833780820191505090505b509050600082602001820190505b600115613521578080600190039150507f3031323334353637383961626364656600000000000000000000000000000000600a86061a8153600a8581613515576135146153ab565b5b049450600085036134cc575b819350505050919050565b60008060008061353c8686613904565b905060018561354b919061501f565b94506000600560e0831660ff16901c90506000601f83169050601c8160ff1610613578576135776158ae565b5b60188160ff16101561359b578181888160ff1691509550955095505050506136b3565b60188160ff16036135f05760006135b28989613904565b90506001886135c1919061501f565b975060188160ff1610156135d8576135d76158ae565b5b8281898160ff169150965096509650505050506136b3565b60198160ff1603613631576000613607898961396b565b9050600288613616919061501f565b97508281898161ffff169150965096509650505050506136b3565b601a8160ff160361367457600061364889896139d2565b9050600488613657919061501f565b97508281898163ffffffff169150965096509650505050506136b3565b601b8160ff1614613688576136876158ae565b5b60006136948989613a39565b90506008886136a3919061501f565b9750828189965096509650505050505b9250925092565b6136c2613dde565b6000836000015151905060006001826136db919061501f565b9050846020015182106136ff576136fe856002836136f99190615477565b613aa0565b5b84516020838201018581538151831115613717578282525b5050849250505092915050565b61372c613dde565b6000846000015151905060008184613744919061501f565b9050856020015181111561376957613768866002836137639190615477565b613aa0565b5b600060018561010061377b9190615ab0565b6137859190615377565b9050865182810187831982511617815281518411156137a2578382525b50508693505050509392505050565b600080600090507a184f03e93ff9f4daa797ed6e38ed64bf6a1f010000000000000000831061380f577a184f03e93ff9f4daa797ed6e38ed64bf6a1f0100000000000000008381613805576138046153ab565b5b0492506040810190505b6d04ee2d6d415b85acef8100000000831061384c576d04ee2d6d415b85acef81000000008381613842576138416153ab565b5b0492506020810190505b662386f26fc10000831061387b57662386f26fc100008381613871576138706153ab565b5b0492506010810190505b6305f5e10083106138a4576305f5e100838161389a576138996153ab565b5b0492506008810190505b61271083106138c95761271083816138bf576138be6153ab565b5b0492506004810190505b606483106138ec57606483816138e2576138e16153ab565b5b0492506002810190505b600a83106138fb576001810190505b80915050919050565b6000600182613913919061501f565b83511015613956576040517f08c379a000000000000000000000000000000000000000000000000000000000815260040161394d90615b47565b60405180910390fd5b60008260010184015190508091505092915050565b600060028261397a919061501f565b835110156139bd576040517f08c379a00000000000000000000000000000000000000000000000000000000081526004016139b490615b47565b60405180910390fd5b60008260020184015190508091505092915050565b60006004826139e1919061501f565b83511015613a24576040517f08c379a0000000000000000000000000000000000000000000000000000000008152600401613a1b90615b47565b60405180910390fd5b60008260040184015190508091505092915050565b6000600882613a48919061501f565b83511015613a8b576040517f08c379a0000000000000000000000000000000000000000000000000000000008152600401613a8290615b47565b60405180910390fd5b60008260080184015190508091505092915050565b600082600001519050613ab3838361314e565b50613abe8382613ac4565b50505050565b613acc613dde565b613ad883838451613ae0565b905092915050565b613ae8613dde565b8251821115613af657600080fd5b6000846000015151905060008382613b0e919061501f565b90508560200151811115613b3357613b3286600283613b2d9190615477565b613aa0565b5b60008087518051856020830101935080851115613b4e578482525b60208901925050505b60208610613b955780518252602082613b70919061501f565b9150602081613b7f919061501f565b9050602086613b8e9190615377565b9550613b57565b60006001876020036101000a0390508019825116818451168181178552505050879450505050509392505050565b60405180606001604052806000815260200160008152602001600081525090565b604051806101600160405280600081526020016060815260200160608152602001600073ffffffffffffffffffffffffffffffffffffffff168152602001606081526020016000815260200160008152602001600081526020016000815260200160008152602001606081525090565b828054613c6090614c72565b90600052602060002090601f016020900481019282613c825760008555613cc9565b82601f10613c9b57805160ff1916838001178555613cc9565b82800160010185558215613cc9579182015b82811115613cc8578251825591602001919060010190613cad565b5b509050613cd69190613df8565b5090565b828054613ce690614c72565b90600052602060002090601f016020900481019282613d085760008555613d4f565b82601f10613d2157805160ff1916838001178555613d4f565b82800160010185558215613d4f579182015b82811115613d4e578251825591602001919060010190613d33565b5b509050613d5c9190613df8565b5090565b604051806040016040528060608152602001600067ffffffffffffffff1681525090565b6040518060200160405280600067ffffffffffffffff1681525090565b6040518060200160405280600067ffffffffffffffff1681525090565b6040518060400160405280613dd1613dde565b8152602001600081525090565b604051806040016040528060608152602001600081525090565b5b80821115613e11576000816000905550600101613df9565b5090565b6000604051905090565b600080fd5b600080fd5b6000819050919050565b613e3c81613e29565b8114613e4757600080fd5b50565b600081359050613e5981613e33565b92915050565b600060208284031215613e7557613e74613e1f565b5b6000613e8384828501613e4a565b91505092915050565b613e9581613e29565b82525050565b600081519050919050565b600082825260208201905092915050565b60005b83811015613ed5578082015181840152602081019050613eba565b83811115613ee4576000848401525b50505050565b6000601f19601f8301169050919050565b6000613f0682613e9b565b613f108185613ea6565b9350613f20818560208601613eb7565b613f2981613eea565b840191505092915050565b600073ffffffffffffffffffffffffffffffffffffffff82169050919050565b6000613f5f82613f34565b9050919050565b613f6f81613f54565b82525050565b600081519050919050565b600082825260208201905092915050565b6000613f9c82613f75565b613fa68185613f80565b9350613fb6818560208601613eb7565b613fbf81613eea565b840191505092915050565b600061016082019050613fe0600083018e613e8c565b8181036020830152613ff2818d613efb565b90508181036040830152614006818c613efb565b9050614015606083018b613f66565b8181036080830152614027818a613f91565b905061403660a0830189613e8c565b61404360c0830188613e8c565b61405060e0830187613e8c565b61405e610100830186613e8c565b61406c610120830185613e8c565b81810361014083015261407f8184613efb565b90509c9b505050505050505050505050565b60007fffffffff0000000000000000000000000000000000000000000000000000000082169050919050565b6140c681614091565b81146140d157600080fd5b50565b6000813590506140e3816140bd565b92915050565b6000602082840312156140ff576140fe613e1f565b5b600061410d848285016140d4565b91505092915050565b60008115159050919050565b61412b81614116565b82525050565b60006020820190506141466000830184614122565b92915050565b600080fd5b600080fd5b7f4e487b7100000000000000000000000000000000000000000000000000000000600052604160045260246000fd5b61418e82613eea565b810181811067ffffffffffffffff821117156141ad576141ac614156565b5b80604052505050565b60006141c0613e15565b90506141cc8282614185565b919050565b600067ffffffffffffffff8211156141ec576141eb614156565b5b6141f582613eea565b9050602081019050919050565b82818337600083830152505050565b600061422461421f846141d1565b6141b6565b9050828152602081018484840111156142405761423f614151565b5b61424b848285614202565b509392505050565b600082601f8301126142685761426761414c565b5b8135614278848260208601614211565b91505092915050565b60006020828403121561429757614296613e1f565b5b600082013567ffffffffffffffff8111156142b5576142b4613e24565b5b6142c184828501614253565b91505092915050565b600067ffffffffffffffff82169050919050565b6142e7816142ca565b82525050565b600060208201905061430260008301846142de565b92915050565b614311816142ca565b811461431c57600080fd5b50565b60008135905061432e81614308565b92915050565b6000806040838503121561434b5761434a613e1f565b5b600083013567ffffffffffffffff81111561436957614368613e24565b5b61437585828601614253565b92505060206143868582860161431f565b9150509250929050565b60006020820190506143a56000830184613e8c565b92915050565b6000819050919050565b6143be816143ab565b81146143c957600080fd5b50565b6000813590506143db816143b5565b92915050565b6000602082840312156143f7576143f6613e1f565b5b6000614405848285016143cc565b91505092915050565b614417816143ab565b82525050565b6000602082019050614432600083018461440e565b92915050565b61444181613f54565b811461444c57600080fd5b50565b60008135905061445e81614438565b92915050565b6000806040838503121561447b5761447a613e1f565b5b6000614489858286016143cc565b925050602061449a8582860161444f565b9150509250929050565b600080604083850312156144bb576144ba613e1f565b5b60006144c98582860161444f565b92505060206144da85828601613e4a565b9150509250929050565b600067ffffffffffffffff8211156144ff576144fe614156565b5b61450882613eea565b9050602081019050919050565b6000614528614523846144e4565b6141b6565b90508281526020810184848401111561454457614543614151565b5b61454f848285614202565b509392505050565b600082601f83011261456c5761456b61414c565b5b813561457c848260208601614515565b91505092915050565b60008060008060008060c087890312156145a2576145a1613e1f565b5b600087013567ffffffffffffffff8111156145c0576145bf613e24565b5b6145cc89828a01614557565b96505060206145dd89828a01613e4a565b95505060406145ee89828a01613e4a565b94505060606145ff89828a01613e4a565b935050608087013567ffffffffffffffff8111156146205761461f613e24565b5b61462c89828a01614557565b92505060a087013567ffffffffffffffff81111561464d5761464c613e24565b5b61465989828a01614557565b9150509295509295509295565b61466f81613e29565b82525050565b60608201600082015161468b6000850182614666565b50602082015161469e6020850182614666565b5060408201516146b16040850182614666565b50505050565b60006060820190506146cc6000830184614675565b92915050565b6000806000606084860312156146eb576146ea613e1f565b5b60006146f986828701613e4a565b935050602061470a86828701613e4a565b925050604061471b86828701613e4a565b9150509250925092565b600081519050919050565b600082825260208201905092915050565b6000819050602082019050919050565b600082825260208201905092915050565b600061476d82613e9b565b6147778185614751565b9350614787818560208601613eb7565b61479081613eea565b840191505092915050565b6147a481613f54565b82525050565b600082825260208201905092915050565b60006147c682613f75565b6147d081856147aa565b93506147e0818560208601613eb7565b6147e981613eea565b840191505092915050565b60006101608301600083015161480d6000860182614666565b50602083015184820360208601526148258282614762565b9150506040830151848203604086015261483f8282614762565b9150506060830151614854606086018261479b565b506080830151848203608086015261486c82826147bb565b91505060a083015161488160a0860182614666565b5060c083015161489460c0860182614666565b5060e08301516148a760e0860182614666565b506101008301516148bc610100860182614666565b506101208301516148d1610120860182614666565b506101408301518482036101408601526148eb8282614762565b9150508091505092915050565b600061490483836147f4565b905092915050565b6000602082019050919050565b600061492482614725565b61492e8185614730565b93508360208202850161494085614741565b8060005b8581101561497c578484038952815161495d85826148f8565b94506149688361490c565b925060208a01995050600181019050614944565b50829750879550505050505092915050565b600060208201905081810360008301526149a88184614919565b905092915050565b7f4e487b7100000000000000000000000000000000000000000000000000000000600052602160045260246000fd5b600581106149f0576149ef6149b0565b5b50565b6000819050614a01826149df565b919050565b6000614a11826149f3565b9050919050565b614a2181614a06565b82525050565b600060e082019050614a3c600083018a613f66565b8181036020830152614a4e8189613f91565b9050614a5d6040830188613e8c565b614a6a6060830187613e8c565b614a776080830186613e8c565b614a8460a0830185613e8c565b614a9160c0830184614a18565b98975050505050505050565b6000602082019050614ab26000830184614a18565b92915050565b600080600060608486031215614ad157614ad0613e1f565b5b6000614adf8682870161444f565b9350506020614af086828701613e4a565b925050604084013567ffffffffffffffff811115614b1157614b10613e24565b5b614b1d86828701614557565b9150509250925092565b60008060408385031215614b3e57614b3d613e1f565b5b600083013567ffffffffffffffff811115614b5c57614b5b613e24565b5b614b6885828601614253565b9250506020614b7985828601613e4a565b9150509250929050565b600060208284031215614b9957614b98613e1f565b5b6000614ba78482850161431f565b91505092915050565b6000606082019050614bc56000830186613e8c565b614bd26020830185613e8c565b614bdf6040830184613e8c565b949350505050565b60008060408385031215614bfe57614bfd613e1f565b5b600083013567ffffffffffffffff811115614c1c57614c1b613e24565b5b614c2885828601614253565b9250506020614c398582860161444f565b9150509250929050565b7f4e487b7100000000000000000000000000000000000000000000000000000000600052602260045260246000fd5b60006002820490506001821680614c8a57607f821691505b602082108103614c9d57614c9c614c43565b5b50919050565b7f416363657373436f6e74726f6c3a2063616e206f6e6c792072656e6f756e636560008201527f20726f6c657320666f722073656c660000000000000000000000000000000000602082015250565b6000614cff602f83613ea6565b9150614d0a82614ca3565b604082019050919050565b60006020820190508181036000830152614d2e81614cf2565b9050919050565b7f43616c6c6572206973206e6f742061206d696e74657200000000000000000000600082015250565b6000614d6b601683613ea6565b9150614d7682614d35565b602082019050919050565b60006020820190508181036000830152614d9a81614d5e565b9050919050565b600081905092915050565b6000614db782613f75565b614dc18185614da1565b9350614dd1818560208601613eb7565b80840191505092915050565b6000614de98284614dac565b915081905092915050565b7f596f7520617265206e6f742061206d656d656265722c20596f752063616e6e6f60008201527f7420566f74650000000000000000000000000000000000000000000000000000602082015250565b6000614e50602683613ea6565b9150614e5b82614df4565b604082019050919050565b60006020820190508181036000830152614e7f81614e43565b9050919050565b7f50726f706f73616c2043726561746f722063616e6e6f7420766f74652068697360008201527f206f776e2070726f706f73616c00000000000000000000000000000000000000602082015250565b6000614ee2602d83613ea6565b9150614eed82614e86565b604082019050919050565b60006020820190508181036000830152614f1181614ed5565b9050919050565b7f416c726561647920566f74656400000000000000000000000000000000000000600082015250565b6000614f4e600d83613ea6565b9150614f5982614f18565b602082019050919050565b60006020820190508181036000830152614f7d81614f41565b9050919050565b7f566f74696e6720506572696f642046696e697368656400000000000000000000600082015250565b6000614fba601683613ea6565b9150614fc582614f84565b602082019050919050565b60006020820190508181036000830152614fe981614fad565b9050919050565b7f4e487b7100000000000000000000000000000000000000000000000000000000600052601160045260246000fd5b600061502a82613e29565b915061503583613e29565b9250827fffffffffffffffffffffffffffffffffffffffffffffffffffffffffffffffff0382111561506a57615069614ff0565b5b828201905092915050565b7f596f7520617265206e6f742061206d656d656265722c596f752063616e6e6f7460008201527f20566f7465000000000000000000000000000000000000000000000000000000602082015250565b60006150d1602583613ea6565b91506150dc82615075565b604082019050919050565b60006020820190508181036000830152615100816150c4565b9050919050565b7f4e487b7100000000000000000000000000000000000000000000000000000000600052603260045260246000fd5b600061514182613e29565b91507fffffffffffffffffffffffffffffffffffffffffffffffffffffffffffffffff820361517357615172614ff0565b5b600182019050919050565b7f43616c6c6572206973206e6f742061206d656d62657200000000000000000000600082015250565b60006151b4601683613ea6565b91506151bf8261517e565b602082019050919050565b600060208201905081810360008301526151e3816151a7565b9050919050565b60006020820190506151ff6000830184613f66565b92915050565b60008151905061521481613e33565b92915050565b6000602082840312156152305761522f613e1f565b5b600061523e84828501615205565b91505092915050565b600081905092915050565b7f416363657373436f6e74726f6c3a206163636f756e7420000000000000000000600082015250565b6000615288601783615247565b915061529382615252565b601782019050919050565b60006152a982613e9b565b6152b38185615247565b93506152c3818560208601613eb7565b80840191505092915050565b7f206973206d697373696e6720726f6c6520000000000000000000000000000000600082015250565b6000615305601183615247565b9150615310826152cf565b601182019050919050565b60006153268261527b565b9150615332828561529e565b915061533d826152f8565b9150615349828461529e565b91508190509392505050565b6000602082019050818103600083015261536f8184613efb565b905092915050565b600061538282613e29565b915061538d83613e29565b9250828210156153a05761539f614ff0565b5b828203905092915050565b7f4e487b7100000000000000000000000000000000000000000000000000000000600052601260045260246000fd5b60006153e582613e29565b91506153f083613e29565b925082615400576153ff6153ab565b5b828204905092915050565b7f566f74696e6720506572696f64206973204f6e00000000000000000000000000600082015250565b6000615441601383613ea6565b915061544c8261540b565b602082019050919050565b6000602082019050818103600083015261547081615434565b9050919050565b600061548282613e29565b915061548d83613e29565b9250817fffffffffffffffffffffffffffffffffffffffffffffffffffffffffffffffff04831182151516156154c6576154c5614ff0565b5b828202905092915050565b60006154dc82613e29565b9150600082036154ef576154ee614ff0565b5b600182039050919050565b7f537472696e67733a20686578206c656e67746820696e73756666696369656e74600082015250565b6000615530602083613ea6565b915061553b826154fa565b602082019050919050565b6000602082019050818103600083015261555f81615523565b9050919050565b600060c08201905061557b60008301896142de565b6155886020830188613e8c565b61559560408301876142de565b6155a260608301866142de565b81810360808301526155b48185613f91565b90506155c360a08301846142de565b979650505050505050565b6000819050919050565b6155e1816155ce565b81146155ec57600080fd5b50565b6000815190506155fe816155d8565b92915050565b60008151905061561381614308565b92915050565b600061562c615627846141d1565b6141b6565b90508281526020810184848401111561564857615647614151565b5b615653848285613eb7565b509392505050565b600082601f8301126156705761566f61414c565b5b8151615680848260208601615619565b91505092915050565b6000806000606084860312156156a2576156a1613e1f565b5b60006156b0868287016155ef565b93505060206156c186828701615604565b925050604084015167ffffffffffffffff8111156156e2576156e1613e24565b5b6156ee8682870161565b565b9150509250925092565b7f646174612073697a65206d757374206d61746368206578706563746564000000600082015250565b600061572e601d83613ea6565b9150615739826156f8565b602082019050919050565b6000602082019050818103600083015261575d81615721565b9050919050565b7f6465616c206661696c656420706f6c69637920636865636b3a2068617320707260008201527f6f766964657220616c726561647920636c61696d65642074686973206369643f602082015250565b60006157c0604083613ea6565b91506157cb82615764565b604082019050919050565b600060208201905081810360008301526157ef816157b3565b9050919050565b7f496e76616c69642043424f520000000000000000000000000000000000000000600082015250565b600061582c600c83613ea6565b9150615837826157f6565b602082019050919050565b6000602082019050818103600083015261585b8161581f565b9050919050565b7f6163746f72206572726f7220636f646520000000000000000000000000000000815250565b600061589382615862565b6011820191506158a3828461529e565b915081905092915050565b7f4e487b7100000000000000000000000000000000000000000000000000000000600052600160045260246000fd5b60006158e882613e29565b91506158f383613e29565b925082615903576159026153ab565b5b828206905092915050565b600060c08201905061592360008301896142de565b6159306020830188613e8c565b61593d60408301876142de565b61594a60608301866142de565b818103608083015261595c8185613f91565b905081810360a08301526159708184613f91565b9050979650505050505050565b60008160011c9050919050565b6000808291508390505b60018511156159d4578086048111156159b0576159af614ff0565b5b60018516156159bf5780820291505b80810290506159cd8561597d565b9450615994565b94509492505050565b6000826159ed5760019050615aa9565b816159fb5760009050615aa9565b8160018114615a115760028114615a1b57615a4a565b6001915050615aa9565b60ff841115615a2d57615a2c614ff0565b5b8360020a915084821115615a4457615a43614ff0565b5b50615aa9565b5060208310610133831016604e8410600b8410161715615a7f5782820a905083811115615a7a57615a79614ff0565b5b615aa9565b615a8c848484600161598a565b92509050818404811115615aa357615aa2614ff0565b5b81810290505b9392505050565b6000615abb82613e29565b9150615ac683613e29565b9250615af37fffffffffffffffffffffffffffffffffffffffffffffffffffffffffffffffff84846159dd565b905092915050565b7f736c6963696e67206f7574206f662072616e6765000000000000000000000000600082015250565b6000615b31601483613ea6565b9150615b3c82615afb565b602082019050919050565b60006020820190508181036000830152615b6081615b24565b905091905056fea2646970667358221220579f283f750233a66621766f0f5b117cfa00431adaed0367b12550a50491f82f64736f6c634300080d0033",
			"opcodes": "PUSH1 0x80 PUSH1 0x40 MSTORE CALLVALUE DUP1 ISZERO PUSH3 0x11 JUMPI PUSH1 0x0 DUP1 REVERT JUMPDEST POP PUSH1 0x40 MLOAD PUSH3 0x5F16 CODESIZE SUB DUP1 PUSH3 0x5F16 DUP4 CODECOPY DUP2 DUP2 ADD PUSH1 0x40 MSTORE DUP2 ADD SWAP1 PUSH3 0x37 SWAP2 SWAP1 PUSH3 0x2CD JUMP JUMPDEST DUP6 PUSH3 0x6A PUSH32 0xA49807205CE4D355092EF5A8A18F56E8913CF4A201FBE287825B095693C21775 DUP3 PUSH3 0xDC PUSH1 0x20 SHL PUSH1 0x20 SHR JUMP JUMPDEST POP DUP5 PUSH1 0xD PUSH1 0x0 PUSH2 0x100 EXP DUP2 SLOAD DUP2 PUSH20 0xFFFFFFFFFFFFFFFFFFFFFFFFFFFFFFFFFFFFFFFF MUL NOT AND SWAP1 DUP4 PUSH20 0xFFFFFFFFFFFFFFFFFFFFFFFFFFFFFFFFFFFFFFFF AND MUL OR SWAP1 SSTORE POP DUP4 PUSH1 0x1 PUSH1 0x0 ADD DUP2 SWAP1 SSTORE POP DUP3 PUSH1 0x1 DUP1 ADD DUP2 SWAP1 SSTORE POP DUP2 PUSH1 0x1 PUSH1 0x2 ADD DUP2 SWAP1 SSTORE POP DUP1 PUSH1 0xA DUP2 SWAP1 SSTORE POP POP POP POP POP POP POP PUSH3 0x369 JUMP JUMPDEST PUSH3 0xEE DUP3 DUP3 PUSH3 0xF2 PUSH1 0x20 SHL PUSH1 0x20 SHR JUMP JUMPDEST POP POP JUMP JUMPDEST PUSH3 0x104 DUP3 DUP3 PUSH3 0x179 PUSH1 0x20 SHL PUSH1 0x20 SHR JUMP JUMPDEST PUSH3 0x175 JUMPI PUSH1 0x1 PUSH1 0x0 DUP1 DUP5 DUP2 MSTORE PUSH1 0x20 ADD SWAP1 DUP2 MSTORE PUSH1 0x20 ADD PUSH1 0x0 KECCAK256 PUSH1 0x0 ADD PUSH1 0x0 DUP4 PUSH20 0xFFFFFFFFFFFFFFFFFFFFFFFFFFFFFFFFFFFFFFFF AND PUSH20 0xFFFFFFFFFFFFFFFFFFFFFFFFFFFFFFFFFFFFFFFF AND DUP2 MSTORE PUSH1 0x20 ADD SWAP1 DUP2 MSTORE PUSH1 0x20 ADD PUSH1 0x0 KECCAK256 PUSH1 0x0 PUSH2 0x100 EXP DUP2 SLOAD DUP2 PUSH1 0xFF MUL NOT AND SWAP1 DUP4 ISZERO ISZERO MUL OR SWAP1 SSTORE POP JUMPDEST POP POP JUMP JUMPDEST PUSH1 0x0 DUP1 PUSH1 0x0 DUP5 DUP2 MSTORE PUSH1 0x20 ADD SWAP1 DUP2 MSTORE PUSH1 0x20 ADD PUSH1 0x0 KECCAK256 PUSH1 0x0 ADD PUSH1 0x0 DUP4 PUSH20 0xFFFFFFFFFFFFFFFFFFFFFFFFFFFFFFFFFFFFFFFF AND PUSH20 0xFFFFFFFFFFFFFFFFFFFFFFFFFFFFFFFFFFFFFFFF AND DUP2 MSTORE PUSH1 0x20 ADD SWAP1 DUP2 MSTORE PUSH1 0x20 ADD PUSH1 0x0 KECCAK256 PUSH1 0x0 SWAP1 SLOAD SWAP1 PUSH2 0x100 EXP SWAP1 DIV PUSH1 0xFF AND SWAP1 POP SWAP3 SWAP2 POP POP JUMP JUMPDEST PUSH1 0x0 DUP1 REVERT JUMPDEST PUSH1 0x0 PUSH20 0xFFFFFFFFFFFFFFFFFFFFFFFFFFFFFFFFFFFFFFFF DUP3 AND SWAP1 POP SWAP2 SWAP1 POP JUMP JUMPDEST PUSH1 0x0 PUSH3 0x215 DUP3 PUSH3 0x1E8 JUMP JUMPDEST SWAP1 POP SWAP2 SWAP1 POP JUMP JUMPDEST PUSH3 0x227 DUP2 PUSH3 0x208 JUMP JUMPDEST DUP2 EQ PUSH3 0x233 JUMPI PUSH1 0x0 DUP1 REVERT JUMPDEST POP JUMP JUMPDEST PUSH1 0x0 DUP2 MLOAD SWAP1 POP PUSH3 0x247 DUP2 PUSH3 0x21C JUMP JUMPDEST SWAP3 SWAP2 POP POP JUMP JUMPDEST PUSH1 0x0 PUSH3 0x25A DUP3 PUSH3 0x208 JUMP JUMPDEST SWAP1 POP SWAP2 SWAP1 POP JUMP JUMPDEST PUSH3 0x26C DUP2 PUSH3 0x24D JUMP JUMPDEST DUP2 EQ PUSH3 0x278 JUMPI PUSH1 0x0 DUP1 REVERT JUMPDEST POP JUMP JUMPDEST PUSH1 0x0 DUP2 MLOAD SWAP1 POP PUSH3 0x28C DUP2 PUSH3 0x261 JUMP JUMPDEST SWAP3 SWAP2 POP POP JUMP JUMPDEST PUSH1 0x0 DUP2 SWAP1 POP SWAP2 SWAP1 POP JUMP JUMPDEST PUSH3 0x2A7 DUP2 PUSH3 0x292 JUMP JUMPDEST DUP2 EQ PUSH3 0x2B3 JUMPI PUSH1 0x0 DUP1 REVERT JUMPDEST POP JUMP JUMPDEST PUSH1 0x0 DUP2 MLOAD SWAP1 POP PUSH3 0x2C7 DUP2 PUSH3 0x29C JUMP JUMPDEST SWAP3 SWAP2 POP POP JUMP JUMPDEST PUSH1 0x0 DUP1 PUSH1 0x0 DUP1 PUSH1 0x0 DUP1 PUSH1 0xC0 DUP8 DUP10 SUB SLT ISZERO PUSH3 0x2ED JUMPI PUSH3 0x2EC PUSH3 0x1E3 JUMP JUMPDEST JUMPDEST PUSH1 0x0 PUSH3 0x2FD DUP10 DUP3 DUP11 ADD PUSH3 0x236 JUMP JUMPDEST SWAP7 POP POP PUSH1 0x20 PUSH3 0x310 DUP10 DUP3 DUP11 ADD PUSH3 0x27B JUMP JUMPDEST SWAP6 POP POP PUSH1 0x40 PUSH3 0x323 DUP10 DUP3 DUP11 ADD PUSH3 0x2B6 JUMP JUMPDEST SWAP5 POP POP PUSH1 0x60 PUSH3 0x336 DUP10 DUP3 DUP11 ADD PUSH3 0x2B6 JUMP JUMPDEST SWAP4 POP POP PUSH1 0x80 PUSH3 0x349 DUP10 DUP3 DUP11 ADD PUSH3 0x2B6 JUMP JUMPDEST SWAP3 POP POP PUSH1 0xA0 PUSH3 0x35C DUP10 DUP3 DUP11 ADD PUSH3 0x2B6 JUMP JUMPDEST SWAP2 POP POP SWAP3 SWAP6 POP SWAP3 SWAP6 POP SWAP3 SWAP6 JUMP JUMPDEST PUSH2 0x5B9D DUP1 PUSH3 0x379 PUSH1 0x0 CODECOPY PUSH1 0x0 RETURN INVALID PUSH1 0x80 PUSH1 0x40 MSTORE PUSH1 0x4 CALLDATASIZE LT PUSH2 0x1E3 JUMPI PUSH1 0x0 CALLDATALOAD PUSH1 0xE0 SHR DUP1 PUSH4 0x8F8A6D8F GT PUSH2 0x102 JUMPI DUP1 PUSH4 0xC236A6D1 GT PUSH2 0x95 JUMPI DUP1 PUSH4 0xDA35C664 GT PUSH2 0x64 JUMPI DUP1 PUSH4 0xDA35C664 EQ PUSH2 0x775 JUMPI DUP1 PUSH4 0xE5FCD6B8 EQ PUSH2 0x7A0 JUMPI DUP1 PUSH4 0xF406517D EQ PUSH2 0x7C9 JUMPI DUP1 PUSH4 0xF4912450 EQ PUSH2 0x7F6 JUMPI PUSH2 0x1E3 JUMP JUMPDEST DUP1 PUSH4 0xC236A6D1 EQ PUSH2 0x6CF JUMPI DUP1 PUSH4 0xCEF6BCEA EQ PUSH2 0x6F8 JUMPI DUP1 PUSH4 0xD02982CF EQ PUSH2 0x721 JUMPI DUP1 PUSH4 0xD547741F EQ PUSH2 0x74C JUMPI PUSH2 0x1E3 JUMP JUMPDEST DUP1 PUSH4 0xAFF5BFD8 GT PUSH2 0xD1 JUMPI DUP1 PUSH4 0xAFF5BFD8 EQ PUSH2 0x5E7 JUMPI DUP1 PUSH4 0xB22E8569 EQ PUSH2 0x612 JUMPI DUP1 PUSH4 0xB4E9134C EQ PUSH2 0x655 JUMPI DUP1 PUSH4 0xBFBD58FC EQ PUSH2 0x692 JUMPI PUSH2 0x1E3 JUMP JUMPDEST DUP1 PUSH4 0x8F8A6D8F EQ PUSH2 0x519 JUMPI DUP1 PUSH4 0x91D14854 EQ PUSH2 0x556 JUMPI DUP1 PUSH4 0x95F4BAE7 EQ PUSH2 0x593 JUMPI DUP1 PUSH4 0xA217FDDF EQ PUSH2 0x5BC JUMPI PUSH2 0x1E3 JUMP JUMPDEST DUP1 PUSH4 0x36568ABE GT PUSH2 0x17A JUMPI DUP1 PUSH4 0x6763CCBD GT PUSH2 0x149 JUMPI DUP1 PUSH4 0x6763CCBD EQ PUSH2 0x473 JUMPI DUP1 PUSH4 0x7BB58B8C EQ PUSH2 0x49C JUMPI DUP1 PUSH4 0x7FF9B596 EQ PUSH2 0x4C5 JUMPI DUP1 PUSH4 0x8F79D511 EQ PUSH2 0x4F0 JUMPI PUSH2 0x1E3 JUMP JUMPDEST DUP1 PUSH4 0x36568ABE EQ PUSH2 0x3C6 JUMPI DUP1 PUSH4 0x3D7650B2 EQ PUSH2 0x3EF JUMPI DUP1 PUSH4 0x4675C93A EQ PUSH2 0x42C JUMPI DUP1 PUSH4 0x5DD3983A EQ PUSH2 0x448 JUMPI PUSH2 0x1E3 JUMP JUMPDEST DUP1 PUSH4 0x1E7F7E09 GT PUSH2 0x1B6 JUMPI DUP1 PUSH4 0x1E7F7E09 EQ PUSH2 0x2E6 JUMPI DUP1 PUSH4 0x248A9CA3 EQ PUSH2 0x323 JUMPI DUP1 PUSH4 0x2F2FF15D EQ PUSH2 0x360 JUMPI DUP1 PUSH4 0x32E08142 EQ PUSH2 0x389 JUMPI PUSH2 0x1E3 JUMP JUMPDEST DUP1 PUSH4 0x13CF08B EQ PUSH2 0x1E8 JUMPI DUP1 PUSH4 0x1FFC9A7 EQ PUSH2 0x22F JUMPI DUP1 PUSH4 0x166D4C6F EQ PUSH2 0x26C JUMPI DUP1 PUSH4 0x1A7FD6C6 EQ PUSH2 0x2A9 JUMPI JUMPDEST PUSH1 0x0 DUP1 REVERT JUMPDEST CALLVALUE DUP1 ISZERO PUSH2 0x1F4 JUMPI PUSH1 0x0 DUP1 REVERT JUMPDEST POP PUSH2 0x20F PUSH1 0x4 DUP1 CALLDATASIZE SUB DUP2 ADD SWAP1 PUSH2 0x20A SWAP2 SWAP1 PUSH2 0x3E5F JUMP JUMPDEST PUSH2 0x833 JUMP JUMPDEST PUSH1 0x40 MLOAD PUSH2 0x226 SWAP12 SWAP11 SWAP10 SWAP9 SWAP8 SWAP7 SWAP6 SWAP5 SWAP4 SWAP3 SWAP2 SWAP1 PUSH2 0x3FCA JUMP JUMPDEST PUSH1 0x40 MLOAD DUP1 SWAP2 SUB SWAP1 RETURN JUMPDEST CALLVALUE DUP1 ISZERO PUSH2 0x23B JUMPI PUSH1 0x0 DUP1 REVERT JUMPDEST POP PUSH2 0x256 PUSH1 0x4 DUP1 CALLDATASIZE SUB DUP2 ADD SWAP1 PUSH2 0x251 SWAP2 SWAP1 PUSH2 0x40E9 JUMP JUMPDEST PUSH2 0xACD JUMP JUMPDEST PUSH1 0x40 MLOAD PUSH2 0x263 SWAP2 SWAP1 PUSH2 0x4131 JUMP JUMPDEST PUSH1 0x40 MLOAD DUP1 SWAP2 SUB SWAP1 RETURN JUMPDEST CALLVALUE DUP1 ISZERO PUSH2 0x278 JUMPI PUSH1 0x0 DUP1 REVERT JUMPDEST POP PUSH2 0x293 PUSH1 0x4 DUP1 CALLDATASIZE SUB DUP2 ADD SWAP1 PUSH2 0x28E SWAP2 SWAP1 PUSH2 0x4281 JUMP JUMPDEST PUSH2 0xB47 JUMP JUMPDEST PUSH1 0x40 MLOAD PUSH2 0x2A0 SWAP2 SWAP1 PUSH2 0x42ED JUMP JUMPDEST PUSH1 0x40 MLOAD DUP1 SWAP2 SUB SWAP1 RETURN JUMPDEST CALLVALUE DUP1 ISZERO PUSH2 0x2B5 JUMPI PUSH1 0x0 DUP1 REVERT JUMPDEST POP PUSH2 0x2D0 PUSH1 0x4 DUP1 CALLDATASIZE SUB DUP2 ADD SWAP1 PUSH2 0x2CB SWAP2 SWAP1 PUSH2 0x4334 JUMP JUMPDEST PUSH2 0xB84 JUMP JUMPDEST PUSH1 0x40 MLOAD PUSH2 0x2DD SWAP2 SWAP1 PUSH2 0x4131 JUMP JUMPDEST PUSH1 0x40 MLOAD DUP1 SWAP2 SUB SWAP1 RETURN JUMPDEST CALLVALUE DUP1 ISZERO PUSH2 0x2F2 JUMPI PUSH1 0x0 DUP1 REVERT JUMPDEST POP PUSH2 0x30D PUSH1 0x4 DUP1 CALLDATASIZE SUB DUP2 ADD SWAP1 PUSH2 0x308 SWAP2 SWAP1 PUSH2 0x4281 JUMP JUMPDEST PUSH2 0xBC9 JUMP JUMPDEST PUSH1 0x40 MLOAD PUSH2 0x31A SWAP2 SWAP1 PUSH2 0x4390 JUMP JUMPDEST PUSH1 0x40 MLOAD DUP1 SWAP2 SUB SWAP1 RETURN JUMPDEST CALLVALUE DUP1 ISZERO PUSH2 0x32F JUMPI PUSH1 0x0 DUP1 REVERT JUMPDEST POP PUSH2 0x34A PUSH1 0x4 DUP1 CALLDATASIZE SUB DUP2 ADD SWAP1 PUSH2 0x345 SWAP2 SWAP1 PUSH2 0x43E1 JUMP JUMPDEST PUSH2 0xBF7 JUMP JUMPDEST PUSH1 0x40 MLOAD PUSH2 0x357 SWAP2 SWAP1 PUSH2 0x441D JUMP JUMPDEST PUSH1 0x40 MLOAD DUP1 SWAP2 SUB SWAP1 RETURN JUMPDEST CALLVALUE DUP1 ISZERO PUSH2 0x36C JUMPI PUSH1 0x0 DUP1 REVERT JUMPDEST POP PUSH2 0x387 PUSH1 0x4 DUP1 CALLDATASIZE SUB DUP2 ADD SWAP1 PUSH2 0x382 SWAP2 SWAP1 PUSH2 0x4464 JUMP JUMPDEST PUSH2 0xC16 JUMP JUMPDEST STOP JUMPDEST CALLVALUE DUP1 ISZERO PUSH2 0x395 JUMPI PUSH1 0x0 DUP1 REVERT JUMPDEST POP PUSH2 0x3B0 PUSH1 0x4 DUP1 CALLDATASIZE SUB DUP2 ADD SWAP1 PUSH2 0x3AB SWAP2 SWAP1 PUSH2 0x44A4 JUMP JUMPDEST PUSH2 0xC3F JUMP JUMPDEST PUSH1 0x40 MLOAD PUSH2 0x3BD SWAP2 SWAP1 PUSH2 0x4131 JUMP JUMPDEST PUSH1 0x40 MLOAD DUP1 SWAP2 SUB SWAP1 RETURN JUMPDEST CALLVALUE DUP1 ISZERO PUSH2 0x3D2 JUMPI PUSH1 0x0 DUP1 REVERT JUMPDEST POP PUSH2 0x3ED PUSH1 0x4 DUP1 CALLDATASIZE SUB DUP2 ADD SWAP1 PUSH2 0x3E8 SWAP2 SWAP1 PUSH2 0x4464 JUMP JUMPDEST PUSH2 0xC6E JUMP JUMPDEST STOP JUMPDEST CALLVALUE DUP1 ISZERO PUSH2 0x3FB JUMPI PUSH1 0x0 DUP1 REVERT JUMPDEST POP PUSH2 0x416 PUSH1 0x4 DUP1 CALLDATASIZE SUB DUP2 ADD SWAP1 PUSH2 0x411 SWAP2 SWAP1 PUSH2 0x4281 JUMP JUMPDEST PUSH2 0xCF1 JUMP JUMPDEST PUSH1 0x40 MLOAD PUSH2 0x423 SWAP2 SWAP1 PUSH2 0x4131 JUMP JUMPDEST PUSH1 0x40 MLOAD DUP1 SWAP2 SUB SWAP1 RETURN JUMPDEST PUSH2 0x446 PUSH1 0x4 DUP1 CALLDATASIZE SUB DUP2 ADD SWAP1 PUSH2 0x441 SWAP2 SWAP1 PUSH2 0x4585 JUMP JUMPDEST PUSH2 0xD27 JUMP JUMPDEST STOP JUMPDEST CALLVALUE DUP1 ISZERO PUSH2 0x454 JUMPI PUSH1 0x0 DUP1 REVERT JUMPDEST POP PUSH2 0x45D PUSH2 0xDC8 JUMP JUMPDEST PUSH1 0x40 MLOAD PUSH2 0x46A SWAP2 SWAP1 PUSH2 0x46B7 JUMP JUMPDEST PUSH1 0x40 MLOAD DUP1 SWAP2 SUB SWAP1 RETURN JUMPDEST CALLVALUE DUP1 ISZERO PUSH2 0x47F JUMPI PUSH1 0x0 DUP1 REVERT JUMPDEST POP PUSH2 0x49A PUSH1 0x4 DUP1 CALLDATASIZE SUB DUP2 ADD SWAP1 PUSH2 0x495 SWAP2 SWAP1 PUSH2 0x4281 JUMP JUMPDEST PUSH2 0xE00 JUMP JUMPDEST STOP JUMPDEST CALLVALUE DUP1 ISZERO PUSH2 0x4A8 JUMPI PUSH1 0x0 DUP1 REVERT JUMPDEST POP PUSH2 0x4C3 PUSH1 0x4 DUP1 CALLDATASIZE SUB DUP2 ADD SWAP1 PUSH2 0x4BE SWAP2 SWAP1 PUSH2 0x3E5F JUMP JUMPDEST PUSH2 0xE95 JUMP JUMPDEST STOP JUMPDEST CALLVALUE DUP1 ISZERO PUSH2 0x4D1 JUMPI PUSH1 0x0 DUP1 REVERT JUMPDEST POP PUSH2 0x4DA PUSH2 0x10E6 JUMP JUMPDEST PUSH1 0x40 MLOAD PUSH2 0x4E7 SWAP2 SWAP1 PUSH2 0x4390 JUMP JUMPDEST PUSH1 0x40 MLOAD DUP1 SWAP2 SUB SWAP1 RETURN JUMPDEST CALLVALUE DUP1 ISZERO PUSH2 0x4FC JUMPI PUSH1 0x0 DUP1 REVERT JUMPDEST POP PUSH2 0x517 PUSH1 0x4 DUP1 CALLDATASIZE SUB DUP2 ADD SWAP1 PUSH2 0x512 SWAP2 SWAP1 PUSH2 0x3E5F JUMP JUMPDEST PUSH2 0x10EC JUMP JUMPDEST STOP JUMPDEST CALLVALUE DUP1 ISZERO PUSH2 0x525 JUMPI PUSH1 0x0 DUP1 REVERT JUMPDEST POP PUSH2 0x540 PUSH1 0x4 DUP1 CALLDATASIZE SUB DUP2 ADD SWAP1 PUSH2 0x53B SWAP2 SWAP1 PUSH2 0x4281 JUMP JUMPDEST PUSH2 0x133D JUMP JUMPDEST PUSH1 0x40 MLOAD PUSH2 0x54D SWAP2 SWAP1 PUSH2 0x4390 JUMP JUMPDEST PUSH1 0x40 MLOAD DUP1 SWAP2 SUB SWAP1 RETURN JUMPDEST CALLVALUE DUP1 ISZERO PUSH2 0x562 JUMPI PUSH1 0x0 DUP1 REVERT JUMPDEST POP PUSH2 0x57D PUSH1 0x4 DUP1 CALLDATASIZE SUB DUP2 ADD SWAP1 PUSH2 0x578 SWAP2 SWAP1 PUSH2 0x4464 JUMP JUMPDEST PUSH2 0x136B JUMP JUMPDEST PUSH1 0x40 MLOAD PUSH2 0x58A SWAP2 SWAP1 PUSH2 0x4131 JUMP JUMPDEST PUSH1 0x40 MLOAD DUP1 SWAP2 SUB SWAP1 RETURN JUMPDEST CALLVALUE DUP1 ISZERO PUSH2 0x59F JUMPI PUSH1 0x0 DUP1 REVERT JUMPDEST POP PUSH2 0x5BA PUSH1 0x4 DUP1 CALLDATASIZE SUB DUP2 ADD SWAP1 PUSH2 0x5B5 SWAP2 SWAP1 PUSH2 0x46D2 JUMP JUMPDEST PUSH2 0x13D5 JUMP JUMPDEST STOP JUMPDEST CALLVALUE DUP1 ISZERO PUSH2 0x5C8 JUMPI PUSH1 0x0 DUP1 REVERT JUMPDEST POP PUSH2 0x5D1 PUSH2 0x1418 JUMP JUMPDEST PUSH1 0x40 MLOAD PUSH2 0x5DE SWAP2 SWAP1 PUSH2 0x441D JUMP JUMPDEST PUSH1 0x40 MLOAD DUP1 SWAP2 SUB SWAP1 RETURN JUMPDEST CALLVALUE DUP1 ISZERO PUSH2 0x5F3 JUMPI PUSH1 0x0 DUP1 REVERT JUMPDEST POP PUSH2 0x5FC PUSH2 0x141F JUMP JUMPDEST PUSH1 0x40 MLOAD PUSH2 0x609 SWAP2 SWAP1 PUSH2 0x498E JUMP JUMPDEST PUSH1 0x40 MLOAD DUP1 SWAP2 SUB SWAP1 RETURN JUMPDEST CALLVALUE DUP1 ISZERO PUSH2 0x61E JUMPI PUSH1 0x0 DUP1 REVERT JUMPDEST POP PUSH2 0x639 PUSH1 0x4 DUP1 CALLDATASIZE SUB DUP2 ADD SWAP1 PUSH2 0x634 SWAP2 SWAP1 PUSH2 0x4281 JUMP JUMPDEST PUSH2 0x17BA JUMP JUMPDEST PUSH1 0x40 MLOAD PUSH2 0x64C SWAP8 SWAP7 SWAP6 SWAP5 SWAP4 SWAP3 SWAP2 SWAP1 PUSH2 0x4A27 JUMP JUMPDEST PUSH1 0x40 MLOAD DUP1 SWAP2 SUB SWAP1 RETURN JUMPDEST CALLVALUE DUP1 ISZERO PUSH2 0x661 JUMPI PUSH1 0x0 DUP1 REVERT JUMPDEST POP PUSH2 0x67C PUSH1 0x4 DUP1 CALLDATASIZE SUB DUP2 ADD SWAP1 PUSH2 0x677 SWAP2 SWAP1 PUSH2 0x3E5F JUMP JUMPDEST PUSH2 0x18C7 JUMP JUMPDEST PUSH1 0x40 MLOAD PUSH2 0x689 SWAP2 SWAP1 PUSH2 0x4131 JUMP JUMPDEST PUSH1 0x40 MLOAD DUP1 SWAP2 SUB SWAP1 RETURN JUMPDEST CALLVALUE DUP1 ISZERO PUSH2 0x69E JUMPI PUSH1 0x0 DUP1 REVERT JUMPDEST POP PUSH2 0x6B9 PUSH1 0x4 DUP1 CALLDATASIZE SUB DUP2 ADD SWAP1 PUSH2 0x6B4 SWAP2 SWAP1 PUSH2 0x4281 JUMP JUMPDEST PUSH2 0x1935 JUMP JUMPDEST PUSH1 0x40 MLOAD PUSH2 0x6C6 SWAP2 SWAP1 PUSH2 0x4A9D JUMP JUMPDEST PUSH1 0x40 MLOAD DUP1 SWAP2 SUB SWAP1 RETURN JUMPDEST CALLVALUE DUP1 ISZERO PUSH2 0x6DB JUMPI PUSH1 0x0 DUP1 REVERT JUMPDEST POP PUSH2 0x6F6 PUSH1 0x4 DUP1 CALLDATASIZE SUB DUP2 ADD SWAP1 PUSH2 0x6F1 SWAP2 SWAP1 PUSH2 0x4AB8 JUMP JUMPDEST PUSH2 0x1A47 JUMP JUMPDEST STOP JUMPDEST CALLVALUE DUP1 ISZERO PUSH2 0x704 JUMPI PUSH1 0x0 DUP1 REVERT JUMPDEST POP PUSH2 0x71F PUSH1 0x4 DUP1 CALLDATASIZE SUB DUP2 ADD SWAP1 PUSH2 0x71A SWAP2 SWAP1 PUSH2 0x4B27 JUMP JUMPDEST PUSH2 0x1AAF JUMP JUMPDEST STOP JUMPDEST CALLVALUE DUP1 ISZERO PUSH2 0x72D JUMPI PUSH1 0x0 DUP1 REVERT JUMPDEST POP PUSH2 0x736 PUSH2 0x1B26 JUMP JUMPDEST PUSH1 0x40 MLOAD PUSH2 0x743 SWAP2 SWAP1 PUSH2 0x4131 JUMP JUMPDEST PUSH1 0x40 MLOAD DUP1 SWAP2 SUB SWAP1 RETURN JUMPDEST CALLVALUE DUP1 ISZERO PUSH2 0x758 JUMPI PUSH1 0x0 DUP1 REVERT JUMPDEST POP PUSH2 0x773 PUSH1 0x4 DUP1 CALLDATASIZE SUB DUP2 ADD SWAP1 PUSH2 0x76E SWAP2 SWAP1 PUSH2 0x4464 JUMP JUMPDEST PUSH2 0x1BCB JUMP JUMPDEST STOP JUMPDEST CALLVALUE DUP1 ISZERO PUSH2 0x781 JUMPI PUSH1 0x0 DUP1 REVERT JUMPDEST POP PUSH2 0x78A PUSH2 0x1BF4 JUMP JUMPDEST PUSH1 0x40 MLOAD PUSH2 0x797 SWAP2 SWAP1 PUSH2 0x4390 JUMP JUMPDEST PUSH1 0x40 MLOAD DUP1 SWAP2 SUB SWAP1 RETURN JUMPDEST CALLVALUE DUP1 ISZERO PUSH2 0x7AC JUMPI PUSH1 0x0 DUP1 REVERT JUMPDEST POP PUSH2 0x7C7 PUSH1 0x4 DUP1 CALLDATASIZE SUB DUP2 ADD SWAP1 PUSH2 0x7C2 SWAP2 SWAP1 PUSH2 0x4B83 JUMP JUMPDEST PUSH2 0x1BFA JUMP JUMPDEST STOP JUMPDEST CALLVALUE DUP1 ISZERO PUSH2 0x7D5 JUMPI PUSH1 0x0 DUP1 REVERT JUMPDEST POP PUSH2 0x7DE PUSH2 0x1C7A JUMP JUMPDEST PUSH1 0x40 MLOAD PUSH2 0x7ED SWAP4 SWAP3 SWAP2 SWAP1 PUSH2 0x4BB0 JUMP JUMPDEST PUSH1 0x40 MLOAD DUP1 SWAP2 SUB SWAP1 RETURN JUMPDEST CALLVALUE DUP1 ISZERO PUSH2 0x802 JUMPI PUSH1 0x0 DUP1 REVERT JUMPDEST POP PUSH2 0x81D PUSH1 0x4 DUP1 CALLDATASIZE SUB DUP2 ADD SWAP1 PUSH2 0x818 SWAP2 SWAP1 PUSH2 0x4BE7 JUMP JUMPDEST PUSH2 0x1C92 JUMP JUMPDEST PUSH1 0x40 MLOAD PUSH2 0x82A SWAP2 SWAP1 PUSH2 0x4390 JUMP JUMPDEST PUSH1 0x40 MLOAD DUP1 SWAP2 SUB SWAP1 RETURN JUMPDEST PUSH1 0x4 PUSH1 0x20 MSTORE DUP1 PUSH1 0x0 MSTORE PUSH1 0x40 PUSH1 0x0 KECCAK256 PUSH1 0x0 SWAP2 POP SWAP1 POP DUP1 PUSH1 0x0 ADD SLOAD SWAP1 DUP1 PUSH1 0x1 ADD DUP1 SLOAD PUSH2 0x85C SWAP1 PUSH2 0x4C72 JUMP JUMPDEST DUP1 PUSH1 0x1F ADD PUSH1 0x20 DUP1 SWAP2 DIV MUL PUSH1 0x20 ADD PUSH1 0x40 MLOAD SWAP1 DUP2 ADD PUSH1 0x40 MSTORE DUP1 SWAP3 SWAP2 SWAP1 DUP2 DUP2 MSTORE PUSH1 0x20 ADD DUP3 DUP1 SLOAD PUSH2 0x888 SWAP1 PUSH2 0x4C72 JUMP JUMPDEST DUP1 ISZERO PUSH2 0x8D5 JUMPI DUP1 PUSH1 0x1F LT PUSH2 0x8AA JUMPI PUSH2 0x100 DUP1 DUP4 SLOAD DIV MUL DUP4 MSTORE SWAP2 PUSH1 0x20 ADD SWAP2 PUSH2 0x8D5 JUMP JUMPDEST DUP3 ADD SWAP2 SWAP1 PUSH1 0x0 MSTORE PUSH1 0x20 PUSH1 0x0 KECCAK256 SWAP1 JUMPDEST DUP2 SLOAD DUP2 MSTORE SWAP1 PUSH1 0x1 ADD SWAP1 PUSH1 0x20 ADD DUP1 DUP4 GT PUSH2 0x8B8 JUMPI DUP3 SWAP1 SUB PUSH1 0x1F AND DUP3 ADD SWAP2 JUMPDEST POP POP POP POP POP SWAP1 DUP1 PUSH1 0x2 ADD DUP1 SLOAD PUSH2 0x8EA SWAP1 PUSH2 0x4C72 JUMP JUMPDEST DUP1 PUSH1 0x1F ADD PUSH1 0x20 DUP1 SWAP2 DIV MUL PUSH1 0x20 ADD PUSH1 0x40 MLOAD SWAP1 DUP2 ADD PUSH1 0x40 MSTORE DUP1 SWAP3 SWAP2 SWAP1 DUP2 DUP2 MSTORE PUSH1 0x20 ADD DUP3 DUP1 SLOAD PUSH2 0x916 SWAP1 PUSH2 0x4C72 JUMP JUMPDEST DUP1 ISZERO PUSH2 0x963 JUMPI DUP1 PUSH1 0x1F LT PUSH2 0x938 JUMPI PUSH2 0x100 DUP1 DUP4 SLOAD DIV MUL DUP4 MSTORE SWAP2 PUSH1 0x20 ADD SWAP2 PUSH2 0x963 JUMP JUMPDEST DUP3 ADD SWAP2 SWAP1 PUSH1 0x0 MSTORE PUSH1 0x20 PUSH1 0x0 KECCAK256 SWAP1 JUMPDEST DUP2 SLOAD DUP2 MSTORE SWAP1 PUSH1 0x1 ADD SWAP1 PUSH1 0x20 ADD DUP1 DUP4 GT PUSH2 0x946 JUMPI DUP3 SWAP1 SUB PUSH1 0x1F AND DUP3 ADD SWAP2 JUMPDEST POP POP POP POP POP SWAP1 DUP1 PUSH1 0x3 ADD PUSH1 0x0 SWAP1 SLOAD SWAP1 PUSH2 0x100 EXP SWAP1 DIV PUSH20 0xFFFFFFFFFFFFFFFFFFFFFFFFFFFFFFFFFFFFFFFF AND SWAP1 DUP1 PUSH1 0x4 ADD DUP1 SLOAD PUSH2 0x99E SWAP1 PUSH2 0x4C72 JUMP JUMPDEST DUP1 PUSH1 0x1F ADD PUSH1 0x20 DUP1 SWAP2 DIV MUL PUSH1 0x20 ADD PUSH1 0x40 MLOAD SWAP1 DUP2 ADD PUSH1 0x40 MSTORE DUP1 SWAP3 SWAP2 SWAP1 DUP2 DUP2 MSTORE PUSH1 0x20 ADD DUP3 DUP1 SLOAD PUSH2 0x9CA SWAP1 PUSH2 0x4C72 JUMP JUMPDEST DUP1 ISZERO PUSH2 0xA17 JUMPI DUP1 PUSH1 0x1F LT PUSH2 0x9EC JUMPI PUSH2 0x100 DUP1 DUP4 SLOAD DIV MUL DUP4 MSTORE SWAP2 PUSH1 0x20 ADD SWAP2 PUSH2 0xA17 JUMP JUMPDEST DUP3 ADD SWAP2 SWAP1 PUSH1 0x0 MSTORE PUSH1 0x20 PUSH1 0x0 KECCAK256 SWAP1 JUMPDEST DUP2 SLOAD DUP2 MSTORE SWAP1 PUSH1 0x1 ADD SWAP1 PUSH1 0x20 ADD DUP1 DUP4 GT PUSH2 0x9FA JUMPI DUP3 SWAP1 SUB PUSH1 0x1F AND DUP3 ADD SWAP2 JUMPDEST POP POP POP POP POP SWAP1 DUP1 PUSH1 0x5 ADD SLOAD SWAP1 DUP1 PUSH1 0x6 ADD SLOAD SWAP1 DUP1 PUSH1 0x7 ADD SLOAD SWAP1 DUP1 PUSH1 0x8 ADD SLOAD SWAP1 DUP1 PUSH1 0x9 ADD SLOAD SWAP1 DUP1 PUSH1 0xA ADD DUP1 SLOAD PUSH2 0xA4A SWAP1 PUSH2 0x4C72 JUMP JUMPDEST DUP1 PUSH1 0x1F ADD PUSH1 0x20 DUP1 SWAP2 DIV MUL PUSH1 0x20 ADD PUSH1 0x40 MLOAD SWAP1 DUP2 ADD PUSH1 0x40 MSTORE DUP1 SWAP3 SWAP2 SWAP1 DUP2 DUP2 MSTORE PUSH1 0x20 ADD DUP3 DUP1 SLOAD PUSH2 0xA76 SWAP1 PUSH2 0x4C72 JUMP JUMPDEST DUP1 ISZERO PUSH2 0xAC3 JUMPI DUP1 PUSH1 0x1F LT PUSH2 0xA98 JUMPI PUSH2 0x100 DUP1 DUP4 SLOAD DIV MUL DUP4 MSTORE SWAP2 PUSH1 0x20 ADD SWAP2 PUSH2 0xAC3 JUMP JUMPDEST DUP3 ADD SWAP2 SWAP1 PUSH1 0x0 MSTORE PUSH1 0x20 PUSH1 0x0 KECCAK256 SWAP1 JUMPDEST DUP2 SLOAD DUP2 MSTORE SWAP1 PUSH1 0x1 ADD SWAP1 PUSH1 0x20 ADD DUP1 DUP4 GT PUSH2 0xAA6 JUMPI DUP3 SWAP1 SUB PUSH1 0x1F AND DUP3 ADD SWAP2 JUMPDEST POP POP POP POP POP SWAP1 POP DUP12 JUMP JUMPDEST PUSH1 0x0 PUSH32 0x7965DB0B00000000000000000000000000000000000000000000000000000000 PUSH28 0xFFFFFFFFFFFFFFFFFFFFFFFFFFFFFFFFFFFFFFFFFFFFFFFFFFFFFFFF NOT AND DUP3 PUSH28 0xFFFFFFFFFFFFFFFFFFFFFFFFFFFFFFFFFFFFFFFFFFFFFFFFFFFFFFFF NOT AND EQ DUP1 PUSH2 0xB40 JUMPI POP PUSH2 0xB3F DUP3 PUSH2 0x1CCD JUMP JUMPDEST JUMPDEST SWAP1 POP SWAP2 SWAP1 POP JUMP JUMPDEST PUSH1 0x10 DUP2 DUP1 MLOAD PUSH1 0x20 DUP2 ADD DUP3 ADD DUP1 MLOAD DUP5 DUP3 MSTORE PUSH1 0x20 DUP4 ADD PUSH1 0x20 DUP6 ADD KECCAK256 DUP2 DUP4 MSTORE DUP1 SWAP6 POP POP POP POP POP POP PUSH1 0x0 SWAP2 POP SLOAD SWAP1 PUSH2 0x100 EXP SWAP1 DIV PUSH8 0xFFFFFFFFFFFFFFFF AND DUP2 JUMP JUMPDEST PUSH1 0x9 DUP3 DUP1 MLOAD PUSH1 0x20 DUP2 ADD DUP3 ADD DUP1 MLOAD DUP5 DUP3 MSTORE PUSH1 0x20 DUP4 ADD PUSH1 0x20 DUP6 ADD KECCAK256 DUP2 DUP4 MSTORE DUP1 SWAP6 POP POP POP POP POP POP PUSH1 0x20 MSTORE DUP1 PUSH1 0x0 MSTORE PUSH1 0x40 PUSH1 0x0 KECCAK256 PUSH1 0x0 SWAP2 POP SWAP2 POP SWAP1 SLOAD SWAP1 PUSH2 0x100 EXP SWAP1 DIV PUSH1 0xFF AND DUP2 JUMP JUMPDEST PUSH1 0xF DUP2 DUP1 MLOAD PUSH1 0x20 DUP2 ADD DUP3 ADD DUP1 MLOAD DUP5 DUP3 MSTORE PUSH1 0x20 DUP4 ADD PUSH1 0x20 DUP6 ADD KECCAK256 DUP2 DUP4 MSTORE DUP1 SWAP6 POP POP POP POP POP POP PUSH1 0x0 SWAP2 POP SWAP1 POP SLOAD DUP2 JUMP JUMPDEST PUSH1 0x0 DUP1 PUSH1 0x0 DUP4 DUP2 MSTORE PUSH1 0x20 ADD SWAP1 DUP2 MSTORE PUSH1 0x20 ADD PUSH1 0x0 KECCAK256 PUSH1 0x1 ADD SLOAD SWAP1 POP SWAP2 SWAP1 POP JUMP JUMPDEST PUSH2 0xC1F DUP3 PUSH2 0xBF7 JUMP JUMPDEST PUSH2 0xC30 DUP2 PUSH2 0xC2B PUSH2 0x1D37 JUMP JUMPDEST PUSH2 0x1D3F JUMP JUMPDEST PUSH2 0xC3A DUP4 DUP4 PUSH2 0x1DDC JUMP JUMPDEST POP POP POP JUMP JUMPDEST PUSH1 0x5 PUSH1 0x20 MSTORE DUP2 PUSH1 0x0 MSTORE PUSH1 0x40 PUSH1 0x0 KECCAK256 PUSH1 0x20 MSTORE DUP1 PUSH1 0x0 MSTORE PUSH1 0x40 PUSH1 0x0 KECCAK256 PUSH1 0x0 SWAP2 POP SWAP2 POP SWAP1 SLOAD SWAP1 PUSH2 0x100 EXP SWAP1 DIV PUSH1 0xFF AND DUP2 JUMP JUMPDEST PUSH2 0xC76 PUSH2 0x1D37 JUMP JUMPDEST PUSH20 0xFFFFFFFFFFFFFFFFFFFFFFFFFFFFFFFFFFFFFFFF AND DUP2 PUSH20 0xFFFFFFFFFFFFFFFFFFFFFFFFFFFFFFFFFFFFFFFF AND EQ PUSH2 0xCE3 JUMPI PUSH1 0x40 MLOAD PUSH32 0x8C379A000000000000000000000000000000000000000000000000000000000 DUP2 MSTORE PUSH1 0x4 ADD PUSH2 0xCDA SWAP1 PUSH2 0x4D15 JUMP JUMPDEST PUSH1 0x40 MLOAD DUP1 SWAP2 SUB SWAP1 REVERT JUMPDEST PUSH2 0xCED DUP3 DUP3 PUSH2 0x1E5A JUMP JUMPDEST POP POP JUMP JUMPDEST PUSH1 0x7 DUP2 DUP1 MLOAD PUSH1 0x20 DUP2 ADD DUP3 ADD DUP1 MLOAD DUP5 DUP3 MSTORE PUSH1 0x20 DUP4 ADD PUSH1 0x20 DUP6 ADD KECCAK256 DUP2 DUP4 MSTORE DUP1 SWAP6 POP POP POP POP POP POP PUSH1 0x0 SWAP2 POP SLOAD SWAP1 PUSH2 0x100 EXP SWAP1 DIV PUSH1 0xFF AND DUP2 JUMP JUMPDEST PUSH2 0xD51 PUSH32 0x829B824E2329E205435D941C9F13BAF578548505283D29261236D8E6596D4636 CALLER PUSH2 0x136B JUMP JUMPDEST PUSH2 0xD90 JUMPI PUSH1 0x40 MLOAD PUSH32 0x8C379A000000000000000000000000000000000000000000000000000000000 DUP2 MSTORE PUSH1 0x4 ADD PUSH2 0xD87 SWAP1 PUSH2 0x4D81 JUMP JUMPDEST PUSH1 0x40 MLOAD DUP1 SWAP2 SUB SWAP1 REVERT JUMPDEST PUSH2 0xD9D DUP7 DUP7 DUP7 DUP6 DUP6 PUSH2 0x1F3B JUMP JUMPDEST DUP3 PUSH1 0xF DUP8 PUSH1 0x40 MLOAD PUSH2 0xDAE SWAP2 SWAP1 PUSH2 0x4DDD JUMP JUMPDEST SWAP1 DUP2 MSTORE PUSH1 0x20 ADD PUSH1 0x40 MLOAD DUP1 SWAP2 SUB SWAP1 KECCAK256 DUP2 SWAP1 SSTORE POP POP POP POP POP POP POP JUMP JUMPDEST PUSH2 0xDD0 PUSH2 0x3BC3 JUMP JUMPDEST PUSH1 0x1 PUSH1 0x40 MLOAD DUP1 PUSH1 0x60 ADD PUSH1 0x40 MSTORE SWAP1 DUP2 PUSH1 0x0 DUP3 ADD SLOAD DUP2 MSTORE PUSH1 0x20 ADD PUSH1 0x1 DUP3 ADD SLOAD DUP2 MSTORE PUSH1 0x20 ADD PUSH1 0x2 DUP3 ADD SLOAD DUP2 MSTORE POP POP SWAP1 POP SWAP1 JUMP JUMPDEST PUSH1 0x4 DUP1 DUP2 GT ISZERO PUSH2 0xE13 JUMPI PUSH2 0xE12 PUSH2 0x49B0 JUMP JUMPDEST JUMPDEST PUSH2 0xE1C DUP3 PUSH2 0x1935 JUMP JUMPDEST PUSH1 0x4 DUP2 GT ISZERO PUSH2 0xE2E JUMPI PUSH2 0xE2D PUSH2 0x49B0 JUMP JUMPDEST JUMPDEST EQ PUSH2 0xE38 JUMPI PUSH1 0x0 DUP1 REVERT JUMPDEST PUSH2 0xE92 PUSH1 0x10 DUP3 PUSH1 0x40 MLOAD PUSH2 0xE4B SWAP2 SWAP1 PUSH2 0x4DDD JUMP JUMPDEST SWAP1 DUP2 MSTORE PUSH1 0x20 ADD PUSH1 0x40 MLOAD DUP1 SWAP2 SUB SWAP1 KECCAK256 PUSH1 0x0 SWAP1 SLOAD SWAP1 PUSH2 0x100 EXP SWAP1 DIV PUSH8 0xFFFFFFFFFFFFFFFF AND PUSH1 0xF DUP4 PUSH1 0x40 MLOAD PUSH2 0xE7E SWAP2 SWAP1 PUSH2 0x4DDD JUMP JUMPDEST SWAP1 DUP2 MSTORE PUSH1 0x20 ADD PUSH1 0x40 MLOAD DUP1 SWAP2 SUB SWAP1 KECCAK256 SLOAD PUSH2 0x225B JUMP JUMPDEST POP JUMP JUMPDEST PUSH2 0xEBF PUSH32 0x829B824E2329E205435D941C9F13BAF578548505283D29261236D8E6596D4636 CALLER PUSH2 0x136B JUMP JUMPDEST PUSH2 0xEFE JUMPI PUSH1 0x40 MLOAD PUSH32 0x8C379A000000000000000000000000000000000000000000000000000000000 DUP2 MSTORE PUSH1 0x4 ADD PUSH2 0xEF5 SWAP1 PUSH2 0x4E66 JUMP JUMPDEST PUSH1 0x40 MLOAD DUP1 SWAP2 SUB SWAP1 REVERT JUMPDEST PUSH2 0xF07 DUP2 PUSH2 0x18C7 JUMP JUMPDEST ISZERO PUSH2 0xF47 JUMPI PUSH1 0x40 MLOAD PUSH32 0x8C379A000000000000000000000000000000000000000000000000000000000 DUP2 MSTORE PUSH1 0x4 ADD PUSH2 0xF3E SWAP1 PUSH2 0x4EF8 JUMP JUMPDEST PUSH1 0x40 MLOAD DUP1 SWAP2 SUB SWAP1 REVERT JUMPDEST PUSH1 0x5 PUSH1 0x0 CALLER PUSH20 0xFFFFFFFFFFFFFFFFFFFFFFFFFFFFFFFFFFFFFFFF AND PUSH20 0xFFFFFFFFFFFFFFFFFFFFFFFFFFFFFFFFFFFFFFFF AND DUP2 MSTORE PUSH1 0x20 ADD SWAP1 DUP2 MSTORE PUSH1 0x20 ADD PUSH1 0x0 KECCAK256 PUSH1 0x0 DUP3 DUP2 MSTORE PUSH1 0x20 ADD SWAP1 DUP2 MSTORE PUSH1 0x20 ADD PUSH1 0x0 KECCAK256 PUSH1 0x0 SWAP1 SLOAD SWAP1 PUSH2 0x100 EXP SWAP1 DIV PUSH1 0xFF AND ISZERO PUSH2 0xFE5 JUMPI PUSH1 0x40 MLOAD PUSH32 0x8C379A000000000000000000000000000000000000000000000000000000000 DUP2 MSTORE PUSH1 0x4 ADD PUSH2 0xFDC SWAP1 PUSH2 0x4F64 JUMP JUMPDEST PUSH1 0x40 MLOAD DUP1 SWAP2 SUB SWAP1 REVERT JUMPDEST TIMESTAMP PUSH1 0x4 PUSH1 0x0 DUP4 DUP2 MSTORE PUSH1 0x20 ADD SWAP1 DUP2 MSTORE PUSH1 0x20 ADD PUSH1 0x0 KECCAK256 PUSH1 0x9 ADD SLOAD GT PUSH2 0x103D JUMPI PUSH1 0x40 MLOAD PUSH32 0x8C379A000000000000000000000000000000000000000000000000000000000 DUP2 MSTORE PUSH1 0x4 ADD PUSH2 0x1034 SWAP1 PUSH2 0x4FD0 JUMP JUMPDEST PUSH1 0x40 MLOAD DUP1 SWAP2 SUB SWAP1 REVERT JUMPDEST PUSH1 0x1 PUSH1 0x4 PUSH1 0x0 DUP4 DUP2 MSTORE PUSH1 0x20 ADD SWAP1 DUP2 MSTORE PUSH1 0x20 ADD PUSH1 0x0 KECCAK256 PUSH1 0x6 ADD SLOAD PUSH2 0x1060 SWAP2 SWAP1 PUSH2 0x501F JUMP JUMPDEST PUSH1 0x4 PUSH1 0x0 DUP4 DUP2 MSTORE PUSH1 0x20 ADD SWAP1 DUP2 MSTORE PUSH1 0x20 ADD PUSH1 0x0 KECCAK256 PUSH1 0x6 ADD DUP2 SWAP1 SSTORE POP PUSH1 0x1 PUSH1 0x5 PUSH1 0x0 CALLER PUSH20 0xFFFFFFFFFFFFFFFFFFFFFFFFFFFFFFFFFFFFFFFF AND PUSH20 0xFFFFFFFFFFFFFFFFFFFFFFFFFFFFFFFFFFFFFFFF AND DUP2 MSTORE PUSH1 0x20 ADD SWAP1 DUP2 MSTORE PUSH1 0x20 ADD PUSH1 0x0 KECCAK256 PUSH1 0x0 DUP4 DUP2 MSTORE PUSH1 0x20 ADD SWAP1 DUP2 MSTORE PUSH1 0x20 ADD PUSH1 0x0 KECCAK256 PUSH1 0x0 PUSH2 0x100 EXP DUP2 SLOAD DUP2 PUSH1 0xFF MUL NOT AND SWAP1 DUP4 ISZERO ISZERO MUL OR SWAP1 SSTORE POP POP JUMP JUMPDEST PUSH1 0xA SLOAD DUP2 JUMP JUMPDEST PUSH2 0x1116 PUSH32 0x829B824E2329E205435D941C9F13BAF578548505283D29261236D8E6596D4636 CALLER PUSH2 0x136B JUMP JUMPDEST PUSH2 0x1155 JUMPI PUSH1 0x40 MLOAD PUSH32 0x8C379A000000000000000000000000000000000000000000000000000000000 DUP2 MSTORE PUSH1 0x4 ADD PUSH2 0x114C SWAP1 PUSH2 0x50E7 JUMP JUMPDEST PUSH1 0x40 MLOAD DUP1 SWAP2 SUB SWAP1 REVERT JUMPDEST PUSH2 0x115E DUP2 PUSH2 0x18C7 JUMP JUMPDEST ISZERO PUSH2 0x119E JUMPI PUSH1 0x40 MLOAD PUSH32 0x8C379A000000000000000000000000000000000000000000000000000000000 DUP2 MSTORE PUSH1 0x4 ADD PUSH2 0x1195 SWAP1 PUSH2 0x4EF8 JUMP JUMPDEST PUSH1 0x40 MLOAD DUP1 SWAP2 SUB SWAP1 REVERT JUMPDEST PUSH1 0x5 PUSH1 0x0 CALLER PUSH20 0xFFFFFFFFFFFFFFFFFFFFFFFFFFFFFFFFFFFFFFFF AND PUSH20 0xFFFFFFFFFFFFFFFFFFFFFFFFFFFFFFFFFFFFFFFF AND DUP2 MSTORE PUSH1 0x20 ADD SWAP1 DUP2 MSTORE PUSH1 0x20 ADD PUSH1 0x0 KECCAK256 PUSH1 0x0 DUP3 DUP2 MSTORE PUSH1 0x20 ADD SWAP1 DUP2 MSTORE PUSH1 0x20 ADD PUSH1 0x0 KECCAK256 PUSH1 0x0 SWAP1 SLOAD SWAP1 PUSH2 0x100 EXP SWAP1 DIV PUSH1 0xFF AND ISZERO PUSH2 0x123C JUMPI PUSH1 0x40 MLOAD PUSH32 0x8C379A000000000000000000000000000000000000000000000000000000000 DUP2 MSTORE PUSH1 0x4 ADD PUSH2 0x1233 SWAP1 PUSH2 0x4F64 JUMP JUMPDEST PUSH1 0x40 MLOAD DUP1 SWAP2 SUB SWAP1 REVERT JUMPDEST TIMESTAMP PUSH1 0x4 PUSH1 0x0 DUP4 DUP2 MSTORE PUSH1 0x20 ADD SWAP1 DUP2 MSTORE PUSH1 0x20 ADD PUSH1 0x0 KECCAK256 PUSH1 0x9 ADD SLOAD GT PUSH2 0x1294 JUMPI PUSH1 0x40 MLOAD PUSH32 0x8C379A000000000000000000000000000000000000000000000000000000000 DUP2 MSTORE PUSH1 0x4 ADD PUSH2 0x128B SWAP1 PUSH2 0x4FD0 JUMP JUMPDEST PUSH1 0x40 MLOAD DUP1 SWAP2 SUB SWAP1 REVERT JUMPDEST PUSH1 0x1 PUSH1 0x4 PUSH1 0x0 DUP4 DUP2 MSTORE PUSH1 0x20 ADD SWAP1 DUP2 MSTORE PUSH1 0x20 ADD PUSH1 0x0 KECCAK256 PUSH1 0x7 ADD SLOAD PUSH2 0x12B7 SWAP2 SWAP1 PUSH2 0x501F JUMP JUMPDEST PUSH1 0x4 PUSH1 0x0 DUP4 DUP2 MSTORE PUSH1 0x20 ADD SWAP1 DUP2 MSTORE PUSH1 0x20 ADD PUSH1 0x0 KECCAK256 PUSH1 0x7 ADD DUP2 SWAP1 SSTORE POP PUSH1 0x1 PUSH1 0x5 PUSH1 0x0 CALLER PUSH20 0xFFFFFFFFFFFFFFFFFFFFFFFFFFFFFFFFFFFFFFFF AND PUSH20 0xFFFFFFFFFFFFFFFFFFFFFFFFFFFFFFFFFFFFFFFF AND DUP2 MSTORE PUSH1 0x20 ADD SWAP1 DUP2 MSTORE PUSH1 0x20 ADD PUSH1 0x0 KECCAK256 PUSH1 0x0 DUP4 DUP2 MSTORE PUSH1 0x20 ADD SWAP1 DUP2 MSTORE PUSH1 0x20 ADD PUSH1 0x0 KECCAK256 PUSH1 0x0 PUSH2 0x100 EXP DUP2 SLOAD DUP2 PUSH1 0xFF MUL NOT AND SWAP1 DUP4 ISZERO ISZERO MUL OR SWAP1 SSTORE POP POP JUMP JUMPDEST PUSH1 0x8 DUP2 DUP1 MLOAD PUSH1 0x20 DUP2 ADD DUP3 ADD DUP1 MLOAD DUP5 DUP3 MSTORE PUSH1 0x20 DUP4 ADD PUSH1 0x20 DUP6 ADD KECCAK256 DUP2 DUP4 MSTORE DUP1 SWAP6 POP POP POP POP POP POP PUSH1 0x0 SWAP2 POP SWAP1 POP SLOAD DUP2 JUMP JUMPDEST PUSH1 0x0 DUP1 PUSH1 0x0 DUP5 DUP2 MSTORE PUSH1 0x20 ADD SWAP1 DUP2 MSTORE PUSH1 0x20 ADD PUSH1 0x0 KECCAK256 PUSH1 0x0 ADD PUSH1 0x0 DUP4 PUSH20 0xFFFFFFFFFFFFFFFFFFFFFFFFFFFFFFFFFFFFFFFF AND PUSH20 0xFFFFFFFFFFFFFFFFFFFFFFFFFFFFFFFFFFFFFFFF AND DUP2 MSTORE PUSH1 0x20 ADD SWAP1 DUP2 MSTORE PUSH1 0x20 ADD PUSH1 0x0 KECCAK256 PUSH1 0x0 SWAP1 SLOAD SWAP1 PUSH2 0x100 EXP SWAP1 DIV PUSH1 0xFF AND SWAP1 POP SWAP3 SWAP2 POP POP JUMP JUMPDEST PUSH1 0x40 MLOAD DUP1 PUSH1 0x60 ADD PUSH1 0x40 MSTORE DUP1 DUP5 DUP2 MSTORE PUSH1 0x20 ADD DUP4 DUP2 MSTORE PUSH1 0x20 ADD DUP3 DUP2 MSTORE POP PUSH1 0x1 PUSH1 0x0 DUP3 ADD MLOAD DUP2 PUSH1 0x0 ADD SSTORE PUSH1 0x20 DUP3 ADD MLOAD DUP2 PUSH1 0x1 ADD SSTORE PUSH1 0x40 DUP3 ADD MLOAD DUP2 PUSH1 0x2 ADD SSTORE SWAP1 POP POP POP POP POP JUMP JUMPDEST PUSH1 0x0 DUP1 SHL DUP2 JUMP JUMPDEST PUSH1 0x60 PUSH1 0x0 PUSH1 0x6 SLOAD PUSH8 0xFFFFFFFFFFFFFFFF DUP2 GT ISZERO PUSH2 0x143F JUMPI PUSH2 0x143E PUSH2 0x4156 JUMP JUMPDEST JUMPDEST PUSH1 0x40 MLOAD SWAP1 DUP1 DUP3 MSTORE DUP1 PUSH1 0x20 MUL PUSH1 0x20 ADD DUP3 ADD PUSH1 0x40 MSTORE DUP1 ISZERO PUSH2 0x1478 JUMPI DUP2 PUSH1 0x20 ADD JUMPDEST PUSH2 0x1465 PUSH2 0x3BE4 JUMP JUMPDEST DUP2 MSTORE PUSH1 0x20 ADD SWAP1 PUSH1 0x1 SWAP1 SUB SWAP1 DUP2 PUSH2 0x145D JUMPI SWAP1 POP JUMPDEST POP SWAP1 POP PUSH1 0x0 JUMPDEST PUSH1 0x6 SLOAD DUP2 LT ISZERO PUSH2 0x17B2 JUMPI PUSH1 0x4 PUSH1 0x0 DUP3 DUP2 MSTORE PUSH1 0x20 ADD SWAP1 DUP2 MSTORE PUSH1 0x20 ADD PUSH1 0x0 KECCAK256 PUSH1 0x40 MLOAD DUP1 PUSH2 0x160 ADD PUSH1 0x40 MSTORE SWAP1 DUP2 PUSH1 0x0 DUP3 ADD SLOAD DUP2 MSTORE PUSH1 0x20 ADD PUSH1 0x1 DUP3 ADD DUP1 SLOAD PUSH2 0x14C1 SWAP1 PUSH2 0x4C72 JUMP JUMPDEST DUP1 PUSH1 0x1F ADD PUSH1 0x20 DUP1 SWAP2 DIV MUL PUSH1 0x20 ADD PUSH1 0x40 MLOAD SWAP1 DUP2 ADD PUSH1 0x40 MSTORE DUP1 SWAP3 SWAP2 SWAP1 DUP2 DUP2 MSTORE PUSH1 0x20 ADD DUP3 DUP1 SLOAD PUSH2 0x14ED SWAP1 PUSH2 0x4C72 JUMP JUMPDEST DUP1 ISZERO PUSH2 0x153A JUMPI DUP1 PUSH1 0x1F LT PUSH2 0x150F JUMPI PUSH2 0x100 DUP1 DUP4 SLOAD DIV MUL DUP4 MSTORE SWAP2 PUSH1 0x20 ADD SWAP2 PUSH2 0x153A JUMP JUMPDEST DUP3 ADD SWAP2 SWAP1 PUSH1 0x0 MSTORE PUSH1 0x20 PUSH1 0x0 KECCAK256 SWAP1 JUMPDEST DUP2 SLOAD DUP2 MSTORE SWAP1 PUSH1 0x1 ADD SWAP1 PUSH1 0x20 ADD DUP1 DUP4 GT PUSH2 0x151D JUMPI DUP3 SWAP1 SUB PUSH1 0x1F AND DUP3 ADD SWAP2 JUMPDEST POP POP POP POP POP DUP2 MSTORE PUSH1 0x20 ADD PUSH1 0x2 DUP3 ADD DUP1 SLOAD PUSH2 0x1553 SWAP1 PUSH2 0x4C72 JUMP JUMPDEST DUP1 PUSH1 0x1F ADD PUSH1 0x20 DUP1 SWAP2 DIV MUL PUSH1 0x20 ADD PUSH1 0x40 MLOAD SWAP1 DUP2 ADD PUSH1 0x40 MSTORE DUP1 SWAP3 SWAP2 SWAP1 DUP2 DUP2 MSTORE PUSH1 0x20 ADD DUP3 DUP1 SLOAD PUSH2 0x157F SWAP1 PUSH2 0x4C72 JUMP JUMPDEST DUP1 ISZERO PUSH2 0x15CC JUMPI DUP1 PUSH1 0x1F LT PUSH2 0x15A1 JUMPI PUSH2 0x100 DUP1 DUP4 SLOAD DIV MUL DUP4 MSTORE SWAP2 PUSH1 0x20 ADD SWAP2 PUSH2 0x15CC JUMP JUMPDEST DUP3 ADD SWAP2 SWAP1 PUSH1 0x0 MSTORE PUSH1 0x20 PUSH1 0x0 KECCAK256 SWAP1 JUMPDEST DUP2 SLOAD DUP2 MSTORE SWAP1 PUSH1 0x1 ADD SWAP1 PUSH1 0x20 ADD DUP1 DUP4 GT PUSH2 0x15AF JUMPI DUP3 SWAP1 SUB PUSH1 0x1F AND DUP3 ADD SWAP2 JUMPDEST POP POP POP POP POP DUP2 MSTORE PUSH1 0x20 ADD PUSH1 0x3 DUP3 ADD PUSH1 0x0 SWAP1 SLOAD SWAP1 PUSH2 0x100 EXP SWAP1 DIV PUSH20 0xFFFFFFFFFFFFFFFFFFFFFFFFFFFFFFFFFFFFFFFF AND PUSH20 0xFFFFFFFFFFFFFFFFFFFFFFFFFFFFFFFFFFFFFFFF AND PUSH20 0xFFFFFFFFFFFFFFFFFFFFFFFFFFFFFFFFFFFFFFFF AND DUP2 MSTORE PUSH1 0x20 ADD PUSH1 0x4 DUP3 ADD DUP1 SLOAD PUSH2 0x163B SWAP1 PUSH2 0x4C72 JUMP JUMPDEST DUP1 PUSH1 0x1F ADD PUSH1 0x20 DUP1 SWAP2 DIV MUL PUSH1 0x20 ADD PUSH1 0x40 MLOAD SWAP1 DUP2 ADD PUSH1 0x40 MSTORE DUP1 SWAP3 SWAP2 SWAP1 DUP2 DUP2 MSTORE PUSH1 0x20 ADD DUP3 DUP1 SLOAD PUSH2 0x1667 SWAP1 PUSH2 0x4C72 JUMP JUMPDEST DUP1 ISZERO PUSH2 0x16B4 JUMPI DUP1 PUSH1 0x1F LT PUSH2 0x1689 JUMPI PUSH2 0x100 DUP1 DUP4 SLOAD DIV MUL DUP4 MSTORE SWAP2 PUSH1 0x20 ADD SWAP2 PUSH2 0x16B4 JUMP JUMPDEST DUP3 ADD SWAP2 SWAP1 PUSH1 0x0 MSTORE PUSH1 0x20 PUSH1 0x0 KECCAK256 SWAP1 JUMPDEST DUP2 SLOAD DUP2 MSTORE SWAP1 PUSH1 0x1 ADD SWAP1 PUSH1 0x20 ADD DUP1 DUP4 GT PUSH2 0x1697 JUMPI DUP3 SWAP1 SUB PUSH1 0x1F AND DUP3 ADD SWAP2 JUMPDEST POP POP POP POP POP DUP2 MSTORE PUSH1 0x20 ADD PUSH1 0x5 DUP3 ADD SLOAD DUP2 MSTORE PUSH1 0x20 ADD PUSH1 0x6 DUP3 ADD SLOAD DUP2 MSTORE PUSH1 0x20 ADD PUSH1 0x7 DUP3 ADD SLOAD DUP2 MSTORE PUSH1 0x20 ADD PUSH1 0x8 DUP3 ADD SLOAD DUP2 MSTORE PUSH1 0x20 ADD PUSH1 0x9 DUP3 ADD SLOAD DUP2 MSTORE PUSH1 0x20 ADD PUSH1 0xA DUP3 ADD DUP1 SLOAD PUSH2 0x16FF SWAP1 PUSH2 0x4C72 JUMP JUMPDEST DUP1 PUSH1 0x1F ADD PUSH1 0x20 DUP1 SWAP2 DIV MUL PUSH1 0x20 ADD PUSH1 0x40 MLOAD SWAP1 DUP2 ADD PUSH1 0x40 MSTORE DUP1 SWAP3 SWAP2 SWAP1 DUP2 DUP2 MSTORE PUSH1 0x20 ADD DUP3 DUP1 SLOAD PUSH2 0x172B SWAP1 PUSH2 0x4C72 JUMP JUMPDEST DUP1 ISZERO PUSH2 0x1778 JUMPI DUP1 PUSH1 0x1F LT PUSH2 0x174D JUMPI PUSH2 0x100 DUP1 DUP4 SLOAD DIV MUL DUP4 MSTORE SWAP2 PUSH1 0x20 ADD SWAP2 PUSH2 0x1778 JUMP JUMPDEST DUP3 ADD SWAP2 SWAP1 PUSH1 0x0 MSTORE PUSH1 0x20 PUSH1 0x0 KECCAK256 SWAP1 JUMPDEST DUP2 SLOAD DUP2 MSTORE SWAP1 PUSH1 0x1 ADD SWAP1 PUSH1 0x20 ADD DUP1 DUP4 GT PUSH2 0x175B JUMPI DUP3 SWAP1 SUB PUSH1 0x1F AND DUP3 ADD SWAP2 JUMPDEST POP POP POP POP POP DUP2 MSTORE POP POP DUP3 DUP3 DUP2 MLOAD DUP2 LT PUSH2 0x1794 JUMPI PUSH2 0x1793 PUSH2 0x5107 JUMP JUMPDEST JUMPDEST PUSH1 0x20 MUL PUSH1 0x20 ADD ADD DUP2 SWAP1 MSTORE POP DUP1 DUP1 PUSH2 0x17AA SWAP1 PUSH2 0x5136 JUMP JUMPDEST SWAP2 POP POP PUSH2 0x147E JUMP JUMPDEST POP DUP1 SWAP2 POP POP SWAP1 JUMP JUMPDEST PUSH1 0xC DUP2 DUP1 MLOAD PUSH1 0x20 DUP2 ADD DUP3 ADD DUP1 MLOAD DUP5 DUP3 MSTORE PUSH1 0x20 DUP4 ADD PUSH1 0x20 DUP6 ADD KECCAK256 DUP2 DUP4 MSTORE DUP1 SWAP6 POP POP POP POP POP POP PUSH1 0x0 SWAP2 POP SWAP1 POP DUP1 PUSH1 0x0 ADD PUSH1 0x0 SWAP1 SLOAD SWAP1 PUSH2 0x100 EXP SWAP1 DIV PUSH20 0xFFFFFFFFFFFFFFFFFFFFFFFFFFFFFFFFFFFFFFFF AND SWAP1 DUP1 PUSH1 0x1 ADD DUP1 SLOAD PUSH2 0x1819 SWAP1 PUSH2 0x4C72 JUMP JUMPDEST DUP1 PUSH1 0x1F ADD PUSH1 0x20 DUP1 SWAP2 DIV MUL PUSH1 0x20 ADD PUSH1 0x40 MLOAD SWAP1 DUP2 ADD PUSH1 0x40 MSTORE DUP1 SWAP3 SWAP2 SWAP1 DUP2 DUP2 MSTORE PUSH1 0x20 ADD DUP3 DUP1 SLOAD PUSH2 0x1845 SWAP1 PUSH2 0x4C72 JUMP JUMPDEST DUP1 ISZERO PUSH2 0x1892 JUMPI DUP1 PUSH1 0x1F LT PUSH2 0x1867 JUMPI PUSH2 0x100 DUP1 DUP4 SLOAD DIV MUL DUP4 MSTORE SWAP2 PUSH1 0x20 ADD SWAP2 PUSH2 0x1892 JUMP JUMPDEST DUP3 ADD SWAP2 SWAP1 PUSH1 0x0 MSTORE PUSH1 0x20 PUSH1 0x0 KECCAK256 SWAP1 JUMPDEST DUP2 SLOAD DUP2 MSTORE SWAP1 PUSH1 0x1 ADD SWAP1 PUSH1 0x20 ADD DUP1 DUP4 GT PUSH2 0x1875 JUMPI DUP3 SWAP1 SUB PUSH1 0x1F AND DUP3 ADD SWAP2 JUMPDEST POP POP POP POP POP SWAP1 DUP1 PUSH1 0x2 ADD SLOAD SWAP1 DUP1 PUSH1 0x3 ADD SLOAD SWAP1 DUP1 PUSH1 0x4 ADD SLOAD SWAP1 DUP1 PUSH1 0x5 ADD SLOAD SWAP1 DUP1 PUSH1 0x6 ADD PUSH1 0x0 SWAP1 SLOAD SWAP1 PUSH2 0x100 EXP SWAP1 DIV PUSH1 0xFF AND SWAP1 POP DUP8 JUMP JUMPDEST PUSH1 0x0 CALLER PUSH20 0xFFFFFFFFFFFFFFFFFFFFFFFFFFFFFFFFFFFFFFFF AND PUSH1 0x4 PUSH1 0x0 DUP5 DUP2 MSTORE PUSH1 0x20 ADD SWAP1 DUP2 MSTORE PUSH1 0x20 ADD PUSH1 0x0 KECCAK256 PUSH1 0x3 ADD PUSH1 0x0 SWAP1 SLOAD SWAP1 PUSH2 0x100 EXP SWAP1 DIV PUSH20 0xFFFFFFFFFFFFFFFFFFFFFFFFFFFFFFFFFFFFFFFF AND PUSH20 0xFFFFFFFFFFFFFFFFFFFFFFFFFFFFFFFFFFFFFFFF AND EQ SWAP1 POP SWAP2 SWAP1 POP JUMP JUMPDEST PUSH1 0x0 PUSH1 0x3 PUSH1 0x4 DUP2 GT ISZERO PUSH2 0x194B JUMPI PUSH2 0x194A PUSH2 0x49B0 JUMP JUMPDEST JUMPDEST PUSH1 0xC DUP4 PUSH1 0x40 MLOAD PUSH2 0x195B SWAP2 SWAP1 PUSH2 0x4DDD JUMP JUMPDEST SWAP1 DUP2 MSTORE PUSH1 0x20 ADD PUSH1 0x40 MLOAD DUP1 SWAP2 SUB SWAP1 KECCAK256 PUSH1 0x6 ADD PUSH1 0x0 SWAP1 SLOAD SWAP1 PUSH2 0x100 EXP SWAP1 DIV PUSH1 0xFF AND PUSH1 0x4 DUP2 GT ISZERO PUSH2 0x198C JUMPI PUSH2 0x198B PUSH2 0x49B0 JUMP JUMPDEST JUMPDEST EQ DUP1 ISZERO PUSH2 0x1A02 JUMPI POP PUSH1 0xC DUP3 PUSH1 0x40 MLOAD PUSH2 0x19A4 SWAP2 SWAP1 PUSH2 0x4DDD JUMP JUMPDEST SWAP1 DUP2 MSTORE PUSH1 0x20 ADD PUSH1 0x40 MLOAD DUP1 SWAP2 SUB SWAP1 KECCAK256 PUSH1 0x5 ADD SLOAD PUSH2 0x19FF PUSH3 0x15180 PUSH2 0x19F1 PUSH1 0xC DUP7 PUSH1 0x40 MLOAD PUSH2 0x19D0 SWAP2 SWAP1 PUSH2 0x4DDD JUMP JUMPDEST SWAP1 DUP2 MSTORE PUSH1 0x20 ADD PUSH1 0x40 MLOAD DUP1 SWAP2 SUB SWAP1 KECCAK256 PUSH1 0x4 ADD SLOAD TIMESTAMP PUSH2 0x228C SWAP1 SWAP2 SWAP1 PUSH4 0xFFFFFFFF AND JUMP JUMPDEST PUSH2 0x22A2 SWAP1 SWAP2 SWAP1 PUSH4 0xFFFFFFFF AND JUMP JUMPDEST LT ISZERO JUMPDEST ISZERO PUSH2 0x1A10 JUMPI PUSH1 0x4 SWAP1 POP PUSH2 0x1A42 JUMP JUMPDEST PUSH1 0xC DUP3 PUSH1 0x40 MLOAD PUSH2 0x1A20 SWAP2 SWAP1 PUSH2 0x4DDD JUMP JUMPDEST SWAP1 DUP2 MSTORE PUSH1 0x20 ADD PUSH1 0x40 MLOAD DUP1 SWAP2 SUB SWAP1 KECCAK256 PUSH1 0x6 ADD PUSH1 0x0 SWAP1 SLOAD SWAP1 PUSH2 0x100 EXP SWAP1 DIV PUSH1 0xFF AND SWAP1 POP JUMPDEST SWAP2 SWAP1 POP JUMP JUMPDEST PUSH1 0xB DUP4 SWAP1 DUP1 PUSH1 0x1 DUP2 SLOAD ADD DUP1 DUP3 SSTORE DUP1 SWAP2 POP POP PUSH1 0x1 SWAP1 SUB SWAP1 PUSH1 0x0 MSTORE PUSH1 0x20 PUSH1 0x0 KECCAK256 ADD PUSH1 0x0 SWAP1 SWAP2 SWAP1 SWAP2 SWAP1 SWAP2 PUSH2 0x100 EXP DUP2 SLOAD DUP2 PUSH20 0xFFFFFFFFFFFFFFFFFFFFFFFFFFFFFFFFFFFFFFFF MUL NOT AND SWAP1 DUP4 PUSH20 0xFFFFFFFFFFFFFFFFFFFFFFFFFFFFFFFFFFFFFFFF AND MUL OR SWAP1 SSTORE POP POP POP POP JUMP JUMPDEST PUSH2 0x1AD9 PUSH32 0x829B824E2329E205435D941C9F13BAF578548505283D29261236D8E6596D4636 CALLER PUSH2 0x136B JUMP JUMPDEST PUSH2 0x1B18 JUMPI PUSH1 0x40 MLOAD PUSH32 0x8C379A000000000000000000000000000000000000000000000000000000000 DUP2 MSTORE PUSH1 0x4 ADD PUSH2 0x1B0F SWAP1 PUSH2 0x51CA JUMP JUMPDEST PUSH1 0x40 MLOAD DUP1 SWAP2 SUB SWAP1 REVERT JUMPDEST PUSH2 0x1B22 DUP3 DUP3 PUSH2 0x22B8 JUMP JUMPDEST POP POP JUMP JUMPDEST PUSH1 0x0 DUP1 PUSH1 0xD PUSH1 0x0 SWAP1 SLOAD SWAP1 PUSH2 0x100 EXP SWAP1 DIV PUSH20 0xFFFFFFFFFFFFFFFFFFFFFFFFFFFFFFFFFFFFFFFF AND PUSH20 0xFFFFFFFFFFFFFFFFFFFFFFFFFFFFFFFFFFFFFFFF AND PUSH4 0x70A08231 CALLER PUSH1 0x40 MLOAD DUP3 PUSH4 0xFFFFFFFF AND PUSH1 0xE0 SHL DUP2 MSTORE PUSH1 0x4 ADD PUSH2 0x1B84 SWAP2 SWAP1 PUSH2 0x51EA JUMP JUMPDEST PUSH1 0x20 PUSH1 0x40 MLOAD DUP1 DUP4 SUB DUP2 DUP7 GAS STATICCALL ISZERO DUP1 ISZERO PUSH2 0x1BA1 JUMPI RETURNDATASIZE PUSH1 0x0 DUP1 RETURNDATACOPY RETURNDATASIZE PUSH1 0x0 REVERT JUMPDEST POP POP POP POP PUSH1 0x40 MLOAD RETURNDATASIZE PUSH1 0x1F NOT PUSH1 0x1F DUP3 ADD AND DUP3 ADD DUP1 PUSH1 0x40 MSTORE POP DUP2 ADD SWAP1 PUSH2 0x1BC5 SWAP2 SWAP1 PUSH2 0x521A JUMP JUMPDEST GT SWAP1 POP SWAP1 JUMP JUMPDEST PUSH2 0x1BD4 DUP3 PUSH2 0xBF7 JUMP JUMPDEST PUSH2 0x1BE5 DUP2 PUSH2 0x1BE0 PUSH2 0x1D37 JUMP JUMPDEST PUSH2 0x1D3F JUMP JUMPDEST PUSH2 0x1BEF DUP4 DUP4 PUSH2 0x1E5A JUMP JUMPDEST POP POP POP JUMP JUMPDEST PUSH1 0x6 SLOAD DUP2 JUMP JUMPDEST PUSH1 0x0 PUSH2 0x1C05 DUP3 PUSH2 0x2462 JUMP JUMPDEST SWAP1 POP PUSH1 0x0 PUSH2 0x1C2A PUSH1 0x40 MLOAD DUP1 PUSH1 0x20 ADD PUSH1 0x40 MSTORE DUP1 DUP6 PUSH8 0xFFFFFFFFFFFFFFFF AND DUP2 MSTORE POP PUSH2 0x257A JUMP JUMPDEST SWAP1 POP DUP2 PUSH1 0x10 DUP3 PUSH1 0x0 ADD MLOAD PUSH1 0x40 MLOAD PUSH2 0x1C41 SWAP2 SWAP1 PUSH2 0x4DDD JUMP JUMPDEST SWAP1 DUP2 MSTORE PUSH1 0x20 ADD PUSH1 0x40 MLOAD DUP1 SWAP2 SUB SWAP1 KECCAK256 PUSH1 0x0 PUSH2 0x100 EXP DUP2 SLOAD DUP2 PUSH8 0xFFFFFFFFFFFFFFFF MUL NOT AND SWAP1 DUP4 PUSH8 0xFFFFFFFFFFFFFFFF AND MUL OR SWAP1 SSTORE POP POP POP POP JUMP JUMPDEST PUSH1 0x1 DUP1 PUSH1 0x0 ADD SLOAD SWAP1 DUP1 PUSH1 0x1 ADD SLOAD SWAP1 DUP1 PUSH1 0x2 ADD SLOAD SWAP1 POP DUP4 JUMP JUMPDEST PUSH1 0xE DUP3 DUP1 MLOAD PUSH1 0x20 DUP2 ADD DUP3 ADD DUP1 MLOAD DUP5 DUP3 MSTORE PUSH1 0x20 DUP4 ADD PUSH1 0x20 DUP6 ADD KECCAK256 DUP2 DUP4 MSTORE DUP1 SWAP6 POP POP POP POP POP POP PUSH1 0x20 MSTORE DUP1 PUSH1 0x0 MSTORE PUSH1 0x40 PUSH1 0x0 KECCAK256 PUSH1 0x0 SWAP2 POP SWAP2 POP POP SLOAD DUP2 JUMP JUMPDEST PUSH1 0x0 PUSH32 0x1FFC9A700000000000000000000000000000000000000000000000000000000 PUSH28 0xFFFFFFFFFFFFFFFFFFFFFFFFFFFFFFFFFFFFFFFFFFFFFFFFFFFFFFFF NOT AND DUP3 PUSH28 0xFFFFFFFFFFFFFFFFFFFFFFFFFFFFFFFFFFFFFFFFFFFFFFFFFFFFFFFF NOT AND EQ SWAP1 POP SWAP2 SWAP1 POP JUMP JUMPDEST PUSH1 0x0 CALLER SWAP1 POP SWAP1 JUMP JUMPDEST PUSH2 0x1D49 DUP3 DUP3 PUSH2 0x136B JUMP JUMPDEST PUSH2 0x1DD8 JUMPI PUSH2 0x1D6E DUP2 PUSH20 0xFFFFFFFFFFFFFFFFFFFFFFFFFFFFFFFFFFFFFFFF AND PUSH1 0x14 PUSH2 0x25FE JUMP JUMPDEST PUSH2 0x1D7C DUP4 PUSH1 0x0 SHR PUSH1 0x20 PUSH2 0x25FE JUMP JUMPDEST PUSH1 0x40 MLOAD PUSH1 0x20 ADD PUSH2 0x1D8D SWAP3 SWAP2 SWAP1 PUSH2 0x531B JUMP JUMPDEST PUSH1 0x40 MLOAD PUSH1 0x20 DUP2 DUP4 SUB SUB DUP2 MSTORE SWAP1 PUSH1 0x40 MSTORE PUSH1 0x40 MLOAD PUSH32 0x8C379A000000000000000000000000000000000000000000000000000000000 DUP2 MSTORE PUSH1 0x4 ADD PUSH2 0x1DCF SWAP2 SWAP1 PUSH2 0x5355 JUMP JUMPDEST PUSH1 0x40 MLOAD DUP1 SWAP2 SUB SWAP1 REVERT JUMPDEST POP POP JUMP JUMPDEST PUSH2 0x1DE6 DUP3 DUP3 PUSH2 0x136B JUMP JUMPDEST PUSH2 0x1E56 JUMPI PUSH1 0x1 PUSH1 0x0 DUP1 DUP5 DUP2 MSTORE PUSH1 0x20 ADD SWAP1 DUP2 MSTORE PUSH1 0x20 ADD PUSH1 0x0 KECCAK256 PUSH1 0x0 ADD PUSH1 0x0 DUP4 PUSH20 0xFFFFFFFFFFFFFFFFFFFFFFFFFFFFFFFFFFFFFFFF AND PUSH20 0xFFFFFFFFFFFFFFFFFFFFFFFFFFFFFFFFFFFFFFFF AND DUP2 MSTORE PUSH1 0x20 ADD SWAP1 DUP2 MSTORE PUSH1 0x20 ADD PUSH1 0x0 KECCAK256 PUSH1 0x0 PUSH2 0x100 EXP DUP2 SLOAD DUP2 PUSH1 0xFF MUL NOT AND SWAP1 DUP4 ISZERO ISZERO MUL OR SWAP1 SSTORE POP JUMPDEST POP POP JUMP JUMPDEST PUSH2 0x1E64 DUP3 DUP3 PUSH2 0x136B JUMP JUMPDEST ISZERO PUSH2 0x1F37 JUMPI PUSH1 0x0 DUP1 PUSH1 0x0 DUP5 DUP2 MSTORE PUSH1 0x20 ADD SWAP1 DUP2 MSTORE PUSH1 0x20 ADD PUSH1 0x0 KECCAK256 PUSH1 0x0 ADD PUSH1 0x0 DUP4 PUSH20 0xFFFFFFFFFFFFFFFFFFFFFFFFFFFFFFFFFFFFFFFF AND PUSH20 0xFFFFFFFFFFFFFFFFFFFFFFFFFFFFFFFFFFFFFFFF AND DUP2 MSTORE PUSH1 0x20 ADD SWAP1 DUP2 MSTORE PUSH1 0x20 ADD PUSH1 0x0 KECCAK256 PUSH1 0x0 PUSH2 0x100 EXP DUP2 SLOAD DUP2 PUSH1 0xFF MUL NOT AND SWAP1 DUP4 ISZERO ISZERO MUL OR SWAP1 SSTORE POP PUSH2 0x1EDC PUSH2 0x1D37 JUMP JUMPDEST PUSH20 0xFFFFFFFFFFFFFFFFFFFFFFFFFFFFFFFFFFFFFFFF AND DUP2 PUSH20 0xFFFFFFFFFFFFFFFFFFFFFFFFFFFFFFFFFFFFFFFF AND DUP4 PUSH32 0xF6391F5C32D9C69D2A47EA670B442974B53935D1EDC7FD64EB21E047A839171B PUSH1 0x40 MLOAD PUSH1 0x40 MLOAD DUP1 SWAP2 SUB SWAP1 LOG4 JUMPDEST POP POP JUMP JUMPDEST PUSH1 0x0 PUSH1 0x40 MLOAD DUP1 PUSH1 0xE0 ADD PUSH1 0x40 MSTORE DUP1 CALLER PUSH20 0xFFFFFFFFFFFFFFFFFFFFFFFFFFFFFFFFFFFFFFFF AND DUP2 MSTORE PUSH1 0x20 ADD DUP8 DUP2 MSTORE PUSH1 0x20 ADD DUP7 DUP2 MSTORE PUSH1 0x20 ADD PUSH1 0x0 DUP2 MSTORE PUSH1 0x20 ADD PUSH1 0x0 DUP2 MSTORE PUSH1 0x20 ADD DUP6 DUP2 MSTORE PUSH1 0x20 ADD PUSH1 0x0 PUSH1 0x4 DUP2 GT ISZERO PUSH2 0x1F98 JUMPI PUSH2 0x1F97 PUSH2 0x49B0 JUMP JUMPDEST JUMPDEST DUP2 MSTORE POP SWAP1 POP PUSH1 0x6 PUSH1 0x0 DUP2 SLOAD DUP1 SWAP3 SWAP2 SWAP1 PUSH2 0x1FB0 SWAP1 PUSH2 0x5136 JUMP JUMPDEST SWAP2 SWAP1 POP SSTORE POP PUSH1 0x0 PUSH1 0x40 MLOAD DUP1 PUSH2 0x160 ADD PUSH1 0x40 MSTORE DUP1 PUSH1 0x6 SLOAD DUP2 MSTORE PUSH1 0x20 ADD DUP6 DUP2 MSTORE PUSH1 0x20 ADD DUP5 DUP2 MSTORE PUSH1 0x20 ADD CALLER PUSH20 0xFFFFFFFFFFFFFFFFFFFFFFFFFFFFFFFFFFFFFFFF AND DUP2 MSTORE PUSH1 0x20 ADD DUP9 DUP2 MSTORE PUSH1 0x20 ADD DUP8 DUP2 MSTORE PUSH1 0x20 ADD PUSH1 0x0 DUP2 MSTORE PUSH1 0x20 ADD PUSH1 0x0 DUP2 MSTORE PUSH1 0x20 ADD TIMESTAMP DUP2 MSTORE PUSH1 0x20 ADD PUSH2 0xE10 TIMESTAMP PUSH2 0x2021 SWAP2 SWAP1 PUSH2 0x501F JUMP JUMPDEST DUP2 MSTORE PUSH1 0x20 ADD PUSH1 0x40 MLOAD DUP1 PUSH1 0x40 ADD PUSH1 0x40 MSTORE DUP1 PUSH1 0x6 DUP2 MSTORE PUSH1 0x20 ADD PUSH32 0x6163746976650000000000000000000000000000000000000000000000000000 DUP2 MSTORE POP DUP2 MSTORE POP SWAP1 POP DUP1 PUSH1 0x4 PUSH1 0x0 PUSH1 0x6 SLOAD DUP2 MSTORE PUSH1 0x20 ADD SWAP1 DUP2 MSTORE PUSH1 0x20 ADD PUSH1 0x0 KECCAK256 PUSH1 0x0 DUP3 ADD MLOAD DUP2 PUSH1 0x0 ADD SSTORE PUSH1 0x20 DUP3 ADD MLOAD DUP2 PUSH1 0x1 ADD SWAP1 DUP1 MLOAD SWAP1 PUSH1 0x20 ADD SWAP1 PUSH2 0x209D SWAP3 SWAP2 SWAP1 PUSH2 0x3C54 JUMP JUMPDEST POP PUSH1 0x40 DUP3 ADD MLOAD DUP2 PUSH1 0x2 ADD SWAP1 DUP1 MLOAD SWAP1 PUSH1 0x20 ADD SWAP1 PUSH2 0x20BA SWAP3 SWAP2 SWAP1 PUSH2 0x3C54 JUMP JUMPDEST POP PUSH1 0x60 DUP3 ADD MLOAD DUP2 PUSH1 0x3 ADD PUSH1 0x0 PUSH2 0x100 EXP DUP2 SLOAD DUP2 PUSH20 0xFFFFFFFFFFFFFFFFFFFFFFFFFFFFFFFFFFFFFFFF MUL NOT AND SWAP1 DUP4 PUSH20 0xFFFFFFFFFFFFFFFFFFFFFFFFFFFFFFFFFFFFFFFF AND MUL OR SWAP1 SSTORE POP PUSH1 0x80 DUP3 ADD MLOAD DUP2 PUSH1 0x4 ADD SWAP1 DUP1 MLOAD SWAP1 PUSH1 0x20 ADD SWAP1 PUSH2 0x211E SWAP3 SWAP2 SWAP1 PUSH2 0x3CDA JUMP JUMPDEST POP PUSH1 0xA0 DUP3 ADD MLOAD DUP2 PUSH1 0x5 ADD SSTORE PUSH1 0xC0 DUP3 ADD MLOAD DUP2 PUSH1 0x6 ADD SSTORE PUSH1 0xE0 DUP3 ADD MLOAD DUP2 PUSH1 0x7 ADD SSTORE PUSH2 0x100 DUP3 ADD MLOAD DUP2 PUSH1 0x8 ADD SSTORE PUSH2 0x120 DUP3 ADD MLOAD DUP2 PUSH1 0x9 ADD SSTORE PUSH2 0x140 DUP3 ADD MLOAD DUP2 PUSH1 0xA ADD SWAP1 DUP1 MLOAD SWAP1 PUSH1 0x20 ADD SWAP1 PUSH2 0x2170 SWAP3 SWAP2 SWAP1 PUSH2 0x3C54 JUMP JUMPDEST POP SWAP1 POP POP DUP2 PUSH1 0xC DUP9 PUSH1 0x40 MLOAD PUSH2 0x2185 SWAP2 SWAP1 PUSH2 0x4DDD JUMP JUMPDEST SWAP1 DUP2 MSTORE PUSH1 0x20 ADD PUSH1 0x40 MLOAD DUP1 SWAP2 SUB SWAP1 KECCAK256 PUSH1 0x0 DUP3 ADD MLOAD DUP2 PUSH1 0x0 ADD PUSH1 0x0 PUSH2 0x100 EXP DUP2 SLOAD DUP2 PUSH20 0xFFFFFFFFFFFFFFFFFFFFFFFFFFFFFFFFFFFFFFFF MUL NOT AND SWAP1 DUP4 PUSH20 0xFFFFFFFFFFFFFFFFFFFFFFFFFFFFFFFFFFFFFFFF AND MUL OR SWAP1 SSTORE POP PUSH1 0x20 DUP3 ADD MLOAD DUP2 PUSH1 0x1 ADD SWAP1 DUP1 MLOAD SWAP1 PUSH1 0x20 ADD SWAP1 PUSH2 0x21F6 SWAP3 SWAP2 SWAP1 PUSH2 0x3CDA JUMP JUMPDEST POP PUSH1 0x40 DUP3 ADD MLOAD DUP2 PUSH1 0x2 ADD SSTORE PUSH1 0x60 DUP3 ADD MLOAD DUP2 PUSH1 0x3 ADD SSTORE PUSH1 0x80 DUP3 ADD MLOAD DUP2 PUSH1 0x4 ADD SSTORE PUSH1 0xA0 DUP3 ADD MLOAD DUP2 PUSH1 0x5 ADD SSTORE PUSH1 0xC0 DUP3 ADD MLOAD DUP2 PUSH1 0x6 ADD PUSH1 0x0 PUSH2 0x100 EXP DUP2 SLOAD DUP2 PUSH1 0xFF MUL NOT AND SWAP1 DUP4 PUSH1 0x4 DUP2 GT ISZERO PUSH2 0x224A JUMPI PUSH2 0x2249 PUSH2 0x49B0 JUMP JUMPDEST JUMPDEST MUL OR SWAP1 SSTORE POP SWAP1 POP POP POP POP POP POP POP POP POP JUMP JUMPDEST PUSH1 0x0 PUSH1 0x40 MLOAD DUP1 PUSH1 0x20 ADD PUSH1 0x40 MSTORE DUP1 PUSH1 0x0 DUP2 MSTORE POP SWAP1 POP PUSH1 0x60 SWAP1 POP PUSH2 0x2283 PUSH1 0x0 DUP4 PUSH1 0x0 DUP1 DUP6 DUP9 PUSH2 0x283A JUMP JUMPDEST POP POP POP POP POP POP POP JUMP JUMPDEST PUSH1 0x0 DUP2 DUP4 PUSH2 0x229A SWAP2 SWAP1 PUSH2 0x5377 JUMP JUMPDEST SWAP1 POP SWAP3 SWAP2 POP POP JUMP JUMPDEST PUSH1 0x0 DUP2 DUP4 PUSH2 0x22B0 SWAP2 SWAP1 PUSH2 0x53DA JUMP JUMPDEST SWAP1 POP SWAP3 SWAP2 POP POP JUMP JUMPDEST TIMESTAMP PUSH1 0x4 PUSH1 0x0 DUP4 DUP2 MSTORE PUSH1 0x20 ADD SWAP1 DUP2 MSTORE PUSH1 0x20 ADD PUSH1 0x0 KECCAK256 PUSH1 0x9 ADD SLOAD LT PUSH2 0x2310 JUMPI PUSH1 0x40 MLOAD PUSH32 0x8C379A000000000000000000000000000000000000000000000000000000000 DUP2 MSTORE PUSH1 0x4 ADD PUSH2 0x2307 SWAP1 PUSH2 0x5457 JUMP JUMPDEST PUSH1 0x40 MLOAD DUP1 SWAP2 SUB SWAP1 REVERT JUMPDEST PUSH1 0x0 PUSH1 0x4 PUSH1 0x0 DUP4 DUP2 MSTORE PUSH1 0x20 ADD SWAP1 DUP2 MSTORE PUSH1 0x20 ADD PUSH1 0x0 KECCAK256 PUSH1 0x7 ADD SLOAD PUSH1 0x4 PUSH1 0x0 DUP5 DUP2 MSTORE PUSH1 0x20 ADD SWAP1 DUP2 MSTORE PUSH1 0x20 ADD PUSH1 0x0 KECCAK256 PUSH1 0x6 ADD SLOAD GT ISZERO PUSH2 0x23AF JUMPI PUSH1 0x1 SWAP1 POP PUSH1 0x40 MLOAD DUP1 PUSH1 0x40 ADD PUSH1 0x40 MSTORE DUP1 PUSH1 0x6 DUP2 MSTORE PUSH1 0x20 ADD PUSH32 0x5061737365640000000000000000000000000000000000000000000000000000 DUP2 MSTORE POP PUSH1 0x4 PUSH1 0x0 DUP5 DUP2 MSTORE PUSH1 0x20 ADD SWAP1 DUP2 MSTORE PUSH1 0x20 ADD PUSH1 0x0 KECCAK256 PUSH1 0xA ADD SWAP1 DUP1 MLOAD SWAP1 PUSH1 0x20 ADD SWAP1 PUSH2 0x23A9 SWAP3 SWAP2 SWAP1 PUSH2 0x3C54 JUMP JUMPDEST POP PUSH2 0x2414 JUMP JUMPDEST PUSH1 0x2 SWAP1 POP PUSH1 0x40 MLOAD DUP1 PUSH1 0x40 ADD PUSH1 0x40 MSTORE DUP1 PUSH1 0x8 DUP2 MSTORE PUSH1 0x20 ADD PUSH32 0x52656A6563746564000000000000000000000000000000000000000000000000 DUP2 MSTORE POP PUSH1 0x4 PUSH1 0x0 DUP5 DUP2 MSTORE PUSH1 0x20 ADD SWAP1 DUP2 MSTORE PUSH1 0x20 ADD PUSH1 0x0 KECCAK256 PUSH1 0xA ADD SWAP1 DUP1 MLOAD SWAP1 PUSH1 0x20 ADD SWAP1 PUSH2 0x2412 SWAP3 SWAP2 SWAP1 PUSH2 0x3C54 JUMP JUMPDEST POP JUMPDEST DUP1 PUSH1 0xC DUP5 PUSH1 0x40 MLOAD PUSH2 0x2425 SWAP2 SWAP1 PUSH2 0x4DDD JUMP JUMPDEST SWAP1 DUP2 MSTORE PUSH1 0x20 ADD PUSH1 0x40 MLOAD DUP1 SWAP2 SUB SWAP1 KECCAK256 PUSH1 0x6 ADD PUSH1 0x0 PUSH2 0x100 EXP DUP2 SLOAD DUP2 PUSH1 0xFF MUL NOT AND SWAP1 DUP4 PUSH1 0x4 DUP2 GT ISZERO PUSH2 0x2458 JUMPI PUSH2 0x2457 PUSH2 0x49B0 JUMP JUMPDEST JUMPDEST MUL OR SWAP1 SSTORE POP POP POP POP JUMP JUMPDEST PUSH1 0x0 DUP1 PUSH2 0x2486 PUSH1 0x40 MLOAD DUP1 PUSH1 0x20 ADD PUSH1 0x40 MSTORE DUP1 DUP6 PUSH8 0xFFFFFFFFFFFFFFFF AND DUP2 MSTORE POP PUSH2 0x257A JUMP JUMPDEST SWAP1 POP PUSH1 0x0 PUSH2 0x24AB PUSH1 0x40 MLOAD DUP1 PUSH1 0x20 ADD PUSH1 0x40 MSTORE DUP1 DUP7 PUSH8 0xFFFFFFFFFFFFFFFF AND DUP2 MSTORE POP PUSH2 0x2928 JUMP JUMPDEST SWAP1 POP PUSH2 0x24CE DUP3 PUSH1 0x0 ADD MLOAD DUP3 PUSH1 0x0 ADD MLOAD DUP5 PUSH1 0x20 ADD MLOAD PUSH8 0xFFFFFFFFFFFFFFFF AND PUSH2 0x29AC JUMP JUMPDEST PUSH1 0x0 PUSH2 0x24F1 PUSH1 0x40 MLOAD DUP1 PUSH1 0x20 ADD PUSH1 0x40 MSTORE DUP1 DUP8 PUSH8 0xFFFFFFFFFFFFFFFF AND DUP2 MSTORE POP PUSH2 0x2B18 JUMP JUMPDEST SWAP1 POP PUSH1 0x3 PUSH1 0xC DUP5 PUSH1 0x0 ADD MLOAD PUSH1 0x40 MLOAD PUSH2 0x2509 SWAP2 SWAP1 PUSH2 0x4DDD JUMP JUMPDEST SWAP1 DUP2 MSTORE PUSH1 0x20 ADD PUSH1 0x40 MLOAD DUP1 SWAP2 SUB SWAP1 KECCAK256 PUSH1 0x6 ADD PUSH1 0x0 PUSH2 0x100 EXP DUP2 SLOAD DUP2 PUSH1 0xFF MUL NOT AND SWAP1 DUP4 PUSH1 0x4 DUP2 GT ISZERO PUSH2 0x253C JUMPI PUSH2 0x253B PUSH2 0x49B0 JUMP JUMPDEST JUMPDEST MUL OR SWAP1 SSTORE POP TIMESTAMP PUSH1 0xC DUP5 PUSH1 0x0 ADD MLOAD PUSH1 0x40 MLOAD PUSH2 0x2556 SWAP2 SWAP1 PUSH2 0x4DDD JUMP JUMPDEST SWAP1 DUP2 MSTORE PUSH1 0x20 ADD PUSH1 0x40 MLOAD DUP1 SWAP2 SUB SWAP1 KECCAK256 PUSH1 0x4 ADD DUP2 SWAP1 SSTORE POP DUP1 PUSH1 0x0 ADD MLOAD SWAP4 POP POP POP POP SWAP2 SWAP1 POP JUMP JUMPDEST PUSH2 0x2582 PUSH2 0x3D60 JUMP JUMPDEST PUSH1 0x0 PUSH2 0x258D DUP4 PUSH2 0x2B9C JUMP JUMPDEST SWAP1 POP PUSH1 0x0 PUSH2 0x25D6 PUSH4 0x4505760A PUSH1 0x40 MLOAD DUP1 PUSH1 0x40 ADD PUSH1 0x40 MSTORE DUP1 PUSH1 0x2 DUP2 MSTORE PUSH1 0x20 ADD PUSH31 0x5000000000000000000000000000000000000000000000000000000000000 DUP2 MSTORE POP DUP5 PUSH1 0x71 PUSH2 0x2BD4 JUMP JUMPDEST SWAP1 POP PUSH2 0x25E0 PUSH2 0x3D60 JUMP JUMPDEST PUSH2 0x25F3 DUP3 DUP3 PUSH2 0x2BFF SWAP1 SWAP2 SWAP1 PUSH4 0xFFFFFFFF AND JUMP JUMPDEST DUP1 SWAP4 POP POP POP POP SWAP2 SWAP1 POP JUMP JUMPDEST PUSH1 0x60 PUSH1 0x0 PUSH1 0x2 DUP4 PUSH1 0x2 PUSH2 0x2611 SWAP2 SWAP1 PUSH2 0x5477 JUMP JUMPDEST PUSH2 0x261B SWAP2 SWAP1 PUSH2 0x501F JUMP JUMPDEST PUSH8 0xFFFFFFFFFFFFFFFF DUP2 GT ISZERO PUSH2 0x2634 JUMPI PUSH2 0x2633 PUSH2 0x4156 JUMP JUMPDEST JUMPDEST PUSH1 0x40 MLOAD SWAP1 DUP1 DUP3 MSTORE DUP1 PUSH1 0x1F ADD PUSH1 0x1F NOT AND PUSH1 0x20 ADD DUP3 ADD PUSH1 0x40 MSTORE DUP1 ISZERO PUSH2 0x2666 JUMPI DUP2 PUSH1 0x20 ADD PUSH1 0x1 DUP3 MUL DUP1 CALLDATASIZE DUP4 CALLDATACOPY DUP1 DUP3 ADD SWAP2 POP POP SWAP1 POP JUMPDEST POP SWAP1 POP PUSH32 0x3000000000000000000000000000000000000000000000000000000000000000 DUP2 PUSH1 0x0 DUP2 MLOAD DUP2 LT PUSH2 0x269E JUMPI PUSH2 0x269D PUSH2 0x5107 JUMP JUMPDEST JUMPDEST PUSH1 0x20 ADD ADD SWAP1 PUSH31 0xFFFFFFFFFFFFFFFFFFFFFFFFFFFFFFFFFFFFFFFFFFFFFFFFFFFFFFFFFFFFFF NOT AND SWAP1 DUP2 PUSH1 0x0 BYTE SWAP1 MSTORE8 POP PUSH32 0x7800000000000000000000000000000000000000000000000000000000000000 DUP2 PUSH1 0x1 DUP2 MLOAD DUP2 LT PUSH2 0x2702 JUMPI PUSH2 0x2701 PUSH2 0x5107 JUMP JUMPDEST JUMPDEST PUSH1 0x20 ADD ADD SWAP1 PUSH31 0xFFFFFFFFFFFFFFFFFFFFFFFFFFFFFFFFFFFFFFFFFFFFFFFFFFFFFFFFFFFFFF NOT AND SWAP1 DUP2 PUSH1 0x0 BYTE SWAP1 MSTORE8 POP PUSH1 0x0 PUSH1 0x1 DUP5 PUSH1 0x2 PUSH2 0x2742 SWAP2 SWAP1 PUSH2 0x5477 JUMP JUMPDEST PUSH2 0x274C SWAP2 SWAP1 PUSH2 0x501F JUMP JUMPDEST SWAP1 POP JUMPDEST PUSH1 0x1 DUP2 GT ISZERO PUSH2 0x27EC JUMPI PUSH32 0x3031323334353637383961626364656600000000000000000000000000000000 PUSH1 0xF DUP7 AND PUSH1 0x10 DUP2 LT PUSH2 0x278E JUMPI PUSH2 0x278D PUSH2 0x5107 JUMP JUMPDEST JUMPDEST BYTE PUSH1 0xF8 SHL DUP3 DUP3 DUP2 MLOAD DUP2 LT PUSH2 0x27A5 JUMPI PUSH2 0x27A4 PUSH2 0x5107 JUMP JUMPDEST JUMPDEST PUSH1 0x20 ADD ADD SWAP1 PUSH31 0xFFFFFFFFFFFFFFFFFFFFFFFFFFFFFFFFFFFFFFFFFFFFFFFFFFFFFFFFFFFFFF NOT AND SWAP1 DUP2 PUSH1 0x0 BYTE SWAP1 MSTORE8 POP PUSH1 0x4 DUP6 SWAP1 SHR SWAP5 POP DUP1 PUSH2 0x27E5 SWAP1 PUSH2 0x54D1 JUMP JUMPDEST SWAP1 POP PUSH2 0x274F JUMP JUMPDEST POP PUSH1 0x0 DUP5 EQ PUSH2 0x2830 JUMPI PUSH1 0x40 MLOAD PUSH32 0x8C379A000000000000000000000000000000000000000000000000000000000 DUP2 MSTORE PUSH1 0x4 ADD PUSH2 0x2827 SWAP1 PUSH2 0x5546 JUMP JUMPDEST PUSH1 0x40 MLOAD DUP1 SWAP2 SUB SWAP1 REVERT JUMPDEST DUP1 SWAP2 POP POP SWAP3 SWAP2 POP POP JUMP JUMPDEST PUSH1 0x0 DUP1 PUSH1 0x0 PUSH1 0x60 PUSH1 0x0 DUP1 PUSH20 0xFE00000000000000000000000000000000000005 PUSH20 0xFFFFFFFFFFFFFFFFFFFFFFFFFFFFFFFFFFFFFFFF AND DUP13 DUP13 DUP13 DUP13 DUP13 DUP13 PUSH1 0x40 MLOAD PUSH1 0x20 ADD PUSH2 0x288A SWAP7 SWAP6 SWAP5 SWAP4 SWAP3 SWAP2 SWAP1 PUSH2 0x5566 JUMP JUMPDEST PUSH1 0x40 MLOAD PUSH1 0x20 DUP2 DUP4 SUB SUB DUP2 MSTORE SWAP1 PUSH1 0x40 MSTORE PUSH1 0x40 MLOAD PUSH2 0x28A6 SWAP2 SWAP1 PUSH2 0x4DDD JUMP JUMPDEST PUSH1 0x0 PUSH1 0x40 MLOAD DUP1 DUP4 SUB DUP2 DUP6 GAS DELEGATECALL SWAP2 POP POP RETURNDATASIZE DUP1 PUSH1 0x0 DUP2 EQ PUSH2 0x28E1 JUMPI PUSH1 0x40 MLOAD SWAP2 POP PUSH1 0x1F NOT PUSH1 0x3F RETURNDATASIZE ADD AND DUP3 ADD PUSH1 0x40 MSTORE RETURNDATASIZE DUP3 MSTORE RETURNDATASIZE PUSH1 0x0 PUSH1 0x20 DUP5 ADD RETURNDATACOPY PUSH2 0x28E6 JUMP JUMPDEST PUSH1 0x60 SWAP2 POP JUMPDEST POP SWAP2 POP SWAP2 POP PUSH1 0x0 DUP1 PUSH1 0x0 DUP4 DUP1 PUSH1 0x20 ADD SWAP1 MLOAD DUP2 ADD SWAP1 PUSH2 0x2904 SWAP2 SWAP1 PUSH2 0x5689 JUMP JUMPDEST SWAP3 POP SWAP3 POP SWAP3 POP DUP5 DUP4 DUP4 DUP4 SWAP9 POP SWAP9 POP SWAP9 POP SWAP9 POP POP POP POP POP POP SWAP7 POP SWAP7 POP SWAP7 POP SWAP7 SWAP3 POP POP POP JUMP JUMPDEST PUSH2 0x2930 PUSH2 0x3D84 JUMP JUMPDEST PUSH1 0x0 PUSH2 0x293B DUP4 PUSH2 0x2C80 JUMP JUMPDEST SWAP1 POP PUSH1 0x0 PUSH2 0x2984 PUSH4 0x37BC36DA PUSH1 0x40 MLOAD DUP1 PUSH1 0x40 ADD PUSH1 0x40 MSTORE DUP1 PUSH1 0x2 DUP2 MSTORE PUSH1 0x20 ADD PUSH31 0x5000000000000000000000000000000000000000000000000000000000000 DUP2 MSTORE POP DUP5 PUSH1 0x71 PUSH2 0x2BD4 JUMP JUMPDEST SWAP1 POP PUSH2 0x298E PUSH2 0x3D84 JUMP JUMPDEST PUSH2 0x29A1 DUP3 DUP3 PUSH2 0x2CB8 SWAP1 SWAP2 SWAP1 PUSH4 0xFFFFFFFF AND JUMP JUMPDEST DUP1 SWAP4 POP POP POP POP SWAP2 SWAP1 POP JUMP JUMPDEST PUSH1 0x1 PUSH1 0x4 DUP2 GT ISZERO PUSH2 0x29C0 JUMPI PUSH2 0x29BF PUSH2 0x49B0 JUMP JUMPDEST JUMPDEST PUSH1 0xC DUP5 PUSH1 0x40 MLOAD PUSH2 0x29D0 SWAP2 SWAP1 PUSH2 0x4DDD JUMP JUMPDEST SWAP1 DUP2 MSTORE PUSH1 0x20 ADD PUSH1 0x40 MLOAD DUP1 SWAP2 SUB SWAP1 KECCAK256 PUSH1 0x6 ADD PUSH1 0x0 SWAP1 SLOAD SWAP1 PUSH2 0x100 EXP SWAP1 DIV PUSH1 0xFF AND PUSH1 0x4 DUP2 GT ISZERO PUSH2 0x2A01 JUMPI PUSH2 0x2A00 PUSH2 0x49B0 JUMP JUMPDEST JUMPDEST EQ PUSH2 0x2A0B JUMPI PUSH1 0x0 DUP1 REVERT JUMPDEST DUP1 PUSH1 0xC DUP5 PUSH1 0x40 MLOAD PUSH2 0x2A1C SWAP2 SWAP1 PUSH2 0x4DDD JUMP JUMPDEST SWAP1 DUP2 MSTORE PUSH1 0x20 ADD PUSH1 0x40 MLOAD DUP1 SWAP2 SUB SWAP1 KECCAK256 PUSH1 0x2 ADD SLOAD EQ PUSH2 0x2A6E JUMPI PUSH1 0x40 MLOAD PUSH32 0x8C379A000000000000000000000000000000000000000000000000000000000 DUP2 MSTORE PUSH1 0x4 ADD PUSH2 0x2A65 SWAP1 PUSH2 0x5744 JUMP JUMPDEST PUSH1 0x40 MLOAD DUP1 SWAP2 SUB SWAP1 REVERT JUMPDEST PUSH2 0x2A78 DUP4 DUP4 PUSH2 0x2CF3 JUMP JUMPDEST PUSH2 0x2AB7 JUMPI PUSH1 0x40 MLOAD PUSH32 0x8C379A000000000000000000000000000000000000000000000000000000000 DUP2 MSTORE PUSH1 0x4 ADD PUSH2 0x2AAE SWAP1 PUSH2 0x57D6 JUMP JUMPDEST PUSH1 0x40 MLOAD DUP1 SWAP2 SUB SWAP1 REVERT JUMPDEST PUSH1 0x1 PUSH1 0x9 DUP5 PUSH1 0x40 MLOAD PUSH2 0x2AC9 SWAP2 SWAP1 PUSH2 0x4DDD JUMP JUMPDEST SWAP1 DUP2 MSTORE PUSH1 0x20 ADD PUSH1 0x40 MLOAD DUP1 SWAP2 SUB SWAP1 KECCAK256 PUSH1 0x0 DUP5 PUSH8 0xFFFFFFFFFFFFFFFF AND PUSH8 0xFFFFFFFFFFFFFFFF AND DUP2 MSTORE PUSH1 0x20 ADD SWAP1 DUP2 MSTORE PUSH1 0x20 ADD PUSH1 0x0 KECCAK256 PUSH1 0x0 PUSH2 0x100 EXP DUP2 SLOAD DUP2 PUSH1 0xFF MUL NOT AND SWAP1 DUP4 ISZERO ISZERO MUL OR SWAP1 SSTORE POP POP POP POP JUMP JUMPDEST PUSH2 0x2B20 PUSH2 0x3DA1 JUMP JUMPDEST PUSH1 0x0 PUSH2 0x2B2B DUP4 PUSH2 0x2D54 JUMP JUMPDEST SWAP1 POP PUSH1 0x0 PUSH2 0x2B74 PUSH4 0x7A1F051 PUSH1 0x40 MLOAD DUP1 PUSH1 0x40 ADD PUSH1 0x40 MSTORE DUP1 PUSH1 0x2 DUP2 MSTORE PUSH1 0x20 ADD PUSH31 0x5000000000000000000000000000000000000000000000000000000000000 DUP2 MSTORE POP DUP5 PUSH1 0x71 PUSH2 0x2BD4 JUMP JUMPDEST SWAP1 POP PUSH2 0x2B7E PUSH2 0x3DA1 JUMP JUMPDEST PUSH2 0x2B91 DUP3 DUP3 PUSH2 0x2D8C SWAP1 SWAP2 SWAP1 PUSH4 0xFFFFFFFF AND JUMP JUMPDEST DUP1 SWAP4 POP POP POP POP SWAP2 SWAP1 POP JUMP JUMPDEST PUSH1 0x60 PUSH1 0x0 PUSH2 0x2BAA PUSH1 0x40 PUSH2 0x2DC7 JUMP JUMPDEST SWAP1 POP PUSH2 0x2BC3 DUP4 PUSH1 0x0 ADD MLOAD DUP3 PUSH2 0x2DEE SWAP1 SWAP2 SWAP1 PUSH4 0xFFFFFFFF AND JUMP JUMPDEST PUSH2 0x2BCC DUP2 PUSH2 0x2DFE JUMP JUMPDEST SWAP2 POP POP SWAP2 SWAP1 POP JUMP JUMPDEST PUSH1 0x60 PUSH2 0x2BF5 PUSH2 0x2BE2 DUP7 PUSH2 0x2E57 JUMP JUMPDEST PUSH8 0xFFFFFFFFFFFFFFFF AND DUP6 DUP6 DUP6 CALLVALUE PUSH2 0x2E61 JUMP JUMPDEST SWAP1 POP SWAP5 SWAP4 POP POP POP POP JUMP JUMPDEST PUSH1 0x0 DUP1 PUSH2 0x2C15 DUP3 DUP5 PUSH2 0x2F06 SWAP1 SWAP2 SWAP1 PUSH4 0xFFFFFFFF AND JUMP JUMPDEST DUP1 SWAP4 POP DUP2 SWAP3 POP POP POP PUSH1 0x0 DUP2 GT ISZERO PUSH2 0x2C7A JUMPI PUSH2 0x2C39 DUP3 DUP5 PUSH2 0x2F55 SWAP1 SWAP2 SWAP1 PUSH4 0xFFFFFFFF AND JUMP JUMPDEST DUP6 PUSH1 0x0 ADD DUP2 SWAP5 POP DUP3 SWAP1 MSTORE POP POP PUSH2 0x2C58 DUP3 DUP5 PUSH2 0x30FF SWAP1 SWAP2 SWAP1 PUSH4 0xFFFFFFFF AND JUMP JUMPDEST DUP6 PUSH1 0x20 ADD DUP2 SWAP5 POP DUP3 PUSH8 0xFFFFFFFFFFFFFFFF AND PUSH8 0xFFFFFFFFFFFFFFFF AND DUP2 MSTORE POP POP POP JUMPDEST POP POP POP POP JUMP JUMPDEST PUSH1 0x60 PUSH1 0x0 PUSH2 0x2C8E PUSH1 0x40 PUSH2 0x2DC7 JUMP JUMPDEST SWAP1 POP PUSH2 0x2CA7 DUP4 PUSH1 0x0 ADD MLOAD DUP3 PUSH2 0x2DEE SWAP1 SWAP2 SWAP1 PUSH4 0xFFFFFFFF AND JUMP JUMPDEST PUSH2 0x2CB0 DUP2 PUSH2 0x2DFE JUMP JUMPDEST SWAP2 POP POP SWAP2 SWAP1 POP JUMP JUMPDEST PUSH1 0x0 PUSH2 0x2CCD DUP2 DUP4 PUSH2 0x30FF SWAP1 SWAP2 SWAP1 PUSH4 0xFFFFFFFF AND JUMP JUMPDEST DUP5 PUSH1 0x0 ADD DUP2 SWAP4 POP DUP3 PUSH8 0xFFFFFFFFFFFFFFFF AND PUSH8 0xFFFFFFFFFFFFFFFF AND DUP2 MSTORE POP POP POP POP POP POP JUMP JUMPDEST PUSH1 0x0 DUP1 PUSH1 0x9 DUP5 PUSH1 0x40 MLOAD PUSH2 0x2D06 SWAP2 SWAP1 PUSH2 0x4DDD JUMP JUMPDEST SWAP1 DUP2 MSTORE PUSH1 0x20 ADD PUSH1 0x40 MLOAD DUP1 SWAP2 SUB SWAP1 KECCAK256 PUSH1 0x0 DUP5 PUSH8 0xFFFFFFFFFFFFFFFF AND PUSH8 0xFFFFFFFFFFFFFFFF AND DUP2 MSTORE PUSH1 0x20 ADD SWAP1 DUP2 MSTORE PUSH1 0x20 ADD PUSH1 0x0 KECCAK256 PUSH1 0x0 SWAP1 SLOAD SWAP1 PUSH2 0x100 EXP SWAP1 DIV PUSH1 0xFF AND SWAP1 POP DUP1 ISZERO SWAP2 POP POP SWAP3 SWAP2 POP POP JUMP JUMPDEST PUSH1 0x60 PUSH1 0x0 PUSH2 0x2D62 PUSH1 0x40 PUSH2 0x2DC7 JUMP JUMPDEST SWAP1 POP PUSH2 0x2D7B DUP4 PUSH1 0x0 ADD MLOAD DUP3 PUSH2 0x2DEE SWAP1 SWAP2 SWAP1 PUSH4 0xFFFFFFFF AND JUMP JUMPDEST PUSH2 0x2D84 DUP2 PUSH2 0x2DFE JUMP JUMPDEST SWAP2 POP POP SWAP2 SWAP1 POP JUMP JUMPDEST PUSH1 0x0 PUSH2 0x2DA1 DUP2 DUP4 PUSH2 0x30FF SWAP1 SWAP2 SWAP1 PUSH4 0xFFFFFFFF AND JUMP JUMPDEST DUP5 PUSH1 0x0 ADD DUP2 SWAP4 POP DUP3 PUSH8 0xFFFFFFFFFFFFFFFF AND PUSH8 0xFFFFFFFFFFFFFFFF AND DUP2 MSTORE POP POP POP POP POP POP JUMP JUMPDEST PUSH2 0x2DCF PUSH2 0x3DBE JUMP JUMPDEST PUSH2 0x2DDD DUP2 PUSH1 0x0 ADD MLOAD DUP4 PUSH2 0x314E JUMP JUMPDEST POP PUSH1 0x0 DUP2 PUSH1 0x20 ADD DUP2 DUP2 MSTORE POP POP SWAP2 SWAP1 POP JUMP JUMPDEST PUSH2 0x2DFA DUP3 PUSH1 0x0 DUP4 PUSH2 0x31C7 JUMP JUMPDEST POP POP JUMP JUMPDEST PUSH1 0x60 PUSH1 0x0 DUP3 PUSH1 0x20 ADD MLOAD EQ PUSH2 0x2E47 JUMPI PUSH1 0x40 MLOAD PUSH32 0x8C379A000000000000000000000000000000000000000000000000000000000 DUP2 MSTORE PUSH1 0x4 ADD PUSH2 0x2E3E SWAP1 PUSH2 0x5842 JUMP JUMPDEST PUSH1 0x40 MLOAD DUP1 SWAP2 SUB SWAP1 REVERT JUMPDEST DUP2 PUSH1 0x0 ADD MLOAD PUSH1 0x0 ADD MLOAD SWAP1 POP SWAP2 SWAP1 POP JUMP JUMPDEST PUSH1 0x0 DUP2 SWAP1 POP SWAP2 SWAP1 POP JUMP JUMPDEST PUSH1 0x60 PUSH1 0x0 DUP1 PUSH1 0x0 DUP1 PUSH2 0x2E80 PUSH2 0x2E75 DUP12 PUSH2 0x2E57 JUMP JUMPDEST DUP8 PUSH1 0x0 DUP11 DUP13 DUP15 PUSH2 0x3370 JUMP JUMPDEST SWAP4 POP SWAP4 POP SWAP4 POP SWAP4 POP PUSH1 0x0 DUP4 EQ PUSH2 0x2E95 DUP5 PUSH2 0x345E JUMP JUMPDEST PUSH1 0x40 MLOAD PUSH1 0x20 ADD PUSH2 0x2EA5 SWAP2 SWAP1 PUSH2 0x5888 JUMP JUMPDEST PUSH1 0x40 MLOAD PUSH1 0x20 DUP2 DUP4 SUB SUB DUP2 MSTORE SWAP1 PUSH1 0x40 MSTORE SWAP1 PUSH2 0x2EF5 JUMPI PUSH1 0x40 MLOAD PUSH32 0x8C379A000000000000000000000000000000000000000000000000000000000 DUP2 MSTORE PUSH1 0x4 ADD PUSH2 0x2EEC SWAP2 SWAP1 PUSH2 0x5355 JUMP JUMPDEST PUSH1 0x40 MLOAD DUP1 SWAP2 SUB SWAP1 REVERT JUMPDEST POP DUP1 SWAP5 POP POP POP POP POP SWAP6 SWAP5 POP POP POP POP POP JUMP JUMPDEST PUSH1 0x0 DUP1 PUSH1 0x0 DUP1 PUSH2 0x2F16 DUP7 DUP7 PUSH2 0x352C JUMP JUMPDEST DUP2 PUSH8 0xFFFFFFFFFFFFFFFF AND SWAP2 POP DUP1 SWAP8 POP DUP2 SWAP4 POP DUP3 SWAP5 POP POP POP POP PUSH1 0x4 PUSH1 0xFF AND DUP3 PUSH1 0xFF AND EQ PUSH2 0x2F46 JUMPI PUSH2 0x2F45 PUSH2 0x58AE JUMP JUMPDEST JUMPDEST DUP1 DUP6 SWAP4 POP SWAP4 POP POP POP SWAP3 POP SWAP3 SWAP1 POP JUMP JUMPDEST PUSH1 0x60 PUSH1 0x0 DUP1 PUSH1 0x0 PUSH2 0x2F66 DUP7 DUP7 PUSH2 0x352C JUMP JUMPDEST DUP2 PUSH8 0xFFFFFFFFFFFFFFFF AND SWAP2 POP DUP1 SWAP8 POP DUP2 SWAP4 POP DUP3 SWAP5 POP POP POP POP PUSH1 0x6 PUSH1 0xFF AND DUP3 PUSH1 0xFF AND EQ DUP1 PUSH2 0x2F9A JUMPI POP PUSH1 0x2 PUSH1 0xFF AND DUP3 PUSH1 0xFF AND EQ JUMPDEST PUSH2 0x2FA7 JUMPI PUSH2 0x2FA6 PUSH2 0x58AE JUMP JUMPDEST JUMPDEST PUSH1 0x6 PUSH1 0xFF AND DUP3 PUSH1 0xFF AND SUB PUSH2 0x2FF0 JUMPI PUSH2 0x2FBF DUP7 DUP7 PUSH2 0x352C JUMP JUMPDEST DUP2 PUSH8 0xFFFFFFFFFFFFFFFF AND SWAP2 POP DUP1 SWAP8 POP DUP2 SWAP4 POP DUP3 SWAP5 POP POP POP POP PUSH1 0x2 PUSH1 0xFF AND DUP3 PUSH1 0xFF AND EQ PUSH2 0x2FEF JUMPI PUSH2 0x2FEE PUSH2 0x58AE JUMP JUMPDEST JUMPDEST JUMPDEST PUSH1 0x0 DUP2 DUP7 PUSH2 0x2FFE SWAP2 SWAP1 PUSH2 0x501F JUMP JUMPDEST SWAP1 POP PUSH1 0x0 DUP3 PUSH8 0xFFFFFFFFFFFFFFFF DUP2 GT ISZERO PUSH2 0x301C JUMPI PUSH2 0x301B PUSH2 0x4156 JUMP JUMPDEST JUMPDEST PUSH1 0x40 MLOAD SWAP1 DUP1 DUP3 MSTORE DUP1 PUSH1 0x1F ADD PUSH1 0x1F NOT AND PUSH1 0x20 ADD DUP3 ADD PUSH1 0x40 MSTORE DUP1 ISZERO PUSH2 0x304E JUMPI DUP2 PUSH1 0x20 ADD PUSH1 0x1 DUP3 MUL DUP1 CALLDATASIZE DUP4 CALLDATACOPY DUP1 DUP3 ADD SWAP2 POP POP SWAP1 POP JUMPDEST POP SWAP1 POP PUSH1 0x0 DUP1 DUP9 SWAP1 POP JUMPDEST DUP4 DUP2 LT ISZERO PUSH2 0x30E1 JUMPI DUP10 DUP2 DUP2 MLOAD DUP2 LT PUSH2 0x3073 JUMPI PUSH2 0x3072 PUSH2 0x5107 JUMP JUMPDEST JUMPDEST PUSH1 0x20 ADD ADD MLOAD PUSH1 0xF8 SHR PUSH1 0xF8 SHL DUP4 DUP4 DUP2 MLOAD DUP2 LT PUSH2 0x3091 JUMPI PUSH2 0x3090 PUSH2 0x5107 JUMP JUMPDEST JUMPDEST PUSH1 0x20 ADD ADD SWAP1 PUSH31 0xFFFFFFFFFFFFFFFFFFFFFFFFFFFFFFFFFFFFFFFFFFFFFFFFFFFFFFFFFFFFFF NOT AND SWAP1 DUP2 PUSH1 0x0 BYTE SWAP1 MSTORE8 POP DUP2 DUP1 PUSH2 0x30CB SWAP1 PUSH2 0x5136 JUMP JUMPDEST SWAP3 POP POP DUP1 DUP1 PUSH2 0x30D9 SWAP1 PUSH2 0x5136 JUMP JUMPDEST SWAP2 POP POP PUSH2 0x3058 JUMP JUMPDEST POP DUP2 DUP5 DUP10 PUSH2 0x30EF SWAP2 SWAP1 PUSH2 0x501F JUMP JUMPDEST SWAP7 POP SWAP7 POP POP POP POP POP POP SWAP3 POP SWAP3 SWAP1 POP JUMP JUMPDEST PUSH1 0x0 DUP1 PUSH1 0x0 DUP1 PUSH2 0x310F DUP7 DUP7 PUSH2 0x352C JUMP JUMPDEST DUP2 PUSH8 0xFFFFFFFFFFFFFFFF AND SWAP2 POP DUP1 SWAP8 POP DUP2 SWAP4 POP DUP3 SWAP5 POP POP POP POP PUSH1 0x0 PUSH1 0xFF AND DUP3 PUSH1 0xFF AND EQ PUSH2 0x313F JUMPI PUSH2 0x313E PUSH2 0x58AE JUMP JUMPDEST JUMPDEST DUP1 DUP6 SWAP4 POP SWAP4 POP POP POP SWAP3 POP SWAP3 SWAP1 POP JUMP JUMPDEST PUSH2 0x3156 PUSH2 0x3DDE JUMP JUMPDEST PUSH1 0x0 PUSH1 0x20 DUP4 PUSH2 0x3165 SWAP2 SWAP1 PUSH2 0x58DD JUMP JUMPDEST EQ PUSH2 0x3191 JUMPI PUSH1 0x20 DUP3 PUSH2 0x3177 SWAP2 SWAP1 PUSH2 0x58DD JUMP JUMPDEST PUSH1 0x20 PUSH2 0x3183 SWAP2 SWAP1 PUSH2 0x5377 JUMP JUMPDEST DUP3 PUSH2 0x318E SWAP2 SWAP1 PUSH2 0x501F JUMP JUMPDEST SWAP2 POP JUMPDEST DUP2 DUP4 PUSH1 0x20 ADD DUP2 DUP2 MSTORE POP POP PUSH1 0x40 MLOAD DUP1 DUP5 MSTORE PUSH1 0x0 DUP2 MSTORE DUP3 DUP2 ADD PUSH1 0x20 ADD DUP2 DUP2 LT ISZERO PUSH2 0x31B8 JUMPI PUSH1 0x0 DUP1 REVERT JUMPDEST DUP1 PUSH1 0x40 MSTORE POP POP DUP3 SWAP1 POP SWAP3 SWAP2 POP POP JUMP JUMPDEST PUSH1 0x17 DUP2 PUSH8 0xFFFFFFFFFFFFFFFF AND GT PUSH2 0x3202 JUMPI PUSH2 0x31FC DUP2 PUSH1 0x5 DUP5 PUSH1 0xFF AND SWAP1 SHL PUSH1 0xFF AND OR DUP5 PUSH1 0x0 ADD MLOAD PUSH2 0x36BA SWAP1 SWAP2 SWAP1 PUSH4 0xFFFFFFFF AND JUMP JUMPDEST POP PUSH2 0x336B JUMP JUMPDEST PUSH1 0xFF DUP2 PUSH8 0xFFFFFFFFFFFFFFFF AND GT PUSH2 0x3260 JUMPI PUSH2 0x3235 PUSH1 0x18 PUSH1 0x5 DUP5 PUSH1 0xFF AND SWAP1 SHL OR DUP5 PUSH1 0x0 ADD MLOAD PUSH2 0x36BA SWAP1 SWAP2 SWAP1 PUSH4 0xFFFFFFFF AND JUMP JUMPDEST POP PUSH2 0x325A DUP2 PUSH8 0xFFFFFFFFFFFFFFFF AND PUSH1 0x1 DUP6 PUSH1 0x0 ADD MLOAD PUSH2 0x3724 SWAP1 SWAP3 SWAP2 SWAP1 PUSH4 0xFFFFFFFF AND JUMP JUMPDEST POP PUSH2 0x336A JUMP JUMPDEST PUSH2 0xFFFF DUP2 PUSH8 0xFFFFFFFFFFFFFFFF AND GT PUSH2 0x32BF JUMPI PUSH2 0x3294 PUSH1 0x19 PUSH1 0x5 DUP5 PUSH1 0xFF AND SWAP1 SHL OR DUP5 PUSH1 0x0 ADD MLOAD PUSH2 0x36BA SWAP1 SWAP2 SWAP1 PUSH4 0xFFFFFFFF AND JUMP JUMPDEST POP PUSH2 0x32B9 DUP2 PUSH8 0xFFFFFFFFFFFFFFFF AND PUSH1 0x2 DUP6 PUSH1 0x0 ADD MLOAD PUSH2 0x3724 SWAP1 SWAP3 SWAP2 SWAP1 PUSH4 0xFFFFFFFF AND JUMP JUMPDEST POP PUSH2 0x3369 JUMP JUMPDEST PUSH4 0xFFFFFFFF DUP2 PUSH8 0xFFFFFFFFFFFFFFFF AND GT PUSH2 0x3320 JUMPI PUSH2 0x32F5 PUSH1 0x1A PUSH1 0x5 DUP5 PUSH1 0xFF AND SWAP1 SHL OR DUP5 PUSH1 0x0 ADD MLOAD PUSH2 0x36BA SWAP1 SWAP2 SWAP1 PUSH4 0xFFFFFFFF AND JUMP JUMPDEST POP PUSH2 0x331A DUP2 PUSH8 0xFFFFFFFFFFFFFFFF AND PUSH1 0x4 DUP6 PUSH1 0x0 ADD MLOAD PUSH2 0x3724 SWAP1 SWAP3 SWAP2 SWAP1 PUSH4 0xFFFFFFFF AND JUMP JUMPDEST POP PUSH2 0x3368 JUMP JUMPDEST PUSH2 0x3341 PUSH1 0x1B PUSH1 0x5 DUP5 PUSH1 0xFF AND SWAP1 SHL OR DUP5 PUSH1 0x0 ADD MLOAD PUSH2 0x36BA SWAP1 SWAP2 SWAP1 PUSH4 0xFFFFFFFF AND JUMP JUMPDEST POP PUSH2 0x3366 DUP2 PUSH8 0xFFFFFFFFFFFFFFFF AND PUSH1 0x8 DUP6 PUSH1 0x0 ADD MLOAD PUSH2 0x3724 SWAP1 SWAP3 SWAP2 SWAP1 PUSH4 0xFFFFFFFF AND JUMP JUMPDEST POP JUMPDEST JUMPDEST JUMPDEST JUMPDEST POP POP POP JUMP JUMPDEST PUSH1 0x0 DUP1 PUSH1 0x0 PUSH1 0x60 PUSH1 0x0 DUP1 PUSH20 0xFE00000000000000000000000000000000000003 PUSH20 0xFFFFFFFFFFFFFFFFFFFFFFFFFFFFFFFFFFFFFFFF AND DUP13 DUP13 DUP13 DUP13 DUP13 DUP13 PUSH1 0x40 MLOAD PUSH1 0x20 ADD PUSH2 0x33C0 SWAP7 SWAP6 SWAP5 SWAP4 SWAP3 SWAP2 SWAP1 PUSH2 0x590E JUMP JUMPDEST PUSH1 0x40 MLOAD PUSH1 0x20 DUP2 DUP4 SUB SUB DUP2 MSTORE SWAP1 PUSH1 0x40 MSTORE PUSH1 0x40 MLOAD PUSH2 0x33DC SWAP2 SWAP1 PUSH2 0x4DDD JUMP JUMPDEST PUSH1 0x0 PUSH1 0x40 MLOAD DUP1 DUP4 SUB DUP2 DUP6 GAS DELEGATECALL SWAP2 POP POP RETURNDATASIZE DUP1 PUSH1 0x0 DUP2 EQ PUSH2 0x3417 JUMPI PUSH1 0x40 MLOAD SWAP2 POP PUSH1 0x1F NOT PUSH1 0x3F RETURNDATASIZE ADD AND DUP3 ADD PUSH1 0x40 MSTORE RETURNDATASIZE DUP3 MSTORE RETURNDATASIZE PUSH1 0x0 PUSH1 0x20 DUP5 ADD RETURNDATACOPY PUSH2 0x341C JUMP JUMPDEST PUSH1 0x60 SWAP2 POP JUMPDEST POP SWAP2 POP SWAP2 POP PUSH1 0x0 DUP1 PUSH1 0x0 DUP4 DUP1 PUSH1 0x20 ADD SWAP1 MLOAD DUP2 ADD SWAP1 PUSH2 0x343A SWAP2 SWAP1 PUSH2 0x5689 JUMP JUMPDEST SWAP3 POP SWAP3 POP SWAP3 POP DUP5 DUP4 DUP4 DUP4 SWAP9 POP SWAP9 POP SWAP9 POP SWAP9 POP POP POP POP POP POP SWAP7 POP SWAP7 POP SWAP7 POP SWAP7 SWAP3 POP POP POP JUMP JUMPDEST PUSH1 0x60 PUSH1 0x0 PUSH1 0x1 PUSH2 0x346D DUP5 PUSH2 0x37B1 JUMP JUMPDEST ADD SWAP1 POP PUSH1 0x0 DUP2 PUSH8 0xFFFFFFFFFFFFFFFF DUP2 GT ISZERO PUSH2 0x348C JUMPI PUSH2 0x348B PUSH2 0x4156 JUMP JUMPDEST JUMPDEST PUSH1 0x40 MLOAD SWAP1 DUP1 DUP3 MSTORE DUP1 PUSH1 0x1F ADD PUSH1 0x1F NOT AND PUSH1 0x20 ADD DUP3 ADD PUSH1 0x40 MSTORE DUP1 ISZERO PUSH2 0x34BE JUMPI DUP2 PUSH1 0x20 ADD PUSH1 0x1 DUP3 MUL DUP1 CALLDATASIZE DUP4 CALLDATACOPY DUP1 DUP3 ADD SWAP2 POP POP SWAP1 POP JUMPDEST POP SWAP1 POP PUSH1 0x0 DUP3 PUSH1 0x20 ADD DUP3 ADD SWAP1 POP JUMPDEST PUSH1 0x1 ISZERO PUSH2 0x3521 JUMPI DUP1 DUP1 PUSH1 0x1 SWAP1 SUB SWAP2 POP POP PUSH32 0x3031323334353637383961626364656600000000000000000000000000000000 PUSH1 0xA DUP7 MOD BYTE DUP2 MSTORE8 PUSH1 0xA DUP6 DUP2 PUSH2 0x3515 JUMPI PUSH2 0x3514 PUSH2 0x53AB JUMP JUMPDEST JUMPDEST DIV SWAP5 POP PUSH1 0x0 DUP6 SUB PUSH2 0x34CC JUMPI JUMPDEST DUP2 SWAP4 POP POP POP POP SWAP2 SWAP1 POP JUMP JUMPDEST PUSH1 0x0 DUP1 PUSH1 0x0 DUP1 PUSH2 0x353C DUP7 DUP7 PUSH2 0x3904 JUMP JUMPDEST SWAP1 POP PUSH1 0x1 DUP6 PUSH2 0x354B SWAP2 SWAP1 PUSH2 0x501F JUMP JUMPDEST SWAP5 POP PUSH1 0x0 PUSH1 0x5 PUSH1 0xE0 DUP4 AND PUSH1 0xFF AND SWAP1 SHR SWAP1 POP PUSH1 0x0 PUSH1 0x1F DUP4 AND SWAP1 POP PUSH1 0x1C DUP2 PUSH1 0xFF AND LT PUSH2 0x3578 JUMPI PUSH2 0x3577 PUSH2 0x58AE JUMP JUMPDEST JUMPDEST PUSH1 0x18 DUP2 PUSH1 0xFF AND LT ISZERO PUSH2 0x359B JUMPI DUP2 DUP2 DUP9 DUP2 PUSH1 0xFF AND SWAP2 POP SWAP6 POP SWAP6 POP SWAP6 POP POP POP POP PUSH2 0x36B3 JUMP JUMPDEST PUSH1 0x18 DUP2 PUSH1 0xFF AND SUB PUSH2 0x35F0 JUMPI PUSH1 0x0 PUSH2 0x35B2 DUP10 DUP10 PUSH2 0x3904 JUMP JUMPDEST SWAP1 POP PUSH1 0x1 DUP9 PUSH2 0x35C1 SWAP2 SWAP1 PUSH2 0x501F JUMP JUMPDEST SWAP8 POP PUSH1 0x18 DUP2 PUSH1 0xFF AND LT ISZERO PUSH2 0x35D8 JUMPI PUSH2 0x35D7 PUSH2 0x58AE JUMP JUMPDEST JUMPDEST DUP3 DUP2 DUP10 DUP2 PUSH1 0xFF AND SWAP2 POP SWAP7 POP SWAP7 POP SWAP7 POP POP POP POP POP PUSH2 0x36B3 JUMP JUMPDEST PUSH1 0x19 DUP2 PUSH1 0xFF AND SUB PUSH2 0x3631 JUMPI PUSH1 0x0 PUSH2 0x3607 DUP10 DUP10 PUSH2 0x396B JUMP JUMPDEST SWAP1 POP PUSH1 0x2 DUP9 PUSH2 0x3616 SWAP2 SWAP1 PUSH2 0x501F JUMP JUMPDEST SWAP8 POP DUP3 DUP2 DUP10 DUP2 PUSH2 0xFFFF AND SWAP2 POP SWAP7 POP SWAP7 POP SWAP7 POP POP POP POP POP PUSH2 0x36B3 JUMP JUMPDEST PUSH1 0x1A DUP2 PUSH1 0xFF AND SUB PUSH2 0x3674 JUMPI PUSH1 0x0 PUSH2 0x3648 DUP10 DUP10 PUSH2 0x39D2 JUMP JUMPDEST SWAP1 POP PUSH1 0x4 DUP9 PUSH2 0x3657 SWAP2 SWAP1 PUSH2 0x501F JUMP JUMPDEST SWAP8 POP DUP3 DUP2 DUP10 DUP2 PUSH4 0xFFFFFFFF AND SWAP2 POP SWAP7 POP SWAP7 POP SWAP7 POP POP POP POP POP PUSH2 0x36B3 JUMP JUMPDEST PUSH1 0x1B DUP2 PUSH1 0xFF AND EQ PUSH2 0x3688 JUMPI PUSH2 0x3687 PUSH2 0x58AE JUMP JUMPDEST JUMPDEST PUSH1 0x0 PUSH2 0x3694 DUP10 DUP10 PUSH2 0x3A39 JUMP JUMPDEST SWAP1 POP PUSH1 0x8 DUP9 PUSH2 0x36A3 SWAP2 SWAP1 PUSH2 0x501F JUMP JUMPDEST SWAP8 POP DUP3 DUP2 DUP10 SWAP7 POP SWAP7 POP SWAP7 POP POP POP POP POP JUMPDEST SWAP3 POP SWAP3 POP SWAP3 JUMP JUMPDEST PUSH2 0x36C2 PUSH2 0x3DDE JUMP JUMPDEST PUSH1 0x0 DUP4 PUSH1 0x0 ADD MLOAD MLOAD SWAP1 POP PUSH1 0x0 PUSH1 0x1 DUP3 PUSH2 0x36DB SWAP2 SWAP1 PUSH2 0x501F JUMP JUMPDEST SWAP1 POP DUP5 PUSH1 0x20 ADD MLOAD DUP3 LT PUSH2 0x36FF JUMPI PUSH2 0x36FE DUP6 PUSH1 0x2 DUP4 PUSH2 0x36F9 SWAP2 SWAP1 PUSH2 0x5477 JUMP JUMPDEST PUSH2 0x3AA0 JUMP JUMPDEST JUMPDEST DUP5 MLOAD PUSH1 0x20 DUP4 DUP3 ADD ADD DUP6 DUP2 MSTORE8 DUP2 MLOAD DUP4 GT ISZERO PUSH2 0x3717 JUMPI DUP3 DUP3 MSTORE JUMPDEST POP POP DUP5 SWAP3 POP POP POP SWAP3 SWAP2 POP POP JUMP JUMPDEST PUSH2 0x372C PUSH2 0x3DDE JUMP JUMPDEST PUSH1 0x0 DUP5 PUSH1 0x0 ADD MLOAD MLOAD SWAP1 POP PUSH1 0x0 DUP2 DUP5 PUSH2 0x3744 SWAP2 SWAP1 PUSH2 0x501F JUMP JUMPDEST SWAP1 POP DUP6 PUSH1 0x20 ADD MLOAD DUP2 GT ISZERO PUSH2 0x3769 JUMPI PUSH2 0x3768 DUP7 PUSH1 0x2 DUP4 PUSH2 0x3763 SWAP2 SWAP1 PUSH2 0x5477 JUMP JUMPDEST PUSH2 0x3AA0 JUMP JUMPDEST JUMPDEST PUSH1 0x0 PUSH1 0x1 DUP6 PUSH2 0x100 PUSH2 0x377B SWAP2 SWAP1 PUSH2 0x5AB0 JUMP JUMPDEST PUSH2 0x3785 SWAP2 SWAP1 PUSH2 0x5377 JUMP JUMPDEST SWAP1 POP DUP7 MLOAD DUP3 DUP2 ADD DUP8 DUP4 NOT DUP3 MLOAD AND OR DUP2 MSTORE DUP2 MLOAD DUP5 GT ISZERO PUSH2 0x37A2 JUMPI DUP4 DUP3 MSTORE JUMPDEST POP POP DUP7 SWAP4 POP POP POP POP SWAP4 SWAP3 POP POP POP JUMP JUMPDEST PUSH1 0x0 DUP1 PUSH1 0x0 SWAP1 POP PUSH27 0x184F03E93FF9F4DAA797ED6E38ED64BF6A1F010000000000000000 DUP4 LT PUSH2 0x380F JUMPI PUSH27 0x184F03E93FF9F4DAA797ED6E38ED64BF6A1F010000000000000000 DUP4 DUP2 PUSH2 0x3805 JUMPI PUSH2 0x3804 PUSH2 0x53AB JUMP JUMPDEST JUMPDEST DIV SWAP3 POP PUSH1 0x40 DUP2 ADD SWAP1 POP JUMPDEST PUSH14 0x4EE2D6D415B85ACEF8100000000 DUP4 LT PUSH2 0x384C JUMPI PUSH14 0x4EE2D6D415B85ACEF8100000000 DUP4 DUP2 PUSH2 0x3842 JUMPI PUSH2 0x3841 PUSH2 0x53AB JUMP JUMPDEST JUMPDEST DIV SWAP3 POP PUSH1 0x20 DUP2 ADD SWAP1 POP JUMPDEST PUSH7 0x2386F26FC10000 DUP4 LT PUSH2 0x387B JUMPI PUSH7 0x2386F26FC10000 DUP4 DUP2 PUSH2 0x3871 JUMPI PUSH2 0x3870 PUSH2 0x53AB JUMP JUMPDEST JUMPDEST DIV SWAP3 POP PUSH1 0x10 DUP2 ADD SWAP1 POP JUMPDEST PUSH4 0x5F5E100 DUP4 LT PUSH2 0x38A4 JUMPI PUSH4 0x5F5E100 DUP4 DUP2 PUSH2 0x389A JUMPI PUSH2 0x3899 PUSH2 0x53AB JUMP JUMPDEST JUMPDEST DIV SWAP3 POP PUSH1 0x8 DUP2 ADD SWAP1 POP JUMPDEST PUSH2 0x2710 DUP4 LT PUSH2 0x38C9 JUMPI PUSH2 0x2710 DUP4 DUP2 PUSH2 0x38BF JUMPI PUSH2 0x38BE PUSH2 0x53AB JUMP JUMPDEST JUMPDEST DIV SWAP3 POP PUSH1 0x4 DUP2 ADD SWAP1 POP JUMPDEST PUSH1 0x64 DUP4 LT PUSH2 0x38EC JUMPI PUSH1 0x64 DUP4 DUP2 PUSH2 0x38E2 JUMPI PUSH2 0x38E1 PUSH2 0x53AB JUMP JUMPDEST JUMPDEST DIV SWAP3 POP PUSH1 0x2 DUP2 ADD SWAP1 POP JUMPDEST PUSH1 0xA DUP4 LT PUSH2 0x38FB JUMPI PUSH1 0x1 DUP2 ADD SWAP1 POP JUMPDEST DUP1 SWAP2 POP POP SWAP2 SWAP1 POP JUMP JUMPDEST PUSH1 0x0 PUSH1 0x1 DUP3 PUSH2 0x3913 SWAP2 SWAP1 PUSH2 0x501F JUMP JUMPDEST DUP4 MLOAD LT ISZERO PUSH2 0x3956 JUMPI PUSH1 0x40 MLOAD PUSH32 0x8C379A000000000000000000000000000000000000000000000000000000000 DUP2 MSTORE PUSH1 0x4 ADD PUSH2 0x394D SWAP1 PUSH2 0x5B47 JUMP JUMPDEST PUSH1 0x40 MLOAD DUP1 SWAP2 SUB SWAP1 REVERT JUMPDEST PUSH1 0x0 DUP3 PUSH1 0x1 ADD DUP5 ADD MLOAD SWAP1 POP DUP1 SWAP2 POP POP SWAP3 SWAP2 POP POP JUMP JUMPDEST PUSH1 0x0 PUSH1 0x2 DUP3 PUSH2 0x397A SWAP2 SWAP1 PUSH2 0x501F JUMP JUMPDEST DUP4 MLOAD LT ISZERO PUSH2 0x39BD JUMPI PUSH1 0x40 MLOAD PUSH32 0x8C379A000000000000000000000000000000000000000000000000000000000 DUP2 MSTORE PUSH1 0x4 ADD PUSH2 0x39B4 SWAP1 PUSH2 0x5B47 JUMP JUMPDEST PUSH1 0x40 MLOAD DUP1 SWAP2 SUB SWAP1 REVERT JUMPDEST PUSH1 0x0 DUP3 PUSH1 0x2 ADD DUP5 ADD MLOAD SWAP1 POP DUP1 SWAP2 POP POP SWAP3 SWAP2 POP POP JUMP JUMPDEST PUSH1 0x0 PUSH1 0x4 DUP3 PUSH2 0x39E1 SWAP2 SWAP1 PUSH2 0x501F JUMP JUMPDEST DUP4 MLOAD LT ISZERO PUSH2 0x3A24 JUMPI PUSH1 0x40 MLOAD PUSH32 0x8C379A000000000000000000000000000000000000000000000000000000000 DUP2 MSTORE PUSH1 0x4 ADD PUSH2 0x3A1B SWAP1 PUSH2 0x5B47 JUMP JUMPDEST PUSH1 0x40 MLOAD DUP1 SWAP2 SUB SWAP1 REVERT JUMPDEST PUSH1 0x0 DUP3 PUSH1 0x4 ADD DUP5 ADD MLOAD SWAP1 POP DUP1 SWAP2 POP POP SWAP3 SWAP2 POP POP JUMP JUMPDEST PUSH1 0x0 PUSH1 0x8 DUP3 PUSH2 0x3A48 SWAP2 SWAP1 PUSH2 0x501F JUMP JUMPDEST DUP4 MLOAD LT ISZERO PUSH2 0x3A8B JUMPI PUSH1 0x40 MLOAD PUSH32 0x8C379A000000000000000000000000000000000000000000000000000000000 DUP2 MSTORE PUSH1 0x4 ADD PUSH2 0x3A82 SWAP1 PUSH2 0x5B47 JUMP JUMPDEST PUSH1 0x40 MLOAD DUP1 SWAP2 SUB SWAP1 REVERT JUMPDEST PUSH1 0x0 DUP3 PUSH1 0x8 ADD DUP5 ADD MLOAD SWAP1 POP DUP1 SWAP2 POP POP SWAP3 SWAP2 POP POP JUMP JUMPDEST PUSH1 0x0 DUP3 PUSH1 0x0 ADD MLOAD SWAP1 POP PUSH2 0x3AB3 DUP4 DUP4 PUSH2 0x314E JUMP JUMPDEST POP PUSH2 0x3ABE DUP4 DUP3 PUSH2 0x3AC4 JUMP JUMPDEST POP POP POP POP JUMP JUMPDEST PUSH2 0x3ACC PUSH2 0x3DDE JUMP JUMPDEST PUSH2 0x3AD8 DUP4 DUP4 DUP5 MLOAD PUSH2 0x3AE0 JUMP JUMPDEST SWAP1 POP SWAP3 SWAP2 POP POP JUMP JUMPDEST PUSH2 0x3AE8 PUSH2 0x3DDE JUMP JUMPDEST DUP3 MLOAD DUP3 GT ISZERO PUSH2 0x3AF6 JUMPI PUSH1 0x0 DUP1 REVERT JUMPDEST PUSH1 0x0 DUP5 PUSH1 0x0 ADD MLOAD MLOAD SWAP1 POP PUSH1 0x0 DUP4 DUP3 PUSH2 0x3B0E SWAP2 SWAP1 PUSH2 0x501F JUMP JUMPDEST SWAP1 POP DUP6 PUSH1 0x20 ADD MLOAD DUP2 GT ISZERO PUSH2 0x3B33 JUMPI PUSH2 0x3B32 DUP7 PUSH1 0x2 DUP4 PUSH2 0x3B2D SWAP2 SWAP1 PUSH2 0x5477 JUMP JUMPDEST PUSH2 0x3AA0 JUMP JUMPDEST JUMPDEST PUSH1 0x0 DUP1 DUP8 MLOAD DUP1 MLOAD DUP6 PUSH1 0x20 DUP4 ADD ADD SWAP4 POP DUP1 DUP6 GT ISZERO PUSH2 0x3B4E JUMPI DUP5 DUP3 MSTORE JUMPDEST PUSH1 0x20 DUP10 ADD SWAP3 POP POP POP JUMPDEST PUSH1 0x20 DUP7 LT PUSH2 0x3B95 JUMPI DUP1 MLOAD DUP3 MSTORE PUSH1 0x20 DUP3 PUSH2 0x3B70 SWAP2 SWAP1 PUSH2 0x501F JUMP JUMPDEST SWAP2 POP PUSH1 0x20 DUP2 PUSH2 0x3B7F SWAP2 SWAP1 PUSH2 0x501F JUMP JUMPDEST SWAP1 POP PUSH1 0x20 DUP7 PUSH2 0x3B8E SWAP2 SWAP1 PUSH2 0x5377 JUMP JUMPDEST SWAP6 POP PUSH2 0x3B57 JUMP JUMPDEST PUSH1 0x0 PUSH1 0x1 DUP8 PUSH1 0x20 SUB PUSH2 0x100 EXP SUB SWAP1 POP DUP1 NOT DUP3 MLOAD AND DUP2 DUP5 MLOAD AND DUP2 DUP2 OR DUP6 MSTORE POP POP POP DUP8 SWAP5 POP POP POP POP POP SWAP4 SWAP3 POP POP POP JUMP JUMPDEST PUSH1 0x40 MLOAD DUP1 PUSH1 0x60 ADD PUSH1 0x40 MSTORE DUP1 PUSH1 0x0 DUP2 MSTORE PUSH1 0x20 ADD PUSH1 0x0 DUP2 MSTORE PUSH1 0x20 ADD PUSH1 0x0 DUP2 MSTORE POP SWAP1 JUMP JUMPDEST PUSH1 0x40 MLOAD DUP1 PUSH2 0x160 ADD PUSH1 0x40 MSTORE DUP1 PUSH1 0x0 DUP2 MSTORE PUSH1 0x20 ADD PUSH1 0x60 DUP2 MSTORE PUSH1 0x20 ADD PUSH1 0x60 DUP2 MSTORE PUSH1 0x20 ADD PUSH1 0x0 PUSH20 0xFFFFFFFFFFFFFFFFFFFFFFFFFFFFFFFFFFFFFFFF AND DUP2 MSTORE PUSH1 0x20 ADD PUSH1 0x60 DUP2 MSTORE PUSH1 0x20 ADD PUSH1 0x0 DUP2 MSTORE PUSH1 0x20 ADD PUSH1 0x0 DUP2 MSTORE PUSH1 0x20 ADD PUSH1 0x0 DUP2 MSTORE PUSH1 0x20 ADD PUSH1 0x0 DUP2 MSTORE PUSH1 0x20 ADD PUSH1 0x0 DUP2 MSTORE PUSH1 0x20 ADD PUSH1 0x60 DUP2 MSTORE POP SWAP1 JUMP JUMPDEST DUP3 DUP1 SLOAD PUSH2 0x3C60 SWAP1 PUSH2 0x4C72 JUMP JUMPDEST SWAP1 PUSH1 0x0 MSTORE PUSH1 0x20 PUSH1 0x0 KECCAK256 SWAP1 PUSH1 0x1F ADD PUSH1 0x20 SWAP1 DIV DUP2 ADD SWAP3 DUP3 PUSH2 0x3C82 JUMPI PUSH1 0x0 DUP6 SSTORE PUSH2 0x3CC9 JUMP JUMPDEST DUP3 PUSH1 0x1F LT PUSH2 0x3C9B JUMPI DUP1 MLOAD PUSH1 0xFF NOT AND DUP4 DUP1 ADD OR DUP6 SSTORE PUSH2 0x3CC9 JUMP JUMPDEST DUP3 DUP1 ADD PUSH1 0x1 ADD DUP6 SSTORE DUP3 ISZERO PUSH2 0x3CC9 JUMPI SWAP2 DUP3 ADD JUMPDEST DUP3 DUP2 GT ISZERO PUSH2 0x3CC8 JUMPI DUP3 MLOAD DUP3 SSTORE SWAP2 PUSH1 0x20 ADD SWAP2 SWAP1 PUSH1 0x1 ADD SWAP1 PUSH2 0x3CAD JUMP JUMPDEST JUMPDEST POP SWAP1 POP PUSH2 0x3CD6 SWAP2 SWAP1 PUSH2 0x3DF8 JUMP JUMPDEST POP SWAP1 JUMP JUMPDEST DUP3 DUP1 SLOAD PUSH2 0x3CE6 SWAP1 PUSH2 0x4C72 JUMP JUMPDEST SWAP1 PUSH1 0x0 MSTORE PUSH1 0x20 PUSH1 0x0 KECCAK256 SWAP1 PUSH1 0x1F ADD PUSH1 0x20 SWAP1 DIV DUP2 ADD SWAP3 DUP3 PUSH2 0x3D08 JUMPI PUSH1 0x0 DUP6 SSTORE PUSH2 0x3D4F JUMP JUMPDEST DUP3 PUSH1 0x1F LT PUSH2 0x3D21 JUMPI DUP1 MLOAD PUSH1 0xFF NOT AND DUP4 DUP1 ADD OR DUP6 SSTORE PUSH2 0x3D4F JUMP JUMPDEST DUP3 DUP1 ADD PUSH1 0x1 ADD DUP6 SSTORE DUP3 ISZERO PUSH2 0x3D4F JUMPI SWAP2 DUP3 ADD JUMPDEST DUP3 DUP2 GT ISZERO PUSH2 0x3D4E JUMPI DUP3 MLOAD DUP3 SSTORE SWAP2 PUSH1 0x20 ADD SWAP2 SWAP1 PUSH1 0x1 ADD SWAP1 PUSH2 0x3D33 JUMP JUMPDEST JUMPDEST POP SWAP1 POP PUSH2 0x3D5C SWAP2 SWAP1 PUSH2 0x3DF8 JUMP JUMPDEST POP SWAP1 JUMP JUMPDEST PUSH1 0x40 MLOAD DUP1 PUSH1 0x40 ADD PUSH1 0x40 MSTORE DUP1 PUSH1 0x60 DUP2 MSTORE PUSH1 0x20 ADD PUSH1 0x0 PUSH8 0xFFFFFFFFFFFFFFFF AND DUP2 MSTORE POP SWAP1 JUMP JUMPDEST PUSH1 0x40 MLOAD DUP1 PUSH1 0x20 ADD PUSH1 0x40 MSTORE DUP1 PUSH1 0x0 PUSH8 0xFFFFFFFFFFFFFFFF AND DUP2 MSTORE POP SWAP1 JUMP JUMPDEST PUSH1 0x40 MLOAD DUP1 PUSH1 0x20 ADD PUSH1 0x40 MSTORE DUP1 PUSH1 0x0 PUSH8 0xFFFFFFFFFFFFFFFF AND DUP2 MSTORE POP SWAP1 JUMP JUMPDEST PUSH1 0x40 MLOAD DUP1 PUSH1 0x40 ADD PUSH1 0x40 MSTORE DUP1 PUSH2 0x3DD1 PUSH2 0x3DDE JUMP JUMPDEST DUP2 MSTORE PUSH1 0x20 ADD PUSH1 0x0 DUP2 MSTORE POP SWAP1 JUMP JUMPDEST PUSH1 0x40 MLOAD DUP1 PUSH1 0x40 ADD PUSH1 0x40 MSTORE DUP1 PUSH1 0x60 DUP2 MSTORE PUSH1 0x20 ADD PUSH1 0x0 DUP2 MSTORE POP SWAP1 JUMP JUMPDEST JUMPDEST DUP1 DUP3 GT ISZERO PUSH2 0x3E11 JUMPI PUSH1 0x0 DUP2 PUSH1 0x0 SWAP1 SSTORE POP PUSH1 0x1 ADD PUSH2 0x3DF9 JUMP JUMPDEST POP SWAP1 JUMP JUMPDEST PUSH1 0x0 PUSH1 0x40 MLOAD SWAP1 POP SWAP1 JUMP JUMPDEST PUSH1 0x0 DUP1 REVERT JUMPDEST PUSH1 0x0 DUP1 REVERT JUMPDEST PUSH1 0x0 DUP2 SWAP1 POP SWAP2 SWAP1 POP JUMP JUMPDEST PUSH2 0x3E3C DUP2 PUSH2 0x3E29 JUMP JUMPDEST DUP2 EQ PUSH2 0x3E47 JUMPI PUSH1 0x0 DUP1 REVERT JUMPDEST POP JUMP JUMPDEST PUSH1 0x0 DUP2 CALLDATALOAD SWAP1 POP PUSH2 0x3E59 DUP2 PUSH2 0x3E33 JUMP JUMPDEST SWAP3 SWAP2 POP POP JUMP JUMPDEST PUSH1 0x0 PUSH1 0x20 DUP3 DUP5 SUB SLT ISZERO PUSH2 0x3E75 JUMPI PUSH2 0x3E74 PUSH2 0x3E1F JUMP JUMPDEST JUMPDEST PUSH1 0x0 PUSH2 0x3E83 DUP5 DUP3 DUP6 ADD PUSH2 0x3E4A JUMP JUMPDEST SWAP2 POP POP SWAP3 SWAP2 POP POP JUMP JUMPDEST PUSH2 0x3E95 DUP2 PUSH2 0x3E29 JUMP JUMPDEST DUP3 MSTORE POP POP JUMP JUMPDEST PUSH1 0x0 DUP2 MLOAD SWAP1 POP SWAP2 SWAP1 POP JUMP JUMPDEST PUSH1 0x0 DUP3 DUP3 MSTORE PUSH1 0x20 DUP3 ADD SWAP1 POP SWAP3 SWAP2 POP POP JUMP JUMPDEST PUSH1 0x0 JUMPDEST DUP4 DUP2 LT ISZERO PUSH2 0x3ED5 JUMPI DUP1 DUP3 ADD MLOAD DUP2 DUP5 ADD MSTORE PUSH1 0x20 DUP2 ADD SWAP1 POP PUSH2 0x3EBA JUMP JUMPDEST DUP4 DUP2 GT ISZERO PUSH2 0x3EE4 JUMPI PUSH1 0x0 DUP5 DUP5 ADD MSTORE JUMPDEST POP POP POP POP JUMP JUMPDEST PUSH1 0x0 PUSH1 0x1F NOT PUSH1 0x1F DUP4 ADD AND SWAP1 POP SWAP2 SWAP1 POP JUMP JUMPDEST PUSH1 0x0 PUSH2 0x3F06 DUP3 PUSH2 0x3E9B JUMP JUMPDEST PUSH2 0x3F10 DUP2 DUP6 PUSH2 0x3EA6 JUMP JUMPDEST SWAP4 POP PUSH2 0x3F20 DUP2 DUP6 PUSH1 0x20 DUP7 ADD PUSH2 0x3EB7 JUMP JUMPDEST PUSH2 0x3F29 DUP2 PUSH2 0x3EEA JUMP JUMPDEST DUP5 ADD SWAP2 POP POP SWAP3 SWAP2 POP POP JUMP JUMPDEST PUSH1 0x0 PUSH20 0xFFFFFFFFFFFFFFFFFFFFFFFFFFFFFFFFFFFFFFFF DUP3 AND SWAP1 POP SWAP2 SWAP1 POP JUMP JUMPDEST PUSH1 0x0 PUSH2 0x3F5F DUP3 PUSH2 0x3F34 JUMP JUMPDEST SWAP1 POP SWAP2 SWAP1 POP JUMP JUMPDEST PUSH2 0x3F6F DUP2 PUSH2 0x3F54 JUMP JUMPDEST DUP3 MSTORE POP POP JUMP JUMPDEST PUSH1 0x0 DUP2 MLOAD SWAP1 POP SWAP2 SWAP1 POP JUMP JUMPDEST PUSH1 0x0 DUP3 DUP3 MSTORE PUSH1 0x20 DUP3 ADD SWAP1 POP SWAP3 SWAP2 POP POP JUMP JUMPDEST PUSH1 0x0 PUSH2 0x3F9C DUP3 PUSH2 0x3F75 JUMP JUMPDEST PUSH2 0x3FA6 DUP2 DUP6 PUSH2 0x3F80 JUMP JUMPDEST SWAP4 POP PUSH2 0x3FB6 DUP2 DUP6 PUSH1 0x20 DUP7 ADD PUSH2 0x3EB7 JUMP JUMPDEST PUSH2 0x3FBF DUP2 PUSH2 0x3EEA JUMP JUMPDEST DUP5 ADD SWAP2 POP POP SWAP3 SWAP2 POP POP JUMP JUMPDEST PUSH1 0x0 PUSH2 0x160 DUP3 ADD SWAP1 POP PUSH2 0x3FE0 PUSH1 0x0 DUP4 ADD DUP15 PUSH2 0x3E8C JUMP JUMPDEST DUP2 DUP2 SUB PUSH1 0x20 DUP4 ADD MSTORE PUSH2 0x3FF2 DUP2 DUP14 PUSH2 0x3EFB JUMP JUMPDEST SWAP1 POP DUP2 DUP2 SUB PUSH1 0x40 DUP4 ADD MSTORE PUSH2 0x4006 DUP2 DUP13 PUSH2 0x3EFB JUMP JUMPDEST SWAP1 POP PUSH2 0x4015 PUSH1 0x60 DUP4 ADD DUP12 PUSH2 0x3F66 JUMP JUMPDEST DUP2 DUP2 SUB PUSH1 0x80 DUP4 ADD MSTORE PUSH2 0x4027 DUP2 DUP11 PUSH2 0x3F91 JUMP JUMPDEST SWAP1 POP PUSH2 0x4036 PUSH1 0xA0 DUP4 ADD DUP10 PUSH2 0x3E8C JUMP JUMPDEST PUSH2 0x4043 PUSH1 0xC0 DUP4 ADD DUP9 PUSH2 0x3E8C JUMP JUMPDEST PUSH2 0x4050 PUSH1 0xE0 DUP4 ADD DUP8 PUSH2 0x3E8C JUMP JUMPDEST PUSH2 0x405E PUSH2 0x100 DUP4 ADD DUP7 PUSH2 0x3E8C JUMP JUMPDEST PUSH2 0x406C PUSH2 0x120 DUP4 ADD DUP6 PUSH2 0x3E8C JUMP JUMPDEST DUP2 DUP2 SUB PUSH2 0x140 DUP4 ADD MSTORE PUSH2 0x407F DUP2 DUP5 PUSH2 0x3EFB JUMP JUMPDEST SWAP1 POP SWAP13 SWAP12 POP POP POP POP POP POP POP POP POP POP POP POP JUMP JUMPDEST PUSH1 0x0 PUSH32 0xFFFFFFFF00000000000000000000000000000000000000000000000000000000 DUP3 AND SWAP1 POP SWAP2 SWAP1 POP JUMP JUMPDEST PUSH2 0x40C6 DUP2 PUSH2 0x4091 JUMP JUMPDEST DUP2 EQ PUSH2 0x40D1 JUMPI PUSH1 0x0 DUP1 REVERT JUMPDEST POP JUMP JUMPDEST PUSH1 0x0 DUP2 CALLDATALOAD SWAP1 POP PUSH2 0x40E3 DUP2 PUSH2 0x40BD JUMP JUMPDEST SWAP3 SWAP2 POP POP JUMP JUMPDEST PUSH1 0x0 PUSH1 0x20 DUP3 DUP5 SUB SLT ISZERO PUSH2 0x40FF JUMPI PUSH2 0x40FE PUSH2 0x3E1F JUMP JUMPDEST JUMPDEST PUSH1 0x0 PUSH2 0x410D DUP5 DUP3 DUP6 ADD PUSH2 0x40D4 JUMP JUMPDEST SWAP2 POP POP SWAP3 SWAP2 POP POP JUMP JUMPDEST PUSH1 0x0 DUP2 ISZERO ISZERO SWAP1 POP SWAP2 SWAP1 POP JUMP JUMPDEST PUSH2 0x412B DUP2 PUSH2 0x4116 JUMP JUMPDEST DUP3 MSTORE POP POP JUMP JUMPDEST PUSH1 0x0 PUSH1 0x20 DUP3 ADD SWAP1 POP PUSH2 0x4146 PUSH1 0x0 DUP4 ADD DUP5 PUSH2 0x4122 JUMP JUMPDEST SWAP3 SWAP2 POP POP JUMP JUMPDEST PUSH1 0x0 DUP1 REVERT JUMPDEST PUSH1 0x0 DUP1 REVERT JUMPDEST PUSH32 0x4E487B7100000000000000000000000000000000000000000000000000000000 PUSH1 0x0 MSTORE PUSH1 0x41 PUSH1 0x4 MSTORE PUSH1 0x24 PUSH1 0x0 REVERT JUMPDEST PUSH2 0x418E DUP3 PUSH2 0x3EEA JUMP JUMPDEST DUP2 ADD DUP2 DUP2 LT PUSH8 0xFFFFFFFFFFFFFFFF DUP3 GT OR ISZERO PUSH2 0x41AD JUMPI PUSH2 0x41AC PUSH2 0x4156 JUMP JUMPDEST JUMPDEST DUP1 PUSH1 0x40 MSTORE POP POP POP JUMP JUMPDEST PUSH1 0x0 PUSH2 0x41C0 PUSH2 0x3E15 JUMP JUMPDEST SWAP1 POP PUSH2 0x41CC DUP3 DUP3 PUSH2 0x4185 JUMP JUMPDEST SWAP2 SWAP1 POP JUMP JUMPDEST PUSH1 0x0 PUSH8 0xFFFFFFFFFFFFFFFF DUP3 GT ISZERO PUSH2 0x41EC JUMPI PUSH2 0x41EB PUSH2 0x4156 JUMP JUMPDEST JUMPDEST PUSH2 0x41F5 DUP3 PUSH2 0x3EEA JUMP JUMPDEST SWAP1 POP PUSH1 0x20 DUP2 ADD SWAP1 POP SWAP2 SWAP1 POP JUMP JUMPDEST DUP3 DUP2 DUP4 CALLDATACOPY PUSH1 0x0 DUP4 DUP4 ADD MSTORE POP POP POP JUMP JUMPDEST PUSH1 0x0 PUSH2 0x4224 PUSH2 0x421F DUP5 PUSH2 0x41D1 JUMP JUMPDEST PUSH2 0x41B6 JUMP JUMPDEST SWAP1 POP DUP3 DUP2 MSTORE PUSH1 0x20 DUP2 ADD DUP5 DUP5 DUP5 ADD GT ISZERO PUSH2 0x4240 JUMPI PUSH2 0x423F PUSH2 0x4151 JUMP JUMPDEST JUMPDEST PUSH2 0x424B DUP5 DUP3 DUP6 PUSH2 0x4202 JUMP JUMPDEST POP SWAP4 SWAP3 POP POP POP JUMP JUMPDEST PUSH1 0x0 DUP3 PUSH1 0x1F DUP4 ADD SLT PUSH2 0x4268 JUMPI PUSH2 0x4267 PUSH2 0x414C JUMP JUMPDEST JUMPDEST DUP2 CALLDATALOAD PUSH2 0x4278 DUP5 DUP3 PUSH1 0x20 DUP7 ADD PUSH2 0x4211 JUMP JUMPDEST SWAP2 POP POP SWAP3 SWAP2 POP POP JUMP JUMPDEST PUSH1 0x0 PUSH1 0x20 DUP3 DUP5 SUB SLT ISZERO PUSH2 0x4297 JUMPI PUSH2 0x4296 PUSH2 0x3E1F JUMP JUMPDEST JUMPDEST PUSH1 0x0 DUP3 ADD CALLDATALOAD PUSH8 0xFFFFFFFFFFFFFFFF DUP2 GT ISZERO PUSH2 0x42B5 JUMPI PUSH2 0x42B4 PUSH2 0x3E24 JUMP JUMPDEST JUMPDEST PUSH2 0x42C1 DUP5 DUP3 DUP6 ADD PUSH2 0x4253 JUMP JUMPDEST SWAP2 POP POP SWAP3 SWAP2 POP POP JUMP JUMPDEST PUSH1 0x0 PUSH8 0xFFFFFFFFFFFFFFFF DUP3 AND SWAP1 POP SWAP2 SWAP1 POP JUMP JUMPDEST PUSH2 0x42E7 DUP2 PUSH2 0x42CA JUMP JUMPDEST DUP3 MSTORE POP POP JUMP JUMPDEST PUSH1 0x0 PUSH1 0x20 DUP3 ADD SWAP1 POP PUSH2 0x4302 PUSH1 0x0 DUP4 ADD DUP5 PUSH2 0x42DE JUMP JUMPDEST SWAP3 SWAP2 POP POP JUMP JUMPDEST PUSH2 0x4311 DUP2 PUSH2 0x42CA JUMP JUMPDEST DUP2 EQ PUSH2 0x431C JUMPI PUSH1 0x0 DUP1 REVERT JUMPDEST POP JUMP JUMPDEST PUSH1 0x0 DUP2 CALLDATALOAD SWAP1 POP PUSH2 0x432E DUP2 PUSH2 0x4308 JUMP JUMPDEST SWAP3 SWAP2 POP POP JUMP JUMPDEST PUSH1 0x0 DUP1 PUSH1 0x40 DUP4 DUP6 SUB SLT ISZERO PUSH2 0x434B JUMPI PUSH2 0x434A PUSH2 0x3E1F JUMP JUMPDEST JUMPDEST PUSH1 0x0 DUP4 ADD CALLDATALOAD PUSH8 0xFFFFFFFFFFFFFFFF DUP2 GT ISZERO PUSH2 0x4369 JUMPI PUSH2 0x4368 PUSH2 0x3E24 JUMP JUMPDEST JUMPDEST PUSH2 0x4375 DUP6 DUP3 DUP7 ADD PUSH2 0x4253 JUMP JUMPDEST SWAP3 POP POP PUSH1 0x20 PUSH2 0x4386 DUP6 DUP3 DUP7 ADD PUSH2 0x431F JUMP JUMPDEST SWAP2 POP POP SWAP3 POP SWAP3 SWAP1 POP JUMP JUMPDEST PUSH1 0x0 PUSH1 0x20 DUP3 ADD SWAP1 POP PUSH2 0x43A5 PUSH1 0x0 DUP4 ADD DUP5 PUSH2 0x3E8C JUMP JUMPDEST SWAP3 SWAP2 POP POP JUMP JUMPDEST PUSH1 0x0 DUP2 SWAP1 POP SWAP2 SWAP1 POP JUMP JUMPDEST PUSH2 0x43BE DUP2 PUSH2 0x43AB JUMP JUMPDEST DUP2 EQ PUSH2 0x43C9 JUMPI PUSH1 0x0 DUP1 REVERT JUMPDEST POP JUMP JUMPDEST PUSH1 0x0 DUP2 CALLDATALOAD SWAP1 POP PUSH2 0x43DB DUP2 PUSH2 0x43B5 JUMP JUMPDEST SWAP3 SWAP2 POP POP JUMP JUMPDEST PUSH1 0x0 PUSH1 0x20 DUP3 DUP5 SUB SLT ISZERO PUSH2 0x43F7 JUMPI PUSH2 0x43F6 PUSH2 0x3E1F JUMP JUMPDEST JUMPDEST PUSH1 0x0 PUSH2 0x4405 DUP5 DUP3 DUP6 ADD PUSH2 0x43CC JUMP JUMPDEST SWAP2 POP POP SWAP3 SWAP2 POP POP JUMP JUMPDEST PUSH2 0x4417 DUP2 PUSH2 0x43AB JUMP JUMPDEST DUP3 MSTORE POP POP JUMP JUMPDEST PUSH1 0x0 PUSH1 0x20 DUP3 ADD SWAP1 POP PUSH2 0x4432 PUSH1 0x0 DUP4 ADD DUP5 PUSH2 0x440E JUMP JUMPDEST SWAP3 SWAP2 POP POP JUMP JUMPDEST PUSH2 0x4441 DUP2 PUSH2 0x3F54 JUMP JUMPDEST DUP2 EQ PUSH2 0x444C JUMPI PUSH1 0x0 DUP1 REVERT JUMPDEST POP JUMP JUMPDEST PUSH1 0x0 DUP2 CALLDATALOAD SWAP1 POP PUSH2 0x445E DUP2 PUSH2 0x4438 JUMP JUMPDEST SWAP3 SWAP2 POP POP JUMP JUMPDEST PUSH1 0x0 DUP1 PUSH1 0x40 DUP4 DUP6 SUB SLT ISZERO PUSH2 0x447B JUMPI PUSH2 0x447A PUSH2 0x3E1F JUMP JUMPDEST JUMPDEST PUSH1 0x0 PUSH2 0x4489 DUP6 DUP3 DUP7 ADD PUSH2 0x43CC JUMP JUMPDEST SWAP3 POP POP PUSH1 0x20 PUSH2 0x449A DUP6 DUP3 DUP7 ADD PUSH2 0x444F JUMP JUMPDEST SWAP2 POP POP SWAP3 POP SWAP3 SWAP1 POP JUMP JUMPDEST PUSH1 0x0 DUP1 PUSH1 0x40 DUP4 DUP6 SUB SLT ISZERO PUSH2 0x44BB JUMPI PUSH2 0x44BA PUSH2 0x3E1F JUMP JUMPDEST JUMPDEST PUSH1 0x0 PUSH2 0x44C9 DUP6 DUP3 DUP7 ADD PUSH2 0x444F JUMP JUMPDEST SWAP3 POP POP PUSH1 0x20 PUSH2 0x44DA DUP6 DUP3 DUP7 ADD PUSH2 0x3E4A JUMP JUMPDEST SWAP2 POP POP SWAP3 POP SWAP3 SWAP1 POP JUMP JUMPDEST PUSH1 0x0 PUSH8 0xFFFFFFFFFFFFFFFF DUP3 GT ISZERO PUSH2 0x44FF JUMPI PUSH2 0x44FE PUSH2 0x4156 JUMP JUMPDEST JUMPDEST PUSH2 0x4508 DUP3 PUSH2 0x3EEA JUMP JUMPDEST SWAP1 POP PUSH1 0x20 DUP2 ADD SWAP1 POP SWAP2 SWAP1 POP JUMP JUMPDEST PUSH1 0x0 PUSH2 0x4528 PUSH2 0x4523 DUP5 PUSH2 0x44E4 JUMP JUMPDEST PUSH2 0x41B6 JUMP JUMPDEST SWAP1 POP DUP3 DUP2 MSTORE PUSH1 0x20 DUP2 ADD DUP5 DUP5 DUP5 ADD GT ISZERO PUSH2 0x4544 JUMPI PUSH2 0x4543 PUSH2 0x4151 JUMP JUMPDEST JUMPDEST PUSH2 0x454F DUP5 DUP3 DUP6 PUSH2 0x4202 JUMP JUMPDEST POP SWAP4 SWAP3 POP POP POP JUMP JUMPDEST PUSH1 0x0 DUP3 PUSH1 0x1F DUP4 ADD SLT PUSH2 0x456C JUMPI PUSH2 0x456B PUSH2 0x414C JUMP JUMPDEST JUMPDEST DUP2 CALLDATALOAD PUSH2 0x457C DUP5 DUP3 PUSH1 0x20 DUP7 ADD PUSH2 0x4515 JUMP JUMPDEST SWAP2 POP POP SWAP3 SWAP2 POP POP JUMP JUMPDEST PUSH1 0x0 DUP1 PUSH1 0x0 DUP1 PUSH1 0x0 DUP1 PUSH1 0xC0 DUP8 DUP10 SUB SLT ISZERO PUSH2 0x45A2 JUMPI PUSH2 0x45A1 PUSH2 0x3E1F JUMP JUMPDEST JUMPDEST PUSH1 0x0 DUP8 ADD CALLDATALOAD PUSH8 0xFFFFFFFFFFFFFFFF DUP2 GT ISZERO PUSH2 0x45C0 JUMPI PUSH2 0x45BF PUSH2 0x3E24 JUMP JUMPDEST JUMPDEST PUSH2 0x45CC DUP10 DUP3 DUP11 ADD PUSH2 0x4557 JUMP JUMPDEST SWAP7 POP POP PUSH1 0x20 PUSH2 0x45DD DUP10 DUP3 DUP11 ADD PUSH2 0x3E4A JUMP JUMPDEST SWAP6 POP POP PUSH1 0x40 PUSH2 0x45EE DUP10 DUP3 DUP11 ADD PUSH2 0x3E4A JUMP JUMPDEST SWAP5 POP POP PUSH1 0x60 PUSH2 0x45FF DUP10 DUP3 DUP11 ADD PUSH2 0x3E4A JUMP JUMPDEST SWAP4 POP POP PUSH1 0x80 DUP8 ADD CALLDATALOAD PUSH8 0xFFFFFFFFFFFFFFFF DUP2 GT ISZERO PUSH2 0x4620 JUMPI PUSH2 0x461F PUSH2 0x3E24 JUMP JUMPDEST JUMPDEST PUSH2 0x462C DUP10 DUP3 DUP11 ADD PUSH2 0x4557 JUMP JUMPDEST SWAP3 POP POP PUSH1 0xA0 DUP8 ADD CALLDATALOAD PUSH8 0xFFFFFFFFFFFFFFFF DUP2 GT ISZERO PUSH2 0x464D JUMPI PUSH2 0x464C PUSH2 0x3E24 JUMP JUMPDEST JUMPDEST PUSH2 0x4659 DUP10 DUP3 DUP11 ADD PUSH2 0x4557 JUMP JUMPDEST SWAP2 POP POP SWAP3 SWAP6 POP SWAP3 SWAP6 POP SWAP3 SWAP6 JUMP JUMPDEST PUSH2 0x466F DUP2 PUSH2 0x3E29 JUMP JUMPDEST DUP3 MSTORE POP POP JUMP JUMPDEST PUSH1 0x60 DUP3 ADD PUSH1 0x0 DUP3 ADD MLOAD PUSH2 0x468B PUSH1 0x0 DUP6 ADD DUP3 PUSH2 0x4666 JUMP JUMPDEST POP PUSH1 0x20 DUP3 ADD MLOAD PUSH2 0x469E PUSH1 0x20 DUP6 ADD DUP3 PUSH2 0x4666 JUMP JUMPDEST POP PUSH1 0x40 DUP3 ADD MLOAD PUSH2 0x46B1 PUSH1 0x40 DUP6 ADD DUP3 PUSH2 0x4666 JUMP JUMPDEST POP POP POP POP JUMP JUMPDEST PUSH1 0x0 PUSH1 0x60 DUP3 ADD SWAP1 POP PUSH2 0x46CC PUSH1 0x0 DUP4 ADD DUP5 PUSH2 0x4675 JUMP JUMPDEST SWAP3 SWAP2 POP POP JUMP JUMPDEST PUSH1 0x0 DUP1 PUSH1 0x0 PUSH1 0x60 DUP5 DUP7 SUB SLT ISZERO PUSH2 0x46EB JUMPI PUSH2 0x46EA PUSH2 0x3E1F JUMP JUMPDEST JUMPDEST PUSH1 0x0 PUSH2 0x46F9 DUP7 DUP3 DUP8 ADD PUSH2 0x3E4A JUMP JUMPDEST SWAP4 POP POP PUSH1 0x20 PUSH2 0x470A DUP7 DUP3 DUP8 ADD PUSH2 0x3E4A JUMP JUMPDEST SWAP3 POP POP PUSH1 0x40 PUSH2 0x471B DUP7 DUP3 DUP8 ADD PUSH2 0x3E4A JUMP JUMPDEST SWAP2 POP POP SWAP3 POP SWAP3 POP SWAP3 JUMP JUMPDEST PUSH1 0x0 DUP2 MLOAD SWAP1 POP SWAP2 SWAP1 POP JUMP JUMPDEST PUSH1 0x0 DUP3 DUP3 MSTORE PUSH1 0x20 DUP3 ADD SWAP1 POP SWAP3 SWAP2 POP POP JUMP JUMPDEST PUSH1 0x0 DUP2 SWAP1 POP PUSH1 0x20 DUP3 ADD SWAP1 POP SWAP2 SWAP1 POP JUMP JUMPDEST PUSH1 0x0 DUP3 DUP3 MSTORE PUSH1 0x20 DUP3 ADD SWAP1 POP SWAP3 SWAP2 POP POP JUMP JUMPDEST PUSH1 0x0 PUSH2 0x476D DUP3 PUSH2 0x3E9B JUMP JUMPDEST PUSH2 0x4777 DUP2 DUP6 PUSH2 0x4751 JUMP JUMPDEST SWAP4 POP PUSH2 0x4787 DUP2 DUP6 PUSH1 0x20 DUP7 ADD PUSH2 0x3EB7 JUMP JUMPDEST PUSH2 0x4790 DUP2 PUSH2 0x3EEA JUMP JUMPDEST DUP5 ADD SWAP2 POP POP SWAP3 SWAP2 POP POP JUMP JUMPDEST PUSH2 0x47A4 DUP2 PUSH2 0x3F54 JUMP JUMPDEST DUP3 MSTORE POP POP JUMP JUMPDEST PUSH1 0x0 DUP3 DUP3 MSTORE PUSH1 0x20 DUP3 ADD SWAP1 POP SWAP3 SWAP2 POP POP JUMP JUMPDEST PUSH1 0x0 PUSH2 0x47C6 DUP3 PUSH2 0x3F75 JUMP JUMPDEST PUSH2 0x47D0 DUP2 DUP6 PUSH2 0x47AA JUMP JUMPDEST SWAP4 POP PUSH2 0x47E0 DUP2 DUP6 PUSH1 0x20 DUP7 ADD PUSH2 0x3EB7 JUMP JUMPDEST PUSH2 0x47E9 DUP2 PUSH2 0x3EEA JUMP JUMPDEST DUP5 ADD SWAP2 POP POP SWAP3 SWAP2 POP POP JUMP JUMPDEST PUSH1 0x0 PUSH2 0x160 DUP4 ADD PUSH1 0x0 DUP4 ADD MLOAD PUSH2 0x480D PUSH1 0x0 DUP7 ADD DUP3 PUSH2 0x4666 JUMP JUMPDEST POP PUSH1 0x20 DUP4 ADD MLOAD DUP5 DUP3 SUB PUSH1 0x20 DUP7 ADD MSTORE PUSH2 0x4825 DUP3 DUP3 PUSH2 0x4762 JUMP JUMPDEST SWAP2 POP POP PUSH1 0x40 DUP4 ADD MLOAD DUP5 DUP3 SUB PUSH1 0x40 DUP7 ADD MSTORE PUSH2 0x483F DUP3 DUP3 PUSH2 0x4762 JUMP JUMPDEST SWAP2 POP POP PUSH1 0x60 DUP4 ADD MLOAD PUSH2 0x4854 PUSH1 0x60 DUP7 ADD DUP3 PUSH2 0x479B JUMP JUMPDEST POP PUSH1 0x80 DUP4 ADD MLOAD DUP5 DUP3 SUB PUSH1 0x80 DUP7 ADD MSTORE PUSH2 0x486C DUP3 DUP3 PUSH2 0x47BB JUMP JUMPDEST SWAP2 POP POP PUSH1 0xA0 DUP4 ADD MLOAD PUSH2 0x4881 PUSH1 0xA0 DUP7 ADD DUP3 PUSH2 0x4666 JUMP JUMPDEST POP PUSH1 0xC0 DUP4 ADD MLOAD PUSH2 0x4894 PUSH1 0xC0 DUP7 ADD DUP3 PUSH2 0x4666 JUMP JUMPDEST POP PUSH1 0xE0 DUP4 ADD MLOAD PUSH2 0x48A7 PUSH1 0xE0 DUP7 ADD DUP3 PUSH2 0x4666 JUMP JUMPDEST POP PUSH2 0x100 DUP4 ADD MLOAD PUSH2 0x48BC PUSH2 0x100 DUP7 ADD DUP3 PUSH2 0x4666 JUMP JUMPDEST POP PUSH2 0x120 DUP4 ADD MLOAD PUSH2 0x48D1 PUSH2 0x120 DUP7 ADD DUP3 PUSH2 0x4666 JUMP JUMPDEST POP PUSH2 0x140 DUP4 ADD MLOAD DUP5 DUP3 SUB PUSH2 0x140 DUP7 ADD MSTORE PUSH2 0x48EB DUP3 DUP3 PUSH2 0x4762 JUMP JUMPDEST SWAP2 POP POP DUP1 SWAP2 POP POP SWAP3 SWAP2 POP POP JUMP JUMPDEST PUSH1 0x0 PUSH2 0x4904 DUP4 DUP4 PUSH2 0x47F4 JUMP JUMPDEST SWAP1 POP SWAP3 SWAP2 POP POP JUMP JUMPDEST PUSH1 0x0 PUSH1 0x20 DUP3 ADD SWAP1 POP SWAP2 SWAP1 POP JUMP JUMPDEST PUSH1 0x0 PUSH2 0x4924 DUP3 PUSH2 0x4725 JUMP JUMPDEST PUSH2 0x492E DUP2 DUP6 PUSH2 0x4730 JUMP JUMPDEST SWAP4 POP DUP4 PUSH1 0x20 DUP3 MUL DUP6 ADD PUSH2 0x4940 DUP6 PUSH2 0x4741 JUMP JUMPDEST DUP1 PUSH1 0x0 JUMPDEST DUP6 DUP2 LT ISZERO PUSH2 0x497C JUMPI DUP5 DUP5 SUB DUP10 MSTORE DUP2 MLOAD PUSH2 0x495D DUP6 DUP3 PUSH2 0x48F8 JUMP JUMPDEST SWAP5 POP PUSH2 0x4968 DUP4 PUSH2 0x490C JUMP JUMPDEST SWAP3 POP PUSH1 0x20 DUP11 ADD SWAP10 POP POP PUSH1 0x1 DUP2 ADD SWAP1 POP PUSH2 0x4944 JUMP JUMPDEST POP DUP3 SWAP8 POP DUP8 SWAP6 POP POP POP POP POP POP SWAP3 SWAP2 POP POP JUMP JUMPDEST PUSH1 0x0 PUSH1 0x20 DUP3 ADD SWAP1 POP DUP2 DUP2 SUB PUSH1 0x0 DUP4 ADD MSTORE PUSH2 0x49A8 DUP2 DUP5 PUSH2 0x4919 JUMP JUMPDEST SWAP1 POP SWAP3 SWAP2 POP POP JUMP JUMPDEST PUSH32 0x4E487B7100000000000000000000000000000000000000000000000000000000 PUSH1 0x0 MSTORE PUSH1 0x21 PUSH1 0x4 MSTORE PUSH1 0x24 PUSH1 0x0 REVERT JUMPDEST PUSH1 0x5 DUP2 LT PUSH2 0x49F0 JUMPI PUSH2 0x49EF PUSH2 0x49B0 JUMP JUMPDEST JUMPDEST POP JUMP JUMPDEST PUSH1 0x0 DUP2 SWAP1 POP PUSH2 0x4A01 DUP3 PUSH2 0x49DF JUMP JUMPDEST SWAP2 SWAP1 POP JUMP JUMPDEST PUSH1 0x0 PUSH2 0x4A11 DUP3 PUSH2 0x49F3 JUMP JUMPDEST SWAP1 POP SWAP2 SWAP1 POP JUMP JUMPDEST PUSH2 0x4A21 DUP2 PUSH2 0x4A06 JUMP JUMPDEST DUP3 MSTORE POP POP JUMP JUMPDEST PUSH1 0x0 PUSH1 0xE0 DUP3 ADD SWAP1 POP PUSH2 0x4A3C PUSH1 0x0 DUP4 ADD DUP11 PUSH2 0x3F66 JUMP JUMPDEST DUP2 DUP2 SUB PUSH1 0x20 DUP4 ADD MSTORE PUSH2 0x4A4E DUP2 DUP10 PUSH2 0x3F91 JUMP JUMPDEST SWAP1 POP PUSH2 0x4A5D PUSH1 0x40 DUP4 ADD DUP9 PUSH2 0x3E8C JUMP JUMPDEST PUSH2 0x4A6A PUSH1 0x60 DUP4 ADD DUP8 PUSH2 0x3E8C JUMP JUMPDEST PUSH2 0x4A77 PUSH1 0x80 DUP4 ADD DUP7 PUSH2 0x3E8C JUMP JUMPDEST PUSH2 0x4A84 PUSH1 0xA0 DUP4 ADD DUP6 PUSH2 0x3E8C JUMP JUMPDEST PUSH2 0x4A91 PUSH1 0xC0 DUP4 ADD DUP5 PUSH2 0x4A18 JUMP JUMPDEST SWAP9 SWAP8 POP POP POP POP POP POP POP POP JUMP JUMPDEST PUSH1 0x0 PUSH1 0x20 DUP3 ADD SWAP1 POP PUSH2 0x4AB2 PUSH1 0x0 DUP4 ADD DUP5 PUSH2 0x4A18 JUMP JUMPDEST SWAP3 SWAP2 POP POP JUMP JUMPDEST PUSH1 0x0 DUP1 PUSH1 0x0 PUSH1 0x60 DUP5 DUP7 SUB SLT ISZERO PUSH2 0x4AD1 JUMPI PUSH2 0x4AD0 PUSH2 0x3E1F JUMP JUMPDEST JUMPDEST PUSH1 0x0 PUSH2 0x4ADF DUP7 DUP3 DUP8 ADD PUSH2 0x444F JUMP JUMPDEST SWAP4 POP POP PUSH1 0x20 PUSH2 0x4AF0 DUP7 DUP3 DUP8 ADD PUSH2 0x3E4A JUMP JUMPDEST SWAP3 POP POP PUSH1 0x40 DUP5 ADD CALLDATALOAD PUSH8 0xFFFFFFFFFFFFFFFF DUP2 GT ISZERO PUSH2 0x4B11 JUMPI PUSH2 0x4B10 PUSH2 0x3E24 JUMP JUMPDEST JUMPDEST PUSH2 0x4B1D DUP7 DUP3 DUP8 ADD PUSH2 0x4557 JUMP JUMPDEST SWAP2 POP POP SWAP3 POP SWAP3 POP SWAP3 JUMP JUMPDEST PUSH1 0x0 DUP1 PUSH1 0x40 DUP4 DUP6 SUB SLT ISZERO PUSH2 0x4B3E JUMPI PUSH2 0x4B3D PUSH2 0x3E1F JUMP JUMPDEST JUMPDEST PUSH1 0x0 DUP4 ADD CALLDATALOAD PUSH8 0xFFFFFFFFFFFFFFFF DUP2 GT ISZERO PUSH2 0x4B5C JUMPI PUSH2 0x4B5B PUSH2 0x3E24 JUMP JUMPDEST JUMPDEST PUSH2 0x4B68 DUP6 DUP3 DUP7 ADD PUSH2 0x4253 JUMP JUMPDEST SWAP3 POP POP PUSH1 0x20 PUSH2 0x4B79 DUP6 DUP3 DUP7 ADD PUSH2 0x3E4A JUMP JUMPDEST SWAP2 POP POP SWAP3 POP SWAP3 SWAP1 POP JUMP JUMPDEST PUSH1 0x0 PUSH1 0x20 DUP3 DUP5 SUB SLT ISZERO PUSH2 0x4B99 JUMPI PUSH2 0x4B98 PUSH2 0x3E1F JUMP JUMPDEST JUMPDEST PUSH1 0x0 PUSH2 0x4BA7 DUP5 DUP3 DUP6 ADD PUSH2 0x431F JUMP JUMPDEST SWAP2 POP POP SWAP3 SWAP2 POP POP JUMP JUMPDEST PUSH1 0x0 PUSH1 0x60 DUP3 ADD SWAP1 POP PUSH2 0x4BC5 PUSH1 0x0 DUP4 ADD DUP7 PUSH2 0x3E8C JUMP JUMPDEST PUSH2 0x4BD2 PUSH1 0x20 DUP4 ADD DUP6 PUSH2 0x3E8C JUMP JUMPDEST PUSH2 0x4BDF PUSH1 0x40 DUP4 ADD DUP5 PUSH2 0x3E8C JUMP JUMPDEST SWAP5 SWAP4 POP POP POP POP JUMP JUMPDEST PUSH1 0x0 DUP1 PUSH1 0x40 DUP4 DUP6 SUB SLT ISZERO PUSH2 0x4BFE JUMPI PUSH2 0x4BFD PUSH2 0x3E1F JUMP JUMPDEST JUMPDEST PUSH1 0x0 DUP4 ADD CALLDATALOAD PUSH8 0xFFFFFFFFFFFFFFFF DUP2 GT ISZERO PUSH2 0x4C1C JUMPI PUSH2 0x4C1B PUSH2 0x3E24 JUMP JUMPDEST JUMPDEST PUSH2 0x4C28 DUP6 DUP3 DUP7 ADD PUSH2 0x4253 JUMP JUMPDEST SWAP3 POP POP PUSH1 0x20 PUSH2 0x4C39 DUP6 DUP3 DUP7 ADD PUSH2 0x444F JUMP JUMPDEST SWAP2 POP POP SWAP3 POP SWAP3 SWAP1 POP JUMP JUMPDEST PUSH32 0x4E487B7100000000000000000000000000000000000000000000000000000000 PUSH1 0x0 MSTORE PUSH1 0x22 PUSH1 0x4 MSTORE PUSH1 0x24 PUSH1 0x0 REVERT JUMPDEST PUSH1 0x0 PUSH1 0x2 DUP3 DIV SWAP1 POP PUSH1 0x1 DUP3 AND DUP1 PUSH2 0x4C8A JUMPI PUSH1 0x7F DUP3 AND SWAP2 POP JUMPDEST PUSH1 0x20 DUP3 LT DUP2 SUB PUSH2 0x4C9D JUMPI PUSH2 0x4C9C PUSH2 0x4C43 JUMP JUMPDEST JUMPDEST POP SWAP2 SWAP1 POP JUMP JUMPDEST PUSH32 0x416363657373436F6E74726F6C3A2063616E206F6E6C792072656E6F756E6365 PUSH1 0x0 DUP3 ADD MSTORE PUSH32 0x20726F6C657320666F722073656C660000000000000000000000000000000000 PUSH1 0x20 DUP3 ADD MSTORE POP JUMP JUMPDEST PUSH1 0x0 PUSH2 0x4CFF PUSH1 0x2F DUP4 PUSH2 0x3EA6 JUMP JUMPDEST SWAP2 POP PUSH2 0x4D0A DUP3 PUSH2 0x4CA3 JUMP JUMPDEST PUSH1 0x40 DUP3 ADD SWAP1 POP SWAP2 SWAP1 POP JUMP JUMPDEST PUSH1 0x0 PUSH1 0x20 DUP3 ADD SWAP1 POP DUP2 DUP2 SUB PUSH1 0x0 DUP4 ADD MSTORE PUSH2 0x4D2E DUP2 PUSH2 0x4CF2 JUMP JUMPDEST SWAP1 POP SWAP2 SWAP1 POP JUMP JUMPDEST PUSH32 0x43616C6C6572206973206E6F742061206D696E74657200000000000000000000 PUSH1 0x0 DUP3 ADD MSTORE POP JUMP JUMPDEST PUSH1 0x0 PUSH2 0x4D6B PUSH1 0x16 DUP4 PUSH2 0x3EA6 JUMP JUMPDEST SWAP2 POP PUSH2 0x4D76 DUP3 PUSH2 0x4D35 JUMP JUMPDEST PUSH1 0x20 DUP3 ADD SWAP1 POP SWAP2 SWAP1 POP JUMP JUMPDEST PUSH1 0x0 PUSH1 0x20 DUP3 ADD SWAP1 POP DUP2 DUP2 SUB PUSH1 0x0 DUP4 ADD MSTORE PUSH2 0x4D9A DUP2 PUSH2 0x4D5E JUMP JUMPDEST SWAP1 POP SWAP2 SWAP1 POP JUMP JUMPDEST PUSH1 0x0 DUP2 SWAP1 POP SWAP3 SWAP2 POP POP JUMP JUMPDEST PUSH1 0x0 PUSH2 0x4DB7 DUP3 PUSH2 0x3F75 JUMP JUMPDEST PUSH2 0x4DC1 DUP2 DUP6 PUSH2 0x4DA1 JUMP JUMPDEST SWAP4 POP PUSH2 0x4DD1 DUP2 DUP6 PUSH1 0x20 DUP7 ADD PUSH2 0x3EB7 JUMP JUMPDEST DUP1 DUP5 ADD SWAP2 POP POP SWAP3 SWAP2 POP POP JUMP JUMPDEST PUSH1 0x0 PUSH2 0x4DE9 DUP3 DUP5 PUSH2 0x4DAC JUMP JUMPDEST SWAP2 POP DUP2 SWAP1 POP SWAP3 SWAP2 POP POP JUMP JUMPDEST PUSH32 0x596F7520617265206E6F742061206D656D656265722C20596F752063616E6E6F PUSH1 0x0 DUP3 ADD MSTORE PUSH32 0x7420566F74650000000000000000000000000000000000000000000000000000 PUSH1 0x20 DUP3 ADD MSTORE POP JUMP JUMPDEST PUSH1 0x0 PUSH2 0x4E50 PUSH1 0x26 DUP4 PUSH2 0x3EA6 JUMP JUMPDEST SWAP2 POP PUSH2 0x4E5B DUP3 PUSH2 0x4DF4 JUMP JUMPDEST PUSH1 0x40 DUP3 ADD SWAP1 POP SWAP2 SWAP1 POP JUMP JUMPDEST PUSH1 0x0 PUSH1 0x20 DUP3 ADD SWAP1 POP DUP2 DUP2 SUB PUSH1 0x0 DUP4 ADD MSTORE PUSH2 0x4E7F DUP2 PUSH2 0x4E43 JUMP JUMPDEST SWAP1 POP SWAP2 SWAP1 POP JUMP JUMPDEST PUSH32 0x50726F706F73616C2043726561746F722063616E6E6F7420766F746520686973 PUSH1 0x0 DUP3 ADD MSTORE PUSH32 0x206F776E2070726F706F73616C00000000000000000000000000000000000000 PUSH1 0x20 DUP3 ADD MSTORE POP JUMP JUMPDEST PUSH1 0x0 PUSH2 0x4EE2 PUSH1 0x2D DUP4 PUSH2 0x3EA6 JUMP JUMPDEST SWAP2 POP PUSH2 0x4EED DUP3 PUSH2 0x4E86 JUMP JUMPDEST PUSH1 0x40 DUP3 ADD SWAP1 POP SWAP2 SWAP1 POP JUMP JUMPDEST PUSH1 0x0 PUSH1 0x20 DUP3 ADD SWAP1 POP DUP2 DUP2 SUB PUSH1 0x0 DUP4 ADD MSTORE PUSH2 0x4F11 DUP2 PUSH2 0x4ED5 JUMP JUMPDEST SWAP1 POP SWAP2 SWAP1 POP JUMP JUMPDEST PUSH32 0x416C726561647920566F74656400000000000000000000000000000000000000 PUSH1 0x0 DUP3 ADD MSTORE POP JUMP JUMPDEST PUSH1 0x0 PUSH2 0x4F4E PUSH1 0xD DUP4 PUSH2 0x3EA6 JUMP JUMPDEST SWAP2 POP PUSH2 0x4F59 DUP3 PUSH2 0x4F18 JUMP JUMPDEST PUSH1 0x20 DUP3 ADD SWAP1 POP SWAP2 SWAP1 POP JUMP JUMPDEST PUSH1 0x0 PUSH1 0x20 DUP3 ADD SWAP1 POP DUP2 DUP2 SUB PUSH1 0x0 DUP4 ADD MSTORE PUSH2 0x4F7D DUP2 PUSH2 0x4F41 JUMP JUMPDEST SWAP1 POP SWAP2 SWAP1 POP JUMP JUMPDEST PUSH32 0x566F74696E6720506572696F642046696E697368656400000000000000000000 PUSH1 0x0 DUP3 ADD MSTORE POP JUMP JUMPDEST PUSH1 0x0 PUSH2 0x4FBA PUSH1 0x16 DUP4 PUSH2 0x3EA6 JUMP JUMPDEST SWAP2 POP PUSH2 0x4FC5 DUP3 PUSH2 0x4F84 JUMP JUMPDEST PUSH1 0x20 DUP3 ADD SWAP1 POP SWAP2 SWAP1 POP JUMP JUMPDEST PUSH1 0x0 PUSH1 0x20 DUP3 ADD SWAP1 POP DUP2 DUP2 SUB PUSH1 0x0 DUP4 ADD MSTORE PUSH2 0x4FE9 DUP2 PUSH2 0x4FAD JUMP JUMPDEST SWAP1 POP SWAP2 SWAP1 POP JUMP JUMPDEST PUSH32 0x4E487B7100000000000000000000000000000000000000000000000000000000 PUSH1 0x0 MSTORE PUSH1 0x11 PUSH1 0x4 MSTORE PUSH1 0x24 PUSH1 0x0 REVERT JUMPDEST PUSH1 0x0 PUSH2 0x502A DUP3 PUSH2 0x3E29 JUMP JUMPDEST SWAP2 POP PUSH2 0x5035 DUP4 PUSH2 0x3E29 JUMP JUMPDEST SWAP3 POP DUP3 PUSH32 0xFFFFFFFFFFFFFFFFFFFFFFFFFFFFFFFFFFFFFFFFFFFFFFFFFFFFFFFFFFFFFFFF SUB DUP3 GT ISZERO PUSH2 0x506A JUMPI PUSH2 0x5069 PUSH2 0x4FF0 JUMP JUMPDEST JUMPDEST DUP3 DUP3 ADD SWAP1 POP SWAP3 SWAP2 POP POP JUMP JUMPDEST PUSH32 0x596F7520617265206E6F742061206D656D656265722C596F752063616E6E6F74 PUSH1 0x0 DUP3 ADD MSTORE PUSH32 0x20566F7465000000000000000000000000000000000000000000000000000000 PUSH1 0x20 DUP3 ADD MSTORE POP JUMP JUMPDEST PUSH1 0x0 PUSH2 0x50D1 PUSH1 0x25 DUP4 PUSH2 0x3EA6 JUMP JUMPDEST SWAP2 POP PUSH2 0x50DC DUP3 PUSH2 0x5075 JUMP JUMPDEST PUSH1 0x40 DUP3 ADD SWAP1 POP SWAP2 SWAP1 POP JUMP JUMPDEST PUSH1 0x0 PUSH1 0x20 DUP3 ADD SWAP1 POP DUP2 DUP2 SUB PUSH1 0x0 DUP4 ADD MSTORE PUSH2 0x5100 DUP2 PUSH2 0x50C4 JUMP JUMPDEST SWAP1 POP SWAP2 SWAP1 POP JUMP JUMPDEST PUSH32 0x4E487B7100000000000000000000000000000000000000000000000000000000 PUSH1 0x0 MSTORE PUSH1 0x32 PUSH1 0x4 MSTORE PUSH1 0x24 PUSH1 0x0 REVERT JUMPDEST PUSH1 0x0 PUSH2 0x5141 DUP3 PUSH2 0x3E29 JUMP JUMPDEST SWAP2 POP PUSH32 0xFFFFFFFFFFFFFFFFFFFFFFFFFFFFFFFFFFFFFFFFFFFFFFFFFFFFFFFFFFFFFFFF DUP3 SUB PUSH2 0x5173 JUMPI PUSH2 0x5172 PUSH2 0x4FF0 JUMP JUMPDEST JUMPDEST PUSH1 0x1 DUP3 ADD SWAP1 POP SWAP2 SWAP1 POP JUMP JUMPDEST PUSH32 0x43616C6C6572206973206E6F742061206D656D62657200000000000000000000 PUSH1 0x0 DUP3 ADD MSTORE POP JUMP JUMPDEST PUSH1 0x0 PUSH2 0x51B4 PUSH1 0x16 DUP4 PUSH2 0x3EA6 JUMP JUMPDEST SWAP2 POP PUSH2 0x51BF DUP3 PUSH2 0x517E JUMP JUMPDEST PUSH1 0x20 DUP3 ADD SWAP1 POP SWAP2 SWAP1 POP JUMP JUMPDEST PUSH1 0x0 PUSH1 0x20 DUP3 ADD SWAP1 POP DUP2 DUP2 SUB PUSH1 0x0 DUP4 ADD MSTORE PUSH2 0x51E3 DUP2 PUSH2 0x51A7 JUMP JUMPDEST SWAP1 POP SWAP2 SWAP1 POP JUMP JUMPDEST PUSH1 0x0 PUSH1 0x20 DUP3 ADD SWAP1 POP PUSH2 0x51FF PUSH1 0x0 DUP4 ADD DUP5 PUSH2 0x3F66 JUMP JUMPDEST SWAP3 SWAP2 POP POP JUMP JUMPDEST PUSH1 0x0 DUP2 MLOAD SWAP1 POP PUSH2 0x5214 DUP2 PUSH2 0x3E33 JUMP JUMPDEST SWAP3 SWAP2 POP POP JUMP JUMPDEST PUSH1 0x0 PUSH1 0x20 DUP3 DUP5 SUB SLT ISZERO PUSH2 0x5230 JUMPI PUSH2 0x522F PUSH2 0x3E1F JUMP JUMPDEST JUMPDEST PUSH1 0x0 PUSH2 0x523E DUP5 DUP3 DUP6 ADD PUSH2 0x5205 JUMP JUMPDEST SWAP2 POP POP SWAP3 SWAP2 POP POP JUMP JUMPDEST PUSH1 0x0 DUP2 SWAP1 POP SWAP3 SWAP2 POP POP JUMP JUMPDEST PUSH32 0x416363657373436F6E74726F6C3A206163636F756E7420000000000000000000 PUSH1 0x0 DUP3 ADD MSTORE POP JUMP JUMPDEST PUSH1 0x0 PUSH2 0x5288 PUSH1 0x17 DUP4 PUSH2 0x5247 JUMP JUMPDEST SWAP2 POP PUSH2 0x5293 DUP3 PUSH2 0x5252 JUMP JUMPDEST PUSH1 0x17 DUP3 ADD SWAP1 POP SWAP2 SWAP1 POP JUMP JUMPDEST PUSH1 0x0 PUSH2 0x52A9 DUP3 PUSH2 0x3E9B JUMP JUMPDEST PUSH2 0x52B3 DUP2 DUP6 PUSH2 0x5247 JUMP JUMPDEST SWAP4 POP PUSH2 0x52C3 DUP2 DUP6 PUSH1 0x20 DUP7 ADD PUSH2 0x3EB7 JUMP JUMPDEST DUP1 DUP5 ADD SWAP2 POP POP SWAP3 SWAP2 POP POP JUMP JUMPDEST PUSH32 0x206973206D697373696E6720726F6C6520000000000000000000000000000000 PUSH1 0x0 DUP3 ADD MSTORE POP JUMP JUMPDEST PUSH1 0x0 PUSH2 0x5305 PUSH1 0x11 DUP4 PUSH2 0x5247 JUMP JUMPDEST SWAP2 POP PUSH2 0x5310 DUP3 PUSH2 0x52CF JUMP JUMPDEST PUSH1 0x11 DUP3 ADD SWAP1 POP SWAP2 SWAP1 POP JUMP JUMPDEST PUSH1 0x0 PUSH2 0x5326 DUP3 PUSH2 0x527B JUMP JUMPDEST SWAP2 POP PUSH2 0x5332 DUP3 DUP6 PUSH2 0x529E JUMP JUMPDEST SWAP2 POP PUSH2 0x533D DUP3 PUSH2 0x52F8 JUMP JUMPDEST SWAP2 POP PUSH2 0x5349 DUP3 DUP5 PUSH2 0x529E JUMP JUMPDEST SWAP2 POP DUP2 SWAP1 POP SWAP4 SWAP3 POP POP POP JUMP JUMPDEST PUSH1 0x0 PUSH1 0x20 DUP3 ADD SWAP1 POP DUP2 DUP2 SUB PUSH1 0x0 DUP4 ADD MSTORE PUSH2 0x536F DUP2 DUP5 PUSH2 0x3EFB JUMP JUMPDEST SWAP1 POP SWAP3 SWAP2 POP POP JUMP JUMPDEST PUSH1 0x0 PUSH2 0x5382 DUP3 PUSH2 0x3E29 JUMP JUMPDEST SWAP2 POP PUSH2 0x538D DUP4 PUSH2 0x3E29 JUMP JUMPDEST SWAP3 POP DUP3 DUP3 LT ISZERO PUSH2 0x53A0 JUMPI PUSH2 0x539F PUSH2 0x4FF0 JUMP JUMPDEST JUMPDEST DUP3 DUP3 SUB SWAP1 POP SWAP3 SWAP2 POP POP JUMP JUMPDEST PUSH32 0x4E487B7100000000000000000000000000000000000000000000000000000000 PUSH1 0x0 MSTORE PUSH1 0x12 PUSH1 0x4 MSTORE PUSH1 0x24 PUSH1 0x0 REVERT JUMPDEST PUSH1 0x0 PUSH2 0x53E5 DUP3 PUSH2 0x3E29 JUMP JUMPDEST SWAP2 POP PUSH2 0x53F0 DUP4 PUSH2 0x3E29 JUMP JUMPDEST SWAP3 POP DUP3 PUSH2 0x5400 JUMPI PUSH2 0x53FF PUSH2 0x53AB JUMP JUMPDEST JUMPDEST DUP3 DUP3 DIV SWAP1 POP SWAP3 SWAP2 POP POP JUMP JUMPDEST PUSH32 0x566F74696E6720506572696F64206973204F6E00000000000000000000000000 PUSH1 0x0 DUP3 ADD MSTORE POP JUMP JUMPDEST PUSH1 0x0 PUSH2 0x5441 PUSH1 0x13 DUP4 PUSH2 0x3EA6 JUMP JUMPDEST SWAP2 POP PUSH2 0x544C DUP3 PUSH2 0x540B JUMP JUMPDEST PUSH1 0x20 DUP3 ADD SWAP1 POP SWAP2 SWAP1 POP JUMP JUMPDEST PUSH1 0x0 PUSH1 0x20 DUP3 ADD SWAP1 POP DUP2 DUP2 SUB PUSH1 0x0 DUP4 ADD MSTORE PUSH2 0x5470 DUP2 PUSH2 0x5434 JUMP JUMPDEST SWAP1 POP SWAP2 SWAP1 POP JUMP JUMPDEST PUSH1 0x0 PUSH2 0x5482 DUP3 PUSH2 0x3E29 JUMP JUMPDEST SWAP2 POP PUSH2 0x548D DUP4 PUSH2 0x3E29 JUMP JUMPDEST SWAP3 POP DUP2 PUSH32 0xFFFFFFFFFFFFFFFFFFFFFFFFFFFFFFFFFFFFFFFFFFFFFFFFFFFFFFFFFFFFFFFF DIV DUP4 GT DUP3 ISZERO ISZERO AND ISZERO PUSH2 0x54C6 JUMPI PUSH2 0x54C5 PUSH2 0x4FF0 JUMP JUMPDEST JUMPDEST DUP3 DUP3 MUL SWAP1 POP SWAP3 SWAP2 POP POP JUMP JUMPDEST PUSH1 0x0 PUSH2 0x54DC DUP3 PUSH2 0x3E29 JUMP JUMPDEST SWAP2 POP PUSH1 0x0 DUP3 SUB PUSH2 0x54EF JUMPI PUSH2 0x54EE PUSH2 0x4FF0 JUMP JUMPDEST JUMPDEST PUSH1 0x1 DUP3 SUB SWAP1 POP SWAP2 SWAP1 POP JUMP JUMPDEST PUSH32 0x537472696E67733A20686578206C656E67746820696E73756666696369656E74 PUSH1 0x0 DUP3 ADD MSTORE POP JUMP JUMPDEST PUSH1 0x0 PUSH2 0x5530 PUSH1 0x20 DUP4 PUSH2 0x3EA6 JUMP JUMPDEST SWAP2 POP PUSH2 0x553B DUP3 PUSH2 0x54FA JUMP JUMPDEST PUSH1 0x20 DUP3 ADD SWAP1 POP SWAP2 SWAP1 POP JUMP JUMPDEST PUSH1 0x0 PUSH1 0x20 DUP3 ADD SWAP1 POP DUP2 DUP2 SUB PUSH1 0x0 DUP4 ADD MSTORE PUSH2 0x555F DUP2 PUSH2 0x5523 JUMP JUMPDEST SWAP1 POP SWAP2 SWAP1 POP JUMP JUMPDEST PUSH1 0x0 PUSH1 0xC0 DUP3 ADD SWAP1 POP PUSH2 0x557B PUSH1 0x0 DUP4 ADD DUP10 PUSH2 0x42DE JUMP JUMPDEST PUSH2 0x5588 PUSH1 0x20 DUP4 ADD DUP9 PUSH2 0x3E8C JUMP JUMPDEST PUSH2 0x5595 PUSH1 0x40 DUP4 ADD DUP8 PUSH2 0x42DE JUMP JUMPDEST PUSH2 0x55A2 PUSH1 0x60 DUP4 ADD DUP7 PUSH2 0x42DE JUMP JUMPDEST DUP2 DUP2 SUB PUSH1 0x80 DUP4 ADD MSTORE PUSH2 0x55B4 DUP2 DUP6 PUSH2 0x3F91 JUMP JUMPDEST SWAP1 POP PUSH2 0x55C3 PUSH1 0xA0 DUP4 ADD DUP5 PUSH2 0x42DE JUMP JUMPDEST SWAP8 SWAP7 POP POP POP POP POP POP POP JUMP JUMPDEST PUSH1 0x0 DUP2 SWAP1 POP SWAP2 SWAP1 POP JUMP JUMPDEST PUSH2 0x55E1 DUP2 PUSH2 0x55CE JUMP JUMPDEST DUP2 EQ PUSH2 0x55EC JUMPI PUSH1 0x0 DUP1 REVERT JUMPDEST POP JUMP JUMPDEST PUSH1 0x0 DUP2 MLOAD SWAP1 POP PUSH2 0x55FE DUP2 PUSH2 0x55D8 JUMP JUMPDEST SWAP3 SWAP2 POP POP JUMP JUMPDEST PUSH1 0x0 DUP2 MLOAD SWAP1 POP PUSH2 0x5613 DUP2 PUSH2 0x4308 JUMP JUMPDEST SWAP3 SWAP2 POP POP JUMP JUMPDEST PUSH1 0x0 PUSH2 0x562C PUSH2 0x5627 DUP5 PUSH2 0x41D1 JUMP JUMPDEST PUSH2 0x41B6 JUMP JUMPDEST SWAP1 POP DUP3 DUP2 MSTORE PUSH1 0x20 DUP2 ADD DUP5 DUP5 DUP5 ADD GT ISZERO PUSH2 0x5648 JUMPI PUSH2 0x5647 PUSH2 0x4151 JUMP JUMPDEST JUMPDEST PUSH2 0x5653 DUP5 DUP3 DUP6 PUSH2 0x3EB7 JUMP JUMPDEST POP SWAP4 SWAP3 POP POP POP JUMP JUMPDEST PUSH1 0x0 DUP3 PUSH1 0x1F DUP4 ADD SLT PUSH2 0x5670 JUMPI PUSH2 0x566F PUSH2 0x414C JUMP JUMPDEST JUMPDEST DUP2 MLOAD PUSH2 0x5680 DUP5 DUP3 PUSH1 0x20 DUP7 ADD PUSH2 0x5619 JUMP JUMPDEST SWAP2 POP POP SWAP3 SWAP2 POP POP JUMP JUMPDEST PUSH1 0x0 DUP1 PUSH1 0x0 PUSH1 0x60 DUP5 DUP7 SUB SLT ISZERO PUSH2 0x56A2 JUMPI PUSH2 0x56A1 PUSH2 0x3E1F JUMP JUMPDEST JUMPDEST PUSH1 0x0 PUSH2 0x56B0 DUP7 DUP3 DUP8 ADD PUSH2 0x55EF JUMP JUMPDEST SWAP4 POP POP PUSH1 0x20 PUSH2 0x56C1 DUP7 DUP3 DUP8 ADD PUSH2 0x5604 JUMP JUMPDEST SWAP3 POP POP PUSH1 0x40 DUP5 ADD MLOAD PUSH8 0xFFFFFFFFFFFFFFFF DUP2 GT ISZERO PUSH2 0x56E2 JUMPI PUSH2 0x56E1 PUSH2 0x3E24 JUMP JUMPDEST JUMPDEST PUSH2 0x56EE DUP7 DUP3 DUP8 ADD PUSH2 0x565B JUMP JUMPDEST SWAP2 POP POP SWAP3 POP SWAP3 POP SWAP3 JUMP JUMPDEST PUSH32 0x646174612073697A65206D757374206D61746368206578706563746564000000 PUSH1 0x0 DUP3 ADD MSTORE POP JUMP JUMPDEST PUSH1 0x0 PUSH2 0x572E PUSH1 0x1D DUP4 PUSH2 0x3EA6 JUMP JUMPDEST SWAP2 POP PUSH2 0x5739 DUP3 PUSH2 0x56F8 JUMP JUMPDEST PUSH1 0x20 DUP3 ADD SWAP1 POP SWAP2 SWAP1 POP JUMP JUMPDEST PUSH1 0x0 PUSH1 0x20 DUP3 ADD SWAP1 POP DUP2 DUP2 SUB PUSH1 0x0 DUP4 ADD MSTORE PUSH2 0x575D DUP2 PUSH2 0x5721 JUMP JUMPDEST SWAP1 POP SWAP2 SWAP1 POP JUMP JUMPDEST PUSH32 0x6465616C206661696C656420706F6C69637920636865636B3A20686173207072 PUSH1 0x0 DUP3 ADD MSTORE PUSH32 0x6F766964657220616C726561647920636C61696D65642074686973206369643F PUSH1 0x20 DUP3 ADD MSTORE POP JUMP JUMPDEST PUSH1 0x0 PUSH2 0x57C0 PUSH1 0x40 DUP4 PUSH2 0x3EA6 JUMP JUMPDEST SWAP2 POP PUSH2 0x57CB DUP3 PUSH2 0x5764 JUMP JUMPDEST PUSH1 0x40 DUP3 ADD SWAP1 POP SWAP2 SWAP1 POP JUMP JUMPDEST PUSH1 0x0 PUSH1 0x20 DUP3 ADD SWAP1 POP DUP2 DUP2 SUB PUSH1 0x0 DUP4 ADD MSTORE PUSH2 0x57EF DUP2 PUSH2 0x57B3 JUMP JUMPDEST SWAP1 POP SWAP2 SWAP1 POP JUMP JUMPDEST PUSH32 0x496E76616C69642043424F520000000000000000000000000000000000000000 PUSH1 0x0 DUP3 ADD MSTORE POP JUMP JUMPDEST PUSH1 0x0 PUSH2 0x582C PUSH1 0xC DUP4 PUSH2 0x3EA6 JUMP JUMPDEST SWAP2 POP PUSH2 0x5837 DUP3 PUSH2 0x57F6 JUMP JUMPDEST PUSH1 0x20 DUP3 ADD SWAP1 POP SWAP2 SWAP1 POP JUMP JUMPDEST PUSH1 0x0 PUSH1 0x20 DUP3 ADD SWAP1 POP DUP2 DUP2 SUB PUSH1 0x0 DUP4 ADD MSTORE PUSH2 0x585B DUP2 PUSH2 0x581F JUMP JUMPDEST SWAP1 POP SWAP2 SWAP1 POP JUMP JUMPDEST PUSH32 0x6163746F72206572726F7220636F646520000000000000000000000000000000 DUP2 MSTORE POP JUMP JUMPDEST PUSH1 0x0 PUSH2 0x5893 DUP3 PUSH2 0x5862 JUMP JUMPDEST PUSH1 0x11 DUP3 ADD SWAP2 POP PUSH2 0x58A3 DUP3 DUP5 PUSH2 0x529E JUMP JUMPDEST SWAP2 POP DUP2 SWAP1 POP SWAP3 SWAP2 POP POP JUMP JUMPDEST PUSH32 0x4E487B7100000000000000000000000000000000000000000000000000000000 PUSH1 0x0 MSTORE PUSH1 0x1 PUSH1 0x4 MSTORE PUSH1 0x24 PUSH1 0x0 REVERT JUMPDEST PUSH1 0x0 PUSH2 0x58E8 DUP3 PUSH2 0x3E29 JUMP JUMPDEST SWAP2 POP PUSH2 0x58F3 DUP4 PUSH2 0x3E29 JUMP JUMPDEST SWAP3 POP DUP3 PUSH2 0x5903 JUMPI PUSH2 0x5902 PUSH2 0x53AB JUMP JUMPDEST JUMPDEST DUP3 DUP3 MOD SWAP1 POP SWAP3 SWAP2 POP POP JUMP JUMPDEST PUSH1 0x0 PUSH1 0xC0 DUP3 ADD SWAP1 POP PUSH2 0x5923 PUSH1 0x0 DUP4 ADD DUP10 PUSH2 0x42DE JUMP JUMPDEST PUSH2 0x5930 PUSH1 0x20 DUP4 ADD DUP9 PUSH2 0x3E8C JUMP JUMPDEST PUSH2 0x593D PUSH1 0x40 DUP4 ADD DUP8 PUSH2 0x42DE JUMP JUMPDEST PUSH2 0x594A PUSH1 0x60 DUP4 ADD DUP7 PUSH2 0x42DE JUMP JUMPDEST DUP2 DUP2 SUB PUSH1 0x80 DUP4 ADD MSTORE PUSH2 0x595C DUP2 DUP6 PUSH2 0x3F91 JUMP JUMPDEST SWAP1 POP DUP2 DUP2 SUB PUSH1 0xA0 DUP4 ADD MSTORE PUSH2 0x5970 DUP2 DUP5 PUSH2 0x3F91 JUMP JUMPDEST SWAP1 POP SWAP8 SWAP7 POP POP POP POP POP POP POP JUMP JUMPDEST PUSH1 0x0 DUP2 PUSH1 0x1 SHR SWAP1 POP SWAP2 SWAP1 POP JUMP JUMPDEST PUSH1 0x0 DUP1 DUP3 SWAP2 POP DUP4 SWAP1 POP JUMPDEST PUSH1 0x1 DUP6 GT ISZERO PUSH2 0x59D4 JUMPI DUP1 DUP7 DIV DUP2 GT ISZERO PUSH2 0x59B0 JUMPI PUSH2 0x59AF PUSH2 0x4FF0 JUMP JUMPDEST JUMPDEST PUSH1 0x1 DUP6 AND ISZERO PUSH2 0x59BF JUMPI DUP1 DUP3 MUL SWAP2 POP JUMPDEST DUP1 DUP2 MUL SWAP1 POP PUSH2 0x59CD DUP6 PUSH2 0x597D JUMP JUMPDEST SWAP5 POP PUSH2 0x5994 JUMP JUMPDEST SWAP5 POP SWAP5 SWAP3 POP POP POP JUMP JUMPDEST PUSH1 0x0 DUP3 PUSH2 0x59ED JUMPI PUSH1 0x1 SWAP1 POP PUSH2 0x5AA9 JUMP JUMPDEST DUP2 PUSH2 0x59FB JUMPI PUSH1 0x0 SWAP1 POP PUSH2 0x5AA9 JUMP JUMPDEST DUP2 PUSH1 0x1 DUP2 EQ PUSH2 0x5A11 JUMPI PUSH1 0x2 DUP2 EQ PUSH2 0x5A1B JUMPI PUSH2 0x5A4A JUMP JUMPDEST PUSH1 0x1 SWAP2 POP POP PUSH2 0x5AA9 JUMP JUMPDEST PUSH1 0xFF DUP5 GT ISZERO PUSH2 0x5A2D JUMPI PUSH2 0x5A2C PUSH2 0x4FF0 JUMP JUMPDEST JUMPDEST DUP4 PUSH1 0x2 EXP SWAP2 POP DUP5 DUP3 GT ISZERO PUSH2 0x5A44 JUMPI PUSH2 0x5A43 PUSH2 0x4FF0 JUMP JUMPDEST JUMPDEST POP PUSH2 0x5AA9 JUMP JUMPDEST POP PUSH1 0x20 DUP4 LT PUSH2 0x133 DUP4 LT AND PUSH1 0x4E DUP5 LT PUSH1 0xB DUP5 LT AND OR ISZERO PUSH2 0x5A7F JUMPI DUP3 DUP3 EXP SWAP1 POP DUP4 DUP2 GT ISZERO PUSH2 0x5A7A JUMPI PUSH2 0x5A79 PUSH2 0x4FF0 JUMP JUMPDEST JUMPDEST PUSH2 0x5AA9 JUMP JUMPDEST PUSH2 0x5A8C DUP5 DUP5 DUP5 PUSH1 0x1 PUSH2 0x598A JUMP JUMPDEST SWAP3 POP SWAP1 POP DUP2 DUP5 DIV DUP2 GT ISZERO PUSH2 0x5AA3 JUMPI PUSH2 0x5AA2 PUSH2 0x4FF0 JUMP JUMPDEST JUMPDEST DUP2 DUP2 MUL SWAP1 POP JUMPDEST SWAP4 SWAP3 POP POP POP JUMP JUMPDEST PUSH1 0x0 PUSH2 0x5ABB DUP3 PUSH2 0x3E29 JUMP JUMPDEST SWAP2 POP PUSH2 0x5AC6 DUP4 PUSH2 0x3E29 JUMP JUMPDEST SWAP3 POP PUSH2 0x5AF3 PUSH32 0xFFFFFFFFFFFFFFFFFFFFFFFFFFFFFFFFFFFFFFFFFFFFFFFFFFFFFFFFFFFFFFFF DUP5 DUP5 PUSH2 0x59DD JUMP JUMPDEST SWAP1 POP SWAP3 SWAP2 POP POP JUMP JUMPDEST PUSH32 0x736C6963696E67206F7574206F662072616E6765000000000000000000000000 PUSH1 0x0 DUP3 ADD MSTORE POP JUMP JUMPDEST PUSH1 0x0 PUSH2 0x5B31 PUSH1 0x14 DUP4 PUSH2 0x3EA6 JUMP JUMPDEST SWAP2 POP PUSH2 0x5B3C DUP3 PUSH2 0x5AFB JUMP JUMPDEST PUSH1 0x20 DUP3 ADD SWAP1 POP SWAP2 SWAP1 POP JUMP JUMPDEST PUSH1 0x0 PUSH1 0x20 DUP3 ADD SWAP1 POP DUP2 DUP2 SUB PUSH1 0x0 DUP4 ADD MSTORE PUSH2 0x5B60 DUP2 PUSH2 0x5B24 JUMP JUMPDEST SWAP1 POP SWAP2 SWAP1 POP JUMP INVALID LOG2 PUSH5 0x6970667358 0x22 SLT KECCAK256 JUMPI SWAP16 0x28 EXTCODEHASH PUSH22 0x233A66621766F0F5B117CFA00431ADAED0367B12550 0xA5 DIV SWAP2 0xF8 0x2F PUSH5 0x736F6C6343 STOP ADDMOD 0xD STOP CALLER "
		},
		"gasEstimates": {
			"creation": {
				"codeDepositCost": "4690600",
				"executionCost": "infinite",
				"totalCost": "infinite"
			},
			"external": {
				"DEFAULT_ADMIN_ROLE()": "447",
				"activateDataSetDealBySP(uint64)": "infinite",
				"addDaoMember(address,uint256,string)": "infinite",
				"approveOrRejectDataSet(bytes,uint256)": "infinite",
				"cidProviders(bytes,uint64)": "infinite",
				"cidSet(bytes)": "infinite",
				"cidSizes(bytes)": "infinite",
				"createDataSetDealProposal(string,uint256,uint256,uint256,string,string)": "infinite",
				"dealClient(bytes)": "infinite",
				"dealStorageFees(bytes)": "infinite",
				"deals(bytes)": "infinite",
				"downvoteCIDProposal(uint256)": "infinite",
				"fundings(bytes,address)": "infinite",
				"getDataDaoVotingConfig()": "infinite",
				"getDealState(bytes)": "infinite",
				"getRoleAdmin(bytes32)": "infinite",
				"getaAllProposals()": "infinite",
				"grantRole(bytes32,address)": "infinite",
				"hasRole(bytes32,address)": "3208",
				"hasVotedForProposal(address,uint256)": "3199",
				"isCallerPC(uint256)": "2934",
				"isMember()": "infinite",
				"proposalCount()": "2473",
				"proposals(uint256)": "infinite",
				"renounceRole(bytes32,address)": "infinite",
				"revokeRole(bytes32,address)": "infinite",
				"setDataDaoVotingConfig(uint256,uint256,uint256)": "infinite",
				"supportsInterface(bytes4)": "796",
				"tokenPrice()": "2518",
				"upvoteCIDProposal(uint256)": "infinite",
				"votingconfigs()": "infinite",
				"withdrawReward(bytes)": "infinite"
			}
		},
		"methodIdentifiers": {
			"DEFAULT_ADMIN_ROLE()": "a217fddf",
			"activateDataSetDealBySP(uint64)": "e5fcd6b8",
			"addDaoMember(address,uint256,string)": "c236a6d1",
			"approveOrRejectDataSet(bytes,uint256)": "cef6bcea",
			"cidProviders(bytes,uint64)": "1a7fd6c6",
			"cidSet(bytes)": "3d7650b2",
			"cidSizes(bytes)": "8f8a6d8f",
			"createDataSetDealProposal(string,uint256,uint256,uint256,string,string)": "4675c93a",
			"dealClient(bytes)": "166d4c6f",
			"dealStorageFees(bytes)": "1e7f7e09",
			"deals(bytes)": "b22e8569",
			"downvoteCIDProposal(uint256)": "8f79d511",
			"fundings(bytes,address)": "f4912450",
			"getDataDaoVotingConfig()": "5dd3983a",
			"getDealState(bytes)": "bfbd58fc",
			"getRoleAdmin(bytes32)": "248a9ca3",
			"getaAllProposals()": "aff5bfd8",
			"grantRole(bytes32,address)": "2f2ff15d",
			"hasRole(bytes32,address)": "91d14854",
			"hasVotedForProposal(address,uint256)": "32e08142",
			"isCallerPC(uint256)": "b4e9134c",
			"isMember()": "d02982cf",
			"proposalCount()": "da35c664",
			"proposals(uint256)": "013cf08b",
			"renounceRole(bytes32,address)": "36568abe",
			"revokeRole(bytes32,address)": "d547741f",
			"setDataDaoVotingConfig(uint256,uint256,uint256)": "95f4bae7",
			"supportsInterface(bytes4)": "01ffc9a7",
			"tokenPrice()": "7ff9b596",
			"upvoteCIDProposal(uint256)": "7bb58b8c",
			"votingconfigs()": "f406517d",
			"withdrawReward(bytes)": "6763ccbd"
		}
	},
	"abi": [
		{
			"inputs": [
				{
					"internalType": "address",
					"name": "admin",
					"type": "address"
				},
				{
					"internalType": "contract IERC20",
					"name": "_token",
					"type": "address"
				},
				{
					"internalType": "uint256",
					"name": "_condition",
					"type": "uint256"
				},
				{
					"internalType": "uint256",
					"name": "_minimunApproval",
					"type": "uint256"
				},
				{
					"internalType": "uint256",
					"name": "_votingPeriod",
					"type": "uint256"
				},
				{
					"internalType": "uint256",
					"name": "_tokenPrice",
					"type": "uint256"
				}
			],
			"stateMutability": "nonpayable",
			"type": "constructor"
		},
		{
			"inputs": [],
			"name": "DataDAO_CallerIsNotMember",
			"type": "error"
		},
		{
			"inputs": [],
			"name": "DataDAO__CallerIsNotAdmin",
			"type": "error"
		},
		{
			"inputs": [],
			"name": "DataDAO__DataSizeNotMatched",
			"type": "error"
		},
		{
			"inputs": [],
			"name": "DataDAO__DealProposalPolicyCheckFailed",
			"type": "error"
		},
		{
			"inputs": [],
			"name": "DataDAO__DealProposalWasNotApproved",
			"type": "error"
		},
		{
			"anonymous": false,
			"inputs": [
				{
					"indexed": false,
					"internalType": "address",
					"name": "adminAddress",
					"type": "address"
				}
			],
			"name": "AdminAdded",
			"type": "event"
		},
		{
			"anonymous": false,
			"inputs": [
				{
					"indexed": false,
					"internalType": "bytes",
					"name": "cidraw",
					"type": "bytes"
				},
				{
					"indexed": false,
					"internalType": "uint256",
					"name": "dealStartBlockStamp",
					"type": "uint256"
				},
				{
					"indexed": false,
					"internalType": "uint256",
					"name": "dealDurationInDays",
					"type": "uint256"
				}
			],
			"name": "DealAcivated",
			"type": "event"
		},
		{
			"anonymous": false,
			"inputs": [
				{
					"indexed": false,
					"internalType": "bytes",
					"name": "cidraw",
					"type": "bytes"
				},
				{
					"indexed": false,
					"internalType": "bytes32",
					"name": "decision",
					"type": "bytes32"
				}
			],
			"name": "DealApproval",
			"type": "event"
		},
		{
			"anonymous": false,
			"inputs": [
				{
					"indexed": false,
					"internalType": "bytes",
					"name": "cidraw",
					"type": "bytes"
				},
				{
					"indexed": false,
					"internalType": "uint256",
					"name": "size",
					"type": "uint256"
				}
			],
			"name": "DealProposed",
			"type": "event"
		},
		{
			"anonymous": false,
			"inputs": [
				{
					"indexed": false,
					"internalType": "address",
					"name": "memberAddress",
					"type": "address"
				}
			],
			"name": "MemberAdded",
			"type": "event"
		},
		{
			"anonymous": false,
			"inputs": [
				{
					"indexed": true,
					"internalType": "bytes32",
					"name": "role",
					"type": "bytes32"
				},
				{
					"indexed": true,
					"internalType": "bytes32",
					"name": "previousAdminRole",
					"type": "bytes32"
				},
				{
					"indexed": true,
					"internalType": "bytes32",
					"name": "newAdminRole",
					"type": "bytes32"
				}
			],
			"name": "RoleAdminChanged",
			"type": "event"
		},
		{
			"anonymous": false,
			"inputs": [
				{
					"indexed": true,
					"internalType": "bytes32",
					"name": "role",
					"type": "bytes32"
				},
				{
					"indexed": true,
					"internalType": "address",
					"name": "account",
					"type": "address"
				},
				{
					"indexed": true,
					"internalType": "address",
					"name": "sender",
					"type": "address"
				}
			],
			"name": "RoleGranted",
			"type": "event"
		},
		{
			"anonymous": false,
			"inputs": [
				{
					"indexed": true,
					"internalType": "bytes32",
					"name": "role",
					"type": "bytes32"
				},
				{
					"indexed": true,
					"internalType": "address",
					"name": "account",
					"type": "address"
				},
				{
					"indexed": true,
					"internalType": "address",
					"name": "sender",
					"type": "address"
				}
			],
			"name": "RoleRevoked",
			"type": "event"
		},
		{
			"inputs": [],
			"name": "DEFAULT_ADMIN_ROLE",
			"outputs": [
				{
					"internalType": "bytes32",
					"name": "",
					"type": "bytes32"
				}
			],
			"stateMutability": "view",
			"type": "function"
		},
		{
			"inputs": [
				{
					"internalType": "uint64",
					"name": "_networkDealID",
					"type": "uint64"
				}
			],
			"name": "activateDataSetDealBySP",
			"outputs": [],
			"stateMutability": "nonpayable",
			"type": "function"
		},
		{
			"inputs": [
				{
					"internalType": "address",
					"name": "_memberAddress",
					"type": "address"
				},
				{
					"internalType": "uint256",
					"name": "_tokenbalance",
					"type": "uint256"
				},
				{
					"internalType": "string",
					"name": "_customName",
					"type": "string"
				}
			],
			"name": "addDaoMember",
			"outputs": [],
			"stateMutability": "nonpayable",
			"type": "function"
		},
		{
			"inputs": [
				{
					"internalType": "bytes",
					"name": "_cidraw",
					"type": "bytes"
				},
				{
					"internalType": "uint256",
					"name": "_proposalId",
					"type": "uint256"
				}
			],
			"name": "approveOrRejectDataSet",
			"outputs": [],
			"stateMutability": "nonpayable",
			"type": "function"
		},
		{
			"inputs": [
				{
					"internalType": "bytes",
					"name": "",
					"type": "bytes"
				},
				{
					"internalType": "uint64",
					"name": "",
					"type": "uint64"
				}
			],
			"name": "cidProviders",
			"outputs": [
				{
					"internalType": "bool",
					"name": "",
					"type": "bool"
				}
			],
			"stateMutability": "view",
			"type": "function"
		},
		{
			"inputs": [
				{
					"internalType": "bytes",
					"name": "",
					"type": "bytes"
				}
			],
			"name": "cidSet",
			"outputs": [
				{
					"internalType": "bool",
					"name": "",
					"type": "bool"
				}
			],
			"stateMutability": "view",
			"type": "function"
		},
		{
			"inputs": [
				{
					"internalType": "bytes",
					"name": "",
					"type": "bytes"
				}
			],
			"name": "cidSizes",
			"outputs": [
				{
					"internalType": "uint256",
					"name": "",
					"type": "uint256"
				}
			],
			"stateMutability": "view",
			"type": "function"
		},
		{
			"inputs": [
				{
					"internalType": "string",
					"name": "_cidraw",
					"type": "string"
				},
				{
					"internalType": "uint256",
					"name": "_size",
					"type": "uint256"
				},
				{
					"internalType": "uint256",
					"name": "_dealDurationInDays",
					"type": "uint256"
				},
				{
					"internalType": "uint256",
					"name": "_dealStorageFees",
					"type": "uint256"
				},
				{
					"internalType": "string",
					"name": "_proposalName",
					"type": "string"
				},
				{
					"internalType": "string",
					"name": "_proposalaDescription",
					"type": "string"
				}
			],
			"name": "createDataSetDealProposal",
			"outputs": [],
			"stateMutability": "payable",
			"type": "function"
		},
		{
			"inputs": [
				{
					"internalType": "bytes",
					"name": "",
					"type": "bytes"
				}
			],
			"name": "dealClient",
			"outputs": [
				{
					"internalType": "uint64",
					"name": "",
					"type": "uint64"
				}
			],
			"stateMutability": "view",
			"type": "function"
		},
		{
			"inputs": [
				{
					"internalType": "bytes",
					"name": "",
					"type": "bytes"
				}
			],
			"name": "dealStorageFees",
			"outputs": [
				{
					"internalType": "uint256",
					"name": "",
					"type": "uint256"
				}
			],
			"stateMutability": "view",
			"type": "function"
		},
		{
			"inputs": [
				{
					"internalType": "bytes",
					"name": "",
					"type": "bytes"
				}
			],
			"name": "deals",
			"outputs": [
				{
					"internalType": "address",
					"name": "proposedBy",
					"type": "address"
				},
				{
					"internalType": "bytes",
					"name": "cidraw",
					"type": "bytes"
				},
				{
					"internalType": "uint256",
					"name": "size",
					"type": "uint256"
				},
				{
					"internalType": "uint256",
					"name": "storageFees",
					"type": "uint256"
				},
				{
					"internalType": "uint256",
					"name": "dealStartBlockStamp",
					"type": "uint256"
				},
				{
					"internalType": "uint256",
					"name": "dealDurationInDays",
					"type": "uint256"
				},
				{
					"internalType": "enum IDataDAO.DealState",
					"name": "dealState",
					"type": "uint8"
				}
			],
			"stateMutability": "view",
			"type": "function"
		},
		{
			"inputs": [
				{
					"internalType": "uint256",
					"name": "proposalID",
					"type": "uint256"
				}
			],
			"name": "downvoteCIDProposal",
			"outputs": [],
			"stateMutability": "nonpayable",
			"type": "function"
		},
		{
			"inputs": [
				{
					"internalType": "bytes",
					"name": "",
					"type": "bytes"
				},
				{
					"internalType": "address",
					"name": "",
					"type": "address"
				}
			],
			"name": "fundings",
			"outputs": [
				{
					"internalType": "uint256",
					"name": "",
					"type": "uint256"
				}
			],
			"stateMutability": "view",
			"type": "function"
		},
		{
			"inputs": [],
			"name": "getDataDaoVotingConfig",
			"outputs": [
				{
					"components": [
						{
							"internalType": "uint256",
							"name": "condition",
							"type": "uint256"
						},
						{
							"internalType": "uint256",
							"name": "minimunApproval",
							"type": "uint256"
						},
						{
							"internalType": "uint256",
							"name": "votingPeriod",
							"type": "uint256"
						}
					],
					"internalType": "struct DataDAO.VotingConfig",
					"name": "",
					"type": "tuple"
				}
			],
			"stateMutability": "view",
			"type": "function"
		},
		{
			"inputs": [
				{
					"internalType": "bytes",
					"name": "_cidraw",
					"type": "bytes"
				}
			],
			"name": "getDealState",
			"outputs": [
				{
					"internalType": "enum IDataDAO.DealState",
					"name": "",
					"type": "uint8"
				}
			],
			"stateMutability": "view",
			"type": "function"
		},
		{
			"inputs": [
				{
					"internalType": "bytes32",
					"name": "role",
					"type": "bytes32"
				}
			],
			"name": "getRoleAdmin",
			"outputs": [
				{
					"internalType": "bytes32",
					"name": "",
					"type": "bytes32"
				}
			],
			"stateMutability": "view",
			"type": "function"
		},
		{
			"inputs": [],
			"name": "getaAllProposals",
			"outputs": [
				{
					"components": [
						{
							"internalType": "uint256",
							"name": "proposalID",
							"type": "uint256"
						},
						{
							"internalType": "string",
							"name": "proposalName",
							"type": "string"
						},
						{
							"internalType": "string",
							"name": "proposalDescription",
							"type": "string"
						},
						{
							"internalType": "address",
							"name": "proposalCreator",
							"type": "address"
						},
						{
							"internalType": "bytes",
							"name": "cidraw",
							"type": "bytes"
						},
						{
							"internalType": "uint256",
							"name": "size",
							"type": "uint256"
						},
						{
							"internalType": "uint256",
							"name": "upVoteCount",
							"type": "uint256"
						},
						{
							"internalType": "uint256",
							"name": "downVoteCount",
							"type": "uint256"
						},
						{
							"internalType": "uint256",
							"name": "proposedAt",
							"type": "uint256"
						},
						{
							"internalType": "uint256",
							"name": "proposalExpireAt",
							"type": "uint256"
						},
						{
							"internalType": "string",
							"name": "status",
							"type": "string"
						}
					],
					"internalType": "struct DataDAO.Proposal[]",
					"name": "",
					"type": "tuple[]"
				}
			],
			"stateMutability": "view",
			"type": "function"
		},
		{
			"inputs": [
				{
					"internalType": "bytes32",
					"name": "role",
					"type": "bytes32"
				},
				{
					"internalType": "address",
					"name": "account",
					"type": "address"
				}
			],
			"name": "grantRole",
			"outputs": [],
			"stateMutability": "nonpayable",
			"type": "function"
		},
		{
			"inputs": [
				{
					"internalType": "bytes32",
					"name": "role",
					"type": "bytes32"
				},
				{
					"internalType": "address",
					"name": "account",
					"type": "address"
				}
			],
			"name": "hasRole",
			"outputs": [
				{
					"internalType": "bool",
					"name": "",
					"type": "bool"
				}
			],
			"stateMutability": "view",
			"type": "function"
		},
		{
			"inputs": [
				{
					"internalType": "address",
					"name": "",
					"type": "address"
				},
				{
					"internalType": "uint256",
					"name": "",
					"type": "uint256"
				}
			],
			"name": "hasVotedForProposal",
			"outputs": [
				{
					"internalType": "bool",
					"name": "",
					"type": "bool"
				}
			],
			"stateMutability": "view",
			"type": "function"
		},
		{
			"inputs": [
				{
					"internalType": "uint256",
					"name": "proposalID",
					"type": "uint256"
				}
			],
			"name": "isCallerPC",
			"outputs": [
				{
					"internalType": "bool",
					"name": "",
					"type": "bool"
				}
			],
			"stateMutability": "view",
			"type": "function"
		},
		{
			"inputs": [],
			"name": "isMember",
			"outputs": [
				{
					"internalType": "bool",
					"name": "",
					"type": "bool"
				}
			],
			"stateMutability": "view",
			"type": "function"
		},
		{
			"inputs": [],
			"name": "proposalCount",
			"outputs": [
				{
					"internalType": "uint256",
					"name": "",
					"type": "uint256"
				}
			],
			"stateMutability": "view",
			"type": "function"
		},
		{
			"inputs": [
				{
					"internalType": "uint256",
					"name": "",
					"type": "uint256"
				}
			],
			"name": "proposals",
			"outputs": [
				{
					"internalType": "uint256",
					"name": "proposalID",
					"type": "uint256"
				},
				{
					"internalType": "string",
					"name": "proposalName",
					"type": "string"
				},
				{
					"internalType": "string",
					"name": "proposalDescription",
					"type": "string"
				},
				{
					"internalType": "address",
					"name": "proposalCreator",
					"type": "address"
				},
				{
					"internalType": "bytes",
					"name": "cidraw",
					"type": "bytes"
				},
				{
					"internalType": "uint256",
					"name": "size",
					"type": "uint256"
				},
				{
					"internalType": "uint256",
					"name": "upVoteCount",
					"type": "uint256"
				},
				{
					"internalType": "uint256",
					"name": "downVoteCount",
					"type": "uint256"
				},
				{
					"internalType": "uint256",
					"name": "proposedAt",
					"type": "uint256"
				},
				{
					"internalType": "uint256",
					"name": "proposalExpireAt",
					"type": "uint256"
				},
				{
					"internalType": "string",
					"name": "status",
					"type": "string"
				}
			],
			"stateMutability": "view",
			"type": "function"
		},
		{
			"inputs": [
				{
					"internalType": "bytes32",
					"name": "role",
					"type": "bytes32"
				},
				{
					"internalType": "address",
					"name": "account",
					"type": "address"
				}
			],
			"name": "renounceRole",
			"outputs": [],
			"stateMutability": "nonpayable",
			"type": "function"
		},
		{
			"inputs": [
				{
					"internalType": "bytes32",
					"name": "role",
					"type": "bytes32"
				},
				{
					"internalType": "address",
					"name": "account",
					"type": "address"
				}
			],
			"name": "revokeRole",
			"outputs": [],
			"stateMutability": "nonpayable",
			"type": "function"
		},
		{
			"inputs": [
				{
					"internalType": "uint256",
					"name": "_condition",
					"type": "uint256"
				},
				{
					"internalType": "uint256",
					"name": "_minimunApproval",
					"type": "uint256"
				},
				{
					"internalType": "uint256",
					"name": "_votingPeriod",
					"type": "uint256"
				}
			],
			"name": "setDataDaoVotingConfig",
			"outputs": [],
			"stateMutability": "nonpayable",
			"type": "function"
		},
		{
			"inputs": [
				{
					"internalType": "bytes4",
					"name": "interfaceId",
					"type": "bytes4"
				}
			],
			"name": "supportsInterface",
			"outputs": [
				{
					"internalType": "bool",
					"name": "",
					"type": "bool"
				}
			],
			"stateMutability": "view",
			"type": "function"
		},
		{
			"inputs": [],
			"name": "tokenPrice",
			"outputs": [
				{
					"internalType": "uint256",
					"name": "",
					"type": "uint256"
				}
			],
			"stateMutability": "view",
			"type": "function"
		},
		{
			"inputs": [
				{
					"internalType": "uint256",
					"name": "proposalID",
					"type": "uint256"
				}
			],
			"name": "upvoteCIDProposal",
			"outputs": [],
			"stateMutability": "nonpayable",
			"type": "function"
		},
		{
			"inputs": [],
			"name": "votingconfigs",
			"outputs": [
				{
					"internalType": "uint256",
					"name": "condition",
					"type": "uint256"
				},
				{
					"internalType": "uint256",
					"name": "minimunApproval",
					"type": "uint256"
				},
				{
					"internalType": "uint256",
					"name": "votingPeriod",
					"type": "uint256"
				}
			],
			"stateMutability": "view",
			"type": "function"
		},
		{
			"inputs": [
				{
					"internalType": "bytes",
					"name": "_cidraw",
					"type": "bytes"
				}
			],
			"name": "withdrawReward",
			"outputs": [],
			"stateMutability": "nonpayable",
			"type": "function"
		}
	]
}